{
  "abi": [
    {
      "inputs": [
        {
          "internalType": "address",
          "name": "_defaultAdmin",
          "type": "address"
        },
        {
          "internalType": "string",
          "name": "_name",
          "type": "string"
        },
        {
          "internalType": "string",
          "name": "_symbol",
          "type": "string"
        }
      ],
      "stateMutability": "nonpayable",
      "type": "constructor"
    },
    {
      "anonymous": false,
      "inputs": [
        {
          "indexed": true,
          "internalType": "address",
          "name": "owner",
          "type": "address"
        },
        {
          "indexed": true,
          "internalType": "address",
          "name": "spender",
          "type": "address"
        },
        {
          "indexed": false,
          "internalType": "uint256",
          "name": "value",
          "type": "uint256"
        }
      ],
      "name": "Approval",
      "type": "event"
    },
    {
      "anonymous": false,
      "inputs": [
        {
          "indexed": false,
          "internalType": "string",
          "name": "prevURI",
          "type": "string"
        },
        {
          "indexed": false,
          "internalType": "string",
          "name": "newURI",
          "type": "string"
        }
      ],
      "name": "ContractURIUpdated",
      "type": "event"
    },
    {
      "anonymous": false,
      "inputs": [
        {
          "indexed": true,
          "internalType": "address",
          "name": "prevOwner",
          "type": "address"
        },
        {
          "indexed": true,
          "internalType": "address",
          "name": "newOwner",
          "type": "address"
        }
      ],
      "name": "OwnerUpdated",
      "type": "event"
    },
    {
      "anonymous": false,
      "inputs": [
        {
          "indexed": true,
          "internalType": "bytes32",
          "name": "role",
          "type": "bytes32"
        },
        {
          "indexed": true,
          "internalType": "bytes32",
          "name": "previousAdminRole",
          "type": "bytes32"
        },
        {
          "indexed": true,
          "internalType": "bytes32",
          "name": "newAdminRole",
          "type": "bytes32"
        }
      ],
      "name": "RoleAdminChanged",
      "type": "event"
    },
    {
      "anonymous": false,
      "inputs": [
        {
          "indexed": true,
          "internalType": "bytes32",
          "name": "role",
          "type": "bytes32"
        },
        {
          "indexed": true,
          "internalType": "address",
          "name": "account",
          "type": "address"
        },
        {
          "indexed": true,
          "internalType": "address",
          "name": "sender",
          "type": "address"
        }
      ],
      "name": "RoleGranted",
      "type": "event"
    },
    {
      "anonymous": false,
      "inputs": [
        {
          "indexed": true,
          "internalType": "bytes32",
          "name": "role",
          "type": "bytes32"
        },
        {
          "indexed": true,
          "internalType": "address",
          "name": "account",
          "type": "address"
        },
        {
          "indexed": true,
          "internalType": "address",
          "name": "sender",
          "type": "address"
        }
      ],
      "name": "RoleRevoked",
      "type": "event"
    },
    {
      "anonymous": false,
      "inputs": [
        {
          "indexed": true,
          "internalType": "address",
          "name": "mintedTo",
          "type": "address"
        },
        {
          "indexed": false,
          "internalType": "uint256",
          "name": "quantityMinted",
          "type": "uint256"
        }
      ],
      "name": "TokensMinted",
      "type": "event"
    },
    {
      "anonymous": false,
      "inputs": [
        {
          "indexed": true,
          "internalType": "address",
          "name": "from",
          "type": "address"
        },
        {
          "indexed": true,
          "internalType": "address",
          "name": "to",
          "type": "address"
        },
        {
          "indexed": false,
          "internalType": "uint256",
          "name": "value",
          "type": "uint256"
        }
      ],
      "name": "Transfer",
      "type": "event"
    },
    {
      "inputs": [],
      "name": "DEFAULT_ADMIN_ROLE",
      "outputs": [
        {
          "internalType": "bytes32",
          "name": "",
          "type": "bytes32"
        }
      ],
      "stateMutability": "view",
      "type": "function"
    },
    {
      "inputs": [],
      "name": "DOMAIN_SEPARATOR",
      "outputs": [
        {
          "internalType": "bytes32",
          "name": "",
          "type": "bytes32"
        }
      ],
      "stateMutability": "view",
      "type": "function"
    },
    {
      "inputs": [],
      "name": "TRANSFER_ROLE",
      "outputs": [
        {
          "internalType": "bytes32",
          "name": "",
          "type": "bytes32"
        }
      ],
      "stateMutability": "view",
      "type": "function"
    },
    {
      "inputs": [
        {
          "internalType": "address",
          "name": "owner",
          "type": "address"
        },
        {
          "internalType": "address",
          "name": "spender",
          "type": "address"
        }
      ],
      "name": "allowance",
      "outputs": [
        {
          "internalType": "uint256",
          "name": "",
          "type": "uint256"
        }
      ],
      "stateMutability": "view",
      "type": "function"
    },
    {
      "inputs": [
        {
          "internalType": "address",
          "name": "spender",
          "type": "address"
        },
        {
          "internalType": "uint256",
          "name": "amount",
          "type": "uint256"
        }
      ],
      "name": "approve",
      "outputs": [
        {
          "internalType": "bool",
          "name": "",
          "type": "bool"
        }
      ],
      "stateMutability": "nonpayable",
      "type": "function"
    },
    {
      "inputs": [
        {
          "internalType": "address",
          "name": "account",
          "type": "address"
        }
      ],
      "name": "balanceOf",
      "outputs": [
        {
          "internalType": "uint256",
          "name": "",
          "type": "uint256"
        }
      ],
      "stateMutability": "view",
      "type": "function"
    },
    {
      "inputs": [
        {
          "internalType": "uint256",
          "name": "_amount",
          "type": "uint256"
        }
      ],
      "name": "burn",
      "outputs": [],
      "stateMutability": "nonpayable",
      "type": "function"
    },
    {
      "inputs": [
        {
          "internalType": "address",
          "name": "_account",
          "type": "address"
        },
        {
          "internalType": "uint256",
          "name": "_amount",
          "type": "uint256"
        }
      ],
      "name": "burnFrom",
      "outputs": [],
      "stateMutability": "nonpayable",
      "type": "function"
    },
    {
      "inputs": [],
      "name": "contractURI",
      "outputs": [
        {
          "internalType": "string",
          "name": "",
          "type": "string"
        }
      ],
      "stateMutability": "view",
      "type": "function"
    },
    {
      "inputs": [],
      "name": "decimals",
      "outputs": [
        {
          "internalType": "uint8",
          "name": "",
          "type": "uint8"
        }
      ],
      "stateMutability": "view",
      "type": "function"
    },
    {
      "inputs": [
        {
          "internalType": "address",
          "name": "spender",
          "type": "address"
        },
        {
          "internalType": "uint256",
          "name": "subtractedValue",
          "type": "uint256"
        }
      ],
      "name": "decreaseAllowance",
      "outputs": [
        {
          "internalType": "bool",
          "name": "",
          "type": "bool"
        }
      ],
      "stateMutability": "nonpayable",
      "type": "function"
    },
    {
      "inputs": [
        {
          "internalType": "bytes32",
          "name": "role",
          "type": "bytes32"
        }
      ],
      "name": "getRoleAdmin",
      "outputs": [
        {
          "internalType": "bytes32",
          "name": "",
          "type": "bytes32"
        }
      ],
      "stateMutability": "view",
      "type": "function"
    },
    {
      "inputs": [
        {
          "internalType": "bytes32",
          "name": "role",
          "type": "bytes32"
        },
        {
          "internalType": "uint256",
          "name": "index",
          "type": "uint256"
        }
      ],
      "name": "getRoleMember",
      "outputs": [
        {
          "internalType": "address",
          "name": "member",
          "type": "address"
        }
      ],
      "stateMutability": "view",
      "type": "function"
    },
    {
      "inputs": [
        {
          "internalType": "bytes32",
          "name": "role",
          "type": "bytes32"
        }
      ],
      "name": "getRoleMemberCount",
      "outputs": [
        {
          "internalType": "uint256",
          "name": "count",
          "type": "uint256"
        }
      ],
      "stateMutability": "view",
      "type": "function"
    },
    {
      "inputs": [
        {
          "internalType": "bytes32",
          "name": "role",
          "type": "bytes32"
        },
        {
          "internalType": "address",
          "name": "account",
          "type": "address"
        }
      ],
      "name": "grantRole",
      "outputs": [],
      "stateMutability": "nonpayable",
      "type": "function"
    },
    {
      "inputs": [
        {
          "internalType": "bytes32",
          "name": "role",
          "type": "bytes32"
        },
        {
          "internalType": "address",
          "name": "account",
          "type": "address"
        }
      ],
      "name": "hasRole",
      "outputs": [
        {
          "internalType": "bool",
          "name": "",
          "type": "bool"
        }
      ],
      "stateMutability": "view",
      "type": "function"
    },
    {
      "inputs": [
        {
          "internalType": "bytes32",
          "name": "role",
          "type": "bytes32"
        },
        {
          "internalType": "address",
          "name": "account",
          "type": "address"
        }
      ],
      "name": "hasRoleWithSwitch",
      "outputs": [
        {
          "internalType": "bool",
          "name": "",
          "type": "bool"
        }
      ],
      "stateMutability": "view",
      "type": "function"
    },
    {
      "inputs": [
        {
          "internalType": "address",
          "name": "spender",
          "type": "address"
        },
        {
          "internalType": "uint256",
          "name": "addedValue",
          "type": "uint256"
        }
      ],
      "name": "increaseAllowance",
      "outputs": [
        {
          "internalType": "bool",
          "name": "",
          "type": "bool"
        }
      ],
      "stateMutability": "nonpayable",
      "type": "function"
    },
    {
      "inputs": [
        {
          "internalType": "address",
          "name": "_to",
          "type": "address"
        },
        {
          "internalType": "uint256",
          "name": "_amount",
          "type": "uint256"
        }
      ],
      "name": "mintTo",
      "outputs": [],
      "stateMutability": "nonpayable",
      "type": "function"
    },
    {
      "inputs": [
        {
          "internalType": "bytes[]",
          "name": "data",
          "type": "bytes[]"
        }
      ],
      "name": "multicall",
      "outputs": [
        {
          "internalType": "bytes[]",
          "name": "results",
          "type": "bytes[]"
        }
      ],
      "stateMutability": "nonpayable",
      "type": "function"
    },
    {
      "inputs": [],
      "name": "name",
      "outputs": [
        {
          "internalType": "string",
          "name": "",
          "type": "string"
        }
      ],
      "stateMutability": "view",
      "type": "function"
    },
    {
      "inputs": [
        {
          "internalType": "address",
          "name": "owner",
          "type": "address"
        }
      ],
      "name": "nonces",
      "outputs": [
        {
          "internalType": "uint256",
          "name": "",
          "type": "uint256"
        }
      ],
      "stateMutability": "view",
      "type": "function"
    },
    {
      "inputs": [],
      "name": "owner",
      "outputs": [
        {
          "internalType": "address",
          "name": "",
          "type": "address"
        }
      ],
      "stateMutability": "view",
      "type": "function"
    },
    {
      "inputs": [
        {
          "internalType": "address",
          "name": "owner",
          "type": "address"
        },
        {
          "internalType": "address",
          "name": "spender",
          "type": "address"
        },
        {
          "internalType": "uint256",
          "name": "value",
          "type": "uint256"
        },
        {
          "internalType": "uint256",
          "name": "deadline",
          "type": "uint256"
        },
        {
          "internalType": "uint8",
          "name": "v",
          "type": "uint8"
        },
        {
          "internalType": "bytes32",
          "name": "r",
          "type": "bytes32"
        },
        {
          "internalType": "bytes32",
          "name": "s",
          "type": "bytes32"
        }
      ],
      "name": "permit",
      "outputs": [],
      "stateMutability": "nonpayable",
      "type": "function"
    },
    {
      "inputs": [
        {
          "internalType": "bytes32",
          "name": "role",
          "type": "bytes32"
        },
        {
          "internalType": "address",
          "name": "account",
          "type": "address"
        }
      ],
      "name": "renounceRole",
      "outputs": [],
      "stateMutability": "nonpayable",
      "type": "function"
    },
    {
      "inputs": [
        {
          "internalType": "bytes32",
          "name": "role",
          "type": "bytes32"
        },
        {
          "internalType": "address",
          "name": "account",
          "type": "address"
        }
      ],
      "name": "revokeRole",
      "outputs": [],
      "stateMutability": "nonpayable",
      "type": "function"
    },
    {
      "inputs": [
        {
          "internalType": "string",
          "name": "_uri",
          "type": "string"
        }
      ],
      "name": "setContractURI",
      "outputs": [],
      "stateMutability": "nonpayable",
      "type": "function"
    },
    {
      "inputs": [
        {
          "internalType": "address",
          "name": "_newOwner",
          "type": "address"
        }
      ],
      "name": "setOwner",
      "outputs": [],
      "stateMutability": "nonpayable",
      "type": "function"
    },
    {
      "inputs": [],
      "name": "symbol",
      "outputs": [
        {
          "internalType": "string",
          "name": "",
          "type": "string"
        }
      ],
      "stateMutability": "view",
      "type": "function"
    },
    {
      "inputs": [],
      "name": "totalSupply",
      "outputs": [
        {
          "internalType": "uint256",
          "name": "",
          "type": "uint256"
        }
      ],
      "stateMutability": "view",
      "type": "function"
    },
    {
      "inputs": [
        {
          "internalType": "address",
          "name": "to",
          "type": "address"
        },
        {
          "internalType": "uint256",
          "name": "amount",
          "type": "uint256"
        }
      ],
      "name": "transfer",
      "outputs": [
        {
          "internalType": "bool",
          "name": "",
          "type": "bool"
        }
      ],
      "stateMutability": "nonpayable",
      "type": "function"
    },
    {
      "inputs": [
        {
          "internalType": "address",
          "name": "from",
          "type": "address"
        },
        {
          "internalType": "address",
          "name": "to",
          "type": "address"
        },
        {
          "internalType": "uint256",
          "name": "amount",
          "type": "uint256"
        }
      ],
      "name": "transferFrom",
      "outputs": [
        {
          "internalType": "bool",
          "name": "",
          "type": "bool"
        }
      ],
      "stateMutability": "nonpayable",
      "type": "function"
    }
  ],
  "devdoc": {
    "kind": "dev",
    "methods": {
      "DOMAIN_SEPARATOR()": {
        "details": "See {IERC20Permit-DOMAIN_SEPARATOR}."
      },
      "allowance(address,address)": {
        "details": "See {IERC20-allowance}."
      },
      "approve(address,uint256)": {
        "details": "See {IERC20-approve}. NOTE: If `amount` is the maximum `uint256`, the allowance is not updated on `transferFrom`. This is semantically equivalent to an infinite approval. Requirements: - `spender` cannot be the zero address."
      },
      "balanceOf(address)": {
        "details": "See {IERC20-balanceOf}."
      },
      "burn(uint256)": {
        "details": "Caller should own the `_amount` of tokens.",
        "params": {
          "_amount": "The number of tokens to burn."
        }
      },
      "burnFrom(address,uint256)": {
        "details": "`_account` should own the `_amount` of tokens.",
        "params": {
          "_account": "The account to burn tokens from.",
          "_amount": "The number of tokens to burn."
        }
      },
      "decimals()": {
        "details": "Returns the number of decimals used to get its user representation. For example, if `decimals` equals `2`, a balance of `505` tokens should be displayed to a user as `5.05` (`505 / 10 ** 2`). Tokens usually opt for a value of 18, imitating the relationship between Ether and Wei. This is the value {ERC20} uses, unless this function is overridden; NOTE: This information is only used for _display_ purposes: it in no way affects any of the arithmetic of the contract, including {IERC20-balanceOf} and {IERC20-transfer}."
      },
      "decreaseAllowance(address,uint256)": {
        "details": "Atomically decreases the allowance granted to `spender` by the caller. This is an alternative to {approve} that can be used as a mitigation for problems described in {IERC20-approve}. Emits an {Approval} event indicating the updated allowance. Requirements: - `spender` cannot be the zero address. - `spender` must have allowance for the caller of at least `subtractedValue`."
      },
      "getRoleAdmin(bytes32)": {
        "details": "See {grantRole} and {revokeRole}.                  To change a role's admin, use {_setRoleAdmin}.",
        "params": {
          "role": "keccak256 hash of the role. e.g. keccak256(\"TRANSFER_ROLE\")"
        }
      },
      "getRoleMember(bytes32,uint256)": {
        "details": "Returns `member` who has `role`, at `index` of role-members list.                  See struct {RoleMembers}, and mapping {roleMembers}",
        "params": {
          "index": "Index in list of current members for the role.",
          "role": "keccak256 hash of the role. e.g. keccak256(\"TRANSFER_ROLE\")"
        },
        "returns": {
          "member": " Address of account that has `role`"
        }
      },
      "getRoleMemberCount(bytes32)": {
        "details": "Returns `count` of accounts that have `role`.                  See struct {RoleMembers}, and mapping {roleMembers}",
        "params": {
          "role": "keccak256 hash of the role. e.g. keccak256(\"TRANSFER_ROLE\")"
        },
        "returns": {
          "count": "  Total number of accounts that have `role`"
        }
      },
      "grantRole(bytes32,address)": {
        "details": "Caller must have admin role for the `role`.                  Emits {RoleGranted Event}.",
        "params": {
          "account": "Address of the account to which the role is being granted.",
          "role": "keccak256 hash of the role. e.g. keccak256(\"TRANSFER_ROLE\")"
        }
      },
      "hasRole(bytes32,address)": {
        "details": "Returns `true` if `account` has been granted `role`.",
        "params": {
          "account": "Address of the account for which the role is being checked.",
          "role": "keccak256 hash of the role. e.g. keccak256(\"TRANSFER_ROLE\")"
        }
      },
      "hasRoleWithSwitch(bytes32,address)": {
        "details": "Returns `true` if `account` has been granted `role`.                  Role restrictions can be swtiched on and off:                      - If address(0) has ROLE, then the ROLE restrictions                        don't apply.                      - If address(0) does not have ROLE, then the ROLE                        restrictions will apply.",
        "params": {
          "account": "Address of the account for which the role is being checked.",
          "role": "keccak256 hash of the role. e.g. keccak256(\"TRANSFER_ROLE\")"
        }
      },
      "increaseAllowance(address,uint256)": {
        "details": "Atomically increases the allowance granted to `spender` by the caller. This is an alternative to {approve} that can be used as a mitigation for problems described in {IERC20-approve}. Emits an {Approval} event indicating the updated allowance. Requirements: - `spender` cannot be the zero address."
      },
      "mintTo(address,uint256)": {
        "details": "The logic in the `_canMint` function determines whether the caller is authorized to mint tokens.",
        "params": {
          "_amount": "Quantity of tokens to mint.",
          "_to": "The recipient of the tokens to mint."
        }
      },
      "multicall(bytes[])": {
        "details": "Receives and executes a batch of function calls on this contract.",
        "params": {
          "data": "The bytes data that makes up the batch of function calls to execute."
        },
        "returns": {
          "results": "The bytes data that makes up the result of the batch of function calls executed."
        }
      },
      "name()": {
        "details": "Returns the name of the token."
      },
      "nonces(address)": {
        "details": "See {IERC20Permit-nonces}."
      },
      "permit(address,address,uint256,uint256,uint8,bytes32,bytes32)": {
        "details": "See {IERC20Permit-permit}."
      },
      "renounceRole(bytes32,address)": {
        "details": "Caller must have the `role`, with caller being the same as `account`.                  Emits {RoleRevoked Event}.",
        "params": {
          "account": "Address of the account from which the role is being revoked.",
          "role": "keccak256 hash of the role. e.g. keccak256(\"TRANSFER_ROLE\")"
        }
      },
      "revokeRole(bytes32,address)": {
        "details": "Caller must have admin role for the `role`.                  Emits {RoleRevoked Event}.",
        "params": {
          "account": "Address of the account from which the role is being revoked.",
          "role": "keccak256 hash of the role. e.g. keccak256(\"TRANSFER_ROLE\")"
        }
      },
      "setContractURI(string)": {
        "details": "Caller should be authorized to setup contractURI, e.g. contract admin.                  See {_canSetContractURI}.                  Emits {ContractURIUpdated Event}.",
        "params": {
          "_uri": "keccak256 hash of the role. e.g. keccak256(\"TRANSFER_ROLE\")"
        }
      },
      "setOwner(address)": {
        "params": {
          "_newOwner": "The address to set as the new owner of the contract."
        }
      },
      "symbol()": {
        "details": "Returns the symbol of the token, usually a shorter version of the name."
      },
      "totalSupply()": {
        "details": "See {IERC20-totalSupply}."
      },
      "transfer(address,uint256)": {
        "details": "See {IERC20-transfer}. Requirements: - `to` cannot be the zero address. - the caller must have a balance of at least `amount`."
      },
      "transferFrom(address,address,uint256)": {
        "details": "See {IERC20-transferFrom}. Emits an {Approval} event indicating the updated allowance. This is not required by the EIP. See the note at the beginning of {ERC20}. NOTE: Does not update the allowance if the current allowance is the maximum `uint256`. Requirements: - `from` and `to` cannot be the zero address. - `from` must have a balance of at least `amount`. - the caller must have allowance for ``from``'s tokens of at least `amount`."
      }
    },
    "version": 1
  },
  "evm": {
    "assembly": "    /* \"erc20.sol\":187:1289  contract MyToken is ERC20Base, PermissionsEnumerable {... */\n  mstore(0x40, 0x0100)\n    /* \"@thirdweb-dev/contracts/external-deps/openzeppelin/token/ERC20/extensions/ERC20Permit.sol\":1443:1538   */\n  0x6e71edae12b1b97f4d1f60370fef10105fa2faae0126114a169c64845d6126c9\n    /* \"@thirdweb-dev/contracts/external-deps/openzeppelin/token/ERC20/extensions/ERC20Permit.sol\":1390:1538   */\n  0xe0\n  mstore\n    /* \"erc20.sol\":322:655  constructor(... */\n  callvalue\n  dup1\n  iszero\n  tag_1\n  jumpi\n  0x00\n  dup1\n  revert\ntag_1:\n  pop\n  mload(0x40)\n  sub(codesize, bytecodeSize)\n  dup1\n  bytecodeSize\n  dup4\n  codecopy\n  dup2\n  add\n  0x40\n  dup2\n  swap1\n  mstore\n  tag_2\n  swap2\n  tag_3\n  jump\t// in\ntag_2:\n    /* \"erc20.sol\":468:481  _defaultAdmin */\n  dup3\n    /* \"erc20.sol\":496:501  _name */\n  dup3\n    /* \"erc20.sol\":516:523  _symbol */\n  dup3\n    /* \"erc20.sol\":496:501  _name */\n  dup2\n    /* \"erc20.sol\":516:523  _symbol */\n  dup2\n    /* \"erc20.sol\":496:501  _name */\n  dup2\n    /* \"erc20.sol\":516:523  _symbol */\n  dup2\n    /* \"@thirdweb-dev/contracts/external-deps/openzeppelin/token/ERC20/ERC20.sol\":2081:2086   */\n  0x05\n    /* \"@thirdweb-dev/contracts/external-deps/openzeppelin/token/ERC20/ERC20.sol\":2081:2094   */\n  tag_9\n    /* \"erc20.sol\":496:501  _name */\n  dup4\n    /* \"@thirdweb-dev/contracts/external-deps/openzeppelin/token/ERC20/ERC20.sol\":2081:2086   */\n  dup3\n    /* \"@thirdweb-dev/contracts/external-deps/openzeppelin/token/ERC20/ERC20.sol\":2081:2094   */\n  tag_10\n  jump\t// in\ntag_9:\n  pop\n    /* \"@thirdweb-dev/contracts/external-deps/openzeppelin/token/ERC20/ERC20.sol\":2104:2111   */\n  0x06\n    /* \"@thirdweb-dev/contracts/external-deps/openzeppelin/token/ERC20/ERC20.sol\":2104:2121   */\n  tag_11\n    /* \"@thirdweb-dev/contracts/external-deps/openzeppelin/token/ERC20/ERC20.sol\":2114:2121   */\n  dup3\n    /* \"@thirdweb-dev/contracts/external-deps/openzeppelin/token/ERC20/ERC20.sol\":2104:2111   */\n  dup3\n    /* \"@thirdweb-dev/contracts/external-deps/openzeppelin/token/ERC20/ERC20.sol\":2104:2121   */\n  tag_10\n  jump\t// in\ntag_11:\n  pop\n  pop\n    /* \"@thirdweb-dev/contracts/external-deps/openzeppelin/token/ERC20/extensions/ERC20Permit.sol\":1877:1890   */\n  chainid\n    /* \"@thirdweb-dev/contracts/external-deps/openzeppelin/token/ERC20/extensions/ERC20Permit.sol\":1858:1890   */\n  0xa0\n  mstore\n  pop\n    /* \"@thirdweb-dev/contracts/external-deps/openzeppelin/token/ERC20/extensions/ERC20Permit.sol\":1923:1927   */\n  address\n    /* \"@thirdweb-dev/contracts/external-deps/openzeppelin/token/ERC20/extensions/ERC20Permit.sol\":1900:1928   */\n  0xc0\n  mstore\n    /* \"@thirdweb-dev/contracts/external-deps/openzeppelin/token/ERC20/extensions/ERC20Permit.sol\":1965:1988   */\n  tag_13\n    /* \"@thirdweb-dev/contracts/external-deps/openzeppelin/token/ERC20/extensions/ERC20Permit.sol\":1965:1986   */\n  tag_14\n    /* \"@thirdweb-dev/contracts/external-deps/openzeppelin/token/ERC20/extensions/ERC20Permit.sol\":1965:1988   */\n  jump\t// in\ntag_13:\n    /* \"@thirdweb-dev/contracts/external-deps/openzeppelin/token/ERC20/extensions/ERC20Permit.sol\":1938:1988   */\n  0x80\n  mstore\n  pop\n    /* \"@thirdweb-dev/contracts/base/ERC20Base.sol\":1459:1485   */\n  tag_16\n  swap1\n  pop\n    /* \"@thirdweb-dev/contracts/base/ERC20Base.sol\":1471:1484   */\n  dup4\n    /* \"@thirdweb-dev/contracts/base/ERC20Base.sol\":1459:1470   */\n  tag_17\n    /* \"@thirdweb-dev/contracts/base/ERC20Base.sol\":1459:1485   */\n  jump\t// in\ntag_16:\n  pop\n    /* \"erc20.sol\":551:596  _setupRole(DEFAULT_ADMIN_ROLE, _defaultAdmin) */\n  tag_19\n  swap2\n  pop\n    /* \"@thirdweb-dev/contracts/extension/Permissions.sol\":787:791   */\n  0x00\n  swap1\n  pop\n    /* \"erc20.sol\":582:595  _defaultAdmin */\n  dup5\n    /* \"erc20.sol\":551:561  _setupRole */\n  tag_20\n    /* \"erc20.sol\":551:596  _setupRole(DEFAULT_ADMIN_ROLE, _defaultAdmin) */\n  jump\t// in\ntag_19:\n    /* \"erc20.sol\":607:647  _setupRole(TRANSFER_ROLE, _defaultAdmin) */\n  tag_21\n    /* \"erc20.sol\":287:313  keccak256(\"TRANSFER_ROLE\") */\n  0x8502233096d909befbda0999bb8ea2f3a6be3c138b9fbf003752a4c8bce86f6c\n    /* \"erc20.sol\":633:646  _defaultAdmin */\n  dup5\n    /* \"erc20.sol\":607:617  _setupRole */\n  tag_20\n    /* \"erc20.sol\":607:647  _setupRole(TRANSFER_ROLE, _defaultAdmin) */\n  jump\t// in\ntag_21:\n    /* \"erc20.sol\":322:655  constructor(... */\n  pop\n  pop\n  pop\n    /* \"erc20.sol\":187:1289  contract MyToken is ERC20Base, PermissionsEnumerable {... */\n  jump(tag_50)\n    /* \"@thirdweb-dev/contracts/external-deps/openzeppelin/token/ERC20/extensions/ERC20Permit.sol\":3296:3734   */\ntag_14:\n    /* \"@thirdweb-dev/contracts/external-deps/openzeppelin/token/ERC20/extensions/ERC20Permit.sol\":3351:3358   */\n  0x00\n    /* \"@thirdweb-dev/contracts/external-deps/openzeppelin/token/ERC20/extensions/ERC20Permit.sol\":3448:3543   */\n  0x8b73c3c69bb8fe3d512ecc4cf759cc79239f7b179b0ffacaa9a75d522b39400f\n    /* \"@thirdweb-dev/contracts/external-deps/openzeppelin/token/ERC20/extensions/ERC20Permit.sol\":3581:3587   */\n  tag_24\n    /* \"@thirdweb-dev/contracts/external-deps/openzeppelin/token/ERC20/extensions/ERC20Permit.sol\":3581:3585   */\n  tag_25\n    /* \"@thirdweb-dev/contracts/external-deps/openzeppelin/token/ERC20/extensions/ERC20Permit.sol\":3581:3587   */\n  jump\t// in\ntag_24:\n    /* \"@thirdweb-dev/contracts/external-deps/openzeppelin/token/ERC20/extensions/ERC20Permit.sol\":3565:3589   */\n  dup1\n  mload\n  0x20\n  swap2\n  dup3\n  add\n  keccak256\n    /* \"@thirdweb-dev/contracts/external-deps/openzeppelin/token/ERC20/extensions/ERC20Permit.sol\":3416:3713   */\n  0x40\n  dup1\n  mload\n  swap3\n  dup4\n  add\n    /* \"#utility.yul\":4573:4598   */\n  swap4\n  swap1\n  swap4\n  mstore\n    /* \"#utility.yul\":4614:4632   */\n  swap2\n  dup2\n  add\n    /* \"#utility.yul\":4607:4641   */\n  swap2\n  swap1\n  swap2\n  mstore\n    /* \"@thirdweb-dev/contracts/external-deps/openzeppelin/token/ERC20/extensions/ERC20Permit.sol\":3611:3625   */\n  0xc89efdaa54c0f20c7adf612882df0950f5a951637e0307cdcb4c672f298b8bc6\n    /* \"#utility.yul\":4657:4675   */\n  0x60\n  dup3\n  add\n    /* \"#utility.yul\":4650:4684   */\n  mstore\n    /* \"@thirdweb-dev/contracts/external-deps/openzeppelin/token/ERC20/extensions/ERC20Permit.sol\":3647:3660   */\n  chainid\n    /* \"#utility.yul\":4700:4718   */\n  0x80\n  dup3\n  add\n    /* \"#utility.yul\":4693:4727   */\n  mstore\n    /* \"@thirdweb-dev/contracts/external-deps/openzeppelin/token/ERC20/extensions/ERC20Permit.sol\":3690:3694   */\n  address\n    /* \"#utility.yul\":4743:4762   */\n  0xa0\n  dup3\n  add\n    /* \"#utility.yul\":4736:4797   */\n  mstore\n    /* \"#utility.yul\":4545:4564   */\n  0xc0\n  add\n    /* \"@thirdweb-dev/contracts/external-deps/openzeppelin/token/ERC20/extensions/ERC20Permit.sol\":3416:3713   */\n  mload(0x40)\n  0x20\n  dup2\n  dup4\n  sub\n  sub\n  dup2\n  mstore\n  swap1\n  0x40\n  mstore\n    /* \"@thirdweb-dev/contracts/external-deps/openzeppelin/token/ERC20/extensions/ERC20Permit.sol\":3389:3727   */\n  dup1\n  mload\n  swap1\n  0x20\n  add\n  keccak256\n    /* \"@thirdweb-dev/contracts/external-deps/openzeppelin/token/ERC20/extensions/ERC20Permit.sol\":3370:3727   */\n  swap1\n  pop\n    /* \"@thirdweb-dev/contracts/external-deps/openzeppelin/token/ERC20/extensions/ERC20Permit.sol\":3296:3734   */\n  swap1\n  jump\t// out\n    /* \"@thirdweb-dev/contracts/extension/Ownable.sol\":1421:1593   */\ntag_17:\n    /* \"@thirdweb-dev/contracts/extension/Ownable.sol\":1501:1507   */\n  0x01\n  dup1\n  sload\n  sub(shl(0xa0, 0x01), 0x01)\n    /* \"@thirdweb-dev/contracts/extension/Ownable.sol\":1517:1535   */\n  dup4\n  dup2\n  and\n  not(sub(shl(0xa0, 0x01), 0x01))\n  dup4\n  and\n  dup2\n  or\n  swap1\n  swap4\n  sstore\n    /* \"@thirdweb-dev/contracts/extension/Ownable.sol\":1551:1586   */\n  mload(0x40)\n    /* \"@thirdweb-dev/contracts/extension/Ownable.sol\":1501:1507   */\n  swap2\n  and\n  swap2\n    /* \"@thirdweb-dev/contracts/extension/Ownable.sol\":1517:1535   */\n  swap1\n    /* \"@thirdweb-dev/contracts/extension/Ownable.sol\":1501:1507   */\n  dup3\n  swap1\n    /* \"@thirdweb-dev/contracts/extension/Ownable.sol\":1551:1586   */\n  0x8292fce18fa69edf4db7b94ea2e58241df0ae57f97e0a6c9b29067028bf92d76\n  swap1\n    /* \"@thirdweb-dev/contracts/extension/Ownable.sol\":1480:1498   */\n  0x00\n  swap1\n    /* \"@thirdweb-dev/contracts/extension/Ownable.sol\":1551:1586   */\n  log3\n    /* \"@thirdweb-dev/contracts/extension/Ownable.sol\":1470:1593   */\n  pop\n    /* \"@thirdweb-dev/contracts/extension/Ownable.sol\":1421:1593   */\n  pop\n  jump\t// out\n    /* \"@thirdweb-dev/contracts/extension/PermissionsEnumerable.sol\":3475:3627   */\ntag_20:\n    /* \"@thirdweb-dev/contracts/extension/PermissionsEnumerable.sol\":3554:3585   */\n  tag_30\n    /* \"@thirdweb-dev/contracts/extension/PermissionsEnumerable.sol\":3571:3575   */\n  dup3\n    /* \"@thirdweb-dev/contracts/extension/PermissionsEnumerable.sol\":3577:3584   */\n  dup3\n    /* \"@thirdweb-dev/contracts/extension/PermissionsEnumerable.sol\":3554:3570   */\n  or(tag_0_170, shl(0x20, tag_31))\n    /* \"@thirdweb-dev/contracts/extension/PermissionsEnumerable.sol\":3554:3585   */\n  0x20\n  shr\n  jump\t// in\ntag_30:\n    /* \"@thirdweb-dev/contracts/extension/PermissionsEnumerable.sol\":3595:3620   */\n  tag_32\n    /* \"@thirdweb-dev/contracts/extension/PermissionsEnumerable.sol\":3606:3610   */\n  dup3\n    /* \"@thirdweb-dev/contracts/extension/PermissionsEnumerable.sol\":3612:3619   */\n  dup3\n    /* \"@thirdweb-dev/contracts/extension/PermissionsEnumerable.sol\":3595:3605   */\n  tag_33\n    /* \"@thirdweb-dev/contracts/extension/PermissionsEnumerable.sol\":3595:3620   */\n  jump\t// in\ntag_32:\n    /* \"@thirdweb-dev/contracts/extension/PermissionsEnumerable.sol\":3475:3627   */\n  pop\n  pop\n  jump\t// out\n    /* \"@thirdweb-dev/contracts/external-deps/openzeppelin/token/ERC20/ERC20.sol\":2193:2291   */\ntag_25:\n    /* \"@thirdweb-dev/contracts/external-deps/openzeppelin/token/ERC20/ERC20.sol\":2247:2260   */\n  0x60\n    /* \"@thirdweb-dev/contracts/external-deps/openzeppelin/token/ERC20/ERC20.sol\":2279:2284   */\n  0x05\n    /* \"@thirdweb-dev/contracts/external-deps/openzeppelin/token/ERC20/ERC20.sol\":2272:2284   */\n  dup1\n  sload\n  tag_35\n  swap1\n  tag_36\n  jump\t// in\ntag_35:\n  dup1\n  0x1f\n  add\n  0x20\n  dup1\n  swap2\n  div\n  mul\n  0x20\n  add\n  mload(0x40)\n  swap1\n  dup2\n  add\n  0x40\n  mstore\n  dup1\n  swap3\n  swap2\n  swap1\n  dup2\n  dup2\n  mstore\n  0x20\n  add\n  dup3\n  dup1\n  sload\n  tag_37\n  swap1\n  tag_36\n  jump\t// in\ntag_37:\n  dup1\n  iszero\n  tag_38\n  jumpi\n  dup1\n  0x1f\n  lt\n  tag_39\n  jumpi\n  0x0100\n  dup1\n  dup4\n  sload\n  div\n  mul\n  dup4\n  mstore\n  swap2\n  0x20\n  add\n  swap2\n  jump(tag_38)\ntag_39:\n  dup3\n  add\n  swap2\n  swap1\n  0x00\n  mstore\n  keccak256(0x00, 0x20)\n  swap1\ntag_40:\n  dup2\n  sload\n  dup2\n  mstore\n  swap1\n  0x01\n  add\n  swap1\n  0x20\n  add\n  dup1\n  dup4\n  gt\n  tag_40\n  jumpi\n  dup3\n  swap1\n  sub\n  0x1f\n  and\n  dup3\n  add\n  swap2\ntag_38:\n  pop\n  pop\n  pop\n  pop\n  pop\n  swap1\n  pop\n    /* \"@thirdweb-dev/contracts/external-deps/openzeppelin/token/ERC20/ERC20.sol\":2193:2291   */\n  swap1\n  jump\t// out\n    /* \"@thirdweb-dev/contracts/extension/Permissions.sol\":5036:5204   */\ntag_31:\n    /* \"@thirdweb-dev/contracts/extension/Permissions.sol\":5114:5128   */\n  0x00\n  dup3\n  dup2\n  mstore\n    /* \"@thirdweb-dev/contracts/extension/Permissions.sol\":5114:5122   */\n  0x08\n    /* \"@thirdweb-dev/contracts/extension/Permissions.sol\":5114:5128   */\n  0x20\n  swap1\n  dup2\n  mstore\n  0x40\n  dup1\n  dup4\n  keccak256\n  sub(shl(0xa0, 0x01), 0x01)\n    /* \"@thirdweb-dev/contracts/extension/Permissions.sol\":5114:5137   */\n  dup6\n  and\n  dup1\n  dup6\n  mstore\n  swap3\n  mstore\n  dup1\n  dup4\n  keccak256\n    /* \"@thirdweb-dev/contracts/extension/Permissions.sol\":5114:5144   */\n  dup1\n  sload\n  not(0xff)\n  and\n    /* \"@thirdweb-dev/contracts/extension/Permissions.sol\":5140:5144   */\n  0x01\n    /* \"@thirdweb-dev/contracts/extension/Permissions.sol\":5114:5144   */\n  or\n  swap1\n  sstore\n    /* \"@thirdweb-dev/contracts/extension/Permissions.sol\":5159:5197   */\n  mload\n    /* \"@thirdweb-dev/contracts/extension/Permissions.sol\":5186:5196   */\n  caller\n  swap3\n    /* \"@thirdweb-dev/contracts/extension/Permissions.sol\":5123:5127   */\n  dup6\n  swap2\n    /* \"@thirdweb-dev/contracts/extension/Permissions.sol\":5159:5197   */\n  0x2f8788117e7eff1d82e926ec794901d17c78024a50270940304540a733656f0d\n  swap2\n    /* \"@thirdweb-dev/contracts/extension/Permissions.sol\":5114:5128   */\n  swap1\n    /* \"@thirdweb-dev/contracts/extension/Permissions.sol\":5159:5197   */\n  log4\n    /* \"@thirdweb-dev/contracts/extension/Permissions.sol\":5036:5204   */\n  pop\n  pop\n  jump\t// out\n    /* \"@thirdweb-dev/contracts/extension/PermissionsEnumerable.sol\":3690:3943   */\ntag_33:\n    /* \"@thirdweb-dev/contracts/extension/PermissionsEnumerable.sol\":3760:3771   */\n  0x00\n    /* \"@thirdweb-dev/contracts/extension/PermissionsEnumerable.sol\":3774:3791   */\n  dup3\n  dup2\n  mstore\n    /* \"@thirdweb-dev/contracts/extension/PermissionsEnumerable.sol\":3774:3785   */\n  0x0a\n    /* \"@thirdweb-dev/contracts/extension/PermissionsEnumerable.sol\":3774:3791   */\n  0x20\n  mstore\n  0x40\n  dup2\n  keccak256\n    /* \"@thirdweb-dev/contracts/extension/PermissionsEnumerable.sol\":3774:3797   */\n  dup1\n  sload\n  swap2\n    /* \"@thirdweb-dev/contracts/extension/PermissionsEnumerable.sol\":3834:3835   */\n  0x01\n  swap2\n    /* \"@thirdweb-dev/contracts/extension/PermissionsEnumerable.sol\":3774:3791   */\n  swap1\n    /* \"@thirdweb-dev/contracts/extension/PermissionsEnumerable.sol\":3807:3835   */\n  tag_43\n    /* \"@thirdweb-dev/contracts/extension/PermissionsEnumerable.sol\":3834:3835   */\n  dup4\n    /* \"@thirdweb-dev/contracts/extension/PermissionsEnumerable.sol\":3774:3797   */\n  dup6\n    /* \"@thirdweb-dev/contracts/extension/PermissionsEnumerable.sol\":3807:3835   */\n  tag_44\n  jump\t// in\ntag_43:\n  swap1\n  swap2\n  sstore\n  pop\n  pop\n    /* \"@thirdweb-dev/contracts/extension/PermissionsEnumerable.sol\":3846:3863   */\n  0x00\n  swap3\n  dup4\n  mstore\n    /* \"@thirdweb-dev/contracts/extension/PermissionsEnumerable.sol\":3846:3857   */\n  0x0a\n    /* \"@thirdweb-dev/contracts/extension/PermissionsEnumerable.sol\":3846:3863   */\n  0x20\n  swap1\n  dup2\n  mstore\n  0x40\n  dup1\n  dup6\n  keccak256\n    /* \"@thirdweb-dev/contracts/extension/PermissionsEnumerable.sol\":3846:3876   */\n  dup4\n  dup7\n  mstore\n    /* \"@thirdweb-dev/contracts/extension/PermissionsEnumerable.sol\":3846:3871   */\n  0x01\n  dup2\n  add\n    /* \"@thirdweb-dev/contracts/extension/PermissionsEnumerable.sol\":3846:3876   */\n  dup4\n  mstore\n  dup2\n  dup7\n  keccak256\n    /* \"@thirdweb-dev/contracts/extension/PermissionsEnumerable.sol\":3846:3886   */\n  dup1\n  sload\n  sub(shl(0xa0, 0x01), 0x01)\n  swap1\n  swap7\n  and\n  not(sub(shl(0xa0, 0x01), 0x01))\n  swap1\n  swap7\n  and\n  dup7\n  or\n  swap1\n  sstore\n    /* \"@thirdweb-dev/contracts/extension/PermissionsEnumerable.sol\":3896:3930   */\n  swap4\n  dup6\n  mstore\n    /* \"@thirdweb-dev/contracts/extension/PermissionsEnumerable.sol\":3896:3921   */\n  0x02\n  swap1\n  swap4\n  add\n    /* \"@thirdweb-dev/contracts/extension/PermissionsEnumerable.sol\":3896:3930   */\n  swap1\n  mstore\n  swap2\n  keccak256\n    /* \"@thirdweb-dev/contracts/extension/PermissionsEnumerable.sol\":3896:3936   */\n  sstore\n    /* \"@thirdweb-dev/contracts/extension/PermissionsEnumerable.sol\":3690:3943   */\n  jump\t// out\n    /* \"#utility.yul\":14:141   */\ntag_45:\n    /* \"#utility.yul\":75:85   */\n  0x4e487b71\n    /* \"#utility.yul\":70:73   */\n  0xe0\n    /* \"#utility.yul\":66:86   */\n  shl\n    /* \"#utility.yul\":63:64   */\n  0x00\n    /* \"#utility.yul\":56:87   */\n  mstore\n    /* \"#utility.yul\":106:110   */\n  0x41\n    /* \"#utility.yul\":103:104   */\n  0x04\n    /* \"#utility.yul\":96:111   */\n  mstore\n    /* \"#utility.yul\":130:134   */\n  0x24\n    /* \"#utility.yul\":127:128   */\n  0x00\n    /* \"#utility.yul\":120:135   */\n  revert\n    /* \"#utility.yul\":146:986   */\ntag_46:\n    /* \"#utility.yul\":200:205   */\n  0x00\n    /* \"#utility.yul\":253:256   */\n  dup3\n    /* \"#utility.yul\":246:250   */\n  0x1f\n    /* \"#utility.yul\":238:244   */\n  dup4\n    /* \"#utility.yul\":234:251   */\n  add\n    /* \"#utility.yul\":230:257   */\n  slt\n    /* \"#utility.yul\":220:275   */\n  tag_53\n  jumpi\n    /* \"#utility.yul\":271:272   */\n  0x00\n    /* \"#utility.yul\":268:269   */\n  dup1\n    /* \"#utility.yul\":261:273   */\n  revert\n    /* \"#utility.yul\":220:275   */\ntag_53:\n    /* \"#utility.yul\":294:307   */\n  dup2\n  mload\n  sub(shl(0x40, 0x01), 0x01)\n    /* \"#utility.yul\":356:366   */\n  dup1\n  dup3\n  gt\n    /* \"#utility.yul\":353:389   */\n  iszero\n  tag_55\n  jumpi\n    /* \"#utility.yul\":369:387   */\n  tag_55\n  tag_45\n  jump\t// in\ntag_55:\n    /* \"#utility.yul\":444:446   */\n  0x40\n    /* \"#utility.yul\":438:447   */\n  mload\n    /* \"#utility.yul\":412:414   */\n  0x1f\n    /* \"#utility.yul\":498:511   */\n  dup4\n  add\n  not(0x1f)\n    /* \"#utility.yul\":494:516   */\n  swap1\n  dup2\n  and\n    /* \"#utility.yul\":518:520   */\n  0x3f\n    /* \"#utility.yul\":490:521   */\n  add\n    /* \"#utility.yul\":486:526   */\n  and\n    /* \"#utility.yul\":474:527   */\n  dup2\n  add\n  swap1\n    /* \"#utility.yul\":542:560   */\n  dup3\n  dup3\n  gt\n    /* \"#utility.yul\":562:584   */\n  dup2\n  dup4\n  lt\n    /* \"#utility.yul\":539:585   */\n  or\n    /* \"#utility.yul\":536:608   */\n  iszero\n  tag_57\n  jumpi\n    /* \"#utility.yul\":588:606   */\n  tag_57\n  tag_45\n  jump\t// in\ntag_57:\n    /* \"#utility.yul\":628:638   */\n  dup2\n    /* \"#utility.yul\":624:626   */\n  0x40\n    /* \"#utility.yul\":617:639   */\n  mstore\n    /* \"#utility.yul\":663:665   */\n  dup4\n    /* \"#utility.yul\":655:661   */\n  dup2\n    /* \"#utility.yul\":648:666   */\n  mstore\n    /* \"#utility.yul\":685:689   */\n  0x20\n    /* \"#utility.yul\":675:689   */\n  swap3\n  pop\n    /* \"#utility.yul\":730:733   */\n  dup7\n    /* \"#utility.yul\":725:727   */\n  dup4\n    /* \"#utility.yul\":720:722   */\n  dup6\n    /* \"#utility.yul\":712:718   */\n  dup9\n    /* \"#utility.yul\":708:723   */\n  add\n    /* \"#utility.yul\":704:728   */\n  add\n    /* \"#utility.yul\":701:734   */\n  gt\n    /* \"#utility.yul\":698:751   */\n  iszero\n  tag_58\n  jumpi\n    /* \"#utility.yul\":747:748   */\n  0x00\n    /* \"#utility.yul\":744:745   */\n  dup1\n    /* \"#utility.yul\":737:749   */\n  revert\n    /* \"#utility.yul\":698:751   */\ntag_58:\n    /* \"#utility.yul\":769:770   */\n  0x00\n    /* \"#utility.yul\":760:770   */\n  swap2\n  pop\n    /* \"#utility.yul\":779:912   */\ntag_59:\n    /* \"#utility.yul\":793:795   */\n  dup4\n    /* \"#utility.yul\":790:791   */\n  dup3\n    /* \"#utility.yul\":787:796   */\n  lt\n    /* \"#utility.yul\":779:912   */\n  iszero\n  tag_61\n  jumpi\n    /* \"#utility.yul\":881:895   */\n  dup6\n  dup3\n  add\n    /* \"#utility.yul\":877:900   */\n  dup4\n  add\n    /* \"#utility.yul\":871:901   */\n  mload\n    /* \"#utility.yul\":850:864   */\n  dup2\n  dup4\n  add\n    /* \"#utility.yul\":846:869   */\n  dup5\n  add\n    /* \"#utility.yul\":839:902   */\n  mstore\n    /* \"#utility.yul\":804:814   */\n  swap1\n  dup3\n  add\n  swap1\n    /* \"#utility.yul\":779:912   */\n  jump(tag_59)\ntag_61:\n    /* \"#utility.yul\":954:955   */\n  0x00\n    /* \"#utility.yul\":932:947   */\n  swap4\n  dup2\n  add\n    /* \"#utility.yul\":928:952   */\n  swap1\n  swap3\n  add\n    /* \"#utility.yul\":921:956   */\n  swap3\n  swap1\n  swap3\n  mstore\n    /* \"#utility.yul\":936:942   */\n  swap5\n    /* \"#utility.yul\":146:986   */\n  swap4\n  pop\n  pop\n  pop\n  pop\n  jump\t// out\n    /* \"#utility.yul\":991:1720   */\ntag_3:\n    /* \"#utility.yul\":1099:1105   */\n  0x00\n    /* \"#utility.yul\":1107:1113   */\n  dup1\n    /* \"#utility.yul\":1115:1121   */\n  0x00\n    /* \"#utility.yul\":1168:1170   */\n  0x60\n    /* \"#utility.yul\":1156:1165   */\n  dup5\n    /* \"#utility.yul\":1147:1154   */\n  dup7\n    /* \"#utility.yul\":1143:1166   */\n  sub\n    /* \"#utility.yul\":1139:1171   */\n  slt\n    /* \"#utility.yul\":1136:1188   */\n  iszero\n  tag_63\n  jumpi\n    /* \"#utility.yul\":1184:1185   */\n  0x00\n    /* \"#utility.yul\":1181:1182   */\n  dup1\n    /* \"#utility.yul\":1174:1186   */\n  revert\n    /* \"#utility.yul\":1136:1188   */\ntag_63:\n    /* \"#utility.yul\":1210:1226   */\n  dup4\n  mload\n  sub(shl(0xa0, 0x01), 0x01)\n    /* \"#utility.yul\":1255:1286   */\n  dup2\n  and\n    /* \"#utility.yul\":1245:1287   */\n  dup2\n  eq\n    /* \"#utility.yul\":1235:1305   */\n  tag_64\n  jumpi\n    /* \"#utility.yul\":1301:1302   */\n  0x00\n    /* \"#utility.yul\":1298:1299   */\n  dup1\n    /* \"#utility.yul\":1291:1303   */\n  revert\n    /* \"#utility.yul\":1235:1305   */\ntag_64:\n    /* \"#utility.yul\":1373:1375   */\n  0x20\n    /* \"#utility.yul\":1358:1376   */\n  dup6\n  add\n    /* \"#utility.yul\":1352:1377   */\n  mload\n    /* \"#utility.yul\":1324:1329   */\n  swap1\n  swap4\n  pop\n  sub(shl(0x40, 0x01), 0x01)\n    /* \"#utility.yul\":1426:1440   */\n  dup1\n  dup3\n  gt\n    /* \"#utility.yul\":1423:1457   */\n  iszero\n  tag_65\n  jumpi\n    /* \"#utility.yul\":1453:1454   */\n  0x00\n    /* \"#utility.yul\":1450:1451   */\n  dup1\n    /* \"#utility.yul\":1443:1455   */\n  revert\n    /* \"#utility.yul\":1423:1457   */\ntag_65:\n    /* \"#utility.yul\":1476:1537   */\n  tag_66\n    /* \"#utility.yul\":1529:1536   */\n  dup8\n    /* \"#utility.yul\":1520:1526   */\n  dup4\n    /* \"#utility.yul\":1509:1518   */\n  dup9\n    /* \"#utility.yul\":1505:1527   */\n  add\n    /* \"#utility.yul\":1476:1537   */\n  tag_46\n  jump\t// in\ntag_66:\n    /* \"#utility.yul\":1466:1537   */\n  swap4\n  pop\n    /* \"#utility.yul\":1583:1585   */\n  0x40\n    /* \"#utility.yul\":1572:1581   */\n  dup7\n    /* \"#utility.yul\":1568:1586   */\n  add\n    /* \"#utility.yul\":1562:1587   */\n  mload\n    /* \"#utility.yul\":1546:1587   */\n  swap2\n  pop\n    /* \"#utility.yul\":1612:1614   */\n  dup1\n    /* \"#utility.yul\":1602:1610   */\n  dup3\n    /* \"#utility.yul\":1599:1615   */\n  gt\n    /* \"#utility.yul\":1596:1632   */\n  iszero\n  tag_67\n  jumpi\n    /* \"#utility.yul\":1628:1629   */\n  0x00\n    /* \"#utility.yul\":1625:1626   */\n  dup1\n    /* \"#utility.yul\":1618:1630   */\n  revert\n    /* \"#utility.yul\":1596:1632   */\ntag_67:\n  pop\n    /* \"#utility.yul\":1651:1714   */\n  tag_68\n    /* \"#utility.yul\":1706:1713   */\n  dup7\n    /* \"#utility.yul\":1695:1703   */\n  dup3\n    /* \"#utility.yul\":1684:1693   */\n  dup8\n    /* \"#utility.yul\":1680:1704   */\n  add\n    /* \"#utility.yul\":1651:1714   */\n  tag_46\n  jump\t// in\ntag_68:\n    /* \"#utility.yul\":1641:1714   */\n  swap2\n  pop\n  pop\n    /* \"#utility.yul\":991:1720   */\n  swap3\n  pop\n  swap3\n  pop\n  swap3\n  jump\t// out\n    /* \"#utility.yul\":1725:2105   */\ntag_36:\n    /* \"#utility.yul\":1804:1805   */\n  0x01\n    /* \"#utility.yul\":1800:1812   */\n  dup2\n  dup2\n  shr\n  swap1\n    /* \"#utility.yul\":1847:1859   */\n  dup3\n  and\n  dup1\n    /* \"#utility.yul\":1868:1929   */\n  tag_70\n  jumpi\n    /* \"#utility.yul\":1922:1926   */\n  0x7f\n    /* \"#utility.yul\":1914:1920   */\n  dup3\n    /* \"#utility.yul\":1910:1927   */\n  and\n    /* \"#utility.yul\":1900:1927   */\n  swap2\n  pop\n    /* \"#utility.yul\":1868:1929   */\ntag_70:\n    /* \"#utility.yul\":1975:1977   */\n  0x20\n    /* \"#utility.yul\":1967:1973   */\n  dup3\n    /* \"#utility.yul\":1964:1978   */\n  lt\n    /* \"#utility.yul\":1944:1962   */\n  dup2\n    /* \"#utility.yul\":1941:1979   */\n  sub\n    /* \"#utility.yul\":1938:2099   */\n  tag_71\n  jumpi\n    /* \"#utility.yul\":2021:2031   */\n  0x4e487b71\n    /* \"#utility.yul\":2016:2019   */\n  0xe0\n    /* \"#utility.yul\":2012:2032   */\n  shl\n    /* \"#utility.yul\":2009:2010   */\n  0x00\n    /* \"#utility.yul\":2002:2033   */\n  mstore\n    /* \"#utility.yul\":2056:2060   */\n  0x22\n    /* \"#utility.yul\":2053:2054   */\n  0x04\n    /* \"#utility.yul\":2046:2061   */\n  mstore\n    /* \"#utility.yul\":2084:2088   */\n  0x24\n    /* \"#utility.yul\":2081:2082   */\n  0x00\n    /* \"#utility.yul\":2074:2089   */\n  revert\n    /* \"#utility.yul\":1938:2099   */\ntag_71:\n  pop\n    /* \"#utility.yul\":1725:2105   */\n  swap2\n  swap1\n  pop\n  jump\t// out\n    /* \"#utility.yul\":2236:2781   */\ntag_48:\n    /* \"#utility.yul\":2338:2340   */\n  0x1f\n    /* \"#utility.yul\":2333:2336   */\n  dup3\n    /* \"#utility.yul\":2330:2341   */\n  gt\n    /* \"#utility.yul\":2327:2775   */\n  iszero\n  tag_74\n  jumpi\n    /* \"#utility.yul\":2374:2375   */\n  0x00\n    /* \"#utility.yul\":2399:2404   */\n  dup2\n    /* \"#utility.yul\":2395:2397   */\n  dup2\n    /* \"#utility.yul\":2388:2405   */\n  mstore\n    /* \"#utility.yul\":2444:2448   */\n  0x20\n    /* \"#utility.yul\":2440:2442   */\n  dup2\n    /* \"#utility.yul\":2430:2449   */\n  keccak256\n    /* \"#utility.yul\":2514:2516   */\n  0x1f\n    /* \"#utility.yul\":2502:2512   */\n  dup6\n    /* \"#utility.yul\":2498:2517   */\n  add\n    /* \"#utility.yul\":2495:2496   */\n  0x05\n    /* \"#utility.yul\":2491:2518   */\n  shr\n    /* \"#utility.yul\":2485:2489   */\n  dup2\n    /* \"#utility.yul\":2481:2519   */\n  add\n    /* \"#utility.yul\":2550:2554   */\n  0x20\n    /* \"#utility.yul\":2538:2548   */\n  dup7\n    /* \"#utility.yul\":2535:2555   */\n  lt\n    /* \"#utility.yul\":2532:2579   */\n  iszero\n  tag_75\n  jumpi\n  pop\n    /* \"#utility.yul\":2573:2577   */\n  dup1\n    /* \"#utility.yul\":2532:2579   */\ntag_75:\n    /* \"#utility.yul\":2628:2630   */\n  0x1f\n    /* \"#utility.yul\":2623:2626   */\n  dup6\n    /* \"#utility.yul\":2619:2631   */\n  add\n    /* \"#utility.yul\":2616:2617   */\n  0x05\n    /* \"#utility.yul\":2612:2632   */\n  shr\n    /* \"#utility.yul\":2606:2610   */\n  dup3\n    /* \"#utility.yul\":2602:2633   */\n  add\n    /* \"#utility.yul\":2592:2633   */\n  swap2\n  pop\n    /* \"#utility.yul\":2683:2765   */\ntag_76:\n    /* \"#utility.yul\":2701:2703   */\n  dup2\n    /* \"#utility.yul\":2694:2699   */\n  dup2\n    /* \"#utility.yul\":2691:2704   */\n  lt\n    /* \"#utility.yul\":2683:2765   */\n  iszero\n  tag_78\n  jumpi\n    /* \"#utility.yul\":2746:2763   */\n  dup3\n  dup2\n  sstore\n    /* \"#utility.yul\":2727:2728   */\n  0x01\n    /* \"#utility.yul\":2716:2729   */\n  add\n    /* \"#utility.yul\":2683:2765   */\n  jump(tag_76)\ntag_78:\n    /* \"#utility.yul\":2687:2690   */\n  pop\n  pop\n  pop\n    /* \"#utility.yul\":2327:2775   */\ntag_74:\n    /* \"#utility.yul\":2236:2781   */\n  pop\n  pop\n  pop\n  jump\t// out\n    /* \"#utility.yul\":2957:4309   */\ntag_10:\n    /* \"#utility.yul\":3077:3087   */\n  dup2\n  mload\n  sub(shl(0x40, 0x01), 0x01)\n    /* \"#utility.yul\":3099:3129   */\n  dup2\n  gt\n    /* \"#utility.yul\":3096:3152   */\n  iszero\n  tag_82\n  jumpi\n    /* \"#utility.yul\":3132:3150   */\n  tag_82\n  tag_45\n  jump\t// in\ntag_82:\n    /* \"#utility.yul\":3161:3258   */\n  tag_83\n    /* \"#utility.yul\":3251:3257   */\n  dup2\n    /* \"#utility.yul\":3211:3249   */\n  tag_84\n    /* \"#utility.yul\":3243:3247   */\n  dup5\n    /* \"#utility.yul\":3237:3248   */\n  sload\n    /* \"#utility.yul\":3211:3249   */\n  tag_36\n  jump\t// in\ntag_84:\n    /* \"#utility.yul\":3205:3209   */\n  dup5\n    /* \"#utility.yul\":3161:3258   */\n  tag_48\n  jump\t// in\ntag_83:\n    /* \"#utility.yul\":3313:3317   */\n  0x20\n  dup1\n    /* \"#utility.yul\":3377:3379   */\n  0x1f\n    /* \"#utility.yul\":3366:3380   */\n  dup4\n  gt\n    /* \"#utility.yul\":3394:3395   */\n  0x01\n    /* \"#utility.yul\":3389:4052   */\n  dup2\n  eq\n  tag_86\n  jumpi\n    /* \"#utility.yul\":4096:4097   */\n  0x00\n    /* \"#utility.yul\":4113:4119   */\n  dup5\n    /* \"#utility.yul\":4110:4199   */\n  iszero\n  tag_87\n  jumpi\n  pop\n    /* \"#utility.yul\":4165:4184   */\n  dup6\n  dup4\n  add\n    /* \"#utility.yul\":4159:4185   */\n  mload\n    /* \"#utility.yul\":4110:4199   */\ntag_87:\n  not(0x00)\n    /* \"#utility.yul\":2914:2915   */\n  0x03\n    /* \"#utility.yul\":2910:2921   */\n  dup7\n  swap1\n  shl\n    /* \"#utility.yul\":2906:2930   */\n  shr\n    /* \"#utility.yul\":2902:2931   */\n  not\n    /* \"#utility.yul\":2892:2932   */\n  and\n    /* \"#utility.yul\":2938:2939   */\n  0x01\n    /* \"#utility.yul\":2934:2945   */\n  dup6\n  swap1\n  shl\n    /* \"#utility.yul\":2889:2946   */\n  or\n    /* \"#utility.yul\":4212:4293   */\n  dup6\n  sstore\n    /* \"#utility.yul\":3359:4303   */\n  jump(tag_78)\n    /* \"#utility.yul\":3389:4052   */\ntag_86:\n    /* \"#utility.yul\":2183:2184   */\n  0x00\n    /* \"#utility.yul\":2176:2190   */\n  dup6\n  dup2\n  mstore\n    /* \"#utility.yul\":2220:2224   */\n  0x20\n    /* \"#utility.yul\":2207:2225   */\n  dup2\n  keccak256\n  not(0x1f)\n    /* \"#utility.yul\":3425:3445   */\n  dup7\n  and\n  swap2\n    /* \"#utility.yul\":3543:3779   */\ntag_90:\n    /* \"#utility.yul\":3557:3564   */\n  dup3\n    /* \"#utility.yul\":3554:3555   */\n  dup2\n    /* \"#utility.yul\":3551:3565   */\n  lt\n    /* \"#utility.yul\":3543:3779   */\n  iszero\n  tag_92\n  jumpi\n    /* \"#utility.yul\":3646:3665   */\n  dup9\n  dup7\n  add\n    /* \"#utility.yul\":3640:3666   */\n  mload\n    /* \"#utility.yul\":3625:3667   */\n  dup3\n  sstore\n    /* \"#utility.yul\":3738:3765   */\n  swap5\n  dup5\n  add\n  swap5\n    /* \"#utility.yul\":3706:3707   */\n  0x01\n    /* \"#utility.yul\":3694:3708   */\n  swap1\n  swap2\n  add\n  swap1\n    /* \"#utility.yul\":3573:3592   */\n  dup5\n  add\n    /* \"#utility.yul\":3543:3779   */\n  jump(tag_90)\ntag_92:\n    /* \"#utility.yul\":3547:3550   */\n  pop\n    /* \"#utility.yul\":3807:3813   */\n  dup6\n    /* \"#utility.yul\":3798:3805   */\n  dup3\n    /* \"#utility.yul\":3795:3814   */\n  lt\n    /* \"#utility.yul\":3792:3993   */\n  iszero\n  tag_93\n  jumpi\n    /* \"#utility.yul\":3868:3887   */\n  dup8\n  dup6\n  add\n    /* \"#utility.yul\":3862:3888   */\n  mload\n  not(0x00)\n    /* \"#utility.yul\":3951:3952   */\n  0x03\n    /* \"#utility.yul\":3947:3961   */\n  dup9\n  swap1\n  shl\n    /* \"#utility.yul\":3963:3966   */\n  0xf8\n    /* \"#utility.yul\":3943:3967   */\n  and\n    /* \"#utility.yul\":3939:3976   */\n  shr\n    /* \"#utility.yul\":3935:3977   */\n  not\n    /* \"#utility.yul\":3920:3978   */\n  and\n    /* \"#utility.yul\":3905:3979   */\n  dup2\n  sstore\n    /* \"#utility.yul\":3792:3993   */\ntag_93:\n  pop\n  pop\n  pop\n  pop\n  pop\n    /* \"#utility.yul\":4039:4040   */\n  0x01\n    /* \"#utility.yul\":4023:4037   */\n  swap1\n  dup2\n  shl\n    /* \"#utility.yul\":4019:4041   */\n  add\n    /* \"#utility.yul\":4006:4042   */\n  swap1\n  sstore\n  pop\n    /* \"#utility.yul\":2957:4309   */\n  jump\t// out\n    /* \"#utility.yul\":4808:5030   */\ntag_44:\n    /* \"#utility.yul\":4873:4882   */\n  dup1\n  dup3\n  add\n    /* \"#utility.yul\":4894:4904   */\n  dup1\n  dup3\n  gt\n    /* \"#utility.yul\":4891:5024   */\n  iszero\n  tag_96\n  jumpi\n    /* \"#utility.yul\":4946:4956   */\n  0x4e487b71\n    /* \"#utility.yul\":4941:4944   */\n  0xe0\n    /* \"#utility.yul\":4937:4957   */\n  shl\n    /* \"#utility.yul\":4934:4935   */\n  0x00\n    /* \"#utility.yul\":4927:4958   */\n  mstore\n    /* \"#utility.yul\":4981:4985   */\n  0x11\n    /* \"#utility.yul\":4978:4979   */\n  0x04\n    /* \"#utility.yul\":4971:4986   */\n  mstore\n    /* \"#utility.yul\":5009:5013   */\n  0x24\n    /* \"#utility.yul\":5006:5007   */\n  0x00\n    /* \"#utility.yul\":4999:5014   */\n  revert\n    /* \"#utility.yul\":4891:5024   */\ntag_96:\n    /* \"#utility.yul\":4808:5030   */\n  swap3\n  swap2\n  pop\n  pop\n  jump\t// out\ntag_50:\n    /* \"erc20.sol\":187:1289  contract MyToken is ERC20Base, PermissionsEnumerable {... */\n  mload(0x80)\n  mload(0xa0)\n  mload(0xc0)\n  mload(0xe0)\n  codecopy(0x00, dataOffset(sub_0), dataSize(sub_0))\n  0x00\n  assignImmutable(\"0xc5e1f1d4bf9d5972febd47f77b791d34fca2c4f78e047aba365c0f66e5d88c39\")\n  0x00\n  assignImmutable(\"0x5237c12354bd492f949054b8f8788aab2998a1669c684d3e036f6f16d4b53e03\")\n  0x00\n  assignImmutable(\"0x538742f01864684e7bc02c5833d23bcc80c6c36906ebb070efda83aa556ded94\")\n  0x00\n  assignImmutable(\"0x667e71f1383f6018017c7f9f00ba5758f756bb81173e5c0c2366813dad6f3e59\")\n  return(0x00, dataSize(sub_0))\nstop\n\nsub_0: assembly {\n        /* \"erc20.sol\":187:1289  contract MyToken is ERC20Base, PermissionsEnumerable {... */\n      mstore(0x40, 0x80)\n      callvalue\n      dup1\n      iszero\n      tag_1\n      jumpi\n      0x00\n      dup1\n      revert\n    tag_1:\n      pop\n      jumpi(tag_2, lt(calldatasize, 0x04))\n      shr(0xe0, calldataload(0x00))\n      dup1\n      0x7ecebe00\n      gt\n      tag_35\n      jumpi\n      dup1\n      0xa457c2d7\n      gt\n      tag_36\n      jumpi\n      dup1\n      0xd505accf\n      gt\n      tag_37\n      jumpi\n      dup1\n      0xd505accf\n      eq\n      tag_31\n      jumpi\n      dup1\n      0xd547741f\n      eq\n      tag_32\n      jumpi\n      dup1\n      0xdd62ed3e\n      eq\n      tag_33\n      jumpi\n      dup1\n      0xe8a3d485\n      eq\n      tag_34\n      jumpi\n      0x00\n      dup1\n      revert\n    tag_37:\n      dup1\n      0xa457c2d7\n      eq\n      tag_27\n      jumpi\n      dup1\n      0xa9059cbb\n      eq\n      tag_28\n      jumpi\n      dup1\n      0xac9650d8\n      eq\n      tag_29\n      jumpi\n      dup1\n      0xca15c873\n      eq\n      tag_30\n      jumpi\n      0x00\n      dup1\n      revert\n    tag_36:\n      dup1\n      0x938e3d7b\n      gt\n      tag_38\n      jumpi\n      dup1\n      0x938e3d7b\n      eq\n      tag_23\n      jumpi\n      dup1\n      0x95d89b41\n      eq\n      tag_24\n      jumpi\n      dup1\n      0xa217fddf\n      eq\n      tag_25\n      jumpi\n      dup1\n      0xa32fa5b3\n      eq\n      tag_26\n      jumpi\n      0x00\n      dup1\n      revert\n    tag_38:\n      dup1\n      0x7ecebe00\n      eq\n      tag_19\n      jumpi\n      dup1\n      0x8da5cb5b\n      eq\n      tag_20\n      jumpi\n      dup1\n      0x9010d07c\n      eq\n      tag_21\n      jumpi\n      dup1\n      0x91d14854\n      eq\n      tag_22\n      jumpi\n      0x00\n      dup1\n      revert\n    tag_35:\n      dup1\n      0x313ce567\n      gt\n      tag_39\n      jumpi\n      dup1\n      0x42966c68\n      gt\n      tag_40\n      jumpi\n      dup1\n      0x42966c68\n      eq\n      tag_15\n      jumpi\n      dup1\n      0x449a52f8\n      eq\n      tag_16\n      jumpi\n      dup1\n      0x70a08231\n      eq\n      tag_17\n      jumpi\n      dup1\n      0x79cc6790\n      eq\n      tag_18\n      jumpi\n      0x00\n      dup1\n      revert\n    tag_40:\n      dup1\n      0x313ce567\n      eq\n      tag_11\n      jumpi\n      dup1\n      0x3644e515\n      eq\n      tag_12\n      jumpi\n      dup1\n      0x36568abe\n      eq\n      tag_13\n      jumpi\n      dup1\n      0x39509351\n      eq\n      tag_14\n      jumpi\n      0x00\n      dup1\n      revert\n    tag_39:\n      dup1\n      0x206b60f9\n      gt\n      tag_41\n      jumpi\n      dup1\n      0x206b60f9\n      eq\n      tag_7\n      jumpi\n      dup1\n      0x23b872dd\n      eq\n      tag_8\n      jumpi\n      dup1\n      0x248a9ca3\n      eq\n      tag_9\n      jumpi\n      dup1\n      0x2f2ff15d\n      eq\n      tag_10\n      jumpi\n      0x00\n      dup1\n      revert\n    tag_41:\n      dup1\n      0x06fdde03\n      eq\n      tag_3\n      jumpi\n      dup1\n      0x095ea7b3\n      eq\n      tag_4\n      jumpi\n      dup1\n      0x13af4035\n      eq\n      tag_5\n      jumpi\n      dup1\n      0x18160ddd\n      eq\n      tag_6\n      jumpi\n    tag_2:\n      0x00\n      dup1\n      revert\n        /* \"@thirdweb-dev/contracts/external-deps/openzeppelin/token/ERC20/ERC20.sol\":2193:2291   */\n    tag_3:\n      tag_42\n      tag_43\n      jump\t// in\n    tag_42:\n      mload(0x40)\n      tag_44\n      swap2\n      swap1\n      tag_45\n      jump\t// in\n    tag_44:\n      mload(0x40)\n      dup1\n      swap2\n      sub\n      swap1\n      return\n        /* \"@thirdweb-dev/contracts/external-deps/openzeppelin/token/ERC20/ERC20.sol\":4470:4667   */\n    tag_4:\n      tag_46\n      tag_47\n      calldatasize\n      0x04\n      tag_48\n      jump\t// in\n    tag_47:\n      tag_49\n      jump\t// in\n    tag_46:\n      mload(0x40)\n        /* \"#utility.yul\":1395:1409   */\n      swap1\n      iszero\n        /* \"#utility.yul\":1388:1410   */\n      iszero\n        /* \"#utility.yul\":1370:1411   */\n      dup2\n      mstore\n        /* \"#utility.yul\":1358:1360   */\n      0x20\n        /* \"#utility.yul\":1343:1361   */\n      add\n        /* \"@thirdweb-dev/contracts/external-deps/openzeppelin/token/ERC20/ERC20.sol\":4470:4667   */\n      tag_44\n        /* \"#utility.yul\":1230:1417   */\n      jump\n        /* \"@thirdweb-dev/contracts/extension/Ownable.sol\":1133:1306   */\n    tag_5:\n      tag_52\n      tag_53\n      calldatasize\n      0x04\n      tag_54\n      jump\t// in\n    tag_53:\n      tag_55\n      jump\t// in\n    tag_52:\n      stop\n        /* \"@thirdweb-dev/contracts/external-deps/openzeppelin/token/ERC20/ERC20.sol\":3281:3387   */\n    tag_6:\n        /* \"@thirdweb-dev/contracts/external-deps/openzeppelin/token/ERC20/ERC20.sol\":3368:3380   */\n      sload(0x04)\n        /* \"@thirdweb-dev/contracts/external-deps/openzeppelin/token/ERC20/ERC20.sol\":3281:3387   */\n    tag_56:\n      mload(0x40)\n        /* \"#utility.yul\":1759:1784   */\n      swap1\n      dup2\n      mstore\n        /* \"#utility.yul\":1747:1749   */\n      0x20\n        /* \"#utility.yul\":1732:1750   */\n      add\n        /* \"@thirdweb-dev/contracts/external-deps/openzeppelin/token/ERC20/ERC20.sol\":3281:3387   */\n      tag_44\n        /* \"#utility.yul\":1613:1790   */\n      jump\n        /* \"erc20.sol\":247:313  bytes32 public constant TRANSFER_ROLE = keccak256(\"TRANSFER_ROLE\") */\n    tag_7:\n      tag_56\n        /* \"erc20.sol\":287:313  keccak256(\"TRANSFER_ROLE\") */\n      0x8502233096d909befbda0999bb8ea2f3a6be3c138b9fbf003752a4c8bce86f6c\n        /* \"erc20.sol\":247:313  bytes32 public constant TRANSFER_ROLE = keccak256(\"TRANSFER_ROLE\") */\n      dup2\n      jump\n        /* \"erc20.sol\":910:1286  function transferFrom(address from, address to, uint256 amount) public override returns (bool) {... */\n    tag_8:\n      tag_46\n      tag_65\n      calldatasize\n      0x04\n      tag_66\n      jump\t// in\n    tag_65:\n      tag_67\n      jump\t// in\n        /* \"@thirdweb-dev/contracts/extension/Permissions.sol\":2740:2860   */\n    tag_9:\n      tag_56\n      tag_70\n      calldatasize\n      0x04\n      tag_71\n      jump\t// in\n    tag_70:\n        /* \"@thirdweb-dev/contracts/extension/Permissions.sol\":2808:2815   */\n      0x00\n        /* \"@thirdweb-dev/contracts/extension/Permissions.sol\":2834:2853   */\n      swap1\n      dup2\n      mstore\n        /* \"@thirdweb-dev/contracts/extension/Permissions.sol\":2834:2847   */\n      0x09\n        /* \"@thirdweb-dev/contracts/extension/Permissions.sol\":2834:2853   */\n      0x20\n      mstore\n      0x40\n      swap1\n      keccak256\n      sload\n      swap1\n        /* \"@thirdweb-dev/contracts/extension/Permissions.sol\":2740:2860   */\n      jump\n        /* \"@thirdweb-dev/contracts/extension/Permissions.sol\":3255:3526   */\n    tag_10:\n      tag_52\n      tag_75\n      calldatasize\n      0x04\n      tag_76\n      jump\t// in\n    tag_75:\n      tag_77\n      jump\t// in\n        /* \"@thirdweb-dev/contracts/external-deps/openzeppelin/token/ERC20/ERC20.sol\":3130:3221   */\n    tag_11:\n      mload(0x40)\n        /* \"@thirdweb-dev/contracts/external-deps/openzeppelin/token/ERC20/ERC20.sol\":3212:3214   */\n      0x12\n        /* \"#utility.yul\":2896:2932   */\n      dup2\n      mstore\n        /* \"#utility.yul\":2884:2886   */\n      0x20\n        /* \"#utility.yul\":2869:2887   */\n      add\n        /* \"@thirdweb-dev/contracts/external-deps/openzeppelin/token/ERC20/ERC20.sol\":3130:3221   */\n      tag_44\n        /* \"#utility.yul\":2754:2938   */\n      jump\n        /* \"@thirdweb-dev/contracts/external-deps/openzeppelin/token/ERC20/extensions/ERC20Permit.sol\":3018:3290   */\n    tag_12:\n      tag_56\n      tag_83\n      jump\t// in\n        /* \"@thirdweb-dev/contracts/extension/Permissions.sol\":4466:4683   */\n    tag_13:\n      tag_52\n      tag_86\n      calldatasize\n      0x04\n      tag_76\n      jump\t// in\n    tag_86:\n      tag_87\n      jump\t// in\n        /* \"@thirdweb-dev/contracts/external-deps/openzeppelin/token/ERC20/ERC20.sol\":5910:6146   */\n    tag_14:\n      tag_46\n      tag_89\n      calldatasize\n      0x04\n      tag_48\n      jump\t// in\n    tag_89:\n      tag_90\n      jump\t// in\n        /* \"@thirdweb-dev/contracts/base/ERC20Base.sol\":2451:2615   */\n    tag_15:\n      tag_52\n      tag_93\n      calldatasize\n      0x04\n      tag_71\n      jump\t// in\n    tag_93:\n      tag_95\n      jump\t// in\n        /* \"@thirdweb-dev/contracts/base/ERC20Base.sol\":2019:2228   */\n    tag_16:\n      tag_52\n      tag_97\n      calldatasize\n      0x04\n      tag_48\n      jump\t// in\n    tag_97:\n      tag_98\n      jump\t// in\n        /* \"@thirdweb-dev/contracts/external-deps/openzeppelin/token/ERC20/ERC20.sol\":3445:3570   */\n    tag_17:\n      tag_56\n      tag_100\n      calldatasize\n      0x04\n      tag_54\n      jump\t// in\n    tag_100:\n      sub(shl(0xa0, 0x01), 0x01)\n        /* \"@thirdweb-dev/contracts/external-deps/openzeppelin/token/ERC20/ERC20.sol\":3545:3563   */\n      and\n        /* \"@thirdweb-dev/contracts/external-deps/openzeppelin/token/ERC20/ERC20.sol\":3519:3526   */\n      0x00\n        /* \"@thirdweb-dev/contracts/external-deps/openzeppelin/token/ERC20/ERC20.sol\":3545:3563   */\n      swap1\n      dup2\n      mstore\n        /* \"@thirdweb-dev/contracts/external-deps/openzeppelin/token/ERC20/ERC20.sol\":3545:3554   */\n      0x02\n        /* \"@thirdweb-dev/contracts/external-deps/openzeppelin/token/ERC20/ERC20.sol\":3545:3563   */\n      0x20\n      mstore\n      0x40\n      swap1\n      keccak256\n      sload\n      swap1\n        /* \"@thirdweb-dev/contracts/external-deps/openzeppelin/token/ERC20/ERC20.sol\":3445:3570   */\n      jump\n        /* \"@thirdweb-dev/contracts/base/ERC20Base.sol\":2912:3342   */\n    tag_18:\n      tag_52\n      tag_104\n      calldatasize\n      0x04\n      tag_48\n      jump\t// in\n    tag_104:\n      tag_105\n      jump\t// in\n        /* \"@thirdweb-dev/contracts/external-deps/openzeppelin/token/ERC20/extensions/ERC20Permit.sol\":2768:2894   */\n    tag_19:\n      tag_56\n      tag_107\n      calldatasize\n      0x04\n      tag_54\n      jump\t// in\n    tag_107:\n      tag_108\n      jump\t// in\n        /* \"@thirdweb-dev/contracts/extension/Ownable.sol\":871:957   */\n    tag_20:\n        /* \"@thirdweb-dev/contracts/extension/Ownable.sol\":944:950   */\n      and(sub(shl(0xa0, 0x01), 0x01), sload(0x01))\n        /* \"@thirdweb-dev/contracts/extension/Ownable.sol\":871:957   */\n    tag_110:\n      mload(0x40)\n      sub(shl(0xa0, 0x01), 0x01)\n        /* \"#utility.yul\":3292:3347   */\n      swap1\n      swap2\n      and\n        /* \"#utility.yul\":3274:3348   */\n      dup2\n      mstore\n        /* \"#utility.yul\":3262:3264   */\n      0x20\n        /* \"#utility.yul\":3247:3265   */\n      add\n        /* \"@thirdweb-dev/contracts/extension/Ownable.sol\":871:957   */\n      tag_44\n        /* \"#utility.yul\":3128:3354   */\n      jump\n        /* \"@thirdweb-dev/contracts/extension/PermissionsEnumerable.sol\":1643:2276   */\n    tag_21:\n      tag_110\n      tag_115\n      calldatasize\n      0x04\n      tag_116\n      jump\t// in\n    tag_115:\n      tag_117\n      jump\t// in\n        /* \"@thirdweb-dev/contracts/extension/Permissions.sol\":1324:1455   */\n    tag_22:\n      tag_46\n      tag_120\n      calldatasize\n      0x04\n      tag_76\n      jump\t// in\n    tag_120:\n        /* \"@thirdweb-dev/contracts/extension/Permissions.sol\":1402:1406   */\n      0x00\n        /* \"@thirdweb-dev/contracts/extension/Permissions.sol\":1425:1439   */\n      swap2\n      dup3\n      mstore\n        /* \"@thirdweb-dev/contracts/extension/Permissions.sol\":1425:1433   */\n      0x08\n        /* \"@thirdweb-dev/contracts/extension/Permissions.sol\":1425:1439   */\n      0x20\n      swap1\n      dup2\n      mstore\n      0x40\n      dup1\n      dup5\n      keccak256\n      sub(shl(0xa0, 0x01), 0x01)\n        /* \"@thirdweb-dev/contracts/extension/Permissions.sol\":1425:1448   */\n      swap4\n      swap1\n      swap4\n      and\n      dup5\n      mstore\n      swap2\n      swap1\n      mstore\n      swap1\n      keccak256\n      sload\n      0xff\n      and\n      swap1\n        /* \"@thirdweb-dev/contracts/extension/Permissions.sol\":1324:1455   */\n      jump\n        /* \"@thirdweb-dev/contracts/extension/ContractMetadata.sol\":1003:1191   */\n    tag_23:\n      tag_52\n      tag_124\n      calldatasize\n      0x04\n      tag_125\n      jump\t// in\n    tag_124:\n      tag_126\n      jump\t// in\n        /* \"@thirdweb-dev/contracts/external-deps/openzeppelin/token/ERC20/ERC20.sol\":2404:2506   */\n    tag_24:\n      tag_42\n      tag_128\n      jump\t// in\n        /* \"@thirdweb-dev/contracts/extension/Permissions.sol\":742:791   */\n    tag_25:\n      tag_56\n        /* \"@thirdweb-dev/contracts/extension/Permissions.sol\":787:791   */\n      0x00\n        /* \"@thirdweb-dev/contracts/extension/Permissions.sol\":742:791   */\n      dup2\n      jump\n        /* \"@thirdweb-dev/contracts/extension/Permissions.sol\":2206:2417   */\n    tag_26:\n      tag_46\n      tag_134\n      calldatasize\n      0x04\n      tag_76\n      jump\t// in\n    tag_134:\n      tag_135\n      jump\t// in\n        /* \"@thirdweb-dev/contracts/external-deps/openzeppelin/token/ERC20/ERC20.sol\":6633:7062   */\n    tag_27:\n      tag_46\n      tag_138\n      calldatasize\n      0x04\n      tag_48\n      jump\t// in\n    tag_138:\n      tag_139\n      jump\t// in\n        /* \"erc20.sol\":663:902  function transfer(address to, uint256 amount) public override returns (bool) {... */\n    tag_28:\n      tag_46\n      tag_142\n      calldatasize\n      0x04\n      tag_48\n      jump\t// in\n    tag_142:\n      tag_143\n      jump\t// in\n        /* \"@thirdweb-dev/contracts/extension/Multicall.sol\":698:1017   */\n    tag_29:\n      tag_145\n      tag_146\n      calldatasize\n      0x04\n      tag_147\n      jump\t// in\n    tag_146:\n      tag_148\n      jump\t// in\n    tag_145:\n      mload(0x40)\n      tag_44\n      swap2\n      swap1\n      tag_150\n      jump\t// in\n        /* \"@thirdweb-dev/contracts/extension/PermissionsEnumerable.sol\":2683:3081   */\n    tag_30:\n      tag_56\n      tag_152\n      calldatasize\n      0x04\n      tag_71\n      jump\t// in\n    tag_152:\n      tag_153\n      jump\t// in\n        /* \"@thirdweb-dev/contracts/external-deps/openzeppelin/token/ERC20/extensions/ERC20Permit.sol\":2056:2707   */\n    tag_31:\n      tag_52\n      tag_156\n      calldatasize\n      0x04\n      tag_157\n      jump\t// in\n    tag_156:\n      tag_158\n      jump\t// in\n        /* \"@thirdweb-dev/contracts/extension/Permissions.sol\":3897:4068   */\n    tag_32:\n      tag_52\n      tag_160\n      calldatasize\n      0x04\n      tag_76\n      jump\t// in\n    tag_160:\n      tag_161\n      jump\t// in\n        /* \"@thirdweb-dev/contracts/external-deps/openzeppelin/token/ERC20/ERC20.sol\":4013:4162   */\n    tag_33:\n      tag_56\n      tag_163\n      calldatasize\n      0x04\n      tag_164\n      jump\t// in\n    tag_163:\n      sub(shl(0xa0, 0x01), 0x01)\n        /* \"@thirdweb-dev/contracts/external-deps/openzeppelin/token/ERC20/ERC20.sol\":4128:4146   */\n      swap2\n      dup3\n      and\n        /* \"@thirdweb-dev/contracts/external-deps/openzeppelin/token/ERC20/ERC20.sol\":4102:4109   */\n      0x00\n        /* \"@thirdweb-dev/contracts/external-deps/openzeppelin/token/ERC20/ERC20.sol\":4128:4146   */\n      swap1\n      dup2\n      mstore\n        /* \"@thirdweb-dev/contracts/external-deps/openzeppelin/token/ERC20/ERC20.sol\":4128:4139   */\n      0x03\n        /* \"@thirdweb-dev/contracts/external-deps/openzeppelin/token/ERC20/ERC20.sol\":4128:4146   */\n      0x20\n      swap1\n      dup2\n      mstore\n      0x40\n      dup1\n      dup4\n      keccak256\n        /* \"@thirdweb-dev/contracts/external-deps/openzeppelin/token/ERC20/ERC20.sol\":4128:4155   */\n      swap4\n      swap1\n      swap5\n      and\n      dup3\n      mstore\n      swap2\n      swap1\n      swap2\n      mstore\n      keccak256\n      sload\n      swap1\n        /* \"@thirdweb-dev/contracts/external-deps/openzeppelin/token/ERC20/ERC20.sol\":4013:4162   */\n      jump\n        /* \"@thirdweb-dev/contracts/extension/ContractMetadata.sol\":565:599   */\n    tag_34:\n      tag_42\n      tag_168\n      jump\t// in\n        /* \"@thirdweb-dev/contracts/external-deps/openzeppelin/token/ERC20/ERC20.sol\":2193:2291   */\n    tag_43:\n        /* \"@thirdweb-dev/contracts/external-deps/openzeppelin/token/ERC20/ERC20.sol\":2247:2260   */\n      0x60\n        /* \"@thirdweb-dev/contracts/external-deps/openzeppelin/token/ERC20/ERC20.sol\":2279:2284   */\n      0x05\n        /* \"@thirdweb-dev/contracts/external-deps/openzeppelin/token/ERC20/ERC20.sol\":2272:2284   */\n      dup1\n      sload\n      tag_172\n      swap1\n      tag_173\n      jump\t// in\n    tag_172:\n      dup1\n      0x1f\n      add\n      0x20\n      dup1\n      swap2\n      div\n      mul\n      0x20\n      add\n      mload(0x40)\n      swap1\n      dup2\n      add\n      0x40\n      mstore\n      dup1\n      swap3\n      swap2\n      swap1\n      dup2\n      dup2\n      mstore\n      0x20\n      add\n      dup3\n      dup1\n      sload\n      tag_174\n      swap1\n      tag_173\n      jump\t// in\n    tag_174:\n      dup1\n      iszero\n      tag_175\n      jumpi\n      dup1\n      0x1f\n      lt\n      tag_176\n      jumpi\n      0x0100\n      dup1\n      dup4\n      sload\n      div\n      mul\n      dup4\n      mstore\n      swap2\n      0x20\n      add\n      swap2\n      jump(tag_175)\n    tag_176:\n      dup3\n      add\n      swap2\n      swap1\n      0x00\n      mstore\n      keccak256(0x00, 0x20)\n      swap1\n    tag_177:\n      dup2\n      sload\n      dup2\n      mstore\n      swap1\n      0x01\n      add\n      swap1\n      0x20\n      add\n      dup1\n      dup4\n      gt\n      tag_177\n      jumpi\n      dup3\n      swap1\n      sub\n      0x1f\n      and\n      dup3\n      add\n      swap2\n    tag_175:\n      pop\n      pop\n      pop\n      pop\n      pop\n      swap1\n      pop\n        /* \"@thirdweb-dev/contracts/external-deps/openzeppelin/token/ERC20/ERC20.sol\":2193:2291   */\n      swap1\n      jump\t// out\n        /* \"@thirdweb-dev/contracts/external-deps/openzeppelin/token/ERC20/ERC20.sol\":4470:4667   */\n    tag_49:\n        /* \"@thirdweb-dev/contracts/external-deps/openzeppelin/token/ERC20/ERC20.sol\":4553:4557   */\n      0x00\n        /* \"@thirdweb-dev/contracts/external-deps/openzeppelin/utils/Context.sol\":719:729   */\n      caller\n        /* \"@thirdweb-dev/contracts/external-deps/openzeppelin/token/ERC20/ERC20.sol\":4607:4639   */\n      tag_181\n        /* \"@thirdweb-dev/contracts/external-deps/openzeppelin/utils/Context.sol\":719:729   */\n      dup2\n        /* \"@thirdweb-dev/contracts/external-deps/openzeppelin/token/ERC20/ERC20.sol\":4623:4630   */\n      dup6\n        /* \"@thirdweb-dev/contracts/external-deps/openzeppelin/token/ERC20/ERC20.sol\":4632:4638   */\n      dup6\n        /* \"@thirdweb-dev/contracts/external-deps/openzeppelin/token/ERC20/ERC20.sol\":4607:4615   */\n      tag_182\n        /* \"@thirdweb-dev/contracts/external-deps/openzeppelin/token/ERC20/ERC20.sol\":4607:4639   */\n      jump\t// in\n    tag_181:\n        /* \"@thirdweb-dev/contracts/external-deps/openzeppelin/token/ERC20/ERC20.sol\":4656:4660   */\n      0x01\n        /* \"@thirdweb-dev/contracts/external-deps/openzeppelin/token/ERC20/ERC20.sol\":4649:4660   */\n      swap2\n      pop\n      pop\n        /* \"@thirdweb-dev/contracts/external-deps/openzeppelin/token/ERC20/ERC20.sol\":4470:4667   */\n    tag_178:\n      swap3\n      swap2\n      pop\n      pop\n      jump\t// out\n        /* \"@thirdweb-dev/contracts/extension/Ownable.sol\":1133:1306   */\n    tag_55:\n        /* \"@thirdweb-dev/contracts/extension/Ownable.sol\":1203:1217   */\n      tag_184\n        /* \"@thirdweb-dev/contracts/extension/Ownable.sol\":1203:1215   */\n      tag_185\n        /* \"@thirdweb-dev/contracts/extension/Ownable.sol\":1203:1217   */\n      jump\t// in\n    tag_184:\n        /* \"@thirdweb-dev/contracts/extension/Ownable.sol\":1198:1268   */\n      tag_186\n      jumpi\n        /* \"@thirdweb-dev/contracts/extension/Ownable.sol\":1233:1257   */\n      mload(0x40)\n      shl(0xe5, 0x461bcd)\n      dup2\n      mstore\n        /* \"#utility.yul\":7658:7660   */\n      0x20\n        /* \"@thirdweb-dev/contracts/extension/Ownable.sol\":1233:1257   */\n      0x04\n      dup3\n      add\n        /* \"#utility.yul\":7640:7661   */\n      mstore\n        /* \"#utility.yul\":7697:7699   */\n      0x0e\n        /* \"#utility.yul\":7677:7695   */\n      0x24\n      dup3\n      add\n        /* \"#utility.yul\":7670:7700   */\n      mstore\n      shl(0x92, 0x139bdd08185d5d1a1bdc9a5e9959)\n        /* \"#utility.yul\":7716:7734   */\n      0x44\n      dup3\n      add\n        /* \"#utility.yul\":7709:7753   */\n      mstore\n        /* \"#utility.yul\":7770:7788   */\n      0x64\n      add\n        /* \"@thirdweb-dev/contracts/extension/Ownable.sol\":1233:1257   */\n    tag_187:\n      mload(0x40)\n      dup1\n      swap2\n      sub\n      swap1\n      revert\n        /* \"@thirdweb-dev/contracts/extension/Ownable.sol\":1198:1268   */\n    tag_186:\n        /* \"@thirdweb-dev/contracts/extension/Ownable.sol\":1277:1299   */\n      tag_189\n        /* \"@thirdweb-dev/contracts/extension/Ownable.sol\":1289:1298   */\n      dup2\n        /* \"@thirdweb-dev/contracts/extension/Ownable.sol\":1277:1288   */\n      tag_190\n        /* \"@thirdweb-dev/contracts/extension/Ownable.sol\":1277:1299   */\n      jump\t// in\n    tag_189:\n        /* \"@thirdweb-dev/contracts/extension/Ownable.sol\":1133:1306   */\n      pop\n      jump\t// out\n        /* \"erc20.sol\":910:1286  function transferFrom(address from, address to, uint256 amount) public override returns (bool) {... */\n    tag_67:\n        /* \"erc20.sol\":1047:1057  msg.sender */\n      caller\n        /* \"erc20.sol\":999:1003  bool */\n      0x00\n        /* \"@thirdweb-dev/contracts/extension/Permissions.sol\":1425:1448   */\n      swap1\n      dup2\n      mstore\n        /* \"@thirdweb-dev/contracts/extension/Permissions.sol\":1425:1439   */\n      0x85da32aea425a83be1133c4e958580985fa04602ddf03ad35008a70703b20eb7\n      0x20\n        /* \"@thirdweb-dev/contracts/extension/Permissions.sol\":1425:1448   */\n      mstore\n        /* \"@thirdweb-dev/contracts/extension/Permissions.sol\":1425:1439   */\n      0x40\n        /* \"@thirdweb-dev/contracts/extension/Permissions.sol\":1425:1448   */\n      dup2\n      keccak256\n      sload\n      0xff\n      and\n        /* \"erc20.sol\":1016:1093  require(hasRole(TRANSFER_ROLE, msg.sender), \"Sender must have TRANSFER_ROLE\") */\n      tag_194\n      jumpi\n      mload(0x40)\n      shl(0xe5, 0x461bcd)\n      dup2\n      mstore\n        /* \"#utility.yul\":8001:8003   */\n      0x20\n        /* \"erc20.sol\":1016:1093  require(hasRole(TRANSFER_ROLE, msg.sender), \"Sender must have TRANSFER_ROLE\") */\n      0x04\n      dup3\n      add\n        /* \"#utility.yul\":7983:8004   */\n      mstore\n        /* \"#utility.yul\":8040:8042   */\n      0x1e\n        /* \"#utility.yul\":8020:8038   */\n      0x24\n      dup3\n      add\n        /* \"#utility.yul\":8013:8043   */\n      mstore\n        /* \"#utility.yul\":8079:8111   */\n      0x53656e646572206d7573742068617665205452414e534645525f524f4c450000\n        /* \"#utility.yul\":8059:8077   */\n      0x44\n      dup3\n      add\n        /* \"#utility.yul\":8052:8112   */\n      mstore\n        /* \"#utility.yul\":8129:8147   */\n      0x64\n      add\n        /* \"erc20.sol\":1016:1093  require(hasRole(TRANSFER_ROLE, msg.sender), \"Sender must have TRANSFER_ROLE\") */\n      tag_187\n        /* \"#utility.yul\":7799:8153   */\n      jump\n        /* \"erc20.sol\":1016:1093  require(hasRole(TRANSFER_ROLE, msg.sender), \"Sender must have TRANSFER_ROLE\") */\n    tag_194:\n        /* \"erc20.sol\":1104:1131  _transfer(from, to, amount) */\n      tag_197\n        /* \"erc20.sol\":1114:1118  from */\n      dup5\n        /* \"erc20.sol\":1120:1122  to */\n      dup5\n        /* \"erc20.sol\":1124:1130  amount */\n      dup5\n        /* \"erc20.sol\":1104:1113  _transfer */\n      tag_198\n        /* \"erc20.sol\":1104:1131  _transfer(from, to, amount) */\n      jump\t// in\n    tag_197:\n      sub(shl(0xa0, 0x01), 0x01)\n        /* \"@thirdweb-dev/contracts/external-deps/openzeppelin/token/ERC20/ERC20.sol\":4128:4146   */\n      dup5\n      and\n        /* \"@thirdweb-dev/contracts/external-deps/openzeppelin/token/ERC20/ERC20.sol\":4102:4109   */\n      0x00\n        /* \"@thirdweb-dev/contracts/external-deps/openzeppelin/token/ERC20/ERC20.sol\":4128:4146   */\n      swap1\n      dup2\n      mstore\n        /* \"@thirdweb-dev/contracts/external-deps/openzeppelin/token/ERC20/ERC20.sol\":4128:4139   */\n      0x03\n        /* \"@thirdweb-dev/contracts/external-deps/openzeppelin/token/ERC20/ERC20.sol\":4128:4146   */\n      0x20\n      swap1\n      dup2\n      mstore\n      0x40\n      dup1\n      dup4\n      keccak256\n        /* \"erc20.sol\":1184:1194  msg.sender */\n      caller\n        /* \"@thirdweb-dev/contracts/external-deps/openzeppelin/token/ERC20/ERC20.sol\":4128:4155   */\n      dup1\n      dup6\n      mstore\n      swap3\n      mstore\n      swap1\n      swap2\n      keccak256\n      sload\n        /* \"erc20.sol\":1142:1256  _approve(... */\n      tag_199\n      swap2\n        /* \"@thirdweb-dev/contracts/external-deps/openzeppelin/token/ERC20/ERC20.sol\":4128:4146   */\n      dup7\n      swap2\n        /* \"erc20.sol\":1209:1245  allowance(from, msg.sender) - amount */\n      tag_201\n      swap1\n        /* \"erc20.sol\":1239:1245  amount */\n      dup7\n      swap1\n        /* \"erc20.sol\":1209:1245  allowance(from, msg.sender) - amount */\n      tag_202\n      jump\t// in\n    tag_201:\n        /* \"erc20.sol\":1142:1150  _approve */\n      tag_182\n        /* \"erc20.sol\":1142:1256  _approve(... */\n      jump\t// in\n    tag_199:\n      pop\n        /* \"erc20.sol\":1274:1278  true */\n      0x01\n        /* \"erc20.sol\":910:1286  function transferFrom(address from, address to, uint256 amount) public override returns (bool) {... */\n    tag_192:\n      swap4\n      swap3\n      pop\n      pop\n      pop\n      jump\t// out\n        /* \"@thirdweb-dev/contracts/extension/Permissions.sol\":3255:3526   */\n    tag_77:\n        /* \"@thirdweb-dev/contracts/extension/Permissions.sol\":3350:3369   */\n      0x00\n      dup3\n      dup2\n      mstore\n        /* \"@thirdweb-dev/contracts/extension/Permissions.sol\":3350:3363   */\n      0x09\n        /* \"@thirdweb-dev/contracts/extension/Permissions.sol\":3350:3369   */\n      0x20\n      mstore\n      0x40\n      swap1\n      keccak256\n      sload\n        /* \"@thirdweb-dev/contracts/extension/Permissions.sol\":3339:3382   */\n      tag_205\n      swap1\n        /* \"@thirdweb-dev/contracts/extension/Permissions.sol\":3371:3381   */\n      caller\n        /* \"@thirdweb-dev/contracts/extension/Permissions.sol\":3339:3349   */\n      tag_206\n        /* \"@thirdweb-dev/contracts/extension/Permissions.sol\":3339:3382   */\n      jump\t// in\n    tag_205:\n        /* \"@thirdweb-dev/contracts/extension/Permissions.sol\":3396:3410   */\n      0x00\n      dup3\n      dup2\n      mstore\n        /* \"@thirdweb-dev/contracts/extension/Permissions.sol\":3396:3404   */\n      0x08\n        /* \"@thirdweb-dev/contracts/extension/Permissions.sol\":3396:3410   */\n      0x20\n      swap1\n      dup2\n      mstore\n      0x40\n      dup1\n      dup4\n      keccak256\n      sub(shl(0xa0, 0x01), 0x01)\n        /* \"@thirdweb-dev/contracts/extension/Permissions.sol\":3396:3419   */\n      dup6\n      and\n      dup5\n      mstore\n      swap1\n      swap2\n      mstore\n      swap1\n      keccak256\n      sload\n      0xff\n      and\n        /* \"@thirdweb-dev/contracts/extension/Permissions.sol\":3392:3485   */\n      iszero\n      tag_207\n      jumpi\n        /* \"@thirdweb-dev/contracts/extension/Permissions.sol\":3435:3474   */\n      mload(0x40)\n      shl(0xe5, 0x461bcd)\n      dup2\n      mstore\n        /* \"#utility.yul\":8625:8627   */\n      0x20\n        /* \"@thirdweb-dev/contracts/extension/Permissions.sol\":3435:3474   */\n      0x04\n      dup3\n      add\n        /* \"#utility.yul\":8607:8628   */\n      mstore\n        /* \"#utility.yul\":8664:8666   */\n      0x1d\n        /* \"#utility.yul\":8644:8662   */\n      0x24\n      dup3\n      add\n        /* \"#utility.yul\":8637:8667   */\n      mstore\n        /* \"#utility.yul\":8703:8734   */\n      0x43616e206f6e6c79206772616e7420746f206e6f6e20686f6c64657273000000\n        /* \"#utility.yul\":8683:8701   */\n      0x44\n      dup3\n      add\n        /* \"#utility.yul\":8676:8735   */\n      mstore\n        /* \"#utility.yul\":8752:8770   */\n      0x64\n      add\n        /* \"@thirdweb-dev/contracts/extension/Permissions.sol\":3435:3474   */\n      tag_187\n        /* \"#utility.yul\":8423:8776   */\n      jump\n        /* \"@thirdweb-dev/contracts/extension/Permissions.sol\":3392:3485   */\n    tag_207:\n        /* \"@thirdweb-dev/contracts/extension/Permissions.sol\":3494:3519   */\n      tag_210\n        /* \"@thirdweb-dev/contracts/extension/Permissions.sol\":3505:3509   */\n      dup3\n        /* \"@thirdweb-dev/contracts/extension/Permissions.sol\":3511:3518   */\n      dup3\n        /* \"@thirdweb-dev/contracts/extension/Permissions.sol\":3494:3504   */\n      tag_211\n        /* \"@thirdweb-dev/contracts/extension/Permissions.sol\":3494:3519   */\n      jump\t// in\n    tag_210:\n        /* \"@thirdweb-dev/contracts/extension/Permissions.sol\":3255:3526   */\n      pop\n      pop\n      jump\t// out\n        /* \"@thirdweb-dev/contracts/external-deps/openzeppelin/token/ERC20/extensions/ERC20Permit.sol\":3018:3290   */\n    tag_83:\n        /* \"@thirdweb-dev/contracts/external-deps/openzeppelin/token/ERC20/extensions/ERC20Permit.sol\":3076:3083   */\n      0x00\n        /* \"@thirdweb-dev/contracts/external-deps/openzeppelin/token/ERC20/extensions/ERC20Permit.sol\":3107:3111   */\n      address\n      sub(shl(0xa0, 0x01), 0x01)\n        /* \"@thirdweb-dev/contracts/external-deps/openzeppelin/token/ERC20/extensions/ERC20Permit.sol\":3116:3128   */\n      immutable(\"0x5237c12354bd492f949054b8f8788aab2998a1669c684d3e036f6f16d4b53e03\")\n        /* \"@thirdweb-dev/contracts/external-deps/openzeppelin/token/ERC20/extensions/ERC20Permit.sol\":3099:3128   */\n      and\n      eq\n        /* \"@thirdweb-dev/contracts/external-deps/openzeppelin/token/ERC20/extensions/ERC20Permit.sol\":3099:3165   */\n      dup1\n      iszero\n      tag_214\n      jumpi\n      pop\n        /* \"@thirdweb-dev/contracts/external-deps/openzeppelin/token/ERC20/extensions/ERC20Permit.sol\":3149:3165   */\n      immutable(\"0x538742f01864684e7bc02c5833d23bcc80c6c36906ebb070efda83aa556ded94\")\n        /* \"@thirdweb-dev/contracts/external-deps/openzeppelin/token/ERC20/extensions/ERC20Permit.sol\":3132:3145   */\n      chainid\n        /* \"@thirdweb-dev/contracts/external-deps/openzeppelin/token/ERC20/extensions/ERC20Permit.sol\":3132:3165   */\n      eq\n        /* \"@thirdweb-dev/contracts/external-deps/openzeppelin/token/ERC20/extensions/ERC20Permit.sol\":3099:3165   */\n    tag_214:\n        /* \"@thirdweb-dev/contracts/external-deps/openzeppelin/token/ERC20/extensions/ERC20Permit.sol\":3095:3284   */\n      iszero\n      tag_215\n      jumpi\n      pop\n        /* \"@thirdweb-dev/contracts/external-deps/openzeppelin/token/ERC20/extensions/ERC20Permit.sol\":3188:3212   */\n      immutable(\"0x667e71f1383f6018017c7f9f00ba5758f756bb81173e5c0c2366813dad6f3e59\")\n      swap1\n        /* \"@thirdweb-dev/contracts/external-deps/openzeppelin/token/ERC20/extensions/ERC20Permit.sol\":3018:3290   */\n      jump\t// out\n        /* \"@thirdweb-dev/contracts/external-deps/openzeppelin/token/ERC20/extensions/ERC20Permit.sol\":3095:3284   */\n    tag_215:\n        /* \"@thirdweb-dev/contracts/external-deps/openzeppelin/token/ERC20/extensions/ERC20Permit.sol\":3250:3273   */\n      tag_217\n        /* \"@thirdweb-dev/contracts/external-deps/openzeppelin/token/ERC20/extensions/ERC20Permit.sol\":3250:3271   */\n      tag_218\n        /* \"@thirdweb-dev/contracts/external-deps/openzeppelin/token/ERC20/extensions/ERC20Permit.sol\":3250:3273   */\n      jump\t// in\n    tag_217:\n        /* \"@thirdweb-dev/contracts/external-deps/openzeppelin/token/ERC20/extensions/ERC20Permit.sol\":3243:3273   */\n      swap1\n      pop\n        /* \"@thirdweb-dev/contracts/external-deps/openzeppelin/token/ERC20/extensions/ERC20Permit.sol\":3018:3290   */\n      swap1\n      jump\t// out\n        /* \"@thirdweb-dev/contracts/extension/Permissions.sol\":4466:4683   */\n    tag_87:\n        /* \"@thirdweb-dev/contracts/extension/Permissions.sol\":4557:4567   */\n      caller\n      sub(shl(0xa0, 0x01), 0x01)\n        /* \"@thirdweb-dev/contracts/extension/Permissions.sol\":4557:4578   */\n      dup3\n      and\n      eq\n        /* \"@thirdweb-dev/contracts/extension/Permissions.sol\":4553:4641   */\n      tag_220\n      jumpi\n        /* \"@thirdweb-dev/contracts/extension/Permissions.sol\":4594:4630   */\n      mload(0x40)\n      shl(0xe5, 0x461bcd)\n      dup2\n      mstore\n        /* \"#utility.yul\":8983:8985   */\n      0x20\n        /* \"@thirdweb-dev/contracts/extension/Permissions.sol\":4594:4630   */\n      0x04\n      dup3\n      add\n        /* \"#utility.yul\":8965:8986   */\n      mstore\n        /* \"#utility.yul\":9022:9024   */\n      0x1a\n        /* \"#utility.yul\":9002:9020   */\n      0x24\n      dup3\n      add\n        /* \"#utility.yul\":8995:9025   */\n      mstore\n        /* \"#utility.yul\":9061:9089   */\n      0x43616e206f6e6c792072656e6f756e636520666f722073656c66000000000000\n        /* \"#utility.yul\":9041:9059   */\n      0x44\n      dup3\n      add\n        /* \"#utility.yul\":9034:9090   */\n      mstore\n        /* \"#utility.yul\":9107:9125   */\n      0x64\n      add\n        /* \"@thirdweb-dev/contracts/extension/Permissions.sol\":4594:4630   */\n      tag_187\n        /* \"#utility.yul\":8781:9131   */\n      jump\n        /* \"@thirdweb-dev/contracts/extension/Permissions.sol\":4553:4641   */\n    tag_220:\n        /* \"@thirdweb-dev/contracts/extension/Permissions.sol\":4650:4676   */\n      tag_210\n        /* \"@thirdweb-dev/contracts/extension/Permissions.sol\":4662:4666   */\n      dup3\n        /* \"@thirdweb-dev/contracts/extension/Permissions.sol\":4668:4675   */\n      dup3\n        /* \"@thirdweb-dev/contracts/extension/Permissions.sol\":4650:4661   */\n      tag_224\n        /* \"@thirdweb-dev/contracts/extension/Permissions.sol\":4650:4676   */\n      jump\t// in\n        /* \"@thirdweb-dev/contracts/external-deps/openzeppelin/token/ERC20/ERC20.sol\":5910:6146   */\n    tag_90:\n        /* \"@thirdweb-dev/contracts/external-deps/openzeppelin/utils/Context.sol\":719:729   */\n      caller\n        /* \"@thirdweb-dev/contracts/external-deps/openzeppelin/token/ERC20/ERC20.sol\":5998:6002   */\n      0x00\n        /* \"@thirdweb-dev/contracts/external-deps/openzeppelin/token/ERC20/ERC20.sol\":6077:6095   */\n      dup2\n      dup2\n      mstore\n        /* \"@thirdweb-dev/contracts/external-deps/openzeppelin/token/ERC20/ERC20.sol\":6077:6088   */\n      0x03\n        /* \"@thirdweb-dev/contracts/external-deps/openzeppelin/token/ERC20/ERC20.sol\":6077:6095   */\n      0x20\n      swap1\n      dup2\n      mstore\n      0x40\n      dup1\n      dup4\n      keccak256\n      sub(shl(0xa0, 0x01), 0x01)\n        /* \"@thirdweb-dev/contracts/external-deps/openzeppelin/token/ERC20/ERC20.sol\":6077:6104   */\n      dup8\n      and\n      dup5\n      mstore\n      swap1\n      swap2\n      mstore\n      dup2\n      keccak256\n      sload\n        /* \"@thirdweb-dev/contracts/external-deps/openzeppelin/token/ERC20/ERC20.sol\":5998:6002   */\n      swap1\n      swap2\n        /* \"@thirdweb-dev/contracts/external-deps/openzeppelin/utils/Context.sol\":719:729   */\n      swap1\n        /* \"@thirdweb-dev/contracts/external-deps/openzeppelin/token/ERC20/ERC20.sol\":6052:6118   */\n      tag_181\n      swap1\n        /* \"@thirdweb-dev/contracts/external-deps/openzeppelin/utils/Context.sol\":719:729   */\n      dup3\n      swap1\n        /* \"@thirdweb-dev/contracts/external-deps/openzeppelin/token/ERC20/ERC20.sol\":6077:6104   */\n      dup7\n      swap1\n        /* \"@thirdweb-dev/contracts/external-deps/openzeppelin/token/ERC20/ERC20.sol\":6077:6117   */\n      tag_201\n      swap1\n        /* \"@thirdweb-dev/contracts/external-deps/openzeppelin/token/ERC20/ERC20.sol\":6107:6117   */\n      dup8\n      swap1\n        /* \"@thirdweb-dev/contracts/external-deps/openzeppelin/token/ERC20/ERC20.sol\":6077:6117   */\n      tag_229\n      jump\t// in\n        /* \"@thirdweb-dev/contracts/base/ERC20Base.sol\":2451:2615   */\n    tag_95:\n        /* \"@thirdweb-dev/contracts/base/ERC20Base.sol\":2527:2537   */\n      caller\n        /* \"@thirdweb-dev/contracts/external-deps/openzeppelin/token/ERC20/ERC20.sol\":3519:3526   */\n      0x00\n        /* \"@thirdweb-dev/contracts/external-deps/openzeppelin/token/ERC20/ERC20.sol\":3545:3563   */\n      swap1\n      dup2\n      mstore\n        /* \"@thirdweb-dev/contracts/external-deps/openzeppelin/token/ERC20/ERC20.sol\":3545:3554   */\n      0x02\n        /* \"@thirdweb-dev/contracts/external-deps/openzeppelin/token/ERC20/ERC20.sol\":3545:3563   */\n      0x20\n      mstore\n      0x40\n      swap1\n      keccak256\n      sload\n        /* \"@thirdweb-dev/contracts/base/ERC20Base.sol\":2542:2549   */\n      dup2\n      gt\n        /* \"@thirdweb-dev/contracts/base/ERC20Base.sol\":2517:2549   */\n      iszero\n        /* \"@thirdweb-dev/contracts/base/ERC20Base.sol\":2509:2572   */\n      tag_232\n      jumpi\n      mload(0x40)\n      shl(0xe5, 0x461bcd)\n      dup2\n      mstore\n        /* \"#utility.yul\":9468:9470   */\n      0x20\n        /* \"@thirdweb-dev/contracts/base/ERC20Base.sol\":2509:2572   */\n      0x04\n      dup3\n      add\n        /* \"#utility.yul\":9450:9471   */\n      mstore\n        /* \"#utility.yul\":9507:9509   */\n      0x12\n        /* \"#utility.yul\":9487:9505   */\n      0x24\n      dup3\n      add\n        /* \"#utility.yul\":9480:9510   */\n      mstore\n        /* \"#utility.yul\":9546:9566   */\n      0x6e6f7420656e6f7567682062616c616e63650000000000000000000000000000\n        /* \"#utility.yul\":9526:9544   */\n      0x44\n      dup3\n      add\n        /* \"#utility.yul\":9519:9567   */\n      mstore\n        /* \"#utility.yul\":9584:9602   */\n      0x64\n      add\n        /* \"@thirdweb-dev/contracts/base/ERC20Base.sol\":2509:2572   */\n      tag_187\n        /* \"#utility.yul\":9266:9608   */\n      jump\n        /* \"@thirdweb-dev/contracts/base/ERC20Base.sol\":2509:2572   */\n    tag_232:\n        /* \"@thirdweb-dev/contracts/base/ERC20Base.sol\":2582:2608   */\n      tag_189\n        /* \"@thirdweb-dev/contracts/base/ERC20Base.sol\":2588:2598   */\n      caller\n        /* \"@thirdweb-dev/contracts/base/ERC20Base.sol\":2600:2607   */\n      dup3\n        /* \"@thirdweb-dev/contracts/base/ERC20Base.sol\":2582:2587   */\n      tag_236\n        /* \"@thirdweb-dev/contracts/base/ERC20Base.sol\":2582:2608   */\n      jump\t// in\n        /* \"@thirdweb-dev/contracts/base/ERC20Base.sol\":2019:2228   */\n    tag_98:\n        /* \"@thirdweb-dev/contracts/base/ERC20Base.sol\":2098:2108   */\n      tag_238\n        /* \"@thirdweb-dev/contracts/base/ERC20Base.sol\":2098:2106   */\n      tag_185\n        /* \"@thirdweb-dev/contracts/base/ERC20Base.sol\":2098:2108   */\n      jump\t// in\n    tag_238:\n        /* \"@thirdweb-dev/contracts/base/ERC20Base.sol\":2090:2136   */\n      tag_240\n      jumpi\n      mload(0x40)\n      shl(0xe5, 0x461bcd)\n      dup2\n      mstore\n        /* \"#utility.yul\":9815:9817   */\n      0x20\n        /* \"@thirdweb-dev/contracts/base/ERC20Base.sol\":2090:2136   */\n      0x04\n      dup3\n      add\n        /* \"#utility.yul\":9797:9818   */\n      mstore\n        /* \"#utility.yul\":9854:9856   */\n      0x17\n        /* \"#utility.yul\":9834:9852   */\n      0x24\n      dup3\n      add\n        /* \"#utility.yul\":9827:9857   */\n      mstore\n        /* \"#utility.yul\":9893:9918   */\n      0x4e6f7420617574686f72697a656420746f206d696e742e000000000000000000\n        /* \"#utility.yul\":9873:9891   */\n      0x44\n      dup3\n      add\n        /* \"#utility.yul\":9866:9919   */\n      mstore\n        /* \"#utility.yul\":9936:9954   */\n      0x64\n      add\n        /* \"@thirdweb-dev/contracts/base/ERC20Base.sol\":2090:2136   */\n      tag_187\n        /* \"#utility.yul\":9613:9960   */\n      jump\n        /* \"@thirdweb-dev/contracts/base/ERC20Base.sol\":2090:2136   */\n    tag_240:\n        /* \"@thirdweb-dev/contracts/base/ERC20Base.sol\":2154:2161   */\n      dup1\n        /* \"@thirdweb-dev/contracts/base/ERC20Base.sol\":2165:2166   */\n      0x00\n        /* \"@thirdweb-dev/contracts/base/ERC20Base.sol\":2154:2166   */\n      sub\n        /* \"@thirdweb-dev/contracts/base/ERC20Base.sol\":2146:2191   */\n      tag_243\n      jumpi\n      mload(0x40)\n      shl(0xe5, 0x461bcd)\n      dup2\n      mstore\n        /* \"#utility.yul\":10167:10169   */\n      0x20\n        /* \"@thirdweb-dev/contracts/base/ERC20Base.sol\":2146:2191   */\n      0x04\n      dup3\n      add\n        /* \"#utility.yul\":10149:10170   */\n      mstore\n        /* \"#utility.yul\":10206:10208   */\n      0x14\n        /* \"#utility.yul\":10186:10204   */\n      0x24\n      dup3\n      add\n        /* \"#utility.yul\":10179:10209   */\n      mstore\n        /* \"#utility.yul\":10245:10267   */\n      0x4d696e74696e67207a65726f20746f6b656e732e000000000000000000000000\n        /* \"#utility.yul\":10225:10243   */\n      0x44\n      dup3\n      add\n        /* \"#utility.yul\":10218:10268   */\n      mstore\n        /* \"#utility.yul\":10285:10303   */\n      0x64\n      add\n        /* \"@thirdweb-dev/contracts/base/ERC20Base.sol\":2146:2191   */\n      tag_187\n        /* \"#utility.yul\":9965:10309   */\n      jump\n        /* \"@thirdweb-dev/contracts/base/ERC20Base.sol\":2146:2191   */\n    tag_243:\n        /* \"@thirdweb-dev/contracts/base/ERC20Base.sol\":2202:2221   */\n      tag_210\n        /* \"@thirdweb-dev/contracts/base/ERC20Base.sol\":2208:2211   */\n      dup3\n        /* \"@thirdweb-dev/contracts/base/ERC20Base.sol\":2213:2220   */\n      dup3\n        /* \"@thirdweb-dev/contracts/base/ERC20Base.sol\":2202:2207   */\n      tag_247\n        /* \"@thirdweb-dev/contracts/base/ERC20Base.sol\":2202:2221   */\n      jump\t// in\n        /* \"@thirdweb-dev/contracts/base/ERC20Base.sol\":2912:3342   */\n    tag_105:\n        /* \"@thirdweb-dev/contracts/base/ERC20Base.sol\":3009:3019   */\n      tag_250\n        /* \"@thirdweb-dev/contracts/base/ERC20Base.sol\":3009:3017   */\n      tag_185\n        /* \"@thirdweb-dev/contracts/base/ERC20Base.sol\":3009:3019   */\n      jump\t// in\n    tag_250:\n        /* \"@thirdweb-dev/contracts/base/ERC20Base.sol\":3001:3047   */\n      tag_252\n      jumpi\n      mload(0x40)\n      shl(0xe5, 0x461bcd)\n      dup2\n      mstore\n        /* \"#utility.yul\":10516:10518   */\n      0x20\n        /* \"@thirdweb-dev/contracts/base/ERC20Base.sol\":3001:3047   */\n      0x04\n      dup3\n      add\n        /* \"#utility.yul\":10498:10519   */\n      mstore\n        /* \"#utility.yul\":10555:10557   */\n      0x17\n        /* \"#utility.yul\":10535:10553   */\n      0x24\n      dup3\n      add\n        /* \"#utility.yul\":10528:10558   */\n      mstore\n        /* \"#utility.yul\":10594:10619   */\n      0x4e6f7420617574686f72697a656420746f206275726e2e000000000000000000\n        /* \"#utility.yul\":10574:10592   */\n      0x44\n      dup3\n      add\n        /* \"#utility.yul\":10567:10620   */\n      mstore\n        /* \"#utility.yul\":10637:10655   */\n      0x64\n      add\n        /* \"@thirdweb-dev/contracts/base/ERC20Base.sol\":3001:3047   */\n      tag_187\n        /* \"#utility.yul\":10314:10661   */\n      jump\n        /* \"@thirdweb-dev/contracts/base/ERC20Base.sol\":3001:3047   */\n    tag_252:\n        /* \"@thirdweb-dev/contracts/base/ERC20Base.sol\":3088:3095   */\n      dup1\n        /* \"@thirdweb-dev/contracts/base/ERC20Base.sol\":3065:3084   */\n      tag_255\n        /* \"@thirdweb-dev/contracts/base/ERC20Base.sol\":3075:3083   */\n      dup4\n      sub(shl(0xa0, 0x01), 0x01)\n        /* \"@thirdweb-dev/contracts/external-deps/openzeppelin/token/ERC20/ERC20.sol\":3545:3563   */\n      and\n        /* \"@thirdweb-dev/contracts/external-deps/openzeppelin/token/ERC20/ERC20.sol\":3519:3526   */\n      0x00\n        /* \"@thirdweb-dev/contracts/external-deps/openzeppelin/token/ERC20/ERC20.sol\":3545:3563   */\n      swap1\n      dup2\n      mstore\n        /* \"@thirdweb-dev/contracts/external-deps/openzeppelin/token/ERC20/ERC20.sol\":3545:3554   */\n      0x02\n        /* \"@thirdweb-dev/contracts/external-deps/openzeppelin/token/ERC20/ERC20.sol\":3545:3563   */\n      0x20\n      mstore\n      0x40\n      swap1\n      keccak256\n      sload\n      swap1\n        /* \"@thirdweb-dev/contracts/external-deps/openzeppelin/token/ERC20/ERC20.sol\":3445:3570   */\n      jump\n        /* \"@thirdweb-dev/contracts/base/ERC20Base.sol\":3065:3084   */\n    tag_255:\n        /* \"@thirdweb-dev/contracts/base/ERC20Base.sol\":3065:3095   */\n      lt\n      iszero\n        /* \"@thirdweb-dev/contracts/base/ERC20Base.sol\":3057:3118   */\n      tag_256\n      jumpi\n      mload(0x40)\n      shl(0xe5, 0x461bcd)\n      dup2\n      mstore\n        /* \"#utility.yul\":9468:9470   */\n      0x20\n        /* \"@thirdweb-dev/contracts/base/ERC20Base.sol\":3057:3118   */\n      0x04\n      dup3\n      add\n        /* \"#utility.yul\":9450:9471   */\n      mstore\n        /* \"#utility.yul\":9507:9509   */\n      0x12\n        /* \"#utility.yul\":9487:9505   */\n      0x24\n      dup3\n      add\n        /* \"#utility.yul\":9480:9510   */\n      mstore\n        /* \"#utility.yul\":9546:9566   */\n      0x6e6f7420656e6f7567682062616c616e63650000000000000000000000000000\n        /* \"#utility.yul\":9526:9544   */\n      0x44\n      dup3\n      add\n        /* \"#utility.yul\":9519:9567   */\n      mstore\n        /* \"#utility.yul\":9584:9602   */\n      0x64\n      add\n        /* \"@thirdweb-dev/contracts/base/ERC20Base.sol\":3057:3118   */\n      tag_187\n        /* \"#utility.yul\":9266:9608   */\n      jump\n        /* \"@thirdweb-dev/contracts/base/ERC20Base.sol\":3057:3118   */\n    tag_256:\n      sub(shl(0xa0, 0x01), 0x01)\n        /* \"@thirdweb-dev/contracts/external-deps/openzeppelin/token/ERC20/ERC20.sol\":4128:4146   */\n      dup3\n      and\n        /* \"@thirdweb-dev/contracts/base/ERC20Base.sol\":3128:3154   */\n      0x00\n        /* \"@thirdweb-dev/contracts/external-deps/openzeppelin/token/ERC20/ERC20.sol\":4128:4146   */\n      swap1\n      dup2\n      mstore\n        /* \"@thirdweb-dev/contracts/external-deps/openzeppelin/token/ERC20/ERC20.sol\":4128:4139   */\n      0x03\n        /* \"@thirdweb-dev/contracts/external-deps/openzeppelin/token/ERC20/ERC20.sol\":4128:4146   */\n      0x20\n      swap1\n      dup2\n      mstore\n      0x40\n      dup1\n      dup4\n      keccak256\n        /* \"@thirdweb-dev/contracts/base/ERC20Base.sol\":3177:3187   */\n      caller\n        /* \"@thirdweb-dev/contracts/external-deps/openzeppelin/token/ERC20/ERC20.sol\":4128:4155   */\n      dup5\n      mstore\n      swap1\n      swap2\n      mstore\n      dup2\n      keccak256\n      sload\n        /* \"@thirdweb-dev/contracts/base/ERC20Base.sol\":3157:3198   */\n      tag_259\n      swap1\n        /* \"@thirdweb-dev/contracts/base/ERC20Base.sol\":3191:3198   */\n      dup4\n      swap1\n        /* \"@thirdweb-dev/contracts/base/ERC20Base.sol\":3157:3198   */\n      tag_202\n      jump\t// in\n    tag_259:\n        /* \"@thirdweb-dev/contracts/base/ERC20Base.sol\":3128:3198   */\n      swap1\n      pop\n        /* \"@thirdweb-dev/contracts/base/ERC20Base.sol\":3208:3241   */\n      tag_260\n        /* \"@thirdweb-dev/contracts/base/ERC20Base.sol\":3217:3225   */\n      dup4\n        /* \"@thirdweb-dev/contracts/base/ERC20Base.sol\":3227:3237   */\n      caller\n        /* \"@thirdweb-dev/contracts/base/ERC20Base.sol\":3239:3240   */\n      0x00\n        /* \"@thirdweb-dev/contracts/base/ERC20Base.sol\":3208:3216   */\n      tag_182\n        /* \"@thirdweb-dev/contracts/base/ERC20Base.sol\":3208:3241   */\n      jump\t// in\n    tag_260:\n        /* \"@thirdweb-dev/contracts/base/ERC20Base.sol\":3251:3301   */\n      tag_261\n        /* \"@thirdweb-dev/contracts/base/ERC20Base.sol\":3260:3268   */\n      dup4\n        /* \"@thirdweb-dev/contracts/base/ERC20Base.sol\":3270:3280   */\n      caller\n        /* \"@thirdweb-dev/contracts/base/ERC20Base.sol\":3282:3300   */\n      dup4\n        /* \"@thirdweb-dev/contracts/base/ERC20Base.sol\":3251:3259   */\n      tag_182\n        /* \"@thirdweb-dev/contracts/base/ERC20Base.sol\":3251:3301   */\n      jump\t// in\n    tag_261:\n        /* \"@thirdweb-dev/contracts/base/ERC20Base.sol\":3311:3335   */\n      tag_262\n        /* \"@thirdweb-dev/contracts/base/ERC20Base.sol\":3317:3325   */\n      dup4\n        /* \"@thirdweb-dev/contracts/base/ERC20Base.sol\":3327:3334   */\n      dup4\n        /* \"@thirdweb-dev/contracts/base/ERC20Base.sol\":3311:3316   */\n      tag_236\n        /* \"@thirdweb-dev/contracts/base/ERC20Base.sol\":3311:3335   */\n      jump\t// in\n    tag_262:\n        /* \"@thirdweb-dev/contracts/base/ERC20Base.sol\":2991:3342   */\n      pop\n        /* \"@thirdweb-dev/contracts/base/ERC20Base.sol\":2912:3342   */\n      pop\n      pop\n      jump\t// out\n        /* \"@thirdweb-dev/contracts/external-deps/openzeppelin/token/ERC20/extensions/ERC20Permit.sol\":2768:2894   */\n    tag_108:\n      sub(shl(0xa0, 0x01), 0x01)\n        /* \"@thirdweb-dev/contracts/external-deps/openzeppelin/token/ERC20/extensions/ERC20Permit.sol\":2863:2877   */\n      dup2\n      and\n        /* \"@thirdweb-dev/contracts/external-deps/openzeppelin/token/ERC20/extensions/ERC20Permit.sol\":2837:2844   */\n      0x00\n        /* \"@thirdweb-dev/contracts/external-deps/openzeppelin/token/ERC20/extensions/ERC20Permit.sol\":2863:2877   */\n      swap1\n      dup2\n      mstore\n        /* \"@thirdweb-dev/contracts/external-deps/openzeppelin/token/ERC20/extensions/ERC20Permit.sol\":2863:2870   */\n      0x07\n        /* \"@thirdweb-dev/contracts/external-deps/openzeppelin/token/ERC20/extensions/ERC20Permit.sol\":2863:2877   */\n      0x20\n      mstore\n      0x40\n      dup2\n      keccak256\n        /* \"@thirdweb-dev/contracts/external-deps/openzeppelin/utils/Counters.sol\":918:932   */\n      sload\n        /* \"@thirdweb-dev/contracts/external-deps/openzeppelin/token/ERC20/extensions/ERC20Permit.sol\":2863:2887   */\n      tag_178\n        /* \"@thirdweb-dev/contracts/external-deps/openzeppelin/utils/Counters.sol\":827:939   */\n      jump\n        /* \"@thirdweb-dev/contracts/extension/PermissionsEnumerable.sol\":1643:2276   */\n    tag_117:\n        /* \"@thirdweb-dev/contracts/extension/PermissionsEnumerable.sol\":1727:1741   */\n      0x00\n        /* \"@thirdweb-dev/contracts/extension/PermissionsEnumerable.sol\":1776:1793   */\n      dup3\n      dup2\n      mstore\n        /* \"@thirdweb-dev/contracts/extension/PermissionsEnumerable.sol\":1776:1787   */\n      0x0a\n        /* \"@thirdweb-dev/contracts/extension/PermissionsEnumerable.sol\":1776:1793   */\n      0x20\n      mstore\n      0x40\n      dup2\n      keccak256\n        /* \"@thirdweb-dev/contracts/extension/PermissionsEnumerable.sol\":1776:1799   */\n      sload\n        /* \"@thirdweb-dev/contracts/extension/PermissionsEnumerable.sol\":1727:1741   */\n      dup2\n      dup1\n        /* \"@thirdweb-dev/contracts/extension/PermissionsEnumerable.sol\":1833:2270   */\n    tag_268:\n        /* \"@thirdweb-dev/contracts/extension/PermissionsEnumerable.sol\":1857:1869   */\n      dup3\n        /* \"@thirdweb-dev/contracts/extension/PermissionsEnumerable.sol\":1853:1854   */\n      dup2\n        /* \"@thirdweb-dev/contracts/extension/PermissionsEnumerable.sol\":1853:1869   */\n      lt\n        /* \"@thirdweb-dev/contracts/extension/PermissionsEnumerable.sol\":1833:2270   */\n      iszero\n      tag_269\n      jumpi\n        /* \"@thirdweb-dev/contracts/extension/PermissionsEnumerable.sol\":1937:1938   */\n      0x00\n        /* \"@thirdweb-dev/contracts/extension/PermissionsEnumerable.sol\":1897:1914   */\n      dup7\n      dup2\n      mstore\n        /* \"@thirdweb-dev/contracts/extension/PermissionsEnumerable.sol\":1897:1908   */\n      0x0a\n        /* \"@thirdweb-dev/contracts/extension/PermissionsEnumerable.sol\":1897:1914   */\n      0x20\n      swap1\n      dup2\n      mstore\n      0x40\n      dup1\n      dup4\n      keccak256\n        /* \"@thirdweb-dev/contracts/extension/PermissionsEnumerable.sol\":1897:1925   */\n      dup5\n      dup5\n      mstore\n        /* \"@thirdweb-dev/contracts/extension/PermissionsEnumerable.sol\":1897:1922   */\n      0x01\n      add\n        /* \"@thirdweb-dev/contracts/extension/PermissionsEnumerable.sol\":1897:1925   */\n      swap1\n      swap2\n      mstore\n      swap1\n      keccak256\n      sload\n      sub(shl(0xa0, 0x01), 0x01)\n      and\n        /* \"@thirdweb-dev/contracts/extension/PermissionsEnumerable.sol\":1897:1939   */\n      iszero\n        /* \"@thirdweb-dev/contracts/extension/PermissionsEnumerable.sol\":1893:2260   */\n      tag_271\n      jumpi\n        /* \"@thirdweb-dev/contracts/extension/PermissionsEnumerable.sol\":1972:1977   */\n      dup5\n        /* \"@thirdweb-dev/contracts/extension/PermissionsEnumerable.sol\":1963:1968   */\n      dup3\n        /* \"@thirdweb-dev/contracts/extension/PermissionsEnumerable.sol\":1963:1977   */\n      sub\n        /* \"@thirdweb-dev/contracts/extension/PermissionsEnumerable.sol\":1959:2092   */\n      tag_272\n      jumpi\n        /* \"@thirdweb-dev/contracts/extension/PermissionsEnumerable.sol\":2010:2027   */\n      0x00\n      dup7\n      dup2\n      mstore\n        /* \"@thirdweb-dev/contracts/extension/PermissionsEnumerable.sol\":2010:2021   */\n      0x0a\n        /* \"@thirdweb-dev/contracts/extension/PermissionsEnumerable.sol\":2010:2027   */\n      0x20\n      swap1\n      dup2\n      mstore\n      0x40\n      dup1\n      dup4\n      keccak256\n        /* \"@thirdweb-dev/contracts/extension/PermissionsEnumerable.sol\":2010:2038   */\n      swap4\n      dup4\n      mstore\n        /* \"@thirdweb-dev/contracts/extension/PermissionsEnumerable.sol\":2010:2035   */\n      0x01\n      swap1\n      swap4\n      add\n        /* \"@thirdweb-dev/contracts/extension/PermissionsEnumerable.sol\":2010:2038   */\n      swap1\n      mstore\n      keccak256\n      sload\n      sub(shl(0xa0, 0x01), 0x01)\n      and\n      swap3\n      pop\n        /* \"@thirdweb-dev/contracts/extension/PermissionsEnumerable.sol\":2060:2073   */\n      tag_178\n      swap2\n      pop\n      pop\n      jump\n        /* \"@thirdweb-dev/contracts/extension/PermissionsEnumerable.sol\":1959:2092   */\n    tag_272:\n        /* \"@thirdweb-dev/contracts/extension/PermissionsEnumerable.sol\":2109:2119   */\n      tag_273\n        /* \"@thirdweb-dev/contracts/extension/PermissionsEnumerable.sol\":2118:2119   */\n      0x01\n        /* \"@thirdweb-dev/contracts/extension/PermissionsEnumerable.sol\":2109:2119   */\n      dup4\n      tag_229\n      jump\t// in\n    tag_273:\n      swap2\n      pop\n        /* \"@thirdweb-dev/contracts/extension/PermissionsEnumerable.sol\":1893:2260   */\n      jump(tag_277)\n    tag_271:\n        /* \"@thirdweb-dev/contracts/extension/PermissionsEnumerable.sol\":2166:2167   */\n      0x00\n        /* \"@thirdweb-dev/contracts/extension/Permissions.sol\":1425:1439   */\n      dup7\n      dup2\n      mstore\n        /* \"@thirdweb-dev/contracts/extension/Permissions.sol\":1425:1433   */\n      0x08\n        /* \"@thirdweb-dev/contracts/extension/Permissions.sol\":1425:1439   */\n      0x20\n      swap1\n      dup2\n      mstore\n      0x40\n      dup1\n      dup4\n      keccak256\n        /* \"@thirdweb-dev/contracts/extension/Permissions.sol\":1425:1448   */\n      dup4\n      dup1\n      mstore\n      swap1\n      swap2\n      mstore\n      swap1\n      keccak256\n      sload\n      0xff\n      and\n        /* \"@thirdweb-dev/contracts/extension/PermissionsEnumerable.sol\":2144:2215   */\n      dup1\n      iszero\n      tag_276\n      jumpi\n      pop\n        /* \"@thirdweb-dev/contracts/extension/PermissionsEnumerable.sol\":2178:2195   */\n      0x00\n      dup7\n      dup2\n      mstore\n        /* \"@thirdweb-dev/contracts/extension/PermissionsEnumerable.sol\":2178:2189   */\n      0x0a\n        /* \"@thirdweb-dev/contracts/extension/PermissionsEnumerable.sol\":2178:2195   */\n      0x20\n      swap1\n      dup2\n      mstore\n      0x40\n      dup1\n      dup4\n      keccak256\n        /* \"@thirdweb-dev/contracts/extension/PermissionsEnumerable.sol\":2178:2215   */\n      dup4\n      dup1\n      mstore\n        /* \"@thirdweb-dev/contracts/extension/PermissionsEnumerable.sol\":2178:2203   */\n      0x02\n      add\n        /* \"@thirdweb-dev/contracts/extension/PermissionsEnumerable.sol\":2178:2215   */\n      swap1\n      swap2\n      mstore\n      swap1\n      keccak256\n      sload\n        /* \"@thirdweb-dev/contracts/extension/PermissionsEnumerable.sol\":2173:2215   */\n      dup2\n      eq\n        /* \"@thirdweb-dev/contracts/extension/PermissionsEnumerable.sol\":2144:2215   */\n    tag_276:\n        /* \"@thirdweb-dev/contracts/extension/PermissionsEnumerable.sol\":2140:2260   */\n      iszero\n      tag_277\n      jumpi\n        /* \"@thirdweb-dev/contracts/extension/PermissionsEnumerable.sol\":2235:2245   */\n      tag_278\n        /* \"@thirdweb-dev/contracts/extension/PermissionsEnumerable.sol\":2244:2245   */\n      0x01\n        /* \"@thirdweb-dev/contracts/extension/PermissionsEnumerable.sol\":2235:2245   */\n      dup4\n      tag_229\n      jump\t// in\n    tag_278:\n      swap2\n      pop\n        /* \"@thirdweb-dev/contracts/extension/PermissionsEnumerable.sol\":2140:2260   */\n    tag_277:\n        /* \"@thirdweb-dev/contracts/extension/PermissionsEnumerable.sol\":1871:1877   */\n      tag_279\n        /* \"@thirdweb-dev/contracts/extension/PermissionsEnumerable.sol\":1876:1877   */\n      0x01\n        /* \"@thirdweb-dev/contracts/extension/PermissionsEnumerable.sol\":1871:1877   */\n      dup3\n      tag_229\n      jump\t// in\n    tag_279:\n      swap1\n      pop\n        /* \"@thirdweb-dev/contracts/extension/PermissionsEnumerable.sol\":1833:2270   */\n      jump(tag_268)\n    tag_269:\n      pop\n        /* \"@thirdweb-dev/contracts/extension/PermissionsEnumerable.sol\":1743:2276   */\n      pop\n      pop\n        /* \"@thirdweb-dev/contracts/extension/PermissionsEnumerable.sol\":1643:2276   */\n      swap3\n      swap2\n      pop\n      pop\n      jump\t// out\n        /* \"@thirdweb-dev/contracts/extension/ContractMetadata.sol\":1003:1191   */\n    tag_126:\n        /* \"@thirdweb-dev/contracts/extension/ContractMetadata.sol\":1080:1100   */\n      tag_282\n        /* \"@thirdweb-dev/contracts/extension/ContractMetadata.sol\":1080:1098   */\n      tag_185\n        /* \"@thirdweb-dev/contracts/extension/ContractMetadata.sol\":1080:1100   */\n      jump\t// in\n    tag_282:\n        /* \"@thirdweb-dev/contracts/extension/ContractMetadata.sol\":1075:1151   */\n      tag_284\n      jumpi\n        /* \"@thirdweb-dev/contracts/extension/ContractMetadata.sol\":1116:1140   */\n      mload(0x40)\n      shl(0xe5, 0x461bcd)\n      dup2\n      mstore\n        /* \"#utility.yul\":7658:7660   */\n      0x20\n        /* \"@thirdweb-dev/contracts/extension/ContractMetadata.sol\":1116:1140   */\n      0x04\n      dup3\n      add\n        /* \"#utility.yul\":7640:7661   */\n      mstore\n        /* \"#utility.yul\":7697:7699   */\n      0x0e\n        /* \"#utility.yul\":7677:7695   */\n      0x24\n      dup3\n      add\n        /* \"#utility.yul\":7670:7700   */\n      mstore\n      shl(0x92, 0x139bdd08185d5d1a1bdc9a5e9959)\n        /* \"#utility.yul\":7716:7734   */\n      0x44\n      dup3\n      add\n        /* \"#utility.yul\":7709:7753   */\n      mstore\n        /* \"#utility.yul\":7770:7788   */\n      0x64\n      add\n        /* \"@thirdweb-dev/contracts/extension/ContractMetadata.sol\":1116:1140   */\n      tag_187\n        /* \"#utility.yul\":7456:7794   */\n      jump\n        /* \"@thirdweb-dev/contracts/extension/ContractMetadata.sol\":1075:1151   */\n    tag_284:\n        /* \"@thirdweb-dev/contracts/extension/ContractMetadata.sol\":1161:1184   */\n      tag_189\n        /* \"@thirdweb-dev/contracts/extension/ContractMetadata.sol\":1179:1183   */\n      dup2\n        /* \"@thirdweb-dev/contracts/extension/ContractMetadata.sol\":1161:1178   */\n      tag_287\n        /* \"@thirdweb-dev/contracts/extension/ContractMetadata.sol\":1161:1184   */\n      jump\t// in\n        /* \"@thirdweb-dev/contracts/external-deps/openzeppelin/token/ERC20/ERC20.sol\":2404:2506   */\n    tag_128:\n        /* \"@thirdweb-dev/contracts/external-deps/openzeppelin/token/ERC20/ERC20.sol\":2460:2473   */\n      0x60\n        /* \"@thirdweb-dev/contracts/external-deps/openzeppelin/token/ERC20/ERC20.sol\":2492:2499   */\n      0x06\n        /* \"@thirdweb-dev/contracts/external-deps/openzeppelin/token/ERC20/ERC20.sol\":2485:2499   */\n      dup1\n      sload\n      tag_172\n      swap1\n      tag_173\n      jump\t// in\n        /* \"@thirdweb-dev/contracts/extension/Permissions.sol\":2206:2417   */\n    tag_135:\n        /* \"@thirdweb-dev/contracts/extension/Permissions.sol\":2285:2289   */\n      0x00\n        /* \"@thirdweb-dev/contracts/extension/Permissions.sol\":2306:2320   */\n      dup3\n      dup2\n      mstore\n        /* \"@thirdweb-dev/contracts/extension/Permissions.sol\":2306:2314   */\n      0x08\n        /* \"@thirdweb-dev/contracts/extension/Permissions.sol\":2306:2320   */\n      0x20\n      swap1\n      dup2\n      mstore\n      0x40\n      dup1\n      dup4\n      keccak256\n        /* \"@thirdweb-dev/contracts/extension/Permissions.sol\":2306:2332   */\n      dup4\n      dup1\n      mstore\n      swap1\n      swap2\n      mstore\n      dup2\n      keccak256\n      sload\n      0xff\n      and\n        /* \"@thirdweb-dev/contracts/extension/Permissions.sol\":2301:2389   */\n      tag_295\n      jumpi\n      pop\n        /* \"@thirdweb-dev/contracts/extension/Permissions.sol\":2355:2369   */\n      0x00\n      dup3\n      dup2\n      mstore\n        /* \"@thirdweb-dev/contracts/extension/Permissions.sol\":2355:2363   */\n      0x08\n        /* \"@thirdweb-dev/contracts/extension/Permissions.sol\":2355:2369   */\n      0x20\n      swap1\n      dup2\n      mstore\n      0x40\n      dup1\n      dup4\n      keccak256\n      sub(shl(0xa0, 0x01), 0x01)\n        /* \"@thirdweb-dev/contracts/extension/Permissions.sol\":2355:2378   */\n      dup6\n      and\n      dup5\n      mstore\n      swap1\n      swap2\n      mstore\n      swap1\n      keccak256\n      sload\n      0xff\n      and\n        /* \"@thirdweb-dev/contracts/extension/Permissions.sol\":2348:2378   */\n      jump(tag_178)\n        /* \"@thirdweb-dev/contracts/extension/Permissions.sol\":2301:2389   */\n    tag_295:\n      pop\n        /* \"@thirdweb-dev/contracts/extension/Permissions.sol\":2406:2410   */\n      0x01\n        /* \"@thirdweb-dev/contracts/extension/Permissions.sol\":2206:2417   */\n      swap3\n      swap2\n      pop\n      pop\n      jump\t// out\n        /* \"@thirdweb-dev/contracts/external-deps/openzeppelin/token/ERC20/ERC20.sol\":6633:7062   */\n    tag_139:\n        /* \"@thirdweb-dev/contracts/external-deps/openzeppelin/utils/Context.sol\":719:729   */\n      caller\n        /* \"@thirdweb-dev/contracts/external-deps/openzeppelin/token/ERC20/ERC20.sol\":6726:6730   */\n      0x00\n        /* \"@thirdweb-dev/contracts/external-deps/openzeppelin/token/ERC20/ERC20.sol\":6807:6825   */\n      dup2\n      dup2\n      mstore\n        /* \"@thirdweb-dev/contracts/external-deps/openzeppelin/token/ERC20/ERC20.sol\":6807:6818   */\n      0x03\n        /* \"@thirdweb-dev/contracts/external-deps/openzeppelin/token/ERC20/ERC20.sol\":6807:6825   */\n      0x20\n      swap1\n      dup2\n      mstore\n      0x40\n      dup1\n      dup4\n      keccak256\n      sub(shl(0xa0, 0x01), 0x01)\n        /* \"@thirdweb-dev/contracts/external-deps/openzeppelin/token/ERC20/ERC20.sol\":6807:6834   */\n      dup8\n      and\n      dup5\n      mstore\n      swap1\n      swap2\n      mstore\n      dup2\n      keccak256\n      sload\n        /* \"@thirdweb-dev/contracts/external-deps/openzeppelin/token/ERC20/ERC20.sol\":6726:6730   */\n      swap1\n      swap2\n        /* \"@thirdweb-dev/contracts/external-deps/openzeppelin/utils/Context.sol\":719:729   */\n      swap1\n        /* \"@thirdweb-dev/contracts/external-deps/openzeppelin/token/ERC20/ERC20.sol\":6852:6887   */\n      dup4\n      dup2\n      lt\n      iszero\n        /* \"@thirdweb-dev/contracts/external-deps/openzeppelin/token/ERC20/ERC20.sol\":6844:6929   */\n      tag_298\n      jumpi\n      mload(0x40)\n      shl(0xe5, 0x461bcd)\n      dup2\n      mstore\n        /* \"#utility.yul\":10868:10870   */\n      0x20\n        /* \"@thirdweb-dev/contracts/external-deps/openzeppelin/token/ERC20/ERC20.sol\":6844:6929   */\n      0x04\n      dup3\n      add\n        /* \"#utility.yul\":10850:10871   */\n      mstore\n        /* \"#utility.yul\":10907:10909   */\n      0x25\n        /* \"#utility.yul\":10887:10905   */\n      0x24\n      dup3\n      add\n        /* \"#utility.yul\":10880:10910   */\n      mstore\n        /* \"#utility.yul\":10946:10980   */\n      0x45524332303a2064656372656173656420616c6c6f77616e63652062656c6f77\n        /* \"#utility.yul\":10926:10944   */\n      0x44\n      dup3\n      add\n        /* \"#utility.yul\":10919:10981   */\n      mstore\n        /* \"#utility.yul\":11017:11024   */\n      0x207a65726f000000000000000000000000000000000000000000000000000000\n        /* \"#utility.yul\":10997:11015   */\n      0x64\n      dup3\n      add\n        /* \"#utility.yul\":10990:11025   */\n      mstore\n        /* \"#utility.yul\":11042:11061   */\n      0x84\n      add\n        /* \"@thirdweb-dev/contracts/external-deps/openzeppelin/token/ERC20/ERC20.sol\":6844:6929   */\n      tag_187\n        /* \"#utility.yul\":10666:11067   */\n      jump\n        /* \"@thirdweb-dev/contracts/external-deps/openzeppelin/token/ERC20/ERC20.sol\":6844:6929   */\n    tag_298:\n        /* \"@thirdweb-dev/contracts/external-deps/openzeppelin/token/ERC20/ERC20.sol\":6963:7023   */\n      tag_301\n        /* \"@thirdweb-dev/contracts/external-deps/openzeppelin/token/ERC20/ERC20.sol\":6972:6977   */\n      dup3\n        /* \"@thirdweb-dev/contracts/external-deps/openzeppelin/token/ERC20/ERC20.sol\":6979:6986   */\n      dup7\n        /* \"@thirdweb-dev/contracts/external-deps/openzeppelin/token/ERC20/ERC20.sol\":7007:7022   */\n      dup7\n        /* \"@thirdweb-dev/contracts/external-deps/openzeppelin/token/ERC20/ERC20.sol\":6988:7004   */\n      dup5\n        /* \"@thirdweb-dev/contracts/external-deps/openzeppelin/token/ERC20/ERC20.sol\":6988:7022   */\n      sub\n        /* \"@thirdweb-dev/contracts/external-deps/openzeppelin/token/ERC20/ERC20.sol\":6963:6971   */\n      tag_182\n        /* \"@thirdweb-dev/contracts/external-deps/openzeppelin/token/ERC20/ERC20.sol\":6963:7023   */\n      jump\t// in\n    tag_301:\n      pop\n        /* \"@thirdweb-dev/contracts/external-deps/openzeppelin/token/ERC20/ERC20.sol\":7051:7055   */\n      0x01\n      swap5\n        /* \"@thirdweb-dev/contracts/external-deps/openzeppelin/token/ERC20/ERC20.sol\":6633:7062   */\n      swap4\n      pop\n      pop\n      pop\n      pop\n      jump\t// out\n        /* \"erc20.sol\":663:902  function transfer(address to, uint256 amount) public override returns (bool) {... */\n    tag_143:\n        /* \"erc20.sol\":782:792  msg.sender */\n      caller\n        /* \"erc20.sol\":734:738  bool */\n      0x00\n        /* \"@thirdweb-dev/contracts/extension/Permissions.sol\":1425:1448   */\n      swap1\n      dup2\n      mstore\n        /* \"@thirdweb-dev/contracts/extension/Permissions.sol\":1425:1439   */\n      0x85da32aea425a83be1133c4e958580985fa04602ddf03ad35008a70703b20eb7\n      0x20\n        /* \"@thirdweb-dev/contracts/extension/Permissions.sol\":1425:1448   */\n      mstore\n        /* \"@thirdweb-dev/contracts/extension/Permissions.sol\":1425:1439   */\n      0x40\n        /* \"@thirdweb-dev/contracts/extension/Permissions.sol\":1425:1448   */\n      dup2\n      keccak256\n      sload\n      0xff\n      and\n        /* \"erc20.sol\":751:828  require(hasRole(TRANSFER_ROLE, msg.sender), \"Sender must have TRANSFER_ROLE\") */\n      tag_304\n      jumpi\n      mload(0x40)\n      shl(0xe5, 0x461bcd)\n      dup2\n      mstore\n        /* \"#utility.yul\":8001:8003   */\n      0x20\n        /* \"erc20.sol\":751:828  require(hasRole(TRANSFER_ROLE, msg.sender), \"Sender must have TRANSFER_ROLE\") */\n      0x04\n      dup3\n      add\n        /* \"#utility.yul\":7983:8004   */\n      mstore\n        /* \"#utility.yul\":8040:8042   */\n      0x1e\n        /* \"#utility.yul\":8020:8038   */\n      0x24\n      dup3\n      add\n        /* \"#utility.yul\":8013:8043   */\n      mstore\n        /* \"#utility.yul\":8079:8111   */\n      0x53656e646572206d7573742068617665205452414e534645525f524f4c450000\n        /* \"#utility.yul\":8059:8077   */\n      0x44\n      dup3\n      add\n        /* \"#utility.yul\":8052:8112   */\n      mstore\n        /* \"#utility.yul\":8129:8147   */\n      0x64\n      add\n        /* \"erc20.sol\":751:828  require(hasRole(TRANSFER_ROLE, msg.sender), \"Sender must have TRANSFER_ROLE\") */\n      tag_187\n        /* \"#utility.yul\":7799:8153   */\n      jump\n        /* \"erc20.sol\":751:828  require(hasRole(TRANSFER_ROLE, msg.sender), \"Sender must have TRANSFER_ROLE\") */\n    tag_304:\n        /* \"erc20.sol\":839:872  _transfer(msg.sender, to, amount) */\n      tag_295\n        /* \"erc20.sol\":849:859  msg.sender */\n      caller\n        /* \"erc20.sol\":861:863  to */\n      dup5\n        /* \"erc20.sol\":865:871  amount */\n      dup5\n        /* \"erc20.sol\":839:848  _transfer */\n      tag_198\n        /* \"erc20.sol\":839:872  _transfer(msg.sender, to, amount) */\n      jump\t// in\n        /* \"@thirdweb-dev/contracts/extension/Multicall.sol\":698:1017   */\n    tag_148:\n        /* \"@thirdweb-dev/contracts/extension/Multicall.sol\":775:797   */\n      0x60\n        /* \"@thirdweb-dev/contracts/extension/Multicall.sol\":831:835   */\n      dup2\n        /* \"@thirdweb-dev/contracts/extension/Multicall.sol\":819:843   */\n      0xffffffffffffffff\n      dup2\n      gt\n      iszero\n      tag_309\n      jumpi\n      tag_309\n      tag_310\n      jump\t// in\n    tag_309:\n      mload(0x40)\n      swap1\n      dup1\n      dup3\n      mstore\n      dup1\n      0x20\n      mul\n      0x20\n      add\n      dup3\n      add\n      0x40\n      mstore\n      dup1\n      iszero\n      tag_311\n      jumpi\n      dup2\n      0x20\n      add\n    tag_312:\n      0x60\n      dup2\n      mstore\n      0x20\n      add\n      swap1\n      0x01\n      swap1\n      sub\n      swap1\n      dup2\n      tag_312\n      jumpi\n      swap1\n      pop\n    tag_311:\n      pop\n        /* \"@thirdweb-dev/contracts/extension/Multicall.sol\":809:843   */\n      swap1\n      pop\n        /* \"@thirdweb-dev/contracts/extension/Multicall.sol\":858:867   */\n      0x00\n        /* \"@thirdweb-dev/contracts/extension/Multicall.sol\":853:987   */\n    tag_313:\n        /* \"@thirdweb-dev/contracts/extension/Multicall.sol\":873:888   */\n      dup3\n      dup2\n      lt\n        /* \"@thirdweb-dev/contracts/extension/Multicall.sol\":853:987   */\n      iszero\n      tag_314\n      jumpi\n        /* \"@thirdweb-dev/contracts/extension/Multicall.sol\":922:976   */\n      tag_316\n        /* \"@thirdweb-dev/contracts/extension/Multicall.sol\":961:965   */\n      address\n        /* \"@thirdweb-dev/contracts/extension/Multicall.sol\":968:972   */\n      dup6\n      dup6\n        /* \"@thirdweb-dev/contracts/extension/Multicall.sol\":973:974   */\n      dup5\n        /* \"@thirdweb-dev/contracts/extension/Multicall.sol\":968:975   */\n      dup2\n      dup2\n      lt\n      tag_318\n      jumpi\n      tag_318\n      tag_319\n      jump\t// in\n    tag_318:\n      swap1\n      pop\n      0x20\n      mul\n      dup2\n      add\n      swap1\n      tag_320\n      swap2\n      swap1\n      tag_321\n      jump\t// in\n    tag_320:\n        /* \"@thirdweb-dev/contracts/extension/Multicall.sol\":922:976   */\n      dup1\n      dup1\n      0x1f\n      add\n      0x20\n      dup1\n      swap2\n      div\n      mul\n      0x20\n      add\n      mload(0x40)\n      swap1\n      dup2\n      add\n      0x40\n      mstore\n      dup1\n      swap4\n      swap3\n      swap2\n      swap1\n      dup2\n      dup2\n      mstore\n      0x20\n      add\n      dup4\n      dup4\n      dup1\n      dup3\n      dup5\n      calldatacopy\n      0x00\n      swap3\n      add\n      swap2\n      swap1\n      swap2\n      mstore\n      pop\n        /* \"@thirdweb-dev/contracts/extension/Multicall.sol\":922:952   */\n      tag_322\n      swap3\n      pop\n      pop\n      pop\n        /* \"@thirdweb-dev/contracts/extension/Multicall.sol\":922:976   */\n      jump\t// in\n    tag_316:\n        /* \"@thirdweb-dev/contracts/extension/Multicall.sol\":909:916   */\n      dup3\n        /* \"@thirdweb-dev/contracts/extension/Multicall.sol\":917:918   */\n      dup3\n        /* \"@thirdweb-dev/contracts/extension/Multicall.sol\":909:919   */\n      dup2\n      mload\n      dup2\n      lt\n      tag_324\n      jumpi\n      tag_324\n      tag_319\n      jump\t// in\n    tag_324:\n      0x20\n      mul\n      0x20\n      add\n      add\n        /* \"@thirdweb-dev/contracts/extension/Multicall.sol\":909:976   */\n      dup2\n      swap1\n      mstore\n      pop\n        /* \"@thirdweb-dev/contracts/extension/Multicall.sol\":890:893   */\n      dup1\n      dup1\n      tag_325\n      swap1\n      tag_326\n      jump\t// in\n    tag_325:\n      swap2\n      pop\n      pop\n        /* \"@thirdweb-dev/contracts/extension/Multicall.sol\":853:987   */\n      jump(tag_313)\n    tag_314:\n      pop\n        /* \"@thirdweb-dev/contracts/extension/Multicall.sol\":698:1017   */\n      swap3\n      swap2\n      pop\n      pop\n      jump\t// out\n        /* \"@thirdweb-dev/contracts/extension/PermissionsEnumerable.sol\":2683:3081   */\n    tag_153:\n        /* \"@thirdweb-dev/contracts/extension/PermissionsEnumerable.sol\":2757:2770   */\n      0x00\n        /* \"@thirdweb-dev/contracts/extension/PermissionsEnumerable.sol\":2805:2822   */\n      dup2\n      dup2\n      mstore\n        /* \"@thirdweb-dev/contracts/extension/PermissionsEnumerable.sol\":2805:2816   */\n      0x0a\n        /* \"@thirdweb-dev/contracts/extension/PermissionsEnumerable.sol\":2805:2822   */\n      0x20\n      mstore\n      0x40\n      dup2\n      keccak256\n        /* \"@thirdweb-dev/contracts/extension/PermissionsEnumerable.sol\":2805:2828   */\n      sload\n        /* \"@thirdweb-dev/contracts/extension/PermissionsEnumerable.sol\":2757:2770   */\n      dup2\n        /* \"@thirdweb-dev/contracts/extension/PermissionsEnumerable.sol\":2839:3000   */\n    tag_328:\n        /* \"@thirdweb-dev/contracts/extension/PermissionsEnumerable.sol\":2863:2875   */\n      dup2\n        /* \"@thirdweb-dev/contracts/extension/PermissionsEnumerable.sol\":2859:2860   */\n      dup2\n        /* \"@thirdweb-dev/contracts/extension/PermissionsEnumerable.sol\":2859:2875   */\n      lt\n        /* \"@thirdweb-dev/contracts/extension/PermissionsEnumerable.sol\":2839:3000   */\n      iszero\n      tag_329\n      jumpi\n        /* \"@thirdweb-dev/contracts/extension/PermissionsEnumerable.sol\":2943:2944   */\n      0x00\n        /* \"@thirdweb-dev/contracts/extension/PermissionsEnumerable.sol\":2903:2920   */\n      dup5\n      dup2\n      mstore\n        /* \"@thirdweb-dev/contracts/extension/PermissionsEnumerable.sol\":2903:2914   */\n      0x0a\n        /* \"@thirdweb-dev/contracts/extension/PermissionsEnumerable.sol\":2903:2920   */\n      0x20\n      swap1\n      dup2\n      mstore\n      0x40\n      dup1\n      dup4\n      keccak256\n        /* \"@thirdweb-dev/contracts/extension/PermissionsEnumerable.sol\":2903:2931   */\n      dup5\n      dup5\n      mstore\n        /* \"@thirdweb-dev/contracts/extension/PermissionsEnumerable.sol\":2903:2928   */\n      0x01\n      add\n        /* \"@thirdweb-dev/contracts/extension/PermissionsEnumerable.sol\":2903:2931   */\n      swap1\n      swap2\n      mstore\n      swap1\n      keccak256\n      sload\n      sub(shl(0xa0, 0x01), 0x01)\n      and\n        /* \"@thirdweb-dev/contracts/extension/PermissionsEnumerable.sol\":2903:2945   */\n      iszero\n        /* \"@thirdweb-dev/contracts/extension/PermissionsEnumerable.sol\":2899:2990   */\n      tag_331\n      jumpi\n        /* \"@thirdweb-dev/contracts/extension/PermissionsEnumerable.sol\":2965:2975   */\n      tag_332\n        /* \"@thirdweb-dev/contracts/extension/PermissionsEnumerable.sol\":2974:2975   */\n      0x01\n        /* \"@thirdweb-dev/contracts/extension/PermissionsEnumerable.sol\":2965:2975   */\n      dup5\n      tag_229\n      jump\t// in\n    tag_332:\n      swap3\n      pop\n        /* \"@thirdweb-dev/contracts/extension/PermissionsEnumerable.sol\":2899:2990   */\n    tag_331:\n        /* \"@thirdweb-dev/contracts/extension/PermissionsEnumerable.sol\":2877:2883   */\n      tag_333\n        /* \"@thirdweb-dev/contracts/extension/PermissionsEnumerable.sol\":2882:2883   */\n      0x01\n        /* \"@thirdweb-dev/contracts/extension/PermissionsEnumerable.sol\":2877:2883   */\n      dup3\n      tag_229\n      jump\t// in\n    tag_333:\n      swap1\n      pop\n        /* \"@thirdweb-dev/contracts/extension/PermissionsEnumerable.sol\":2839:3000   */\n      jump(tag_328)\n    tag_329:\n      pop\n        /* \"@thirdweb-dev/contracts/extension/PermissionsEnumerable.sol\":3035:3036   */\n      0x00\n        /* \"@thirdweb-dev/contracts/extension/Permissions.sol\":1425:1439   */\n      dup4\n      dup2\n      mstore\n        /* \"@thirdweb-dev/contracts/extension/Permissions.sol\":1425:1433   */\n      0x08\n        /* \"@thirdweb-dev/contracts/extension/Permissions.sol\":1425:1439   */\n      0x20\n      swap1\n      dup2\n      mstore\n      0x40\n      dup1\n      dup4\n      keccak256\n        /* \"@thirdweb-dev/contracts/extension/Permissions.sol\":1425:1448   */\n      dup4\n      dup1\n      mstore\n      swap1\n      swap2\n      mstore\n      swap1\n      keccak256\n      sload\n      0xff\n      and\n        /* \"@thirdweb-dev/contracts/extension/PermissionsEnumerable.sol\":3009:3075   */\n      iszero\n      tag_335\n      jumpi\n        /* \"@thirdweb-dev/contracts/extension/PermissionsEnumerable.sol\":3054:3064   */\n      tag_336\n        /* \"@thirdweb-dev/contracts/extension/PermissionsEnumerable.sol\":3063:3064   */\n      0x01\n        /* \"@thirdweb-dev/contracts/extension/PermissionsEnumerable.sol\":3054:3064   */\n      dup4\n      tag_229\n      jump\t// in\n    tag_336:\n      swap2\n      pop\n        /* \"@thirdweb-dev/contracts/extension/PermissionsEnumerable.sol\":3009:3075   */\n    tag_335:\n        /* \"@thirdweb-dev/contracts/extension/PermissionsEnumerable.sol\":2772:3081   */\n      pop\n        /* \"@thirdweb-dev/contracts/extension/PermissionsEnumerable.sol\":2683:3081   */\n      swap2\n      swap1\n      pop\n      jump\t// out\n        /* \"@thirdweb-dev/contracts/external-deps/openzeppelin/token/ERC20/extensions/ERC20Permit.sol\":2056:2707   */\n    tag_158:\n        /* \"@thirdweb-dev/contracts/external-deps/openzeppelin/token/ERC20/extensions/ERC20Permit.sol\":2291:2299   */\n      dup4\n        /* \"@thirdweb-dev/contracts/external-deps/openzeppelin/token/ERC20/extensions/ERC20Permit.sol\":2272:2287   */\n      timestamp\n        /* \"@thirdweb-dev/contracts/external-deps/openzeppelin/token/ERC20/extensions/ERC20Permit.sol\":2272:2299   */\n      gt\n      iszero\n        /* \"@thirdweb-dev/contracts/external-deps/openzeppelin/token/ERC20/extensions/ERC20Permit.sol\":2264:2333   */\n      tag_338\n      jumpi\n      mload(0x40)\n      shl(0xe5, 0x461bcd)\n      dup2\n      mstore\n        /* \"#utility.yul\":12072:12074   */\n      0x20\n        /* \"@thirdweb-dev/contracts/external-deps/openzeppelin/token/ERC20/extensions/ERC20Permit.sol\":2264:2333   */\n      0x04\n      dup3\n      add\n        /* \"#utility.yul\":12054:12075   */\n      mstore\n        /* \"#utility.yul\":12111:12113   */\n      0x1d\n        /* \"#utility.yul\":12091:12109   */\n      0x24\n      dup3\n      add\n        /* \"#utility.yul\":12084:12114   */\n      mstore\n        /* \"#utility.yul\":12150:12181   */\n      0x45524332305065726d69743a206578706972656420646561646c696e65000000\n        /* \"#utility.yul\":12130:12148   */\n      0x44\n      dup3\n      add\n        /* \"#utility.yul\":12123:12182   */\n      mstore\n        /* \"#utility.yul\":12199:12217   */\n      0x64\n      add\n        /* \"@thirdweb-dev/contracts/external-deps/openzeppelin/token/ERC20/extensions/ERC20Permit.sol\":2264:2333   */\n      tag_187\n        /* \"#utility.yul\":11870:12223   */\n      jump\n        /* \"@thirdweb-dev/contracts/external-deps/openzeppelin/token/ERC20/extensions/ERC20Permit.sol\":2264:2333   */\n    tag_338:\n        /* \"@thirdweb-dev/contracts/external-deps/openzeppelin/token/ERC20/extensions/ERC20Permit.sol\":2344:2362   */\n      0x00\n        /* \"@thirdweb-dev/contracts/external-deps/openzeppelin/token/ERC20/extensions/ERC20Permit.sol\":2386:2402   */\n      immutable(\"0xc5e1f1d4bf9d5972febd47f77b791d34fca2c4f78e047aba365c0f66e5d88c39\")\n        /* \"@thirdweb-dev/contracts/external-deps/openzeppelin/token/ERC20/extensions/ERC20Permit.sol\":2404:2409   */\n      dup9\n        /* \"@thirdweb-dev/contracts/external-deps/openzeppelin/token/ERC20/extensions/ERC20Permit.sol\":2411:2418   */\n      dup9\n        /* \"@thirdweb-dev/contracts/external-deps/openzeppelin/token/ERC20/extensions/ERC20Permit.sol\":2420:2425   */\n      dup9\n        /* \"@thirdweb-dev/contracts/external-deps/openzeppelin/token/ERC20/extensions/ERC20Permit.sol\":2427:2443   */\n      tag_341\n        /* \"@thirdweb-dev/contracts/external-deps/openzeppelin/token/ERC20/extensions/ERC20Permit.sol\":2437:2442   */\n      dup13\n        /* \"@thirdweb-dev/contracts/external-deps/openzeppelin/token/ERC20/extensions/ERC20Permit.sol\":2427:2436   */\n      tag_342\n        /* \"@thirdweb-dev/contracts/external-deps/openzeppelin/token/ERC20/extensions/ERC20Permit.sol\":2427:2443   */\n      jump\t// in\n    tag_341:\n        /* \"@thirdweb-dev/contracts/external-deps/openzeppelin/token/ERC20/extensions/ERC20Permit.sol\":2375:2454   */\n      0x40\n      dup1\n      mload\n      0x20\n      dup2\n      add\n        /* \"#utility.yul\":12515:12540   */\n      swap7\n      swap1\n      swap7\n      mstore\n      sub(shl(0xa0, 0x01), 0x01)\n        /* \"#utility.yul\":12637:12652   */\n      swap5\n      dup6\n      and\n        /* \"#utility.yul\":12617:12635   */\n      swap1\n      dup7\n      add\n        /* \"#utility.yul\":12610:12653   */\n      mstore\n        /* \"#utility.yul\":12689:12704   */\n      swap3\n      swap1\n      swap2\n      and\n        /* \"#utility.yul\":12669:12687   */\n      0x60\n      dup5\n      add\n        /* \"#utility.yul\":12662:12705   */\n      mstore\n        /* \"#utility.yul\":12721:12739   */\n      0x80\n      dup4\n      add\n        /* \"#utility.yul\":12714:12748   */\n      mstore\n        /* \"#utility.yul\":12764:12783   */\n      0xa0\n      dup3\n      add\n        /* \"#utility.yul\":12757:12792   */\n      mstore\n        /* \"#utility.yul\":12808:12827   */\n      0xc0\n      dup2\n      add\n        /* \"#utility.yul\":12801:12836   */\n      dup7\n      swap1\n      mstore\n        /* \"#utility.yul\":12487:12506   */\n      0xe0\n      add\n        /* \"@thirdweb-dev/contracts/external-deps/openzeppelin/token/ERC20/extensions/ERC20Permit.sol\":2375:2454   */\n      mload(0x40)\n      0x20\n      dup2\n      dup4\n      sub\n      sub\n      dup2\n      mstore\n      swap1\n      0x40\n      mstore\n        /* \"@thirdweb-dev/contracts/external-deps/openzeppelin/token/ERC20/extensions/ERC20Permit.sol\":2365:2455   */\n      dup1\n      mload\n      swap1\n      0x20\n      add\n      keccak256\n        /* \"@thirdweb-dev/contracts/external-deps/openzeppelin/token/ERC20/extensions/ERC20Permit.sol\":2344:2455   */\n      swap1\n      pop\n        /* \"@thirdweb-dev/contracts/external-deps/openzeppelin/token/ERC20/extensions/ERC20Permit.sol\":2466:2478   */\n      0x00\n        /* \"@thirdweb-dev/contracts/external-deps/openzeppelin/token/ERC20/extensions/ERC20Permit.sol\":2481:2534   */\n      tag_345\n        /* \"@thirdweb-dev/contracts/external-deps/openzeppelin/token/ERC20/extensions/ERC20Permit.sol\":2503:2521   */\n      tag_346\n        /* \"@thirdweb-dev/contracts/external-deps/openzeppelin/token/ERC20/extensions/ERC20Permit.sol\":2503:2519   */\n      tag_83\n        /* \"@thirdweb-dev/contracts/external-deps/openzeppelin/token/ERC20/extensions/ERC20Permit.sol\":2503:2521   */\n      jump\t// in\n    tag_346:\n        /* \"@thirdweb-dev/contracts/external-deps/openzeppelin/token/ERC20/extensions/ERC20Permit.sol\":2523:2533   */\n      dup4\n        /* \"@thirdweb-dev/contracts/external-deps/openzeppelin/utils/cryptography/ECDSA.sol\":8689:8693   */\n      0x40\n        /* \"@thirdweb-dev/contracts/external-deps/openzeppelin/utils/cryptography/ECDSA.sol\":8683:8694   */\n      mload\n      shl(0xf0, 0x1901)\n        /* \"@thirdweb-dev/contracts/external-deps/openzeppelin/utils/cryptography/ECDSA.sol\":8707:8730   */\n      dup2\n      mstore\n        /* \"@thirdweb-dev/contracts/external-deps/openzeppelin/utils/cryptography/ECDSA.sol\":8759:8763   */\n      0x02\n        /* \"@thirdweb-dev/contracts/external-deps/openzeppelin/utils/cryptography/ECDSA.sol\":8750:8764   */\n      dup2\n      add\n        /* \"@thirdweb-dev/contracts/external-deps/openzeppelin/utils/cryptography/ECDSA.sol\":8743:8782   */\n      swap3\n      swap1\n      swap3\n      mstore\n        /* \"@thirdweb-dev/contracts/external-deps/openzeppelin/utils/cryptography/ECDSA.sol\":8811:8815   */\n      0x22\n        /* \"@thirdweb-dev/contracts/external-deps/openzeppelin/utils/cryptography/ECDSA.sol\":8802:8816   */\n      dup3\n      add\n        /* \"@thirdweb-dev/contracts/external-deps/openzeppelin/utils/cryptography/ECDSA.sol\":8795:8829   */\n      mstore\n        /* \"@thirdweb-dev/contracts/external-deps/openzeppelin/utils/cryptography/ECDSA.sol\":8865:8869   */\n      0x42\n        /* \"@thirdweb-dev/contracts/external-deps/openzeppelin/utils/cryptography/ECDSA.sol\":8850:8870   */\n      swap1\n      keccak256\n      swap1\n        /* \"@thirdweb-dev/contracts/external-deps/openzeppelin/utils/cryptography/ECDSA.sol\":8489:8886   */\n      jump\n        /* \"@thirdweb-dev/contracts/external-deps/openzeppelin/token/ERC20/extensions/ERC20Permit.sol\":2481:2534   */\n    tag_345:\n        /* \"@thirdweb-dev/contracts/external-deps/openzeppelin/token/ERC20/extensions/ERC20Permit.sol\":2466:2534   */\n      swap1\n      pop\n        /* \"@thirdweb-dev/contracts/external-deps/openzeppelin/token/ERC20/extensions/ERC20Permit.sol\":2545:2559   */\n      0x00\n        /* \"@thirdweb-dev/contracts/external-deps/openzeppelin/token/ERC20/extensions/ERC20Permit.sol\":2562:2590   */\n      tag_348\n        /* \"@thirdweb-dev/contracts/external-deps/openzeppelin/token/ERC20/extensions/ERC20Permit.sol\":2576:2580   */\n      dup3\n        /* \"@thirdweb-dev/contracts/external-deps/openzeppelin/token/ERC20/extensions/ERC20Permit.sol\":2582:2583   */\n      dup8\n        /* \"@thirdweb-dev/contracts/external-deps/openzeppelin/token/ERC20/extensions/ERC20Permit.sol\":2585:2586   */\n      dup8\n        /* \"@thirdweb-dev/contracts/external-deps/openzeppelin/token/ERC20/extensions/ERC20Permit.sol\":2588:2589   */\n      dup8\n        /* \"@thirdweb-dev/contracts/external-deps/openzeppelin/token/ERC20/extensions/ERC20Permit.sol\":2562:2575   */\n      tag_349\n        /* \"@thirdweb-dev/contracts/external-deps/openzeppelin/token/ERC20/extensions/ERC20Permit.sol\":2562:2590   */\n      jump\t// in\n    tag_348:\n        /* \"@thirdweb-dev/contracts/external-deps/openzeppelin/token/ERC20/extensions/ERC20Permit.sol\":2545:2590   */\n      swap1\n      pop\n        /* \"@thirdweb-dev/contracts/external-deps/openzeppelin/token/ERC20/extensions/ERC20Permit.sol\":2618:2623   */\n      dup10\n      sub(shl(0xa0, 0x01), 0x01)\n        /* \"@thirdweb-dev/contracts/external-deps/openzeppelin/token/ERC20/extensions/ERC20Permit.sol\":2608:2623   */\n      and\n        /* \"@thirdweb-dev/contracts/external-deps/openzeppelin/token/ERC20/extensions/ERC20Permit.sol\":2608:2614   */\n      dup2\n      sub(shl(0xa0, 0x01), 0x01)\n        /* \"@thirdweb-dev/contracts/external-deps/openzeppelin/token/ERC20/extensions/ERC20Permit.sol\":2608:2623   */\n      and\n      eq\n        /* \"@thirdweb-dev/contracts/external-deps/openzeppelin/token/ERC20/extensions/ERC20Permit.sol\":2600:2658   */\n      tag_350\n      jumpi\n      mload(0x40)\n      shl(0xe5, 0x461bcd)\n      dup2\n      mstore\n        /* \"#utility.yul\":13049:13051   */\n      0x20\n        /* \"@thirdweb-dev/contracts/external-deps/openzeppelin/token/ERC20/extensions/ERC20Permit.sol\":2600:2658   */\n      0x04\n      dup3\n      add\n        /* \"#utility.yul\":13031:13052   */\n      mstore\n        /* \"#utility.yul\":13088:13090   */\n      0x1e\n        /* \"#utility.yul\":13068:13086   */\n      0x24\n      dup3\n      add\n        /* \"#utility.yul\":13061:13091   */\n      mstore\n        /* \"#utility.yul\":13127:13159   */\n      0x45524332305065726d69743a20696e76616c6964207369676e61747572650000\n        /* \"#utility.yul\":13107:13125   */\n      0x44\n      dup3\n      add\n        /* \"#utility.yul\":13100:13160   */\n      mstore\n        /* \"#utility.yul\":13177:13195   */\n      0x64\n      add\n        /* \"@thirdweb-dev/contracts/external-deps/openzeppelin/token/ERC20/extensions/ERC20Permit.sol\":2600:2658   */\n      tag_187\n        /* \"#utility.yul\":12847:13201   */\n      jump\n        /* \"@thirdweb-dev/contracts/external-deps/openzeppelin/token/ERC20/extensions/ERC20Permit.sol\":2600:2658   */\n    tag_350:\n        /* \"@thirdweb-dev/contracts/external-deps/openzeppelin/token/ERC20/extensions/ERC20Permit.sol\":2669:2700   */\n      tag_353\n        /* \"@thirdweb-dev/contracts/external-deps/openzeppelin/token/ERC20/extensions/ERC20Permit.sol\":2678:2683   */\n      dup11\n        /* \"@thirdweb-dev/contracts/external-deps/openzeppelin/token/ERC20/extensions/ERC20Permit.sol\":2685:2692   */\n      dup11\n        /* \"@thirdweb-dev/contracts/external-deps/openzeppelin/token/ERC20/extensions/ERC20Permit.sol\":2694:2699   */\n      dup11\n        /* \"@thirdweb-dev/contracts/external-deps/openzeppelin/token/ERC20/extensions/ERC20Permit.sol\":2669:2677   */\n      tag_182\n        /* \"@thirdweb-dev/contracts/external-deps/openzeppelin/token/ERC20/extensions/ERC20Permit.sol\":2669:2700   */\n      jump\t// in\n    tag_353:\n        /* \"@thirdweb-dev/contracts/external-deps/openzeppelin/token/ERC20/extensions/ERC20Permit.sol\":2254:2707   */\n      pop\n      pop\n      pop\n        /* \"@thirdweb-dev/contracts/external-deps/openzeppelin/token/ERC20/extensions/ERC20Permit.sol\":2056:2707   */\n      pop\n      pop\n      pop\n      pop\n      pop\n      pop\n      pop\n      jump\t// out\n        /* \"@thirdweb-dev/contracts/extension/Permissions.sol\":3897:4068   */\n    tag_161:\n        /* \"@thirdweb-dev/contracts/extension/Permissions.sol\":3993:4012   */\n      0x00\n      dup3\n      dup2\n      mstore\n        /* \"@thirdweb-dev/contracts/extension/Permissions.sol\":3993:4006   */\n      0x09\n        /* \"@thirdweb-dev/contracts/extension/Permissions.sol\":3993:4012   */\n      0x20\n      mstore\n      0x40\n      swap1\n      keccak256\n      sload\n        /* \"@thirdweb-dev/contracts/extension/Permissions.sol\":3982:4025   */\n      tag_220\n      swap1\n        /* \"@thirdweb-dev/contracts/extension/Permissions.sol\":4014:4024   */\n      caller\n        /* \"@thirdweb-dev/contracts/extension/Permissions.sol\":3982:3992   */\n      tag_206\n        /* \"@thirdweb-dev/contracts/extension/Permissions.sol\":3982:4025   */\n      jump\t// in\n        /* \"@thirdweb-dev/contracts/extension/ContractMetadata.sol\":565:599   */\n    tag_168:\n      0x00\n      dup1\n      sload\n      tag_358\n      swap1\n      tag_173\n      jump\t// in\n    tag_358:\n      dup1\n      0x1f\n      add\n      0x20\n      dup1\n      swap2\n      div\n      mul\n      0x20\n      add\n      mload(0x40)\n      swap1\n      dup2\n      add\n      0x40\n      mstore\n      dup1\n      swap3\n      swap2\n      swap1\n      dup2\n      dup2\n      mstore\n      0x20\n      add\n      dup3\n      dup1\n      sload\n      tag_359\n      swap1\n      tag_173\n      jump\t// in\n    tag_359:\n      dup1\n      iszero\n      tag_360\n      jumpi\n      dup1\n      0x1f\n      lt\n      tag_361\n      jumpi\n      0x0100\n      dup1\n      dup4\n      sload\n      div\n      mul\n      dup4\n      mstore\n      swap2\n      0x20\n      add\n      swap2\n      jump(tag_360)\n    tag_361:\n      dup3\n      add\n      swap2\n      swap1\n      0x00\n      mstore\n      keccak256(0x00, 0x20)\n      swap1\n    tag_362:\n      dup2\n      sload\n      dup2\n      mstore\n      swap1\n      0x01\n      add\n      swap1\n      0x20\n      add\n      dup1\n      dup4\n      gt\n      tag_362\n      jumpi\n      dup3\n      swap1\n      sub\n      0x1f\n      and\n      dup3\n      add\n      swap2\n    tag_360:\n      pop\n      pop\n      pop\n      pop\n      pop\n      dup2\n      jump\t// out\n        /* \"@thirdweb-dev/contracts/extension/Permissions.sol\":5036:5204   */\n    tag_170:\n        /* \"@thirdweb-dev/contracts/extension/Permissions.sol\":5114:5128   */\n      0x00\n      dup3\n      dup2\n      mstore\n        /* \"@thirdweb-dev/contracts/extension/Permissions.sol\":5114:5122   */\n      0x08\n        /* \"@thirdweb-dev/contracts/extension/Permissions.sol\":5114:5128   */\n      0x20\n      swap1\n      dup2\n      mstore\n      0x40\n      dup1\n      dup4\n      keccak256\n      sub(shl(0xa0, 0x01), 0x01)\n        /* \"@thirdweb-dev/contracts/extension/Permissions.sol\":5114:5137   */\n      dup6\n      and\n      dup1\n      dup6\n      mstore\n      swap3\n      mstore\n      dup1\n      dup4\n      keccak256\n        /* \"@thirdweb-dev/contracts/extension/Permissions.sol\":5114:5144   */\n      dup1\n      sload\n      not(0xff)\n      and\n        /* \"@thirdweb-dev/contracts/extension/Permissions.sol\":5140:5144   */\n      0x01\n        /* \"@thirdweb-dev/contracts/extension/Permissions.sol\":5114:5144   */\n      or\n      swap1\n      sstore\n        /* \"@thirdweb-dev/contracts/extension/Permissions.sol\":5159:5197   */\n      mload\n        /* \"@thirdweb-dev/contracts/extension/Permissions.sol\":5186:5196   */\n      caller\n      swap3\n        /* \"@thirdweb-dev/contracts/extension/Permissions.sol\":5123:5127   */\n      dup6\n      swap2\n        /* \"@thirdweb-dev/contracts/extension/Permissions.sol\":5159:5197   */\n      0x2f8788117e7eff1d82e926ec794901d17c78024a50270940304540a733656f0d\n      swap2\n        /* \"@thirdweb-dev/contracts/extension/Permissions.sol\":5114:5128   */\n      swap1\n        /* \"@thirdweb-dev/contracts/extension/Permissions.sol\":5159:5197   */\n      log4\n        /* \"@thirdweb-dev/contracts/extension/Permissions.sol\":5036:5204   */\n      pop\n      pop\n      jump\t// out\n        /* \"@thirdweb-dev/contracts/external-deps/openzeppelin/token/ERC20/ERC20.sol\":10160:10530   */\n    tag_182:\n      sub(shl(0xa0, 0x01), 0x01)\n        /* \"@thirdweb-dev/contracts/external-deps/openzeppelin/token/ERC20/ERC20.sol\":10291:10310   */\n      dup4\n      and\n        /* \"@thirdweb-dev/contracts/external-deps/openzeppelin/token/ERC20/ERC20.sol\":10283:10351   */\n      tag_366\n      jumpi\n      mload(0x40)\n      shl(0xe5, 0x461bcd)\n      dup2\n      mstore\n        /* \"#utility.yul\":13408:13410   */\n      0x20\n        /* \"@thirdweb-dev/contracts/external-deps/openzeppelin/token/ERC20/ERC20.sol\":10283:10351   */\n      0x04\n      dup3\n      add\n        /* \"#utility.yul\":13390:13411   */\n      mstore\n        /* \"#utility.yul\":13447:13449   */\n      0x24\n        /* \"#utility.yul\":13427:13445   */\n      dup1\n      dup3\n      add\n        /* \"#utility.yul\":13420:13450   */\n      mstore\n        /* \"#utility.yul\":13486:13520   */\n      0x45524332303a20617070726f76652066726f6d20746865207a65726f20616464\n        /* \"#utility.yul\":13466:13484   */\n      0x44\n      dup3\n      add\n        /* \"#utility.yul\":13459:13521   */\n      mstore\n      shl(0xe0, 0x72657373)\n        /* \"#utility.yul\":13537:13555   */\n      0x64\n      dup3\n      add\n        /* \"#utility.yul\":13530:13564   */\n      mstore\n        /* \"#utility.yul\":13581:13600   */\n      0x84\n      add\n        /* \"@thirdweb-dev/contracts/external-deps/openzeppelin/token/ERC20/ERC20.sol\":10283:10351   */\n      tag_187\n        /* \"#utility.yul\":13206:13606   */\n      jump\n        /* \"@thirdweb-dev/contracts/external-deps/openzeppelin/token/ERC20/ERC20.sol\":10283:10351   */\n    tag_366:\n      sub(shl(0xa0, 0x01), 0x01)\n        /* \"@thirdweb-dev/contracts/external-deps/openzeppelin/token/ERC20/ERC20.sol\":10369:10390   */\n      dup3\n      and\n        /* \"@thirdweb-dev/contracts/external-deps/openzeppelin/token/ERC20/ERC20.sol\":10361:10429   */\n      tag_369\n      jumpi\n      mload(0x40)\n      shl(0xe5, 0x461bcd)\n      dup2\n      mstore\n        /* \"#utility.yul\":13813:13815   */\n      0x20\n        /* \"@thirdweb-dev/contracts/external-deps/openzeppelin/token/ERC20/ERC20.sol\":10361:10429   */\n      0x04\n      dup3\n      add\n        /* \"#utility.yul\":13795:13816   */\n      mstore\n        /* \"#utility.yul\":13852:13854   */\n      0x22\n        /* \"#utility.yul\":13832:13850   */\n      0x24\n      dup3\n      add\n        /* \"#utility.yul\":13825:13855   */\n      mstore\n        /* \"#utility.yul\":13891:13925   */\n      0x45524332303a20617070726f766520746f20746865207a65726f206164647265\n        /* \"#utility.yul\":13871:13889   */\n      0x44\n      dup3\n      add\n        /* \"#utility.yul\":13864:13926   */\n      mstore\n      shl(0xf0, 0x7373)\n        /* \"#utility.yul\":13942:13960   */\n      0x64\n      dup3\n      add\n        /* \"#utility.yul\":13935:13967   */\n      mstore\n        /* \"#utility.yul\":13984:14003   */\n      0x84\n      add\n        /* \"@thirdweb-dev/contracts/external-deps/openzeppelin/token/ERC20/ERC20.sol\":10361:10429   */\n      tag_187\n        /* \"#utility.yul\":13611:14009   */\n      jump\n        /* \"@thirdweb-dev/contracts/external-deps/openzeppelin/token/ERC20/ERC20.sol\":10361:10429   */\n    tag_369:\n      sub(shl(0xa0, 0x01), 0x01)\n        /* \"@thirdweb-dev/contracts/external-deps/openzeppelin/token/ERC20/ERC20.sol\":10440:10458   */\n      dup4\n      dup2\n      and\n      0x00\n      dup2\n      dup2\n      mstore\n        /* \"@thirdweb-dev/contracts/external-deps/openzeppelin/token/ERC20/ERC20.sol\":10440:10451   */\n      0x03\n        /* \"@thirdweb-dev/contracts/external-deps/openzeppelin/token/ERC20/ERC20.sol\":10440:10458   */\n      0x20\n      swap1\n      dup2\n      mstore\n      0x40\n      dup1\n      dup4\n      keccak256\n        /* \"@thirdweb-dev/contracts/external-deps/openzeppelin/token/ERC20/ERC20.sol\":10440:10467   */\n      swap5\n      dup8\n      and\n      dup1\n      dup5\n      mstore\n      swap5\n      dup3\n      mstore\n      swap2\n      dup3\n      swap1\n      keccak256\n        /* \"@thirdweb-dev/contracts/external-deps/openzeppelin/token/ERC20/ERC20.sol\":10440:10476   */\n      dup6\n      swap1\n      sstore\n        /* \"@thirdweb-dev/contracts/external-deps/openzeppelin/token/ERC20/ERC20.sol\":10491:10523   */\n      swap1\n      mload\n        /* \"#utility.yul\":1759:1784   */\n      dup5\n      dup2\n      mstore\n        /* \"@thirdweb-dev/contracts/external-deps/openzeppelin/token/ERC20/ERC20.sol\":10491:10523   */\n      0x8c5be1e5ebec7d5bd14f71427d1e84f3dd0314c0f7b2291e5b200ac8c7c3b925\n      swap2\n        /* \"#utility.yul\":1732:1750   */\n      add\n        /* \"@thirdweb-dev/contracts/external-deps/openzeppelin/token/ERC20/ERC20.sol\":10491:10523   */\n      mload(0x40)\n      dup1\n      swap2\n      sub\n      swap1\n      log3\n        /* \"@thirdweb-dev/contracts/external-deps/openzeppelin/token/ERC20/ERC20.sol\":10160:10530   */\n      pop\n      pop\n      pop\n      jump\t// out\n        /* \"@thirdweb-dev/contracts/base/ERC20Base.sol\":4220:4335   */\n    tag_185:\n        /* \"@thirdweb-dev/contracts/base/ERC20Base.sol\":4284:4288   */\n      0x00\n        /* \"@thirdweb-dev/contracts/base/ERC20Base.sol\":4321:4328   */\n      tag_374\n        /* \"@thirdweb-dev/contracts/extension/Ownable.sol\":944:950   */\n      and(sub(shl(0xa0, 0x01), 0x01), sload(0x01))\n      swap1\n        /* \"@thirdweb-dev/contracts/extension/Ownable.sol\":871:957   */\n      jump\n        /* \"@thirdweb-dev/contracts/base/ERC20Base.sol\":4321:4328   */\n    tag_374:\n      sub(shl(0xa0, 0x01), 0x01)\n        /* \"@thirdweb-dev/contracts/base/ERC20Base.sol\":4307:4328   */\n      and\n        /* \"@thirdweb-dev/contracts/base/ERC20Base.sol\":4307:4317   */\n      caller\n      sub(shl(0xa0, 0x01), 0x01)\n        /* \"@thirdweb-dev/contracts/base/ERC20Base.sol\":4307:4328   */\n      and\n      eq\n        /* \"@thirdweb-dev/contracts/base/ERC20Base.sol\":4300:4328   */\n      swap1\n      pop\n        /* \"@thirdweb-dev/contracts/base/ERC20Base.sol\":4220:4335   */\n      swap1\n      jump\t// out\n        /* \"@thirdweb-dev/contracts/extension/Ownable.sol\":1421:1593   */\n    tag_190:\n        /* \"@thirdweb-dev/contracts/extension/Ownable.sol\":1501:1507   */\n      0x01\n      dup1\n      sload\n      sub(shl(0xa0, 0x01), 0x01)\n        /* \"@thirdweb-dev/contracts/extension/Ownable.sol\":1517:1535   */\n      dup4\n      dup2\n      and\n      not(0xffffffffffffffffffffffffffffffffffffffff)\n      dup4\n      and\n      dup2\n      or\n      swap1\n      swap4\n      sstore\n        /* \"@thirdweb-dev/contracts/extension/Ownable.sol\":1551:1586   */\n      mload(0x40)\n        /* \"@thirdweb-dev/contracts/extension/Ownable.sol\":1501:1507   */\n      swap2\n      and\n      swap2\n        /* \"@thirdweb-dev/contracts/extension/Ownable.sol\":1517:1535   */\n      swap1\n        /* \"@thirdweb-dev/contracts/extension/Ownable.sol\":1501:1507   */\n      dup3\n      swap1\n        /* \"@thirdweb-dev/contracts/extension/Ownable.sol\":1551:1586   */\n      0x8292fce18fa69edf4db7b94ea2e58241df0ae57f97e0a6c9b29067028bf92d76\n      swap1\n        /* \"@thirdweb-dev/contracts/extension/Ownable.sol\":1480:1498   */\n      0x00\n      swap1\n        /* \"@thirdweb-dev/contracts/extension/Ownable.sol\":1551:1586   */\n      log3\n        /* \"@thirdweb-dev/contracts/extension/Ownable.sol\":1470:1593   */\n      pop\n        /* \"@thirdweb-dev/contracts/extension/Ownable.sol\":1421:1593   */\n      pop\n      jump\t// out\n        /* \"@thirdweb-dev/contracts/external-deps/openzeppelin/token/ERC20/ERC20.sol\":7525:8176   */\n    tag_198:\n      sub(shl(0xa0, 0x01), 0x01)\n        /* \"@thirdweb-dev/contracts/external-deps/openzeppelin/token/ERC20/ERC20.sol\":7651:7669   */\n      dup4\n      and\n        /* \"@thirdweb-dev/contracts/external-deps/openzeppelin/token/ERC20/ERC20.sol\":7643:7711   */\n      tag_377\n      jumpi\n      mload(0x40)\n      shl(0xe5, 0x461bcd)\n      dup2\n      mstore\n        /* \"#utility.yul\":14216:14218   */\n      0x20\n        /* \"@thirdweb-dev/contracts/external-deps/openzeppelin/token/ERC20/ERC20.sol\":7643:7711   */\n      0x04\n      dup3\n      add\n        /* \"#utility.yul\":14198:14219   */\n      mstore\n        /* \"#utility.yul\":14255:14257   */\n      0x25\n        /* \"#utility.yul\":14235:14253   */\n      0x24\n      dup3\n      add\n        /* \"#utility.yul\":14228:14258   */\n      mstore\n        /* \"#utility.yul\":14294:14328   */\n      0x45524332303a207472616e736665722066726f6d20746865207a65726f206164\n        /* \"#utility.yul\":14274:14292   */\n      0x44\n      dup3\n      add\n        /* \"#utility.yul\":14267:14329   */\n      mstore\n        /* \"#utility.yul\":14365:14372   */\n      0x6472657373000000000000000000000000000000000000000000000000000000\n        /* \"#utility.yul\":14345:14363   */\n      0x64\n      dup3\n      add\n        /* \"#utility.yul\":14338:14373   */\n      mstore\n        /* \"#utility.yul\":14390:14409   */\n      0x84\n      add\n        /* \"@thirdweb-dev/contracts/external-deps/openzeppelin/token/ERC20/ERC20.sol\":7643:7711   */\n      tag_187\n        /* \"#utility.yul\":14014:14415   */\n      jump\n        /* \"@thirdweb-dev/contracts/external-deps/openzeppelin/token/ERC20/ERC20.sol\":7643:7711   */\n    tag_377:\n      sub(shl(0xa0, 0x01), 0x01)\n        /* \"@thirdweb-dev/contracts/external-deps/openzeppelin/token/ERC20/ERC20.sol\":7729:7745   */\n      dup3\n      and\n        /* \"@thirdweb-dev/contracts/external-deps/openzeppelin/token/ERC20/ERC20.sol\":7721:7785   */\n      tag_380\n      jumpi\n      mload(0x40)\n      shl(0xe5, 0x461bcd)\n      dup2\n      mstore\n        /* \"#utility.yul\":14622:14624   */\n      0x20\n        /* \"@thirdweb-dev/contracts/external-deps/openzeppelin/token/ERC20/ERC20.sol\":7721:7785   */\n      0x04\n      dup3\n      add\n        /* \"#utility.yul\":14604:14625   */\n      mstore\n        /* \"#utility.yul\":14661:14663   */\n      0x23\n        /* \"#utility.yul\":14641:14659   */\n      0x24\n      dup3\n      add\n        /* \"#utility.yul\":14634:14664   */\n      mstore\n        /* \"#utility.yul\":14700:14734   */\n      0x45524332303a207472616e7366657220746f20746865207a65726f2061646472\n        /* \"#utility.yul\":14680:14698   */\n      0x44\n      dup3\n      add\n        /* \"#utility.yul\":14673:14735   */\n      mstore\n      shl(0xe8, 0x657373)\n        /* \"#utility.yul\":14751:14769   */\n      0x64\n      dup3\n      add\n        /* \"#utility.yul\":14744:14777   */\n      mstore\n        /* \"#utility.yul\":14794:14813   */\n      0x84\n      add\n        /* \"@thirdweb-dev/contracts/external-deps/openzeppelin/token/ERC20/ERC20.sol\":7721:7785   */\n      tag_187\n        /* \"#utility.yul\":14420:14819   */\n      jump\n        /* \"@thirdweb-dev/contracts/external-deps/openzeppelin/token/ERC20/ERC20.sol\":7721:7785   */\n    tag_380:\n      sub(shl(0xa0, 0x01), 0x01)\n        /* \"@thirdweb-dev/contracts/external-deps/openzeppelin/token/ERC20/ERC20.sol\":7867:7882   */\n      dup4\n      and\n        /* \"@thirdweb-dev/contracts/external-deps/openzeppelin/token/ERC20/ERC20.sol\":7845:7864   */\n      0x00\n        /* \"@thirdweb-dev/contracts/external-deps/openzeppelin/token/ERC20/ERC20.sol\":7867:7882   */\n      swap1\n      dup2\n      mstore\n        /* \"@thirdweb-dev/contracts/external-deps/openzeppelin/token/ERC20/ERC20.sol\":7867:7876   */\n      0x02\n        /* \"@thirdweb-dev/contracts/external-deps/openzeppelin/token/ERC20/ERC20.sol\":7867:7882   */\n      0x20\n      mstore\n      0x40\n      swap1\n      keccak256\n      sload\n        /* \"@thirdweb-dev/contracts/external-deps/openzeppelin/token/ERC20/ERC20.sol\":7900:7921   */\n      dup2\n      dup2\n      lt\n      iszero\n        /* \"@thirdweb-dev/contracts/external-deps/openzeppelin/token/ERC20/ERC20.sol\":7892:7964   */\n      tag_385\n      jumpi\n      mload(0x40)\n      shl(0xe5, 0x461bcd)\n      dup2\n      mstore\n        /* \"#utility.yul\":15026:15028   */\n      0x20\n        /* \"@thirdweb-dev/contracts/external-deps/openzeppelin/token/ERC20/ERC20.sol\":7892:7964   */\n      0x04\n      dup3\n      add\n        /* \"#utility.yul\":15008:15029   */\n      mstore\n        /* \"#utility.yul\":15065:15067   */\n      0x26\n        /* \"#utility.yul\":15045:15063   */\n      0x24\n      dup3\n      add\n        /* \"#utility.yul\":15038:15068   */\n      mstore\n        /* \"#utility.yul\":15104:15138   */\n      0x45524332303a207472616e7366657220616d6f756e7420657863656564732062\n        /* \"#utility.yul\":15084:15102   */\n      0x44\n      dup3\n      add\n        /* \"#utility.yul\":15077:15139   */\n      mstore\n        /* \"#utility.yul\":15175:15183   */\n      0x616c616e63650000000000000000000000000000000000000000000000000000\n        /* \"#utility.yul\":15155:15173   */\n      0x64\n      dup3\n      add\n        /* \"#utility.yul\":15148:15184   */\n      mstore\n        /* \"#utility.yul\":15201:15220   */\n      0x84\n      add\n        /* \"@thirdweb-dev/contracts/external-deps/openzeppelin/token/ERC20/ERC20.sol\":7892:7964   */\n      tag_187\n        /* \"#utility.yul\":14824:15226   */\n      jump\n        /* \"@thirdweb-dev/contracts/external-deps/openzeppelin/token/ERC20/ERC20.sol\":7892:7964   */\n    tag_385:\n      sub(shl(0xa0, 0x01), 0x01)\n        /* \"@thirdweb-dev/contracts/external-deps/openzeppelin/token/ERC20/ERC20.sol\":7998:8013   */\n      dup1\n      dup6\n      and\n      0x00\n      swap1\n      dup2\n      mstore\n        /* \"@thirdweb-dev/contracts/external-deps/openzeppelin/token/ERC20/ERC20.sol\":7998:8007   */\n      0x02\n        /* \"@thirdweb-dev/contracts/external-deps/openzeppelin/token/ERC20/ERC20.sol\":7998:8013   */\n      0x20\n      mstore\n      0x40\n      dup1\n      dup3\n      keccak256\n        /* \"@thirdweb-dev/contracts/external-deps/openzeppelin/token/ERC20/ERC20.sol\":8016:8036   */\n      dup6\n      dup6\n      sub\n        /* \"@thirdweb-dev/contracts/external-deps/openzeppelin/token/ERC20/ERC20.sol\":7998:8036   */\n      swap1\n      sstore\n        /* \"@thirdweb-dev/contracts/external-deps/openzeppelin/token/ERC20/ERC20.sol\":8056:8069   */\n      swap2\n      dup6\n      and\n      dup2\n      mstore\n      swap1\n      dup2\n      keccak256\n        /* \"@thirdweb-dev/contracts/external-deps/openzeppelin/token/ERC20/ERC20.sol\":8056:8079   */\n      dup1\n      sload\n        /* \"@thirdweb-dev/contracts/external-deps/openzeppelin/token/ERC20/ERC20.sol\":8030:8036   */\n      dup5\n      swap3\n        /* \"@thirdweb-dev/contracts/external-deps/openzeppelin/token/ERC20/ERC20.sol\":7998:8013   */\n      swap1\n        /* \"@thirdweb-dev/contracts/external-deps/openzeppelin/token/ERC20/ERC20.sol\":8056:8079   */\n      tag_388\n      swap1\n        /* \"@thirdweb-dev/contracts/external-deps/openzeppelin/token/ERC20/ERC20.sol\":8030:8036   */\n      dup5\n      swap1\n        /* \"@thirdweb-dev/contracts/external-deps/openzeppelin/token/ERC20/ERC20.sol\":8056:8079   */\n      tag_229\n      jump\t// in\n    tag_388:\n      swap3\n      pop\n      pop\n      dup2\n      swap1\n      sstore\n      pop\n        /* \"@thirdweb-dev/contracts/external-deps/openzeppelin/token/ERC20/ERC20.sol\":8110:8112   */\n      dup3\n      sub(shl(0xa0, 0x01), 0x01)\n        /* \"@thirdweb-dev/contracts/external-deps/openzeppelin/token/ERC20/ERC20.sol\":8095:8121   */\n      and\n        /* \"@thirdweb-dev/contracts/external-deps/openzeppelin/token/ERC20/ERC20.sol\":8104:8108   */\n      dup5\n      sub(shl(0xa0, 0x01), 0x01)\n        /* \"@thirdweb-dev/contracts/external-deps/openzeppelin/token/ERC20/ERC20.sol\":8095:8121   */\n      and\n      0xddf252ad1be2c89b69c2b068fc378daa952ba7f163c4a11628f55a4df523b3ef\n        /* \"@thirdweb-dev/contracts/external-deps/openzeppelin/token/ERC20/ERC20.sol\":8114:8120   */\n      dup5\n        /* \"@thirdweb-dev/contracts/external-deps/openzeppelin/token/ERC20/ERC20.sol\":8095:8121   */\n      mload(0x40)\n      tag_389\n      swap2\n        /* \"#utility.yul\":1759:1784   */\n      dup2\n      mstore\n        /* \"#utility.yul\":1747:1749   */\n      0x20\n        /* \"#utility.yul\":1732:1750   */\n      add\n      swap1\n        /* \"#utility.yul\":1613:1790   */\n      jump\n        /* \"@thirdweb-dev/contracts/external-deps/openzeppelin/token/ERC20/ERC20.sol\":8095:8121   */\n    tag_389:\n      mload(0x40)\n      dup1\n      swap2\n      sub\n      swap1\n      log3\n        /* \"@thirdweb-dev/contracts/external-deps/openzeppelin/token/ERC20/ERC20.sol\":7633:8176   */\n      pop\n        /* \"@thirdweb-dev/contracts/external-deps/openzeppelin/token/ERC20/ERC20.sol\":7525:8176   */\n      pop\n      pop\n      pop\n      jump\t// out\n        /* \"@thirdweb-dev/contracts/extension/Permissions.sol\":5557:6052   */\n    tag_206:\n        /* \"@thirdweb-dev/contracts/extension/Permissions.sol\":5645:5659   */\n      0x00\n      dup3\n      dup2\n      mstore\n        /* \"@thirdweb-dev/contracts/extension/Permissions.sol\":5645:5653   */\n      0x08\n        /* \"@thirdweb-dev/contracts/extension/Permissions.sol\":5645:5659   */\n      0x20\n      swap1\n      dup2\n      mstore\n      0x40\n      dup1\n      dup4\n      keccak256\n      sub(shl(0xa0, 0x01), 0x01)\n        /* \"@thirdweb-dev/contracts/extension/Permissions.sol\":5645:5668   */\n      dup6\n      and\n      dup5\n      mstore\n      swap1\n      swap2\n      mstore\n      swap1\n      keccak256\n      sload\n      0xff\n      and\n        /* \"@thirdweb-dev/contracts/extension/Permissions.sol\":5640:6046   */\n      tag_210\n      jumpi\n        /* \"@thirdweb-dev/contracts/extension/Permissions.sol\":5827:5870   */\n      tag_394\n        /* \"@thirdweb-dev/contracts/extension/Permissions.sol\":5857:5864   */\n      dup2\n      sub(shl(0xa0, 0x01), 0x01)\n        /* \"@thirdweb-dev/contracts/extension/Permissions.sol\":5827:5870   */\n      and\n        /* \"@thirdweb-dev/contracts/extension/Permissions.sol\":5867:5869   */\n      0x14\n        /* \"@thirdweb-dev/contracts/extension/Permissions.sol\":5827:5848   */\n      tag_395\n        /* \"@thirdweb-dev/contracts/extension/Permissions.sol\":5827:5870   */\n      jump\t// in\n    tag_394:\n        /* \"@thirdweb-dev/contracts/extension/Permissions.sol\":5941:5981   */\n      tag_396\n        /* \"@thirdweb-dev/contracts/extension/Permissions.sol\":5971:5975   */\n      dup4\n        /* \"@thirdweb-dev/contracts/extension/Permissions.sol\":5978:5980   */\n      0x20\n        /* \"@thirdweb-dev/contracts/extension/Permissions.sol\":5941:5962   */\n      tag_395\n        /* \"@thirdweb-dev/contracts/extension/Permissions.sol\":5941:5981   */\n      jump\t// in\n    tag_396:\n        /* \"@thirdweb-dev/contracts/extension/Permissions.sol\":5736:6003   */\n      add(0x20, mload(0x40))\n      tag_397\n      swap3\n      swap2\n      swap1\n      tag_398\n      jump\t// in\n    tag_397:\n      0x40\n      dup1\n      mload\n      not(0x1f)\n      dup2\n      dup5\n      sub\n      add\n      dup2\n      mstore\n      swap1\n      dup3\n      swap1\n      mstore\n      shl(0xe5, 0x461bcd)\n        /* \"@thirdweb-dev/contracts/extension/Permissions.sol\":5684:6035   */\n      dup3\n      mstore\n      tag_187\n      swap2\n      0x04\n      add\n      tag_45\n      jump\t// in\n        /* \"@thirdweb-dev/contracts/extension/PermissionsEnumerable.sol\":3475:3627   */\n    tag_211:\n        /* \"@thirdweb-dev/contracts/extension/PermissionsEnumerable.sol\":3554:3585   */\n      tag_401\n        /* \"@thirdweb-dev/contracts/extension/PermissionsEnumerable.sol\":3571:3575   */\n      dup3\n        /* \"@thirdweb-dev/contracts/extension/PermissionsEnumerable.sol\":3577:3584   */\n      dup3\n        /* \"@thirdweb-dev/contracts/extension/PermissionsEnumerable.sol\":3554:3570   */\n      tag_170\n        /* \"@thirdweb-dev/contracts/extension/PermissionsEnumerable.sol\":3554:3585   */\n      jump\t// in\n    tag_401:\n        /* \"@thirdweb-dev/contracts/extension/PermissionsEnumerable.sol\":3595:3620   */\n      tag_210\n        /* \"@thirdweb-dev/contracts/extension/PermissionsEnumerable.sol\":3606:3610   */\n      dup3\n        /* \"@thirdweb-dev/contracts/extension/PermissionsEnumerable.sol\":3612:3619   */\n      dup3\n        /* \"@thirdweb-dev/contracts/extension/PermissionsEnumerable.sol\":3595:3605   */\n      tag_403\n        /* \"@thirdweb-dev/contracts/extension/PermissionsEnumerable.sol\":3595:3620   */\n      jump\t// in\n        /* \"@thirdweb-dev/contracts/external-deps/openzeppelin/token/ERC20/extensions/ERC20Permit.sol\":3296:3734   */\n    tag_218:\n        /* \"@thirdweb-dev/contracts/external-deps/openzeppelin/token/ERC20/extensions/ERC20Permit.sol\":3351:3358   */\n      0x00\n        /* \"@thirdweb-dev/contracts/external-deps/openzeppelin/token/ERC20/extensions/ERC20Permit.sol\":3448:3543   */\n      0x8b73c3c69bb8fe3d512ecc4cf759cc79239f7b179b0ffacaa9a75d522b39400f\n        /* \"@thirdweb-dev/contracts/external-deps/openzeppelin/token/ERC20/extensions/ERC20Permit.sol\":3581:3587   */\n      tag_405\n        /* \"@thirdweb-dev/contracts/external-deps/openzeppelin/token/ERC20/extensions/ERC20Permit.sol\":3581:3585   */\n      tag_43\n        /* \"@thirdweb-dev/contracts/external-deps/openzeppelin/token/ERC20/extensions/ERC20Permit.sol\":3581:3587   */\n      jump\t// in\n    tag_405:\n        /* \"@thirdweb-dev/contracts/external-deps/openzeppelin/token/ERC20/extensions/ERC20Permit.sol\":3565:3589   */\n      dup1\n      mload\n      0x20\n      swap2\n      dup3\n      add\n      keccak256\n        /* \"@thirdweb-dev/contracts/external-deps/openzeppelin/token/ERC20/extensions/ERC20Permit.sol\":3416:3713   */\n      0x40\n      dup1\n      mload\n      swap3\n      dup4\n      add\n        /* \"#utility.yul\":16305:16330   */\n      swap4\n      swap1\n      swap4\n      mstore\n        /* \"#utility.yul\":16346:16364   */\n      swap2\n      dup2\n      add\n        /* \"#utility.yul\":16339:16373   */\n      swap2\n      swap1\n      swap2\n      mstore\n        /* \"@thirdweb-dev/contracts/external-deps/openzeppelin/token/ERC20/extensions/ERC20Permit.sol\":3611:3625   */\n      0xc89efdaa54c0f20c7adf612882df0950f5a951637e0307cdcb4c672f298b8bc6\n        /* \"#utility.yul\":16389:16407   */\n      0x60\n      dup3\n      add\n        /* \"#utility.yul\":16382:16416   */\n      mstore\n        /* \"@thirdweb-dev/contracts/external-deps/openzeppelin/token/ERC20/extensions/ERC20Permit.sol\":3647:3660   */\n      chainid\n        /* \"#utility.yul\":16432:16450   */\n      0x80\n      dup3\n      add\n        /* \"#utility.yul\":16425:16459   */\n      mstore\n        /* \"@thirdweb-dev/contracts/external-deps/openzeppelin/token/ERC20/extensions/ERC20Permit.sol\":3690:3694   */\n      address\n        /* \"#utility.yul\":16475:16494   */\n      0xa0\n      dup3\n      add\n        /* \"#utility.yul\":16468:16552   */\n      mstore\n        /* \"#utility.yul\":16277:16296   */\n      0xc0\n      add\n        /* \"@thirdweb-dev/contracts/external-deps/openzeppelin/token/ERC20/extensions/ERC20Permit.sol\":3416:3713   */\n      mload(0x40)\n      0x20\n      dup2\n      dup4\n      sub\n      sub\n      dup2\n      mstore\n      swap1\n      0x40\n      mstore\n        /* \"@thirdweb-dev/contracts/external-deps/openzeppelin/token/ERC20/extensions/ERC20Permit.sol\":3389:3727   */\n      dup1\n      mload\n      swap1\n      0x20\n      add\n      keccak256\n        /* \"@thirdweb-dev/contracts/external-deps/openzeppelin/token/ERC20/extensions/ERC20Permit.sol\":3370:3727   */\n      swap1\n      pop\n        /* \"@thirdweb-dev/contracts/external-deps/openzeppelin/token/ERC20/extensions/ERC20Permit.sol\":3296:3734   */\n      swap1\n      jump\t// out\n        /* \"@thirdweb-dev/contracts/extension/PermissionsEnumerable.sol\":3205:3362   */\n    tag_224:\n        /* \"@thirdweb-dev/contracts/extension/PermissionsEnumerable.sol\":3285:3317   */\n      tag_409\n        /* \"@thirdweb-dev/contracts/extension/PermissionsEnumerable.sol\":3303:3307   */\n      dup3\n        /* \"@thirdweb-dev/contracts/extension/PermissionsEnumerable.sol\":3309:3316   */\n      dup3\n        /* \"@thirdweb-dev/contracts/extension/PermissionsEnumerable.sol\":3285:3302   */\n      tag_410\n        /* \"@thirdweb-dev/contracts/extension/PermissionsEnumerable.sol\":3285:3317   */\n      jump\t// in\n    tag_409:\n        /* \"@thirdweb-dev/contracts/extension/PermissionsEnumerable.sol\":4084:4095   */\n      0x00\n        /* \"@thirdweb-dev/contracts/extension/PermissionsEnumerable.sol\":4098:4115   */\n      dup3\n      dup2\n      mstore\n        /* \"@thirdweb-dev/contracts/extension/PermissionsEnumerable.sol\":4098:4109   */\n      0x0a\n        /* \"@thirdweb-dev/contracts/extension/PermissionsEnumerable.sol\":4098:4115   */\n      0x20\n      swap1\n      dup2\n      mstore\n      0x40\n      dup1\n      dup4\n      keccak256\n      sub(shl(0xa0, 0x01), 0x01)\n        /* \"@thirdweb-dev/contracts/extension/PermissionsEnumerable.sol\":4098:4132   */\n      dup6\n      and\n      dup1\n      dup6\n      mstore\n        /* \"@thirdweb-dev/contracts/extension/PermissionsEnumerable.sol\":4098:4123   */\n      0x02\n      dup3\n      add\n        /* \"@thirdweb-dev/contracts/extension/PermissionsEnumerable.sol\":4098:4132   */\n      dup1\n      dup6\n      mstore\n      dup4\n      dup7\n      keccak256\n      dup1\n      sload\n        /* \"@thirdweb-dev/contracts/extension/PermissionsEnumerable.sol\":4150:4180   */\n      dup8\n      mstore\n        /* \"@thirdweb-dev/contracts/extension/PermissionsEnumerable.sol\":4150:4175   */\n      0x01\n      swap1\n      swap4\n      add\n        /* \"@thirdweb-dev/contracts/extension/PermissionsEnumerable.sol\":4150:4180   */\n      dup6\n      mstore\n      swap3\n      dup6\n      keccak256\n        /* \"@thirdweb-dev/contracts/extension/PermissionsEnumerable.sol\":4143:4180   */\n      dup1\n      sload\n      not(0xffffffffffffffffffffffffffffffffffffffff)\n      and\n      swap1\n      sstore\n        /* \"@thirdweb-dev/contracts/extension/PermissionsEnumerable.sol\":4197:4231   */\n      dup5\n      mstore\n      swap2\n      mstore\n        /* \"@thirdweb-dev/contracts/extension/PermissionsEnumerable.sol\":4190:4231   */\n      sstore\n        /* \"@thirdweb-dev/contracts/extension/Permissions.sol\":3255:3526   */\n      pop\n      pop\n      jump\t// out\n        /* \"@thirdweb-dev/contracts/external-deps/openzeppelin/token/ERC20/ERC20.sol\":9161:9737   */\n    tag_236:\n      sub(shl(0xa0, 0x01), 0x01)\n        /* \"@thirdweb-dev/contracts/external-deps/openzeppelin/token/ERC20/ERC20.sol\":9244:9265   */\n      dup3\n      and\n        /* \"@thirdweb-dev/contracts/external-deps/openzeppelin/token/ERC20/ERC20.sol\":9236:9303   */\n      tag_414\n      jumpi\n      mload(0x40)\n      shl(0xe5, 0x461bcd)\n      dup2\n      mstore\n        /* \"#utility.yul\":16765:16767   */\n      0x20\n        /* \"@thirdweb-dev/contracts/external-deps/openzeppelin/token/ERC20/ERC20.sol\":9236:9303   */\n      0x04\n      dup3\n      add\n        /* \"#utility.yul\":16747:16768   */\n      mstore\n        /* \"#utility.yul\":16804:16806   */\n      0x21\n        /* \"#utility.yul\":16784:16802   */\n      0x24\n      dup3\n      add\n        /* \"#utility.yul\":16777:16807   */\n      mstore\n        /* \"#utility.yul\":16843:16877   */\n      0x45524332303a206275726e2066726f6d20746865207a65726f20616464726573\n        /* \"#utility.yul\":16823:16841   */\n      0x44\n      dup3\n      add\n        /* \"#utility.yul\":16816:16878   */\n      mstore\n      shl(0xf8, 0x73)\n        /* \"#utility.yul\":16894:16912   */\n      0x64\n      dup3\n      add\n        /* \"#utility.yul\":16887:16918   */\n      mstore\n        /* \"#utility.yul\":16935:16954   */\n      0x84\n      add\n        /* \"@thirdweb-dev/contracts/external-deps/openzeppelin/token/ERC20/ERC20.sol\":9236:9303   */\n      tag_187\n        /* \"#utility.yul\":16563:16960   */\n      jump\n        /* \"@thirdweb-dev/contracts/external-deps/openzeppelin/token/ERC20/ERC20.sol\":9236:9303   */\n    tag_414:\n      sub(shl(0xa0, 0x01), 0x01)\n        /* \"@thirdweb-dev/contracts/external-deps/openzeppelin/token/ERC20/ERC20.sol\":9399:9417   */\n      dup3\n      and\n        /* \"@thirdweb-dev/contracts/external-deps/openzeppelin/token/ERC20/ERC20.sol\":9374:9396   */\n      0x00\n        /* \"@thirdweb-dev/contracts/external-deps/openzeppelin/token/ERC20/ERC20.sol\":9399:9417   */\n      swap1\n      dup2\n      mstore\n        /* \"@thirdweb-dev/contracts/external-deps/openzeppelin/token/ERC20/ERC20.sol\":9399:9408   */\n      0x02\n        /* \"@thirdweb-dev/contracts/external-deps/openzeppelin/token/ERC20/ERC20.sol\":9399:9417   */\n      0x20\n      mstore\n      0x40\n      swap1\n      keccak256\n      sload\n        /* \"@thirdweb-dev/contracts/external-deps/openzeppelin/token/ERC20/ERC20.sol\":9435:9459   */\n      dup2\n      dup2\n      lt\n      iszero\n        /* \"@thirdweb-dev/contracts/external-deps/openzeppelin/token/ERC20/ERC20.sol\":9427:9498   */\n      tag_418\n      jumpi\n      mload(0x40)\n      shl(0xe5, 0x461bcd)\n      dup2\n      mstore\n        /* \"#utility.yul\":17167:17169   */\n      0x20\n        /* \"@thirdweb-dev/contracts/external-deps/openzeppelin/token/ERC20/ERC20.sol\":9427:9498   */\n      0x04\n      dup3\n      add\n        /* \"#utility.yul\":17149:17170   */\n      mstore\n        /* \"#utility.yul\":17206:17208   */\n      0x22\n        /* \"#utility.yul\":17186:17204   */\n      0x24\n      dup3\n      add\n        /* \"#utility.yul\":17179:17209   */\n      mstore\n        /* \"#utility.yul\":17245:17279   */\n      0x45524332303a206275726e20616d6f756e7420657863656564732062616c616e\n        /* \"#utility.yul\":17225:17243   */\n      0x44\n      dup3\n      add\n        /* \"#utility.yul\":17218:17280   */\n      mstore\n      shl(0xf0, 0x6365)\n        /* \"#utility.yul\":17296:17314   */\n      0x64\n      dup3\n      add\n        /* \"#utility.yul\":17289:17321   */\n      mstore\n        /* \"#utility.yul\":17338:17357   */\n      0x84\n      add\n        /* \"@thirdweb-dev/contracts/external-deps/openzeppelin/token/ERC20/ERC20.sol\":9427:9498   */\n      tag_187\n        /* \"#utility.yul\":16965:17363   */\n      jump\n        /* \"@thirdweb-dev/contracts/external-deps/openzeppelin/token/ERC20/ERC20.sol\":9427:9498   */\n    tag_418:\n      sub(shl(0xa0, 0x01), 0x01)\n        /* \"@thirdweb-dev/contracts/external-deps/openzeppelin/token/ERC20/ERC20.sol\":9532:9550   */\n      dup4\n      and\n      0x00\n      swap1\n      dup2\n      mstore\n        /* \"@thirdweb-dev/contracts/external-deps/openzeppelin/token/ERC20/ERC20.sol\":9532:9541   */\n      0x02\n        /* \"@thirdweb-dev/contracts/external-deps/openzeppelin/token/ERC20/ERC20.sol\":9532:9550   */\n      0x20\n      mstore\n      0x40\n      dup2\n      keccak256\n        /* \"@thirdweb-dev/contracts/external-deps/openzeppelin/token/ERC20/ERC20.sol\":9553:9576   */\n      dup4\n      dup4\n      sub\n        /* \"@thirdweb-dev/contracts/external-deps/openzeppelin/token/ERC20/ERC20.sol\":9532:9576   */\n      swap1\n      sstore\n        /* \"@thirdweb-dev/contracts/external-deps/openzeppelin/token/ERC20/ERC20.sol\":9596:9608   */\n      0x04\n        /* \"@thirdweb-dev/contracts/external-deps/openzeppelin/token/ERC20/ERC20.sol\":9596:9618   */\n      dup1\n      sload\n        /* \"@thirdweb-dev/contracts/external-deps/openzeppelin/token/ERC20/ERC20.sol\":9570:9576   */\n      dup5\n      swap3\n        /* \"@thirdweb-dev/contracts/external-deps/openzeppelin/token/ERC20/ERC20.sol\":9532:9550   */\n      swap1\n        /* \"@thirdweb-dev/contracts/external-deps/openzeppelin/token/ERC20/ERC20.sol\":9596:9618   */\n      tag_421\n      swap1\n        /* \"@thirdweb-dev/contracts/external-deps/openzeppelin/token/ERC20/ERC20.sol\":9570:9576   */\n      dup5\n      swap1\n        /* \"@thirdweb-dev/contracts/external-deps/openzeppelin/token/ERC20/ERC20.sol\":9596:9618   */\n      tag_202\n      jump\t// in\n    tag_421:\n      swap1\n      swap2\n      sstore\n      pop\n      pop\n        /* \"@thirdweb-dev/contracts/external-deps/openzeppelin/token/ERC20/ERC20.sol\":9634:9671   */\n      mload(0x40)\n        /* \"#utility.yul\":1759:1784   */\n      dup3\n      dup2\n      mstore\n        /* \"@thirdweb-dev/contracts/external-deps/openzeppelin/token/ERC20/ERC20.sol\":9660:9661   */\n      0x00\n      swap1\n      sub(shl(0xa0, 0x01), 0x01)\n        /* \"@thirdweb-dev/contracts/external-deps/openzeppelin/token/ERC20/ERC20.sol\":9634:9671   */\n      dup6\n      and\n      swap1\n      0xddf252ad1be2c89b69c2b068fc378daa952ba7f163c4a11628f55a4df523b3ef\n      swap1\n        /* \"#utility.yul\":1747:1749   */\n      0x20\n        /* \"#utility.yul\":1732:1750   */\n      add\n        /* \"@thirdweb-dev/contracts/external-deps/openzeppelin/token/ERC20/ERC20.sol\":9634:9671   */\n      mload(0x40)\n      dup1\n      swap2\n      sub\n      swap1\n      log3\n        /* \"@thirdweb-dev/contracts/base/ERC20Base.sol\":2991:3342   */\n      pop\n        /* \"@thirdweb-dev/contracts/base/ERC20Base.sol\":2912:3342   */\n      pop\n      pop\n      jump\t// out\n        /* \"@thirdweb-dev/contracts/external-deps/openzeppelin/token/ERC20/ERC20.sol\":8452:8841   */\n    tag_247:\n      sub(shl(0xa0, 0x01), 0x01)\n        /* \"@thirdweb-dev/contracts/external-deps/openzeppelin/token/ERC20/ERC20.sol\":8535:8556   */\n      dup3\n      and\n        /* \"@thirdweb-dev/contracts/external-deps/openzeppelin/token/ERC20/ERC20.sol\":8527:8592   */\n      tag_427\n      jumpi\n      mload(0x40)\n      shl(0xe5, 0x461bcd)\n      dup2\n      mstore\n        /* \"#utility.yul\":17570:17572   */\n      0x20\n        /* \"@thirdweb-dev/contracts/external-deps/openzeppelin/token/ERC20/ERC20.sol\":8527:8592   */\n      0x04\n      dup3\n      add\n        /* \"#utility.yul\":17552:17573   */\n      mstore\n        /* \"#utility.yul\":17609:17611   */\n      0x1f\n        /* \"#utility.yul\":17589:17607   */\n      0x24\n      dup3\n      add\n        /* \"#utility.yul\":17582:17612   */\n      mstore\n        /* \"#utility.yul\":17648:17681   */\n      0x45524332303a206d696e7420746f20746865207a65726f206164647265737300\n        /* \"#utility.yul\":17628:17646   */\n      0x44\n      dup3\n      add\n        /* \"#utility.yul\":17621:17682   */\n      mstore\n        /* \"#utility.yul\":17699:17717   */\n      0x64\n      add\n        /* \"@thirdweb-dev/contracts/external-deps/openzeppelin/token/ERC20/ERC20.sol\":8527:8592   */\n      tag_187\n        /* \"#utility.yul\":17368:17723   */\n      jump\n        /* \"@thirdweb-dev/contracts/external-deps/openzeppelin/token/ERC20/ERC20.sol\":8527:8592   */\n    tag_427:\n        /* \"@thirdweb-dev/contracts/external-deps/openzeppelin/token/ERC20/ERC20.sol\":8679:8685   */\n      dup1\n        /* \"@thirdweb-dev/contracts/external-deps/openzeppelin/token/ERC20/ERC20.sol\":8663:8675   */\n      0x04\n      0x00\n        /* \"@thirdweb-dev/contracts/external-deps/openzeppelin/token/ERC20/ERC20.sol\":8663:8685   */\n      dup3\n      dup3\n      sload\n      tag_431\n      swap2\n      swap1\n      tag_229\n      jump\t// in\n    tag_431:\n      swap1\n      swap2\n      sstore\n      pop\n      pop\n      sub(shl(0xa0, 0x01), 0x01)\n        /* \"@thirdweb-dev/contracts/external-deps/openzeppelin/token/ERC20/ERC20.sol\":8695:8713   */\n      dup3\n      and\n      0x00\n      swap1\n      dup2\n      mstore\n        /* \"@thirdweb-dev/contracts/external-deps/openzeppelin/token/ERC20/ERC20.sol\":8695:8704   */\n      0x02\n        /* \"@thirdweb-dev/contracts/external-deps/openzeppelin/token/ERC20/ERC20.sol\":8695:8713   */\n      0x20\n      mstore\n      0x40\n      dup2\n      keccak256\n        /* \"@thirdweb-dev/contracts/external-deps/openzeppelin/token/ERC20/ERC20.sol\":8695:8723   */\n      dup1\n      sload\n        /* \"@thirdweb-dev/contracts/external-deps/openzeppelin/token/ERC20/ERC20.sol\":8717:8723   */\n      dup4\n      swap3\n        /* \"@thirdweb-dev/contracts/external-deps/openzeppelin/token/ERC20/ERC20.sol\":8695:8713   */\n      swap1\n        /* \"@thirdweb-dev/contracts/external-deps/openzeppelin/token/ERC20/ERC20.sol\":8695:8723   */\n      tag_432\n      swap1\n        /* \"@thirdweb-dev/contracts/external-deps/openzeppelin/token/ERC20/ERC20.sol\":8717:8723   */\n      dup5\n      swap1\n        /* \"@thirdweb-dev/contracts/external-deps/openzeppelin/token/ERC20/ERC20.sol\":8695:8723   */\n      tag_229\n      jump\t// in\n    tag_432:\n      swap1\n      swap2\n      sstore\n      pop\n      pop\n        /* \"@thirdweb-dev/contracts/external-deps/openzeppelin/token/ERC20/ERC20.sol\":8738:8775   */\n      mload(0x40)\n        /* \"#utility.yul\":1759:1784   */\n      dup2\n      dup2\n      mstore\n      sub(shl(0xa0, 0x01), 0x01)\n        /* \"@thirdweb-dev/contracts/external-deps/openzeppelin/token/ERC20/ERC20.sol\":8738:8775   */\n      dup4\n      and\n      swap1\n        /* \"@thirdweb-dev/contracts/external-deps/openzeppelin/token/ERC20/ERC20.sol\":8755:8756   */\n      0x00\n      swap1\n        /* \"@thirdweb-dev/contracts/external-deps/openzeppelin/token/ERC20/ERC20.sol\":8738:8775   */\n      0xddf252ad1be2c89b69c2b068fc378daa952ba7f163c4a11628f55a4df523b3ef\n      swap1\n        /* \"#utility.yul\":1747:1749   */\n      0x20\n        /* \"#utility.yul\":1732:1750   */\n      add\n        /* \"@thirdweb-dev/contracts/external-deps/openzeppelin/token/ERC20/ERC20.sol\":8738:8775   */\n      mload(0x40)\n      dup1\n      swap2\n      sub\n      swap1\n      log3\n        /* \"@thirdweb-dev/contracts/extension/Permissions.sol\":3255:3526   */\n      pop\n      pop\n      jump\t// out\n        /* \"@thirdweb-dev/contracts/extension/ContractMetadata.sol\":1273:1458   */\n    tag_287:\n        /* \"@thirdweb-dev/contracts/extension/ContractMetadata.sol\":1339:1360   */\n      0x00\n        /* \"@thirdweb-dev/contracts/extension/ContractMetadata.sol\":1363:1374   */\n      dup1\n        /* \"@thirdweb-dev/contracts/extension/ContractMetadata.sol\":1339:1374   */\n      dup1\n      sload\n      tag_441\n      swap1\n      tag_173\n      jump\t// in\n    tag_441:\n      dup1\n      0x1f\n      add\n      0x20\n      dup1\n      swap2\n      div\n      mul\n      0x20\n      add\n      mload(0x40)\n      swap1\n      dup2\n      add\n      0x40\n      mstore\n      dup1\n      swap3\n      swap2\n      swap1\n      dup2\n      dup2\n      mstore\n      0x20\n      add\n      dup3\n      dup1\n      sload\n      tag_442\n      swap1\n      tag_173\n      jump\t// in\n    tag_442:\n      dup1\n      iszero\n      tag_443\n      jumpi\n      dup1\n      0x1f\n      lt\n      tag_444\n      jumpi\n      0x0100\n      dup1\n      dup4\n      sload\n      div\n      mul\n      dup4\n      mstore\n      swap2\n      0x20\n      add\n      swap2\n      jump(tag_443)\n    tag_444:\n      dup3\n      add\n      swap2\n      swap1\n      0x00\n      mstore\n      keccak256(0x00, 0x20)\n      swap1\n    tag_445:\n      dup2\n      sload\n      dup2\n      mstore\n      swap1\n      0x01\n      add\n      swap1\n      0x20\n      add\n      dup1\n      dup4\n      gt\n      tag_445\n      jumpi\n      dup3\n      swap1\n      sub\n      0x1f\n      and\n      dup3\n      add\n      swap2\n    tag_443:\n      pop\n      pop\n      pop\n      pop\n      pop\n      swap1\n      pop\n        /* \"@thirdweb-dev/contracts/extension/ContractMetadata.sol\":1398:1402   */\n      dup2\n        /* \"@thirdweb-dev/contracts/extension/ContractMetadata.sol\":1384:1395   */\n      0x00\n        /* \"@thirdweb-dev/contracts/extension/ContractMetadata.sol\":1384:1402   */\n      swap1\n      dup2\n      tag_446\n      swap2\n      swap1\n      tag_447\n      jump\t// in\n    tag_446:\n      pop\n        /* \"@thirdweb-dev/contracts/extension/ContractMetadata.sol\":1418:1451   */\n      0xc9c7c3fe08b88b4df9d4d47ef47d2c43d55c025a0ba88ca442580ed9e7348a16\n        /* \"@thirdweb-dev/contracts/extension/ContractMetadata.sol\":1437:1444   */\n      dup2\n        /* \"@thirdweb-dev/contracts/extension/ContractMetadata.sol\":1446:1450   */\n      dup4\n        /* \"@thirdweb-dev/contracts/extension/ContractMetadata.sol\":1418:1451   */\n      mload(0x40)\n      tag_448\n      swap3\n      swap2\n      swap1\n      tag_449\n      jump\t// in\n    tag_448:\n      mload(0x40)\n      dup1\n      swap2\n      sub\n      swap1\n      log1\n        /* \"@thirdweb-dev/contracts/extension/ContractMetadata.sol\":1329:1458   */\n      pop\n        /* \"@thirdweb-dev/contracts/extension/ContractMetadata.sol\":1273:1458   */\n      pop\n      jump\t// out\n        /* \"@thirdweb-dev/contracts/lib/TWAddress.sol\":6538:6736   */\n    tag_322:\n        /* \"@thirdweb-dev/contracts/lib/TWAddress.sol\":6621:6633   */\n      0x60\n        /* \"@thirdweb-dev/contracts/lib/TWAddress.sol\":6652:6729   */\n      tag_192\n        /* \"@thirdweb-dev/contracts/lib/TWAddress.sol\":6673:6679   */\n      dup4\n        /* \"@thirdweb-dev/contracts/lib/TWAddress.sol\":6681:6685   */\n      dup4\n        /* \"@thirdweb-dev/contracts/lib/TWAddress.sol\":6652:6729   */\n      mload(0x40)\n      dup1\n      0x60\n      add\n      0x40\n      mstore\n      dup1\n      0x27\n      dup2\n      mstore\n      0x20\n      add\n      data_9fdcd12e4b726339b32a442b0a448365d5d85c96b2d2cff917b4f66c63110398\n      0x27\n      swap2\n      codecopy\n        /* \"@thirdweb-dev/contracts/lib/TWAddress.sol\":6652:6672   */\n      tag_452\n        /* \"@thirdweb-dev/contracts/lib/TWAddress.sol\":6652:6729   */\n      jump\t// in\n        /* \"@thirdweb-dev/contracts/external-deps/openzeppelin/token/ERC20/extensions/ERC20Permit.sol\":3865:4068   */\n    tag_342:\n      sub(shl(0xa0, 0x01), 0x01)\n        /* \"@thirdweb-dev/contracts/external-deps/openzeppelin/token/ERC20/extensions/ERC20Permit.sol\":3985:3999   */\n      dup2\n      and\n        /* \"@thirdweb-dev/contracts/external-deps/openzeppelin/token/ERC20/extensions/ERC20Permit.sol\":3925:3940   */\n      0x00\n        /* \"@thirdweb-dev/contracts/external-deps/openzeppelin/token/ERC20/extensions/ERC20Permit.sol\":3985:3999   */\n      swap1\n      dup2\n      mstore\n        /* \"@thirdweb-dev/contracts/external-deps/openzeppelin/token/ERC20/extensions/ERC20Permit.sol\":3985:3992   */\n      0x07\n        /* \"@thirdweb-dev/contracts/external-deps/openzeppelin/token/ERC20/extensions/ERC20Permit.sol\":3985:3999   */\n      0x20\n      mstore\n      0x40\n      swap1\n      keccak256\n        /* \"@thirdweb-dev/contracts/external-deps/openzeppelin/utils/Counters.sol\":918:932   */\n      dup1\n      sload\n        /* \"@thirdweb-dev/contracts/external-deps/openzeppelin/utils/Counters.sol\":1050:1051   */\n      0x01\n        /* \"@thirdweb-dev/contracts/external-deps/openzeppelin/utils/Counters.sol\":1032:1051   */\n      dup2\n      add\n      dup3\n      sstore\n        /* \"@thirdweb-dev/contracts/external-deps/openzeppelin/utils/Counters.sol\":918:932   */\n      swap1\n        /* \"@thirdweb-dev/contracts/external-deps/openzeppelin/token/ERC20/extensions/ERC20Permit.sol\":4044:4061   */\n      tag_335\n        /* \"@thirdweb-dev/contracts/external-deps/openzeppelin/utils/Counters.sol\":945:1068   */\n      jump\n        /* \"@thirdweb-dev/contracts/external-deps/openzeppelin/utils/cryptography/ECDSA.sol\":6711:6981   */\n    tag_349:\n        /* \"@thirdweb-dev/contracts/external-deps/openzeppelin/utils/cryptography/ECDSA.sol\":6834:6841   */\n      0x00\n        /* \"@thirdweb-dev/contracts/external-deps/openzeppelin/utils/cryptography/ECDSA.sol\":6854:6871   */\n      dup1\n        /* \"@thirdweb-dev/contracts/external-deps/openzeppelin/utils/cryptography/ECDSA.sol\":6873:6891   */\n      0x00\n        /* \"@thirdweb-dev/contracts/external-deps/openzeppelin/utils/cryptography/ECDSA.sol\":6895:6920   */\n      tag_459\n        /* \"@thirdweb-dev/contracts/external-deps/openzeppelin/utils/cryptography/ECDSA.sol\":6906:6910   */\n      dup8\n        /* \"@thirdweb-dev/contracts/external-deps/openzeppelin/utils/cryptography/ECDSA.sol\":6912:6913   */\n      dup8\n        /* \"@thirdweb-dev/contracts/external-deps/openzeppelin/utils/cryptography/ECDSA.sol\":6915:6916   */\n      dup8\n        /* \"@thirdweb-dev/contracts/external-deps/openzeppelin/utils/cryptography/ECDSA.sol\":6918:6919   */\n      dup8\n        /* \"@thirdweb-dev/contracts/external-deps/openzeppelin/utils/cryptography/ECDSA.sol\":6895:6905   */\n      tag_460\n        /* \"@thirdweb-dev/contracts/external-deps/openzeppelin/utils/cryptography/ECDSA.sol\":6895:6920   */\n      jump\t// in\n    tag_459:\n        /* \"@thirdweb-dev/contracts/external-deps/openzeppelin/utils/cryptography/ECDSA.sol\":6853:6920   */\n      swap2\n      pop\n      swap2\n      pop\n        /* \"@thirdweb-dev/contracts/external-deps/openzeppelin/utils/cryptography/ECDSA.sol\":6930:6948   */\n      tag_461\n        /* \"@thirdweb-dev/contracts/external-deps/openzeppelin/utils/cryptography/ECDSA.sol\":6942:6947   */\n      dup2\n        /* \"@thirdweb-dev/contracts/external-deps/openzeppelin/utils/cryptography/ECDSA.sol\":6930:6941   */\n      tag_462\n        /* \"@thirdweb-dev/contracts/external-deps/openzeppelin/utils/cryptography/ECDSA.sol\":6930:6948   */\n      jump\t// in\n    tag_461:\n      pop\n        /* \"@thirdweb-dev/contracts/external-deps/openzeppelin/utils/cryptography/ECDSA.sol\":6965:6974   */\n      swap6\n        /* \"@thirdweb-dev/contracts/external-deps/openzeppelin/utils/cryptography/ECDSA.sol\":6711:6981   */\n      swap5\n      pop\n      pop\n      pop\n      pop\n      pop\n      jump\t// out\n        /* \"@thirdweb-dev/contracts/lib/TWStrings.sol\":1565:2006   */\n    tag_395:\n        /* \"@thirdweb-dev/contracts/lib/TWStrings.sol\":1640:1653   */\n      0x60\n        /* \"@thirdweb-dev/contracts/lib/TWStrings.sol\":1665:1684   */\n      0x00\n        /* \"@thirdweb-dev/contracts/lib/TWStrings.sol\":1697:1707   */\n      tag_466\n        /* \"@thirdweb-dev/contracts/lib/TWStrings.sol\":1701:1707   */\n      dup4\n        /* \"@thirdweb-dev/contracts/lib/TWStrings.sol\":1697:1698   */\n      0x02\n        /* \"@thirdweb-dev/contracts/lib/TWStrings.sol\":1697:1707   */\n      tag_467\n      jump\t// in\n    tag_466:\n        /* \"@thirdweb-dev/contracts/lib/TWStrings.sol\":1697:1711   */\n      tag_468\n      swap1\n        /* \"@thirdweb-dev/contracts/lib/TWStrings.sol\":1710:1711   */\n      0x02\n        /* \"@thirdweb-dev/contracts/lib/TWStrings.sol\":1697:1711   */\n      tag_229\n      jump\t// in\n    tag_468:\n        /* \"@thirdweb-dev/contracts/lib/TWStrings.sol\":1687:1712   */\n      0xffffffffffffffff\n      dup2\n      gt\n      iszero\n      tag_470\n      jumpi\n      tag_470\n      tag_310\n      jump\t// in\n    tag_470:\n      mload(0x40)\n      swap1\n      dup1\n      dup3\n      mstore\n      dup1\n      0x1f\n      add\n      not(0x1f)\n      and\n      0x20\n      add\n      dup3\n      add\n      0x40\n      mstore\n      dup1\n      iszero\n      tag_471\n      jumpi\n      0x20\n      dup3\n      add\n      dup2\n      dup1\n      calldatasize\n      dup4\n      calldatacopy\n      add\n      swap1\n      pop\n    tag_471:\n      pop\n        /* \"@thirdweb-dev/contracts/lib/TWStrings.sol\":1665:1712   */\n      swap1\n      pop\n      shl(0xfc, 0x03)\n        /* \"@thirdweb-dev/contracts/lib/TWStrings.sol\":1722:1728   */\n      dup2\n        /* \"@thirdweb-dev/contracts/lib/TWStrings.sol\":1729:1730   */\n      0x00\n        /* \"@thirdweb-dev/contracts/lib/TWStrings.sol\":1722:1731   */\n      dup2\n      mload\n      dup2\n      lt\n      tag_473\n      jumpi\n      tag_473\n      tag_319\n      jump\t// in\n    tag_473:\n      0x20\n      add\n      add\n        /* \"@thirdweb-dev/contracts/lib/TWStrings.sol\":1722:1737   */\n      swap1\n      not(sub(shl(0xf8, 0x01), 0x01))\n      and\n      swap1\n      dup2\n      0x00\n      byte\n      swap1\n      mstore8\n      pop\n      shl(0xfb, 0x0f)\n        /* \"@thirdweb-dev/contracts/lib/TWStrings.sol\":1747:1753   */\n      dup2\n        /* \"@thirdweb-dev/contracts/lib/TWStrings.sol\":1754:1755   */\n      0x01\n        /* \"@thirdweb-dev/contracts/lib/TWStrings.sol\":1747:1756   */\n      dup2\n      mload\n      dup2\n      lt\n      tag_475\n      jumpi\n      tag_475\n      tag_319\n      jump\t// in\n    tag_475:\n      0x20\n      add\n      add\n        /* \"@thirdweb-dev/contracts/lib/TWStrings.sol\":1747:1762   */\n      swap1\n      not(sub(shl(0xf8, 0x01), 0x01))\n      and\n      swap1\n      dup2\n      0x00\n      byte\n      swap1\n      mstore8\n      pop\n        /* \"@thirdweb-dev/contracts/lib/TWStrings.sol\":1777:1786   */\n      0x00\n        /* \"@thirdweb-dev/contracts/lib/TWStrings.sol\":1789:1799   */\n      tag_479\n        /* \"@thirdweb-dev/contracts/lib/TWStrings.sol\":1793:1799   */\n      dup5\n        /* \"@thirdweb-dev/contracts/lib/TWStrings.sol\":1789:1790   */\n      0x02\n        /* \"@thirdweb-dev/contracts/lib/TWStrings.sol\":1789:1799   */\n      tag_467\n      jump\t// in\n    tag_479:\n        /* \"@thirdweb-dev/contracts/lib/TWStrings.sol\":1789:1803   */\n      tag_480\n      swap1\n        /* \"@thirdweb-dev/contracts/lib/TWStrings.sol\":1802:1803   */\n      0x01\n        /* \"@thirdweb-dev/contracts/lib/TWStrings.sol\":1789:1803   */\n      tag_229\n      jump\t// in\n    tag_480:\n        /* \"@thirdweb-dev/contracts/lib/TWStrings.sol\":1777:1803   */\n      swap1\n      pop\n        /* \"@thirdweb-dev/contracts/lib/TWStrings.sol\":1772:1904   */\n    tag_476:\n        /* \"@thirdweb-dev/contracts/lib/TWStrings.sol\":1809:1810   */\n      0x01\n        /* \"@thirdweb-dev/contracts/lib/TWStrings.sol\":1805:1806   */\n      dup2\n        /* \"@thirdweb-dev/contracts/lib/TWStrings.sol\":1805:1810   */\n      gt\n        /* \"@thirdweb-dev/contracts/lib/TWStrings.sol\":1772:1904   */\n      iszero\n      tag_477\n      jumpi\n        /* \"@thirdweb-dev/contracts/lib/TWStrings.sol\":1843:1855   */\n      0x3031323334353637383961626364656600000000000000000000000000000000\n        /* \"@thirdweb-dev/contracts/lib/TWStrings.sol\":1856:1861   */\n      dup6\n        /* \"@thirdweb-dev/contracts/lib/TWStrings.sol\":1864:1867   */\n      0x0f\n        /* \"@thirdweb-dev/contracts/lib/TWStrings.sol\":1856:1867   */\n      and\n        /* \"@thirdweb-dev/contracts/lib/TWStrings.sol\":1843:1868   */\n      0x10\n      dup2\n      lt\n      tag_482\n      jumpi\n      tag_482\n      tag_319\n      jump\t// in\n    tag_482:\n      byte\n      0xf8\n      shl\n        /* \"@thirdweb-dev/contracts/lib/TWStrings.sol\":1831:1837   */\n      dup3\n        /* \"@thirdweb-dev/contracts/lib/TWStrings.sol\":1838:1839   */\n      dup3\n        /* \"@thirdweb-dev/contracts/lib/TWStrings.sol\":1831:1840   */\n      dup2\n      mload\n      dup2\n      lt\n      tag_484\n      jumpi\n      tag_484\n      tag_319\n      jump\t// in\n    tag_484:\n      0x20\n      add\n      add\n        /* \"@thirdweb-dev/contracts/lib/TWStrings.sol\":1831:1868   */\n      swap1\n      not(sub(shl(0xf8, 0x01), 0x01))\n      and\n      swap1\n      dup2\n      0x00\n      byte\n      swap1\n      mstore8\n      pop\n        /* \"@thirdweb-dev/contracts/lib/TWStrings.sol\":1892:1893   */\n      0x04\n        /* \"@thirdweb-dev/contracts/lib/TWStrings.sol\":1882:1893   */\n      swap5\n      swap1\n      swap5\n      shr\n      swap4\n        /* \"@thirdweb-dev/contracts/lib/TWStrings.sol\":1812:1815   */\n      tag_485\n      dup2\n      tag_486\n      jump\t// in\n    tag_485:\n      swap1\n      pop\n        /* \"@thirdweb-dev/contracts/lib/TWStrings.sol\":1772:1904   */\n      jump(tag_476)\n    tag_477:\n      pop\n        /* \"@thirdweb-dev/contracts/lib/TWStrings.sol\":1921:1931   */\n      dup4\n      iszero\n        /* \"@thirdweb-dev/contracts/lib/TWStrings.sol\":1913:1968   */\n      tag_192\n      jumpi\n      mload(0x40)\n      shl(0xe5, 0x461bcd)\n      dup2\n      mstore\n        /* \"#utility.yul\":20836:20838   */\n      0x20\n        /* \"@thirdweb-dev/contracts/lib/TWStrings.sol\":1913:1968   */\n      0x04\n      dup3\n      add\n        /* \"#utility.yul\":20818:20839   */\n      dup2\n      swap1\n      mstore\n        /* \"#utility.yul\":20855:20873   */\n      0x24\n      dup3\n      add\n        /* \"#utility.yul\":20848:20878   */\n      mstore\n        /* \"#utility.yul\":20914:20948   */\n      0x537472696e67733a20686578206c656e67746820696e73756666696369656e74\n        /* \"#utility.yul\":20894:20912   */\n      0x44\n      dup3\n      add\n        /* \"#utility.yul\":20887:20949   */\n      mstore\n        /* \"#utility.yul\":20966:20984   */\n      0x64\n      add\n        /* \"@thirdweb-dev/contracts/lib/TWStrings.sol\":1913:1968   */\n      tag_187\n        /* \"#utility.yul\":20634:20990   */\n      jump\n        /* \"@thirdweb-dev/contracts/extension/PermissionsEnumerable.sol\":3690:3943   */\n    tag_403:\n        /* \"@thirdweb-dev/contracts/extension/PermissionsEnumerable.sol\":3760:3771   */\n      0x00\n        /* \"@thirdweb-dev/contracts/extension/PermissionsEnumerable.sol\":3774:3791   */\n      dup3\n      dup2\n      mstore\n        /* \"@thirdweb-dev/contracts/extension/PermissionsEnumerable.sol\":3774:3785   */\n      0x0a\n        /* \"@thirdweb-dev/contracts/extension/PermissionsEnumerable.sol\":3774:3791   */\n      0x20\n      mstore\n      0x40\n      dup2\n      keccak256\n        /* \"@thirdweb-dev/contracts/extension/PermissionsEnumerable.sol\":3774:3797   */\n      dup1\n      sload\n      swap2\n        /* \"@thirdweb-dev/contracts/extension/PermissionsEnumerable.sol\":3834:3835   */\n      0x01\n      swap2\n        /* \"@thirdweb-dev/contracts/extension/PermissionsEnumerable.sol\":3774:3791   */\n      swap1\n        /* \"@thirdweb-dev/contracts/extension/PermissionsEnumerable.sol\":3807:3835   */\n      tag_491\n        /* \"@thirdweb-dev/contracts/extension/PermissionsEnumerable.sol\":3834:3835   */\n      dup4\n        /* \"@thirdweb-dev/contracts/extension/PermissionsEnumerable.sol\":3774:3797   */\n      dup6\n        /* \"@thirdweb-dev/contracts/extension/PermissionsEnumerable.sol\":3807:3835   */\n      tag_229\n      jump\t// in\n    tag_491:\n      swap1\n      swap2\n      sstore\n      pop\n      pop\n        /* \"@thirdweb-dev/contracts/extension/PermissionsEnumerable.sol\":3846:3863   */\n      0x00\n      swap3\n      dup4\n      mstore\n        /* \"@thirdweb-dev/contracts/extension/PermissionsEnumerable.sol\":3846:3857   */\n      0x0a\n        /* \"@thirdweb-dev/contracts/extension/PermissionsEnumerable.sol\":3846:3863   */\n      0x20\n      swap1\n      dup2\n      mstore\n      0x40\n      dup1\n      dup6\n      keccak256\n        /* \"@thirdweb-dev/contracts/extension/PermissionsEnumerable.sol\":3846:3876   */\n      dup4\n      dup7\n      mstore\n        /* \"@thirdweb-dev/contracts/extension/PermissionsEnumerable.sol\":3846:3871   */\n      0x01\n      dup2\n      add\n        /* \"@thirdweb-dev/contracts/extension/PermissionsEnumerable.sol\":3846:3876   */\n      dup4\n      mstore\n      dup2\n      dup7\n      keccak256\n        /* \"@thirdweb-dev/contracts/extension/PermissionsEnumerable.sol\":3846:3886   */\n      dup1\n      sload\n      sub(shl(0xa0, 0x01), 0x01)\n      swap1\n      swap7\n      and\n      not(0xffffffffffffffffffffffffffffffffffffffff)\n      swap1\n      swap7\n      and\n      dup7\n      or\n      swap1\n      sstore\n        /* \"@thirdweb-dev/contracts/extension/PermissionsEnumerable.sol\":3896:3930   */\n      swap4\n      dup6\n      mstore\n        /* \"@thirdweb-dev/contracts/extension/PermissionsEnumerable.sol\":3896:3921   */\n      0x02\n      swap1\n      swap4\n      add\n        /* \"@thirdweb-dev/contracts/extension/PermissionsEnumerable.sol\":3896:3930   */\n      swap1\n      mstore\n      swap2\n      keccak256\n        /* \"@thirdweb-dev/contracts/extension/PermissionsEnumerable.sol\":3896:3936   */\n      sstore\n        /* \"@thirdweb-dev/contracts/extension/PermissionsEnumerable.sol\":3690:3943   */\n      jump\t// out\n        /* \"@thirdweb-dev/contracts/extension/Permissions.sol\":5253:5457   */\n    tag_410:\n        /* \"@thirdweb-dev/contracts/extension/Permissions.sol\":5332:5357   */\n      tag_493\n        /* \"@thirdweb-dev/contracts/extension/Permissions.sol\":5343:5347   */\n      dup3\n        /* \"@thirdweb-dev/contracts/extension/Permissions.sol\":5349:5356   */\n      dup3\n        /* \"@thirdweb-dev/contracts/extension/Permissions.sol\":5332:5342   */\n      tag_206\n        /* \"@thirdweb-dev/contracts/extension/Permissions.sol\":5332:5357   */\n      jump\t// in\n    tag_493:\n        /* \"@thirdweb-dev/contracts/extension/Permissions.sol\":5374:5388   */\n      0x00\n      dup3\n      dup2\n      mstore\n        /* \"@thirdweb-dev/contracts/extension/Permissions.sol\":5374:5382   */\n      0x08\n        /* \"@thirdweb-dev/contracts/extension/Permissions.sol\":5374:5388   */\n      0x20\n      swap1\n      dup2\n      mstore\n      0x40\n      dup1\n      dup4\n      keccak256\n      sub(shl(0xa0, 0x01), 0x01)\n        /* \"@thirdweb-dev/contracts/extension/Permissions.sol\":5374:5397   */\n      dup6\n      and\n      dup1\n      dup6\n      mstore\n      swap3\n      mstore\n      dup1\n      dup4\n      keccak256\n        /* \"@thirdweb-dev/contracts/extension/Permissions.sol\":5367:5397   */\n      dup1\n      sload\n      not(0xff)\n      and\n      swap1\n      sstore\n        /* \"@thirdweb-dev/contracts/extension/Permissions.sol\":5412:5450   */\n      mload\n        /* \"@thirdweb-dev/contracts/extension/Permissions.sol\":5439:5449   */\n      caller\n      swap3\n        /* \"@thirdweb-dev/contracts/extension/Permissions.sol\":5383:5387   */\n      dup6\n      swap2\n        /* \"@thirdweb-dev/contracts/extension/Permissions.sol\":5412:5450   */\n      0xf6391f5c32d9c69d2a47ea670b442974b53935d1edc7fd64eb21e047a839171b\n      swap2\n        /* \"@thirdweb-dev/contracts/extension/Permissions.sol\":5374:5388   */\n      swap1\n        /* \"@thirdweb-dev/contracts/extension/Permissions.sol\":5412:5450   */\n      log4\n        /* \"@thirdweb-dev/contracts/extension/Permissions.sol\":5253:5457   */\n      pop\n      pop\n      jump\t// out\n        /* \"@thirdweb-dev/contracts/lib/TWAddress.sol\":6922:7309   */\n    tag_452:\n        /* \"@thirdweb-dev/contracts/lib/TWAddress.sol\":7063:7075   */\n      0x60\n      sub(shl(0xa0, 0x01), 0x01)\n        /* \"@thirdweb-dev/contracts/lib/TWAddress.sol\":1427:1446   */\n      dup5\n      and\n      extcodesize\n        /* \"@thirdweb-dev/contracts/lib/TWAddress.sol\":7087:7156   */\n      tag_498\n      jumpi\n      mload(0x40)\n      shl(0xe5, 0x461bcd)\n      dup2\n      mstore\n        /* \"#utility.yul\":21197:21199   */\n      0x20\n        /* \"@thirdweb-dev/contracts/lib/TWAddress.sol\":7087:7156   */\n      0x04\n      dup3\n      add\n        /* \"#utility.yul\":21179:21200   */\n      mstore\n        /* \"#utility.yul\":21236:21238   */\n      0x26\n        /* \"#utility.yul\":21216:21234   */\n      0x24\n      dup3\n      add\n        /* \"#utility.yul\":21209:21239   */\n      mstore\n        /* \"#utility.yul\":21275:21309   */\n      0x416464726573733a2064656c65676174652063616c6c20746f206e6f6e2d636f\n        /* \"#utility.yul\":21255:21273   */\n      0x44\n      dup3\n      add\n        /* \"#utility.yul\":21248:21310   */\n      mstore\n        /* \"#utility.yul\":21346:21354   */\n      0x6e74726163740000000000000000000000000000000000000000000000000000\n        /* \"#utility.yul\":21326:21344   */\n      0x64\n      dup3\n      add\n        /* \"#utility.yul\":21319:21355   */\n      mstore\n        /* \"#utility.yul\":21372:21391   */\n      0x84\n      add\n        /* \"@thirdweb-dev/contracts/lib/TWAddress.sol\":7087:7156   */\n      tag_187\n        /* \"#utility.yul\":20995:21397   */\n      jump\n        /* \"@thirdweb-dev/contracts/lib/TWAddress.sol\":7087:7156   */\n    tag_498:\n        /* \"@thirdweb-dev/contracts/lib/TWAddress.sol\":7168:7180   */\n      0x00\n        /* \"@thirdweb-dev/contracts/lib/TWAddress.sol\":7182:7205   */\n      dup1\n        /* \"@thirdweb-dev/contracts/lib/TWAddress.sol\":7209:7215   */\n      dup6\n      sub(shl(0xa0, 0x01), 0x01)\n        /* \"@thirdweb-dev/contracts/lib/TWAddress.sol\":7209:7228   */\n      and\n        /* \"@thirdweb-dev/contracts/lib/TWAddress.sol\":7229:7233   */\n      dup6\n        /* \"@thirdweb-dev/contracts/lib/TWAddress.sol\":7209:7234   */\n      mload(0x40)\n      tag_501\n      swap2\n      swap1\n      tag_502\n      jump\t// in\n    tag_501:\n      0x00\n      mload(0x40)\n      dup1\n      dup4\n      sub\n      dup2\n      dup6\n      gas\n      delegatecall\n      swap2\n      pop\n      pop\n      returndatasize\n      dup1\n      0x00\n      dup2\n      eq\n      tag_505\n      jumpi\n      mload(0x40)\n      swap2\n      pop\n      and(add(returndatasize, 0x3f), not(0x1f))\n      dup3\n      add\n      0x40\n      mstore\n      returndatasize\n      dup3\n      mstore\n      returndatasize\n      0x00\n      0x20\n      dup5\n      add\n      returndatacopy\n      jump(tag_504)\n    tag_505:\n      0x60\n      swap2\n      pop\n    tag_504:\n      pop\n        /* \"@thirdweb-dev/contracts/lib/TWAddress.sol\":7167:7234   */\n      swap2\n      pop\n      swap2\n      pop\n        /* \"@thirdweb-dev/contracts/lib/TWAddress.sol\":7251:7302   */\n      tag_506\n        /* \"@thirdweb-dev/contracts/lib/TWAddress.sol\":7268:7275   */\n      dup3\n        /* \"@thirdweb-dev/contracts/lib/TWAddress.sol\":7277:7287   */\n      dup3\n        /* \"@thirdweb-dev/contracts/lib/TWAddress.sol\":7289:7301   */\n      dup7\n        /* \"@thirdweb-dev/contracts/lib/TWAddress.sol\":7251:7267   */\n      tag_507\n        /* \"@thirdweb-dev/contracts/lib/TWAddress.sol\":7251:7302   */\n      jump\t// in\n    tag_506:\n        /* \"@thirdweb-dev/contracts/lib/TWAddress.sol\":7244:7302   */\n      swap7\n        /* \"@thirdweb-dev/contracts/lib/TWAddress.sol\":6922:7309   */\n      swap6\n      pop\n      pop\n      pop\n      pop\n      pop\n      pop\n      jump\t// out\n        /* \"@thirdweb-dev/contracts/external-deps/openzeppelin/utils/cryptography/ECDSA.sol\":5084:6578   */\n    tag_460:\n        /* \"@thirdweb-dev/contracts/external-deps/openzeppelin/utils/cryptography/ECDSA.sol\":5210:5217   */\n      0x00\n      dup1\n        /* \"@thirdweb-dev/contracts/external-deps/openzeppelin/utils/cryptography/ECDSA.sol\":6134:6200   */\n      0x7fffffffffffffffffffffffffffffff5d576e7357a4501ddfe92f46681b20a0\n        /* \"@thirdweb-dev/contracts/external-deps/openzeppelin/utils/cryptography/ECDSA.sol\":6121:6200   */\n      dup4\n      gt\n        /* \"@thirdweb-dev/contracts/external-deps/openzeppelin/utils/cryptography/ECDSA.sol\":6117:6278   */\n      iszero\n      tag_510\n      jumpi\n      pop\n        /* \"@thirdweb-dev/contracts/external-deps/openzeppelin/utils/cryptography/ECDSA.sol\":6232:6233   */\n      0x00\n      swap1\n      pop\n        /* \"@thirdweb-dev/contracts/external-deps/openzeppelin/utils/cryptography/ECDSA.sol\":6236:6266   */\n      0x03\n        /* \"@thirdweb-dev/contracts/external-deps/openzeppelin/utils/cryptography/ECDSA.sol\":6216:6267   */\n      jump(tag_509)\n        /* \"@thirdweb-dev/contracts/external-deps/openzeppelin/utils/cryptography/ECDSA.sol\":6117:6278   */\n    tag_510:\n        /* \"@thirdweb-dev/contracts/external-deps/openzeppelin/utils/cryptography/ECDSA.sol\":6389:6413   */\n      0x40\n      dup1\n      mload\n        /* \"@thirdweb-dev/contracts/external-deps/openzeppelin/utils/cryptography/ECDSA.sol\":6372:6386   */\n      0x00\n        /* \"@thirdweb-dev/contracts/external-deps/openzeppelin/utils/cryptography/ECDSA.sol\":6389:6413   */\n      dup1\n      dup3\n      mstore\n      0x20\n      dup3\n      add\n      dup1\n      dup5\n      mstore\n        /* \"#utility.yul\":21921:21946   */\n      dup10\n      swap1\n      mstore\n        /* \"#utility.yul\":21994:21998   */\n      0xff\n        /* \"#utility.yul\":21982:21999   */\n      dup9\n      and\n        /* \"#utility.yul\":21962:21980   */\n      swap3\n      dup3\n      add\n        /* \"#utility.yul\":21955:22000   */\n      swap3\n      swap1\n      swap3\n      mstore\n        /* \"#utility.yul\":22016:22034   */\n      0x60\n      dup2\n      add\n        /* \"#utility.yul\":22009:22043   */\n      dup7\n      swap1\n      mstore\n        /* \"#utility.yul\":22059:22077   */\n      0x80\n      dup2\n      add\n        /* \"#utility.yul\":22052:22086   */\n      dup6\n      swap1\n      mstore\n        /* \"@thirdweb-dev/contracts/external-deps/openzeppelin/utils/cryptography/ECDSA.sol\":6389:6413   */\n      0x01\n      swap1\n        /* \"#utility.yul\":21893:21912   */\n      0xa0\n      add\n        /* \"@thirdweb-dev/contracts/external-deps/openzeppelin/utils/cryptography/ECDSA.sol\":6389:6413   */\n      0x20\n      mload(0x40)\n      0x20\n      dup2\n      sub\n      swap1\n      dup1\n      dup5\n      sub\n      swap1\n      dup6\n      gas\n      staticcall\n      iszero\n      dup1\n      iszero\n      tag_514\n      jumpi\n      returndatasize\n      0x00\n      dup1\n      returndatacopy\n      revert(0x00, returndatasize)\n    tag_514:\n      pop\n      pop\n      mload(add(not(0x1f), mload(0x40)))\n      swap2\n      pop\n      pop\n      sub(shl(0xa0, 0x01), 0x01)\n        /* \"@thirdweb-dev/contracts/external-deps/openzeppelin/utils/cryptography/ECDSA.sol\":6427:6447   */\n      dup2\n      and\n        /* \"@thirdweb-dev/contracts/external-deps/openzeppelin/utils/cryptography/ECDSA.sol\":6423:6524   */\n      tag_515\n      jumpi\n        /* \"@thirdweb-dev/contracts/external-deps/openzeppelin/utils/cryptography/ECDSA.sol\":6479:6480   */\n      0x00\n        /* \"@thirdweb-dev/contracts/external-deps/openzeppelin/utils/cryptography/ECDSA.sol\":6483:6512   */\n      0x01\n        /* \"@thirdweb-dev/contracts/external-deps/openzeppelin/utils/cryptography/ECDSA.sol\":6463:6513   */\n      swap3\n      pop\n      swap3\n      pop\n      pop\n      jump(tag_509)\n        /* \"@thirdweb-dev/contracts/external-deps/openzeppelin/utils/cryptography/ECDSA.sol\":6423:6524   */\n    tag_515:\n        /* \"@thirdweb-dev/contracts/external-deps/openzeppelin/utils/cryptography/ECDSA.sol\":6542:6548   */\n      swap2\n      pop\n        /* \"@thirdweb-dev/contracts/external-deps/openzeppelin/utils/cryptography/ECDSA.sol\":6550:6570   */\n      0x00\n      swap1\n      pop\n        /* \"@thirdweb-dev/contracts/external-deps/openzeppelin/utils/cryptography/ECDSA.sol\":5084:6578   */\n    tag_509:\n      swap5\n      pop\n      swap5\n      swap3\n      pop\n      pop\n      pop\n      jump\t// out\n        /* \"@thirdweb-dev/contracts/external-deps/openzeppelin/utils/cryptography/ECDSA.sol\":585:1096   */\n    tag_462:\n        /* \"@thirdweb-dev/contracts/external-deps/openzeppelin/utils/cryptography/ECDSA.sol\":662:682   */\n      0x00\n        /* \"@thirdweb-dev/contracts/external-deps/openzeppelin/utils/cryptography/ECDSA.sol\":653:658   */\n      dup2\n        /* \"@thirdweb-dev/contracts/external-deps/openzeppelin/utils/cryptography/ECDSA.sol\":653:682   */\n      0x04\n      dup2\n      gt\n      iszero\n      tag_521\n      jumpi\n      tag_521\n      tag_519\n      jump\t// in\n    tag_521:\n      sub\n        /* \"@thirdweb-dev/contracts/external-deps/openzeppelin/utils/cryptography/ECDSA.sol\":649:1090   */\n      tag_522\n      jumpi\n        /* \"@thirdweb-dev/contracts/external-deps/openzeppelin/utils/cryptography/ECDSA.sol\":585:1096   */\n      pop\n      jump\t// out\n        /* \"@thirdweb-dev/contracts/external-deps/openzeppelin/utils/cryptography/ECDSA.sol\":649:1090   */\n    tag_522:\n        /* \"@thirdweb-dev/contracts/external-deps/openzeppelin/utils/cryptography/ECDSA.sol\":758:787   */\n      0x01\n        /* \"@thirdweb-dev/contracts/external-deps/openzeppelin/utils/cryptography/ECDSA.sol\":749:754   */\n      dup2\n        /* \"@thirdweb-dev/contracts/external-deps/openzeppelin/utils/cryptography/ECDSA.sol\":749:787   */\n      0x04\n      dup2\n      gt\n      iszero\n      tag_527\n      jumpi\n      tag_527\n      tag_519\n      jump\t// in\n    tag_527:\n      sub\n        /* \"@thirdweb-dev/contracts/external-deps/openzeppelin/utils/cryptography/ECDSA.sol\":745:1090   */\n      tag_528\n      jumpi\n        /* \"@thirdweb-dev/contracts/external-deps/openzeppelin/utils/cryptography/ECDSA.sol\":803:837   */\n      mload(0x40)\n      shl(0xe5, 0x461bcd)\n      dup2\n      mstore\n        /* \"#utility.yul\":22431:22433   */\n      0x20\n        /* \"@thirdweb-dev/contracts/external-deps/openzeppelin/utils/cryptography/ECDSA.sol\":803:837   */\n      0x04\n      dup3\n      add\n        /* \"#utility.yul\":22413:22434   */\n      mstore\n        /* \"#utility.yul\":22470:22472   */\n      0x18\n        /* \"#utility.yul\":22450:22468   */\n      0x24\n      dup3\n      add\n        /* \"#utility.yul\":22443:22473   */\n      mstore\n        /* \"#utility.yul\":22509:22535   */\n      0x45434453413a20696e76616c6964207369676e61747572650000000000000000\n        /* \"#utility.yul\":22489:22507   */\n      0x44\n      dup3\n      add\n        /* \"#utility.yul\":22482:22536   */\n      mstore\n        /* \"#utility.yul\":22553:22571   */\n      0x64\n      add\n        /* \"@thirdweb-dev/contracts/external-deps/openzeppelin/utils/cryptography/ECDSA.sol\":803:837   */\n      tag_187\n        /* \"#utility.yul\":22229:22577   */\n      jump\n        /* \"@thirdweb-dev/contracts/external-deps/openzeppelin/utils/cryptography/ECDSA.sol\":745:1090   */\n    tag_528:\n        /* \"@thirdweb-dev/contracts/external-deps/openzeppelin/utils/cryptography/ECDSA.sol\":867:902   */\n      0x02\n        /* \"@thirdweb-dev/contracts/external-deps/openzeppelin/utils/cryptography/ECDSA.sol\":858:863   */\n      dup2\n        /* \"@thirdweb-dev/contracts/external-deps/openzeppelin/utils/cryptography/ECDSA.sol\":858:902   */\n      0x04\n      dup2\n      gt\n      iszero\n      tag_535\n      jumpi\n      tag_535\n      tag_519\n      jump\t// in\n    tag_535:\n      sub\n        /* \"@thirdweb-dev/contracts/external-deps/openzeppelin/utils/cryptography/ECDSA.sol\":854:1090   */\n      tag_536\n      jumpi\n        /* \"@thirdweb-dev/contracts/external-deps/openzeppelin/utils/cryptography/ECDSA.sol\":918:959   */\n      mload(0x40)\n      shl(0xe5, 0x461bcd)\n      dup2\n      mstore\n        /* \"#utility.yul\":22784:22786   */\n      0x20\n        /* \"@thirdweb-dev/contracts/external-deps/openzeppelin/utils/cryptography/ECDSA.sol\":918:959   */\n      0x04\n      dup3\n      add\n        /* \"#utility.yul\":22766:22787   */\n      mstore\n        /* \"#utility.yul\":22823:22825   */\n      0x1f\n        /* \"#utility.yul\":22803:22821   */\n      0x24\n      dup3\n      add\n        /* \"#utility.yul\":22796:22826   */\n      mstore\n        /* \"#utility.yul\":22862:22895   */\n      0x45434453413a20696e76616c6964207369676e6174757265206c656e67746800\n        /* \"#utility.yul\":22842:22860   */\n      0x44\n      dup3\n      add\n        /* \"#utility.yul\":22835:22896   */\n      mstore\n        /* \"#utility.yul\":22913:22931   */\n      0x64\n      add\n        /* \"@thirdweb-dev/contracts/external-deps/openzeppelin/utils/cryptography/ECDSA.sol\":918:959   */\n      tag_187\n        /* \"#utility.yul\":22582:22937   */\n      jump\n        /* \"@thirdweb-dev/contracts/external-deps/openzeppelin/utils/cryptography/ECDSA.sol\":854:1090   */\n    tag_536:\n        /* \"@thirdweb-dev/contracts/external-deps/openzeppelin/utils/cryptography/ECDSA.sol\":989:1019   */\n      0x03\n        /* \"@thirdweb-dev/contracts/external-deps/openzeppelin/utils/cryptography/ECDSA.sol\":980:985   */\n      dup2\n        /* \"@thirdweb-dev/contracts/external-deps/openzeppelin/utils/cryptography/ECDSA.sol\":980:1019   */\n      0x04\n      dup2\n      gt\n      iszero\n      tag_543\n      jumpi\n      tag_543\n      tag_519\n      jump\t// in\n    tag_543:\n      sub\n        /* \"@thirdweb-dev/contracts/external-deps/openzeppelin/utils/cryptography/ECDSA.sol\":976:1090   */\n      tag_189\n      jumpi\n        /* \"@thirdweb-dev/contracts/external-deps/openzeppelin/utils/cryptography/ECDSA.sol\":1035:1079   */\n      mload(0x40)\n      shl(0xe5, 0x461bcd)\n      dup2\n      mstore\n        /* \"#utility.yul\":23144:23146   */\n      0x20\n        /* \"@thirdweb-dev/contracts/external-deps/openzeppelin/utils/cryptography/ECDSA.sol\":1035:1079   */\n      0x04\n      dup3\n      add\n        /* \"#utility.yul\":23126:23147   */\n      mstore\n        /* \"#utility.yul\":23183:23185   */\n      0x22\n        /* \"#utility.yul\":23163:23181   */\n      0x24\n      dup3\n      add\n        /* \"#utility.yul\":23156:23186   */\n      mstore\n        /* \"#utility.yul\":23222:23256   */\n      0x45434453413a20696e76616c6964207369676e6174757265202773272076616c\n        /* \"#utility.yul\":23202:23220   */\n      0x44\n      dup3\n      add\n        /* \"#utility.yul\":23195:23257   */\n      mstore\n      shl(0xf0, 0x7565)\n        /* \"#utility.yul\":23273:23291   */\n      0x64\n      dup3\n      add\n        /* \"#utility.yul\":23266:23298   */\n      mstore\n        /* \"#utility.yul\":23315:23334   */\n      0x84\n      add\n        /* \"@thirdweb-dev/contracts/external-deps/openzeppelin/utils/cryptography/ECDSA.sol\":1035:1079   */\n      tag_187\n        /* \"#utility.yul\":22942:23340   */\n      jump\n        /* \"@thirdweb-dev/contracts/lib/TWAddress.sol\":7529:8221   */\n    tag_507:\n        /* \"@thirdweb-dev/contracts/lib/TWAddress.sol\":7675:7687   */\n      0x60\n        /* \"@thirdweb-dev/contracts/lib/TWAddress.sol\":7703:7710   */\n      dup4\n        /* \"@thirdweb-dev/contracts/lib/TWAddress.sol\":7699:8215   */\n      iszero\n      tag_549\n      jumpi\n      pop\n        /* \"@thirdweb-dev/contracts/lib/TWAddress.sol\":7733:7743   */\n      dup2\n        /* \"@thirdweb-dev/contracts/lib/TWAddress.sol\":7726:7743   */\n      jump(tag_192)\n        /* \"@thirdweb-dev/contracts/lib/TWAddress.sol\":7699:8215   */\n    tag_549:\n        /* \"@thirdweb-dev/contracts/lib/TWAddress.sol\":7844:7861   */\n      dup3\n      mload\n        /* \"@thirdweb-dev/contracts/lib/TWAddress.sol\":7844:7865   */\n      iszero\n        /* \"@thirdweb-dev/contracts/lib/TWAddress.sol\":7840:8205   */\n      tag_551\n      jumpi\n        /* \"@thirdweb-dev/contracts/lib/TWAddress.sol\":8038:8048   */\n      dup3\n        /* \"@thirdweb-dev/contracts/lib/TWAddress.sol\":8032:8049   */\n      mload\n        /* \"@thirdweb-dev/contracts/lib/TWAddress.sol\":8098:8113   */\n      dup1\n        /* \"@thirdweb-dev/contracts/lib/TWAddress.sol\":8085:8095   */\n      dup5\n        /* \"@thirdweb-dev/contracts/lib/TWAddress.sol\":8081:8083   */\n      0x20\n        /* \"@thirdweb-dev/contracts/lib/TWAddress.sol\":8077:8096   */\n      add\n        /* \"@thirdweb-dev/contracts/lib/TWAddress.sol\":8070:8114   */\n      revert\n        /* \"@thirdweb-dev/contracts/lib/TWAddress.sol\":7840:8205   */\n    tag_551:\n        /* \"@thirdweb-dev/contracts/lib/TWAddress.sol\":8177:8189   */\n      dup2\n        /* \"@thirdweb-dev/contracts/lib/TWAddress.sol\":8170:8190   */\n      mload(0x40)\n      shl(0xe5, 0x461bcd)\n      dup2\n      mstore\n      0x04\n      add\n      tag_187\n      swap2\n      swap1\n      tag_45\n      jump\t// in\n        /* \"#utility.yul\":14:264   */\n    tag_554:\n        /* \"#utility.yul\":99:100   */\n      0x00\n        /* \"#utility.yul\":109:222   */\n    tag_563:\n        /* \"#utility.yul\":123:129   */\n      dup4\n        /* \"#utility.yul\":120:121   */\n      dup2\n        /* \"#utility.yul\":117:130   */\n      lt\n        /* \"#utility.yul\":109:222   */\n      iszero\n      tag_565\n      jumpi\n        /* \"#utility.yul\":199:210   */\n      dup2\n      dup2\n      add\n        /* \"#utility.yul\":193:211   */\n      mload\n        /* \"#utility.yul\":180:191   */\n      dup4\n      dup3\n      add\n        /* \"#utility.yul\":173:212   */\n      mstore\n        /* \"#utility.yul\":145:147   */\n      0x20\n        /* \"#utility.yul\":138:148   */\n      add\n        /* \"#utility.yul\":109:222   */\n      jump(tag_563)\n    tag_565:\n      pop\n      pop\n        /* \"#utility.yul\":256:257   */\n      0x00\n        /* \"#utility.yul\":238:254   */\n      swap2\n      add\n        /* \"#utility.yul\":231:258   */\n      mstore\n        /* \"#utility.yul\":14:264   */\n      jump\t// out\n        /* \"#utility.yul\":269:540   */\n    tag_555:\n        /* \"#utility.yul\":311:314   */\n      0x00\n        /* \"#utility.yul\":349:354   */\n      dup2\n        /* \"#utility.yul\":343:355   */\n      mload\n        /* \"#utility.yul\":376:382   */\n      dup1\n        /* \"#utility.yul\":371:374   */\n      dup5\n        /* \"#utility.yul\":364:383   */\n      mstore\n        /* \"#utility.yul\":392:468   */\n      tag_567\n        /* \"#utility.yul\":461:467   */\n      dup2\n        /* \"#utility.yul\":454:458   */\n      0x20\n        /* \"#utility.yul\":449:452   */\n      dup7\n        /* \"#utility.yul\":445:459   */\n      add\n        /* \"#utility.yul\":438:442   */\n      0x20\n        /* \"#utility.yul\":431:436   */\n      dup7\n        /* \"#utility.yul\":427:443   */\n      add\n        /* \"#utility.yul\":392:468   */\n      tag_554\n      jump\t// in\n    tag_567:\n        /* \"#utility.yul\":522:524   */\n      0x1f\n        /* \"#utility.yul\":501:516   */\n      add\n      not(0x1f)\n        /* \"#utility.yul\":497:526   */\n      and\n        /* \"#utility.yul\":488:527   */\n      swap3\n      swap1\n      swap3\n      add\n        /* \"#utility.yul\":529:533   */\n      0x20\n        /* \"#utility.yul\":484:534   */\n      add\n      swap3\n        /* \"#utility.yul\":269:540   */\n      swap2\n      pop\n      pop\n      jump\t// out\n        /* \"#utility.yul\":545:765   */\n    tag_45:\n        /* \"#utility.yul\":694:696   */\n      0x20\n        /* \"#utility.yul\":683:692   */\n      dup2\n        /* \"#utility.yul\":676:697   */\n      mstore\n        /* \"#utility.yul\":657:661   */\n      0x00\n        /* \"#utility.yul\":714:759   */\n      tag_192\n        /* \"#utility.yul\":755:757   */\n      0x20\n        /* \"#utility.yul\":744:753   */\n      dup4\n        /* \"#utility.yul\":740:758   */\n      add\n        /* \"#utility.yul\":732:738   */\n      dup5\n        /* \"#utility.yul\":714:759   */\n      tag_555\n      jump\t// in\n        /* \"#utility.yul\":770:966   */\n    tag_556:\n        /* \"#utility.yul\":838:858   */\n      dup1\n      calldataload\n      sub(shl(0xa0, 0x01), 0x01)\n        /* \"#utility.yul\":887:941   */\n      dup2\n      and\n        /* \"#utility.yul\":877:942   */\n      dup2\n      eq\n        /* \"#utility.yul\":867:960   */\n      tag_571\n      jumpi\n        /* \"#utility.yul\":956:957   */\n      0x00\n        /* \"#utility.yul\":953:954   */\n      dup1\n        /* \"#utility.yul\":946:958   */\n      revert\n        /* \"#utility.yul\":867:960   */\n    tag_571:\n        /* \"#utility.yul\":770:966   */\n      swap2\n      swap1\n      pop\n      jump\t// out\n        /* \"#utility.yul\":971:1225   */\n    tag_48:\n        /* \"#utility.yul\":1039:1045   */\n      0x00\n        /* \"#utility.yul\":1047:1053   */\n      dup1\n        /* \"#utility.yul\":1100:1102   */\n      0x40\n        /* \"#utility.yul\":1088:1097   */\n      dup4\n        /* \"#utility.yul\":1079:1086   */\n      dup6\n        /* \"#utility.yul\":1075:1098   */\n      sub\n        /* \"#utility.yul\":1071:1103   */\n      slt\n        /* \"#utility.yul\":1068:1120   */\n      iszero\n      tag_573\n      jumpi\n        /* \"#utility.yul\":1116:1117   */\n      0x00\n        /* \"#utility.yul\":1113:1114   */\n      dup1\n        /* \"#utility.yul\":1106:1118   */\n      revert\n        /* \"#utility.yul\":1068:1120   */\n    tag_573:\n        /* \"#utility.yul\":1139:1168   */\n      tag_574\n        /* \"#utility.yul\":1158:1167   */\n      dup4\n        /* \"#utility.yul\":1139:1168   */\n      tag_556\n      jump\t// in\n    tag_574:\n        /* \"#utility.yul\":1129:1168   */\n      swap5\n        /* \"#utility.yul\":1215:1217   */\n      0x20\n        /* \"#utility.yul\":1200:1218   */\n      swap4\n      swap1\n      swap4\n      add\n        /* \"#utility.yul\":1187:1219   */\n      calldataload\n      swap4\n      pop\n      pop\n      pop\n        /* \"#utility.yul\":971:1225   */\n      jump\t// out\n        /* \"#utility.yul\":1422:1608   */\n    tag_54:\n        /* \"#utility.yul\":1481:1487   */\n      0x00\n        /* \"#utility.yul\":1534:1536   */\n      0x20\n        /* \"#utility.yul\":1522:1531   */\n      dup3\n        /* \"#utility.yul\":1513:1520   */\n      dup5\n        /* \"#utility.yul\":1509:1532   */\n      sub\n        /* \"#utility.yul\":1505:1537   */\n      slt\n        /* \"#utility.yul\":1502:1554   */\n      iszero\n      tag_577\n      jumpi\n        /* \"#utility.yul\":1550:1551   */\n      0x00\n        /* \"#utility.yul\":1547:1548   */\n      dup1\n        /* \"#utility.yul\":1540:1552   */\n      revert\n        /* \"#utility.yul\":1502:1554   */\n    tag_577:\n        /* \"#utility.yul\":1573:1602   */\n      tag_192\n        /* \"#utility.yul\":1592:1601   */\n      dup3\n        /* \"#utility.yul\":1573:1602   */\n      tag_556\n      jump\t// in\n        /* \"#utility.yul\":1977:2305   */\n    tag_66:\n        /* \"#utility.yul\":2054:2060   */\n      0x00\n        /* \"#utility.yul\":2062:2068   */\n      dup1\n        /* \"#utility.yul\":2070:2076   */\n      0x00\n        /* \"#utility.yul\":2123:2125   */\n      0x60\n        /* \"#utility.yul\":2111:2120   */\n      dup5\n        /* \"#utility.yul\":2102:2109   */\n      dup7\n        /* \"#utility.yul\":2098:2121   */\n      sub\n        /* \"#utility.yul\":2094:2126   */\n      slt\n        /* \"#utility.yul\":2091:2143   */\n      iszero\n      tag_582\n      jumpi\n        /* \"#utility.yul\":2139:2140   */\n      0x00\n        /* \"#utility.yul\":2136:2137   */\n      dup1\n        /* \"#utility.yul\":2129:2141   */\n      revert\n        /* \"#utility.yul\":2091:2143   */\n    tag_582:\n        /* \"#utility.yul\":2162:2191   */\n      tag_583\n        /* \"#utility.yul\":2181:2190   */\n      dup5\n        /* \"#utility.yul\":2162:2191   */\n      tag_556\n      jump\t// in\n    tag_583:\n        /* \"#utility.yul\":2152:2191   */\n      swap3\n      pop\n        /* \"#utility.yul\":2210:2248   */\n      tag_584\n        /* \"#utility.yul\":2244:2246   */\n      0x20\n        /* \"#utility.yul\":2233:2242   */\n      dup6\n        /* \"#utility.yul\":2229:2247   */\n      add\n        /* \"#utility.yul\":2210:2248   */\n      tag_556\n      jump\t// in\n    tag_584:\n        /* \"#utility.yul\":2200:2248   */\n      swap2\n      pop\n        /* \"#utility.yul\":2295:2297   */\n      0x40\n        /* \"#utility.yul\":2284:2293   */\n      dup5\n        /* \"#utility.yul\":2280:2298   */\n      add\n        /* \"#utility.yul\":2267:2299   */\n      calldataload\n        /* \"#utility.yul\":2257:2299   */\n      swap1\n      pop\n        /* \"#utility.yul\":1977:2305   */\n      swap3\n      pop\n      swap3\n      pop\n      swap3\n      jump\t// out\n        /* \"#utility.yul\":2310:2490   */\n    tag_71:\n        /* \"#utility.yul\":2369:2375   */\n      0x00\n        /* \"#utility.yul\":2422:2424   */\n      0x20\n        /* \"#utility.yul\":2410:2419   */\n      dup3\n        /* \"#utility.yul\":2401:2408   */\n      dup5\n        /* \"#utility.yul\":2397:2420   */\n      sub\n        /* \"#utility.yul\":2393:2425   */\n      slt\n        /* \"#utility.yul\":2390:2442   */\n      iszero\n      tag_586\n      jumpi\n        /* \"#utility.yul\":2438:2439   */\n      0x00\n        /* \"#utility.yul\":2435:2436   */\n      dup1\n        /* \"#utility.yul\":2428:2440   */\n      revert\n        /* \"#utility.yul\":2390:2442   */\n    tag_586:\n      pop\n        /* \"#utility.yul\":2461:2484   */\n      calldataload\n      swap2\n        /* \"#utility.yul\":2310:2490   */\n      swap1\n      pop\n      jump\t// out\n        /* \"#utility.yul\":2495:2749   */\n    tag_76:\n        /* \"#utility.yul\":2563:2569   */\n      0x00\n        /* \"#utility.yul\":2571:2577   */\n      dup1\n        /* \"#utility.yul\":2624:2626   */\n      0x40\n        /* \"#utility.yul\":2612:2621   */\n      dup4\n        /* \"#utility.yul\":2603:2610   */\n      dup6\n        /* \"#utility.yul\":2599:2622   */\n      sub\n        /* \"#utility.yul\":2595:2627   */\n      slt\n        /* \"#utility.yul\":2592:2644   */\n      iszero\n      tag_588\n      jumpi\n        /* \"#utility.yul\":2640:2641   */\n      0x00\n        /* \"#utility.yul\":2637:2638   */\n      dup1\n        /* \"#utility.yul\":2630:2642   */\n      revert\n        /* \"#utility.yul\":2592:2644   */\n    tag_588:\n        /* \"#utility.yul\":2676:2685   */\n      dup3\n        /* \"#utility.yul\":2663:2686   */\n      calldataload\n        /* \"#utility.yul\":2653:2686   */\n      swap2\n      pop\n        /* \"#utility.yul\":2705:2743   */\n      tag_589\n        /* \"#utility.yul\":2739:2741   */\n      0x20\n        /* \"#utility.yul\":2728:2737   */\n      dup5\n        /* \"#utility.yul\":2724:2742   */\n      add\n        /* \"#utility.yul\":2705:2743   */\n      tag_556\n      jump\t// in\n    tag_589:\n        /* \"#utility.yul\":2695:2743   */\n      swap1\n      pop\n        /* \"#utility.yul\":2495:2749   */\n      swap3\n      pop\n      swap3\n      swap1\n      pop\n      jump\t// out\n        /* \"#utility.yul\":3359:3607   */\n    tag_116:\n        /* \"#utility.yul\":3427:3433   */\n      0x00\n        /* \"#utility.yul\":3435:3441   */\n      dup1\n        /* \"#utility.yul\":3488:3490   */\n      0x40\n        /* \"#utility.yul\":3476:3485   */\n      dup4\n        /* \"#utility.yul\":3467:3474   */\n      dup6\n        /* \"#utility.yul\":3463:3486   */\n      sub\n        /* \"#utility.yul\":3459:3491   */\n      slt\n        /* \"#utility.yul\":3456:3508   */\n      iszero\n      tag_595\n      jumpi\n        /* \"#utility.yul\":3504:3505   */\n      0x00\n        /* \"#utility.yul\":3501:3502   */\n      dup1\n        /* \"#utility.yul\":3494:3506   */\n      revert\n        /* \"#utility.yul\":3456:3508   */\n    tag_595:\n      pop\n      pop\n        /* \"#utility.yul\":3527:3550   */\n      dup1\n      calldataload\n      swap3\n        /* \"#utility.yul\":3597:3599   */\n      0x20\n        /* \"#utility.yul\":3582:3600   */\n      swap1\n      swap2\n      add\n        /* \"#utility.yul\":3569:3601   */\n      calldataload\n      swap2\n      pop\n        /* \"#utility.yul\":3359:3607   */\n      jump\t// out\n        /* \"#utility.yul\":3612:3739   */\n    tag_310:\n        /* \"#utility.yul\":3673:3683   */\n      0x4e487b71\n        /* \"#utility.yul\":3668:3671   */\n      0xe0\n        /* \"#utility.yul\":3664:3684   */\n      shl\n        /* \"#utility.yul\":3661:3662   */\n      0x00\n        /* \"#utility.yul\":3654:3685   */\n      mstore\n        /* \"#utility.yul\":3704:3708   */\n      0x41\n        /* \"#utility.yul\":3701:3702   */\n      0x04\n        /* \"#utility.yul\":3694:3709   */\n      mstore\n        /* \"#utility.yul\":3728:3732   */\n      0x24\n        /* \"#utility.yul\":3725:3726   */\n      0x00\n        /* \"#utility.yul\":3718:3733   */\n      revert\n        /* \"#utility.yul\":3744:4666   */\n    tag_125:\n        /* \"#utility.yul\":3813:3819   */\n      0x00\n        /* \"#utility.yul\":3866:3868   */\n      0x20\n        /* \"#utility.yul\":3854:3863   */\n      dup3\n        /* \"#utility.yul\":3845:3852   */\n      dup5\n        /* \"#utility.yul\":3841:3864   */\n      sub\n        /* \"#utility.yul\":3837:3869   */\n      slt\n        /* \"#utility.yul\":3834:3886   */\n      iszero\n      tag_598\n      jumpi\n        /* \"#utility.yul\":3882:3883   */\n      0x00\n        /* \"#utility.yul\":3879:3880   */\n      dup1\n        /* \"#utility.yul\":3872:3884   */\n      revert\n        /* \"#utility.yul\":3834:3886   */\n    tag_598:\n        /* \"#utility.yul\":3922:3931   */\n      dup2\n        /* \"#utility.yul\":3909:3932   */\n      calldataload\n        /* \"#utility.yul\":3951:3969   */\n      0xffffffffffffffff\n        /* \"#utility.yul\":3992:3994   */\n      dup1\n        /* \"#utility.yul\":3984:3990   */\n      dup3\n        /* \"#utility.yul\":3981:3995   */\n      gt\n        /* \"#utility.yul\":3978:4012   */\n      iszero\n      tag_599\n      jumpi\n        /* \"#utility.yul\":4008:4009   */\n      0x00\n        /* \"#utility.yul\":4005:4006   */\n      dup1\n        /* \"#utility.yul\":3998:4010   */\n      revert\n        /* \"#utility.yul\":3978:4012   */\n    tag_599:\n        /* \"#utility.yul\":4046:4052   */\n      dup2\n        /* \"#utility.yul\":4035:4044   */\n      dup5\n        /* \"#utility.yul\":4031:4053   */\n      add\n        /* \"#utility.yul\":4021:4053   */\n      swap2\n      pop\n        /* \"#utility.yul\":4091:4098   */\n      dup5\n        /* \"#utility.yul\":4084:4088   */\n      0x1f\n        /* \"#utility.yul\":4080:4082   */\n      dup4\n        /* \"#utility.yul\":4076:4089   */\n      add\n        /* \"#utility.yul\":4072:4099   */\n      slt\n        /* \"#utility.yul\":4062:4117   */\n      tag_600\n      jumpi\n        /* \"#utility.yul\":4113:4114   */\n      0x00\n        /* \"#utility.yul\":4110:4111   */\n      dup1\n        /* \"#utility.yul\":4103:4115   */\n      revert\n        /* \"#utility.yul\":4062:4117   */\n    tag_600:\n        /* \"#utility.yul\":4149:4151   */\n      dup2\n        /* \"#utility.yul\":4136:4152   */\n      calldataload\n        /* \"#utility.yul\":4171:4173   */\n      dup2\n        /* \"#utility.yul\":4167:4169   */\n      dup2\n        /* \"#utility.yul\":4164:4174   */\n      gt\n        /* \"#utility.yul\":4161:4197   */\n      iszero\n      tag_602\n      jumpi\n        /* \"#utility.yul\":4177:4195   */\n      tag_602\n      tag_310\n      jump\t// in\n    tag_602:\n        /* \"#utility.yul\":4252:4254   */\n      0x40\n        /* \"#utility.yul\":4246:4255   */\n      mload\n        /* \"#utility.yul\":4220:4222   */\n      0x1f\n        /* \"#utility.yul\":4306:4319   */\n      dup3\n      add\n      not(0x1f)\n        /* \"#utility.yul\":4302:4324   */\n      swap1\n      dup2\n      and\n        /* \"#utility.yul\":4326:4328   */\n      0x3f\n        /* \"#utility.yul\":4298:4329   */\n      add\n        /* \"#utility.yul\":4294:4334   */\n      and\n        /* \"#utility.yul\":4282:4335   */\n      dup2\n      add\n      swap1\n        /* \"#utility.yul\":4350:4368   */\n      dup4\n      dup3\n      gt\n        /* \"#utility.yul\":4370:4392   */\n      dup2\n      dup4\n      lt\n        /* \"#utility.yul\":4347:4393   */\n      or\n        /* \"#utility.yul\":4344:4416   */\n      iszero\n      tag_604\n      jumpi\n        /* \"#utility.yul\":4396:4414   */\n      tag_604\n      tag_310\n      jump\t// in\n    tag_604:\n        /* \"#utility.yul\":4436:4446   */\n      dup2\n        /* \"#utility.yul\":4432:4434   */\n      0x40\n        /* \"#utility.yul\":4425:4447   */\n      mstore\n        /* \"#utility.yul\":4471:4473   */\n      dup3\n        /* \"#utility.yul\":4463:4469   */\n      dup2\n        /* \"#utility.yul\":4456:4474   */\n      mstore\n        /* \"#utility.yul\":4511:4518   */\n      dup8\n        /* \"#utility.yul\":4506:4508   */\n      0x20\n        /* \"#utility.yul\":4501:4503   */\n      dup5\n        /* \"#utility.yul\":4497:4499   */\n      dup8\n        /* \"#utility.yul\":4493:4504   */\n      add\n        /* \"#utility.yul\":4489:4509   */\n      add\n        /* \"#utility.yul\":4486:4519   */\n      gt\n        /* \"#utility.yul\":4483:4536   */\n      iszero\n      tag_605\n      jumpi\n        /* \"#utility.yul\":4532:4533   */\n      0x00\n        /* \"#utility.yul\":4529:4530   */\n      dup1\n        /* \"#utility.yul\":4522:4534   */\n      revert\n        /* \"#utility.yul\":4483:4536   */\n    tag_605:\n        /* \"#utility.yul\":4588:4590   */\n      dup3\n        /* \"#utility.yul\":4583:4585   */\n      0x20\n        /* \"#utility.yul\":4579:4581   */\n      dup7\n        /* \"#utility.yul\":4575:4586   */\n      add\n        /* \"#utility.yul\":4570:4572   */\n      0x20\n        /* \"#utility.yul\":4562:4568   */\n      dup4\n        /* \"#utility.yul\":4558:4573   */\n      add\n        /* \"#utility.yul\":4545:4591   */\n      calldatacopy\n        /* \"#utility.yul\":4633:4634   */\n      0x00\n        /* \"#utility.yul\":4611:4626   */\n      swap3\n      dup2\n      add\n        /* \"#utility.yul\":4628:4630   */\n      0x20\n        /* \"#utility.yul\":4607:4631   */\n      add\n        /* \"#utility.yul\":4600:4635   */\n      swap3\n      swap1\n      swap3\n      mstore\n      pop\n        /* \"#utility.yul\":4615:4621   */\n      swap6\n        /* \"#utility.yul\":3744:4666   */\n      swap5\n      pop\n      pop\n      pop\n      pop\n      pop\n      jump\t// out\n        /* \"#utility.yul\":4671:5297   */\n    tag_147:\n        /* \"#utility.yul\":4768:4774   */\n      0x00\n        /* \"#utility.yul\":4776:4782   */\n      dup1\n        /* \"#utility.yul\":4829:4831   */\n      0x20\n        /* \"#utility.yul\":4817:4826   */\n      dup4\n        /* \"#utility.yul\":4808:4815   */\n      dup6\n        /* \"#utility.yul\":4804:4827   */\n      sub\n        /* \"#utility.yul\":4800:4832   */\n      slt\n        /* \"#utility.yul\":4797:4849   */\n      iszero\n      tag_607\n      jumpi\n        /* \"#utility.yul\":4845:4846   */\n      0x00\n        /* \"#utility.yul\":4842:4843   */\n      dup1\n        /* \"#utility.yul\":4835:4847   */\n      revert\n        /* \"#utility.yul\":4797:4849   */\n    tag_607:\n        /* \"#utility.yul\":4885:4894   */\n      dup3\n        /* \"#utility.yul\":4872:4895   */\n      calldataload\n        /* \"#utility.yul\":4914:4932   */\n      0xffffffffffffffff\n        /* \"#utility.yul\":4955:4957   */\n      dup1\n        /* \"#utility.yul\":4947:4953   */\n      dup3\n        /* \"#utility.yul\":4944:4958   */\n      gt\n        /* \"#utility.yul\":4941:4975   */\n      iszero\n      tag_608\n      jumpi\n        /* \"#utility.yul\":4971:4972   */\n      0x00\n        /* \"#utility.yul\":4968:4969   */\n      dup1\n        /* \"#utility.yul\":4961:4973   */\n      revert\n        /* \"#utility.yul\":4941:4975   */\n    tag_608:\n        /* \"#utility.yul\":5009:5015   */\n      dup2\n        /* \"#utility.yul\":4998:5007   */\n      dup6\n        /* \"#utility.yul\":4994:5016   */\n      add\n        /* \"#utility.yul\":4984:5016   */\n      swap2\n      pop\n        /* \"#utility.yul\":5054:5061   */\n      dup6\n        /* \"#utility.yul\":5047:5051   */\n      0x1f\n        /* \"#utility.yul\":5043:5045   */\n      dup4\n        /* \"#utility.yul\":5039:5052   */\n      add\n        /* \"#utility.yul\":5035:5062   */\n      slt\n        /* \"#utility.yul\":5025:5080   */\n      tag_609\n      jumpi\n        /* \"#utility.yul\":5076:5077   */\n      0x00\n        /* \"#utility.yul\":5073:5074   */\n      dup1\n        /* \"#utility.yul\":5066:5078   */\n      revert\n        /* \"#utility.yul\":5025:5080   */\n    tag_609:\n        /* \"#utility.yul\":5116:5118   */\n      dup2\n        /* \"#utility.yul\":5103:5119   */\n      calldataload\n        /* \"#utility.yul\":5142:5144   */\n      dup2\n        /* \"#utility.yul\":5134:5140   */\n      dup2\n        /* \"#utility.yul\":5131:5145   */\n      gt\n        /* \"#utility.yul\":5128:5162   */\n      iszero\n      tag_610\n      jumpi\n        /* \"#utility.yul\":5158:5159   */\n      0x00\n        /* \"#utility.yul\":5155:5156   */\n      dup1\n        /* \"#utility.yul\":5148:5160   */\n      revert\n        /* \"#utility.yul\":5128:5162   */\n    tag_610:\n        /* \"#utility.yul\":5211:5218   */\n      dup7\n        /* \"#utility.yul\":5206:5208   */\n      0x20\n        /* \"#utility.yul\":5196:5202   */\n      dup3\n        /* \"#utility.yul\":5193:5194   */\n      0x05\n        /* \"#utility.yul\":5189:5203   */\n      shl\n        /* \"#utility.yul\":5185:5187   */\n      dup6\n        /* \"#utility.yul\":5181:5204   */\n      add\n        /* \"#utility.yul\":5177:5209   */\n      add\n        /* \"#utility.yul\":5174:5219   */\n      gt\n        /* \"#utility.yul\":5171:5236   */\n      iszero\n      tag_611\n      jumpi\n        /* \"#utility.yul\":5232:5233   */\n      0x00\n        /* \"#utility.yul\":5229:5230   */\n      dup1\n        /* \"#utility.yul\":5222:5234   */\n      revert\n        /* \"#utility.yul\":5171:5236   */\n    tag_611:\n        /* \"#utility.yul\":5263:5265   */\n      0x20\n        /* \"#utility.yul\":5255:5266   */\n      swap3\n      swap1\n      swap3\n      add\n      swap7\n        /* \"#utility.yul\":5285:5291   */\n      swap2\n      swap6\n      pop\n        /* \"#utility.yul\":4671:5297   */\n      swap1\n      swap4\n      pop\n      pop\n      pop\n      pop\n      jump\t// out\n        /* \"#utility.yul\":5302:6103   */\n    tag_150:\n        /* \"#utility.yul\":5462:5466   */\n      0x00\n        /* \"#utility.yul\":5491:5493   */\n      0x20\n        /* \"#utility.yul\":5531:5533   */\n      dup1\n        /* \"#utility.yul\":5520:5529   */\n      dup4\n        /* \"#utility.yul\":5516:5534   */\n      add\n        /* \"#utility.yul\":5561:5563   */\n      dup2\n        /* \"#utility.yul\":5550:5559   */\n      dup5\n        /* \"#utility.yul\":5543:5564   */\n      mstore\n        /* \"#utility.yul\":5584:5590   */\n      dup1\n        /* \"#utility.yul\":5619:5625   */\n      dup6\n        /* \"#utility.yul\":5613:5626   */\n      mload\n        /* \"#utility.yul\":5650:5656   */\n      dup1\n        /* \"#utility.yul\":5642:5648   */\n      dup4\n        /* \"#utility.yul\":5635:5657   */\n      mstore\n        /* \"#utility.yul\":5688:5690   */\n      0x40\n        /* \"#utility.yul\":5677:5686   */\n      dup7\n        /* \"#utility.yul\":5673:5691   */\n      add\n        /* \"#utility.yul\":5666:5691   */\n      swap2\n      pop\n        /* \"#utility.yul\":5750:5752   */\n      0x40\n        /* \"#utility.yul\":5740:5746   */\n      dup2\n        /* \"#utility.yul\":5737:5738   */\n      0x05\n        /* \"#utility.yul\":5733:5747   */\n      shl\n        /* \"#utility.yul\":5722:5731   */\n      dup8\n        /* \"#utility.yul\":5718:5748   */\n      add\n        /* \"#utility.yul\":5714:5753   */\n      add\n        /* \"#utility.yul\":5700:5753   */\n      swap3\n      pop\n        /* \"#utility.yul\":5788:5790   */\n      dup4\n        /* \"#utility.yul\":5780:5786   */\n      dup8\n        /* \"#utility.yul\":5776:5791   */\n      add\n        /* \"#utility.yul\":5809:5810   */\n      0x00\n        /* \"#utility.yul\":5819:6074   */\n    tag_613:\n        /* \"#utility.yul\":5833:5839   */\n      dup3\n        /* \"#utility.yul\":5830:5831   */\n      dup2\n        /* \"#utility.yul\":5827:5840   */\n      lt\n        /* \"#utility.yul\":5819:6074   */\n      iszero\n      tag_615\n      jumpi\n        /* \"#utility.yul\":5926:5928   */\n      0x3f\n        /* \"#utility.yul\":5922:5929   */\n      not\n        /* \"#utility.yul\":5910:5919   */\n      dup9\n        /* \"#utility.yul\":5902:5908   */\n      dup7\n        /* \"#utility.yul\":5898:5920   */\n      sub\n        /* \"#utility.yul\":5894:5930   */\n      add\n        /* \"#utility.yul\":5889:5892   */\n      dup5\n        /* \"#utility.yul\":5882:5931   */\n      mstore\n        /* \"#utility.yul\":5954:5994   */\n      tag_616\n        /* \"#utility.yul\":5987:5993   */\n      dup6\n        /* \"#utility.yul\":5978:5984   */\n      dup4\n        /* \"#utility.yul\":5972:5985   */\n      mload\n        /* \"#utility.yul\":5954:5994   */\n      tag_555\n      jump\t// in\n    tag_616:\n        /* \"#utility.yul\":5944:5994   */\n      swap5\n      pop\n        /* \"#utility.yul\":6052:6064   */\n      swap3\n      dup6\n      add\n      swap3\n        /* \"#utility.yul\":6017:6032   */\n      swap1\n      dup6\n      add\n      swap1\n        /* \"#utility.yul\":5855:5856   */\n      0x01\n        /* \"#utility.yul\":5848:5857   */\n      add\n        /* \"#utility.yul\":5819:6074   */\n      jump(tag_613)\n    tag_615:\n      pop\n        /* \"#utility.yul\":6091:6097   */\n      swap3\n      swap8\n        /* \"#utility.yul\":5302:6103   */\n      swap7\n      pop\n      pop\n      pop\n      pop\n      pop\n      pop\n      pop\n      jump\t// out\n        /* \"#utility.yul\":6108:6801   */\n    tag_157:\n        /* \"#utility.yul\":6219:6225   */\n      0x00\n        /* \"#utility.yul\":6227:6233   */\n      dup1\n        /* \"#utility.yul\":6235:6241   */\n      0x00\n        /* \"#utility.yul\":6243:6249   */\n      dup1\n        /* \"#utility.yul\":6251:6257   */\n      0x00\n        /* \"#utility.yul\":6259:6265   */\n      dup1\n        /* \"#utility.yul\":6267:6273   */\n      0x00\n        /* \"#utility.yul\":6320:6323   */\n      0xe0\n        /* \"#utility.yul\":6308:6317   */\n      dup9\n        /* \"#utility.yul\":6299:6306   */\n      dup11\n        /* \"#utility.yul\":6295:6318   */\n      sub\n        /* \"#utility.yul\":6291:6324   */\n      slt\n        /* \"#utility.yul\":6288:6341   */\n      iszero\n      tag_618\n      jumpi\n        /* \"#utility.yul\":6337:6338   */\n      0x00\n        /* \"#utility.yul\":6334:6335   */\n      dup1\n        /* \"#utility.yul\":6327:6339   */\n      revert\n        /* \"#utility.yul\":6288:6341   */\n    tag_618:\n        /* \"#utility.yul\":6360:6389   */\n      tag_619\n        /* \"#utility.yul\":6379:6388   */\n      dup9\n        /* \"#utility.yul\":6360:6389   */\n      tag_556\n      jump\t// in\n    tag_619:\n        /* \"#utility.yul\":6350:6389   */\n      swap7\n      pop\n        /* \"#utility.yul\":6408:6446   */\n      tag_620\n        /* \"#utility.yul\":6442:6444   */\n      0x20\n        /* \"#utility.yul\":6431:6440   */\n      dup10\n        /* \"#utility.yul\":6427:6445   */\n      add\n        /* \"#utility.yul\":6408:6446   */\n      tag_556\n      jump\t// in\n    tag_620:\n        /* \"#utility.yul\":6398:6446   */\n      swap6\n      pop\n        /* \"#utility.yul\":6493:6495   */\n      0x40\n        /* \"#utility.yul\":6482:6491   */\n      dup9\n        /* \"#utility.yul\":6478:6496   */\n      add\n        /* \"#utility.yul\":6465:6497   */\n      calldataload\n        /* \"#utility.yul\":6455:6497   */\n      swap5\n      pop\n        /* \"#utility.yul\":6544:6546   */\n      0x60\n        /* \"#utility.yul\":6533:6542   */\n      dup9\n        /* \"#utility.yul\":6529:6547   */\n      add\n        /* \"#utility.yul\":6516:6548   */\n      calldataload\n        /* \"#utility.yul\":6506:6548   */\n      swap4\n      pop\n        /* \"#utility.yul\":6598:6601   */\n      0x80\n        /* \"#utility.yul\":6587:6596   */\n      dup9\n        /* \"#utility.yul\":6583:6602   */\n      add\n        /* \"#utility.yul\":6570:6603   */\n      calldataload\n        /* \"#utility.yul\":6643:6647   */\n      0xff\n        /* \"#utility.yul\":6636:6641   */\n      dup2\n        /* \"#utility.yul\":6632:6648   */\n      and\n        /* \"#utility.yul\":6625:6630   */\n      dup2\n        /* \"#utility.yul\":6622:6649   */\n      eq\n        /* \"#utility.yul\":6612:6667   */\n      tag_621\n      jumpi\n        /* \"#utility.yul\":6663:6664   */\n      0x00\n        /* \"#utility.yul\":6660:6661   */\n      dup1\n        /* \"#utility.yul\":6653:6665   */\n      revert\n        /* \"#utility.yul\":6612:6667   */\n    tag_621:\n        /* \"#utility.yul\":6108:6801   */\n      swap7\n      swap10\n      swap6\n      swap9\n      pop\n      swap4\n      swap7\n      swap3\n      swap6\n        /* \"#utility.yul\":6686:6691   */\n      swap5\n        /* \"#utility.yul\":6738:6741   */\n      0xa0\n        /* \"#utility.yul\":6723:6742   */\n      dup5\n      add\n        /* \"#utility.yul\":6710:6743   */\n      calldataload\n      swap5\n      pop\n        /* \"#utility.yul\":6790:6793   */\n      0xc0\n        /* \"#utility.yul\":6775:6794   */\n      swap1\n      swap4\n      add\n        /* \"#utility.yul\":6762:6795   */\n      calldataload\n      swap3\n        /* \"#utility.yul\":6108:6801   */\n      swap2\n      pop\n      pop\n      jump\t// out\n        /* \"#utility.yul\":6806:7066   */\n    tag_164:\n        /* \"#utility.yul\":6874:6880   */\n      0x00\n        /* \"#utility.yul\":6882:6888   */\n      dup1\n        /* \"#utility.yul\":6935:6937   */\n      0x40\n        /* \"#utility.yul\":6923:6932   */\n      dup4\n        /* \"#utility.yul\":6914:6921   */\n      dup6\n        /* \"#utility.yul\":6910:6933   */\n      sub\n        /* \"#utility.yul\":6906:6938   */\n      slt\n        /* \"#utility.yul\":6903:6955   */\n      iszero\n      tag_623\n      jumpi\n        /* \"#utility.yul\":6951:6952   */\n      0x00\n        /* \"#utility.yul\":6948:6949   */\n      dup1\n        /* \"#utility.yul\":6941:6953   */\n      revert\n        /* \"#utility.yul\":6903:6955   */\n    tag_623:\n        /* \"#utility.yul\":6974:7003   */\n      tag_624\n        /* \"#utility.yul\":6993:7002   */\n      dup4\n        /* \"#utility.yul\":6974:7003   */\n      tag_556\n      jump\t// in\n    tag_624:\n        /* \"#utility.yul\":6964:7003   */\n      swap2\n      pop\n        /* \"#utility.yul\":7022:7060   */\n      tag_589\n        /* \"#utility.yul\":7056:7058   */\n      0x20\n        /* \"#utility.yul\":7045:7054   */\n      dup5\n        /* \"#utility.yul\":7041:7059   */\n      add\n        /* \"#utility.yul\":7022:7060   */\n      tag_556\n      jump\t// in\n        /* \"#utility.yul\":7071:7451   */\n    tag_173:\n        /* \"#utility.yul\":7150:7151   */\n      0x01\n        /* \"#utility.yul\":7146:7158   */\n      dup2\n      dup2\n      shr\n      swap1\n        /* \"#utility.yul\":7193:7205   */\n      dup3\n      and\n      dup1\n        /* \"#utility.yul\":7214:7275   */\n      tag_627\n      jumpi\n        /* \"#utility.yul\":7268:7272   */\n      0x7f\n        /* \"#utility.yul\":7260:7266   */\n      dup3\n        /* \"#utility.yul\":7256:7273   */\n      and\n        /* \"#utility.yul\":7246:7273   */\n      swap2\n      pop\n        /* \"#utility.yul\":7214:7275   */\n    tag_627:\n        /* \"#utility.yul\":7321:7323   */\n      0x20\n        /* \"#utility.yul\":7313:7319   */\n      dup3\n        /* \"#utility.yul\":7310:7324   */\n      lt\n        /* \"#utility.yul\":7290:7308   */\n      dup2\n        /* \"#utility.yul\":7287:7325   */\n      sub\n        /* \"#utility.yul\":7284:7445   */\n      tag_335\n      jumpi\n        /* \"#utility.yul\":7367:7377   */\n      0x4e487b71\n        /* \"#utility.yul\":7362:7365   */\n      0xe0\n        /* \"#utility.yul\":7358:7378   */\n      shl\n        /* \"#utility.yul\":7355:7356   */\n      0x00\n        /* \"#utility.yul\":7348:7379   */\n      mstore\n        /* \"#utility.yul\":7402:7406   */\n      0x22\n        /* \"#utility.yul\":7399:7400   */\n      0x04\n        /* \"#utility.yul\":7392:7407   */\n      mstore\n        /* \"#utility.yul\":7430:7434   */\n      0x24\n        /* \"#utility.yul\":7427:7428   */\n      0x00\n        /* \"#utility.yul\":7420:7435   */\n      revert\n        /* \"#utility.yul\":8158:8285   */\n    tag_557:\n        /* \"#utility.yul\":8219:8229   */\n      0x4e487b71\n        /* \"#utility.yul\":8214:8217   */\n      0xe0\n        /* \"#utility.yul\":8210:8230   */\n      shl\n        /* \"#utility.yul\":8207:8208   */\n      0x00\n        /* \"#utility.yul\":8200:8231   */\n      mstore\n        /* \"#utility.yul\":8250:8254   */\n      0x11\n        /* \"#utility.yul\":8247:8248   */\n      0x04\n        /* \"#utility.yul\":8240:8255   */\n      mstore\n        /* \"#utility.yul\":8274:8278   */\n      0x24\n        /* \"#utility.yul\":8271:8272   */\n      0x00\n        /* \"#utility.yul\":8264:8279   */\n      revert\n        /* \"#utility.yul\":8290:8418   */\n    tag_202:\n        /* \"#utility.yul\":8357:8366   */\n      dup2\n      dup2\n      sub\n        /* \"#utility.yul\":8378:8389   */\n      dup2\n      dup2\n      gt\n        /* \"#utility.yul\":8375:8412   */\n      iszero\n      tag_178\n      jumpi\n        /* \"#utility.yul\":8392:8410   */\n      tag_178\n      tag_557\n      jump\t// in\n        /* \"#utility.yul\":9136:9261   */\n    tag_229:\n        /* \"#utility.yul\":9201:9210   */\n      dup1\n      dup3\n      add\n        /* \"#utility.yul\":9222:9232   */\n      dup1\n      dup3\n      gt\n        /* \"#utility.yul\":9219:9255   */\n      iszero\n      tag_178\n      jumpi\n        /* \"#utility.yul\":9235:9253   */\n      tag_178\n      tag_557\n      jump\t// in\n        /* \"#utility.yul\":11072:11199   */\n    tag_319:\n        /* \"#utility.yul\":11133:11143   */\n      0x4e487b71\n        /* \"#utility.yul\":11128:11131   */\n      0xe0\n        /* \"#utility.yul\":11124:11144   */\n      shl\n        /* \"#utility.yul\":11121:11122   */\n      0x00\n        /* \"#utility.yul\":11114:11145   */\n      mstore\n        /* \"#utility.yul\":11164:11168   */\n      0x32\n        /* \"#utility.yul\":11161:11162   */\n      0x04\n        /* \"#utility.yul\":11154:11169   */\n      mstore\n        /* \"#utility.yul\":11188:11192   */\n      0x24\n        /* \"#utility.yul\":11185:11186   */\n      0x00\n        /* \"#utility.yul\":11178:11193   */\n      revert\n        /* \"#utility.yul\":11204:11725   */\n    tag_321:\n        /* \"#utility.yul\":11281:11285   */\n      0x00\n        /* \"#utility.yul\":11287:11293   */\n      dup1\n        /* \"#utility.yul\":11347:11358   */\n      dup4\n        /* \"#utility.yul\":11334:11359   */\n      calldataload\n        /* \"#utility.yul\":11441:11443   */\n      0x1e\n        /* \"#utility.yul\":11437:11444   */\n      not\n        /* \"#utility.yul\":11426:11434   */\n      dup5\n        /* \"#utility.yul\":11410:11424   */\n      calldatasize\n        /* \"#utility.yul\":11406:11435   */\n      sub\n        /* \"#utility.yul\":11402:11445   */\n      add\n        /* \"#utility.yul\":11382:11400   */\n      dup2\n        /* \"#utility.yul\":11378:11446   */\n      slt\n        /* \"#utility.yul\":11368:11464   */\n      tag_647\n      jumpi\n        /* \"#utility.yul\":11460:11461   */\n      0x00\n        /* \"#utility.yul\":11457:11458   */\n      dup1\n        /* \"#utility.yul\":11450:11462   */\n      revert\n        /* \"#utility.yul\":11368:11464   */\n    tag_647:\n        /* \"#utility.yul\":11487:11520   */\n      dup4\n      add\n        /* \"#utility.yul\":11539:11559   */\n      dup1\n      calldataload\n      swap2\n      pop\n        /* \"#utility.yul\":11582:11600   */\n      0xffffffffffffffff\n        /* \"#utility.yul\":11571:11601   */\n      dup3\n      gt\n        /* \"#utility.yul\":11568:11618   */\n      iszero\n      tag_648\n      jumpi\n        /* \"#utility.yul\":11614:11615   */\n      0x00\n        /* \"#utility.yul\":11611:11612   */\n      dup1\n        /* \"#utility.yul\":11604:11616   */\n      revert\n        /* \"#utility.yul\":11568:11618   */\n    tag_648:\n        /* \"#utility.yul\":11647:11651   */\n      0x20\n        /* \"#utility.yul\":11635:11652   */\n      add\n      swap2\n      pop\n        /* \"#utility.yul\":11678:11692   */\n      calldatasize\n        /* \"#utility.yul\":11674:11701   */\n      dup2\n      swap1\n      sub\n        /* \"#utility.yul\":11664:11702   */\n      dup3\n      sgt\n        /* \"#utility.yul\":11661:11719   */\n      iszero\n      tag_649\n      jumpi\n        /* \"#utility.yul\":11715:11716   */\n      0x00\n        /* \"#utility.yul\":11712:11713   */\n      dup1\n        /* \"#utility.yul\":11705:11717   */\n      revert\n        /* \"#utility.yul\":11661:11719   */\n    tag_649:\n        /* \"#utility.yul\":11204:11725   */\n      swap3\n      pop\n      swap3\n      swap1\n      pop\n      jump\t// out\n        /* \"#utility.yul\":11730:11865   */\n    tag_326:\n        /* \"#utility.yul\":11769:11772   */\n      0x00\n        /* \"#utility.yul\":11790:11807   */\n      0x01\n      dup3\n      add\n        /* \"#utility.yul\":11787:11830   */\n      tag_652\n      jumpi\n        /* \"#utility.yul\":11810:11828   */\n      tag_652\n      tag_557\n      jump\t// in\n    tag_652:\n      pop\n        /* \"#utility.yul\":11857:11858   */\n      0x01\n        /* \"#utility.yul\":11846:11859   */\n      add\n      swap1\n        /* \"#utility.yul\":11730:11865   */\n      jump\t// out\n        /* \"#utility.yul\":15231:16041   */\n    tag_398:\n        /* \"#utility.yul\":15642:15665   */\n      0x5065726d697373696f6e733a206163636f756e74200000000000000000000000\n        /* \"#utility.yul\":15637:15640   */\n      dup2\n        /* \"#utility.yul\":15630:15666   */\n      mstore\n        /* \"#utility.yul\":15612:15615   */\n      0x00\n        /* \"#utility.yul\":15695:15701   */\n      dup4\n        /* \"#utility.yul\":15689:15702   */\n      mload\n        /* \"#utility.yul\":15711:15786   */\n      tag_662\n        /* \"#utility.yul\":15779:15785   */\n      dup2\n        /* \"#utility.yul\":15774:15776   */\n      0x15\n        /* \"#utility.yul\":15769:15772   */\n      dup6\n        /* \"#utility.yul\":15765:15777   */\n      add\n        /* \"#utility.yul\":15758:15762   */\n      0x20\n        /* \"#utility.yul\":15750:15756   */\n      dup9\n        /* \"#utility.yul\":15746:15763   */\n      add\n        /* \"#utility.yul\":15711:15786   */\n      tag_554\n      jump\t// in\n    tag_662:\n        /* \"#utility.yul\":15850:15869   */\n      0x206973206d697373696e6720726f6c6520000000000000000000000000000000\n        /* \"#utility.yul\":15845:15847   */\n      0x15\n        /* \"#utility.yul\":15805:15821   */\n      swap2\n      dup5\n      add\n        /* \"#utility.yul\":15837:15848   */\n      swap2\n      dup3\n      add\n        /* \"#utility.yul\":15830:15870   */\n      mstore\n        /* \"#utility.yul\":15895:15908   */\n      dup4\n      mload\n        /* \"#utility.yul\":15917:15993   */\n      tag_663\n        /* \"#utility.yul\":15895:15908   */\n      dup2\n        /* \"#utility.yul\":15979:15981   */\n      0x26\n        /* \"#utility.yul\":15971:15982   */\n      dup5\n      add\n        /* \"#utility.yul\":15964:15968   */\n      0x20\n        /* \"#utility.yul\":15952:15969   */\n      dup9\n      add\n        /* \"#utility.yul\":15917:15993   */\n      tag_554\n      jump\t// in\n    tag_663:\n        /* \"#utility.yul\":16013:16030   */\n      add\n        /* \"#utility.yul\":16032:16034   */\n      0x26\n        /* \"#utility.yul\":16009:16035   */\n      add\n      swap5\n        /* \"#utility.yul\":15231:16041   */\n      swap4\n      pop\n      pop\n      pop\n      pop\n      jump\t// out\n        /* \"#utility.yul\":17854:18399   */\n    tag_559:\n        /* \"#utility.yul\":17956:17958   */\n      0x1f\n        /* \"#utility.yul\":17951:17954   */\n      dup3\n        /* \"#utility.yul\":17948:17959   */\n      gt\n        /* \"#utility.yul\":17945:18393   */\n      iszero\n      tag_262\n      jumpi\n        /* \"#utility.yul\":17992:17993   */\n      0x00\n        /* \"#utility.yul\":18017:18022   */\n      dup2\n        /* \"#utility.yul\":18013:18015   */\n      dup2\n        /* \"#utility.yul\":18006:18023   */\n      mstore\n        /* \"#utility.yul\":18062:18066   */\n      0x20\n        /* \"#utility.yul\":18058:18060   */\n      dup2\n        /* \"#utility.yul\":18048:18067   */\n      keccak256\n        /* \"#utility.yul\":18132:18134   */\n      0x1f\n        /* \"#utility.yul\":18120:18130   */\n      dup6\n        /* \"#utility.yul\":18116:18135   */\n      add\n        /* \"#utility.yul\":18113:18114   */\n      0x05\n        /* \"#utility.yul\":18109:18136   */\n      shr\n        /* \"#utility.yul\":18103:18107   */\n      dup2\n        /* \"#utility.yul\":18099:18137   */\n      add\n        /* \"#utility.yul\":18168:18172   */\n      0x20\n        /* \"#utility.yul\":18156:18166   */\n      dup7\n        /* \"#utility.yul\":18153:18173   */\n      lt\n        /* \"#utility.yul\":18150:18197   */\n      iszero\n      tag_671\n      jumpi\n      pop\n        /* \"#utility.yul\":18191:18195   */\n      dup1\n        /* \"#utility.yul\":18150:18197   */\n    tag_671:\n        /* \"#utility.yul\":18246:18248   */\n      0x1f\n        /* \"#utility.yul\":18241:18244   */\n      dup6\n        /* \"#utility.yul\":18237:18249   */\n      add\n        /* \"#utility.yul\":18234:18235   */\n      0x05\n        /* \"#utility.yul\":18230:18250   */\n      shr\n        /* \"#utility.yul\":18224:18228   */\n      dup3\n        /* \"#utility.yul\":18220:18251   */\n      add\n        /* \"#utility.yul\":18210:18251   */\n      swap2\n      pop\n        /* \"#utility.yul\":18301:18383   */\n    tag_672:\n        /* \"#utility.yul\":18319:18321   */\n      dup2\n        /* \"#utility.yul\":18312:18317   */\n      dup2\n        /* \"#utility.yul\":18309:18322   */\n      lt\n        /* \"#utility.yul\":18301:18383   */\n      iszero\n      tag_674\n      jumpi\n        /* \"#utility.yul\":18364:18381   */\n      dup3\n      dup2\n      sstore\n        /* \"#utility.yul\":18345:18346   */\n      0x01\n        /* \"#utility.yul\":18334:18347   */\n      add\n        /* \"#utility.yul\":18301:18383   */\n      jump(tag_672)\n    tag_674:\n        /* \"#utility.yul\":18305:18308   */\n      pop\n      pop\n      pop\n        /* \"#utility.yul\":17854:18399   */\n      pop\n      pop\n      pop\n      jump\t// out\n        /* \"#utility.yul\":18575:19927   */\n    tag_447:\n        /* \"#utility.yul\":18701:18704   */\n      dup2\n        /* \"#utility.yul\":18695:18705   */\n      mload\n        /* \"#utility.yul\":18728:18746   */\n      0xffffffffffffffff\n        /* \"#utility.yul\":18720:18726   */\n      dup2\n        /* \"#utility.yul\":18717:18747   */\n      gt\n        /* \"#utility.yul\":18714:18770   */\n      iszero\n      tag_678\n      jumpi\n        /* \"#utility.yul\":18750:18768   */\n      tag_678\n      tag_310\n      jump\t// in\n    tag_678:\n        /* \"#utility.yul\":18779:18876   */\n      tag_679\n        /* \"#utility.yul\":18869:18875   */\n      dup2\n        /* \"#utility.yul\":18829:18867   */\n      tag_680\n        /* \"#utility.yul\":18861:18865   */\n      dup5\n        /* \"#utility.yul\":18855:18866   */\n      sload\n        /* \"#utility.yul\":18829:18867   */\n      tag_173\n      jump\t// in\n    tag_680:\n        /* \"#utility.yul\":18823:18827   */\n      dup5\n        /* \"#utility.yul\":18779:18876   */\n      tag_559\n      jump\t// in\n    tag_679:\n        /* \"#utility.yul\":18931:18935   */\n      0x20\n      dup1\n        /* \"#utility.yul\":18995:18997   */\n      0x1f\n        /* \"#utility.yul\":18984:18998   */\n      dup4\n      gt\n        /* \"#utility.yul\":19012:19013   */\n      0x01\n        /* \"#utility.yul\":19007:19670   */\n      dup2\n      eq\n      tag_682\n      jumpi\n        /* \"#utility.yul\":19714:19715   */\n      0x00\n        /* \"#utility.yul\":19731:19737   */\n      dup5\n        /* \"#utility.yul\":19728:19817   */\n      iszero\n      tag_683\n      jumpi\n      pop\n        /* \"#utility.yul\":19783:19802   */\n      dup6\n      dup4\n      add\n        /* \"#utility.yul\":19777:19803   */\n      mload\n        /* \"#utility.yul\":19728:19817   */\n    tag_683:\n      not(0x00)\n        /* \"#utility.yul\":18532:18533   */\n      0x03\n        /* \"#utility.yul\":18528:18539   */\n      dup7\n      swap1\n      shl\n        /* \"#utility.yul\":18524:18548   */\n      shr\n        /* \"#utility.yul\":18520:18549   */\n      not\n        /* \"#utility.yul\":18510:18550   */\n      and\n        /* \"#utility.yul\":18556:18557   */\n      0x01\n        /* \"#utility.yul\":18552:18563   */\n      dup6\n      swap1\n      shl\n        /* \"#utility.yul\":18507:18564   */\n      or\n        /* \"#utility.yul\":19830:19911   */\n      dup6\n      sstore\n        /* \"#utility.yul\":18977:19921   */\n      jump(tag_674)\n        /* \"#utility.yul\":19007:19670   */\n    tag_682:\n        /* \"#utility.yul\":17801:17802   */\n      0x00\n        /* \"#utility.yul\":17794:17808   */\n      dup6\n      dup2\n      mstore\n        /* \"#utility.yul\":17838:17842   */\n      0x20\n        /* \"#utility.yul\":17825:17843   */\n      dup2\n      keccak256\n      not(0x1f)\n        /* \"#utility.yul\":19043:19063   */\n      dup7\n      and\n      swap2\n        /* \"#utility.yul\":19161:19397   */\n    tag_686:\n        /* \"#utility.yul\":19175:19182   */\n      dup3\n        /* \"#utility.yul\":19172:19173   */\n      dup2\n        /* \"#utility.yul\":19169:19183   */\n      lt\n        /* \"#utility.yul\":19161:19397   */\n      iszero\n      tag_688\n      jumpi\n        /* \"#utility.yul\":19264:19283   */\n      dup9\n      dup7\n      add\n        /* \"#utility.yul\":19258:19284   */\n      mload\n        /* \"#utility.yul\":19243:19285   */\n      dup3\n      sstore\n        /* \"#utility.yul\":19356:19383   */\n      swap5\n      dup5\n      add\n      swap5\n        /* \"#utility.yul\":19324:19325   */\n      0x01\n        /* \"#utility.yul\":19312:19326   */\n      swap1\n      swap2\n      add\n      swap1\n        /* \"#utility.yul\":19191:19210   */\n      dup5\n      add\n        /* \"#utility.yul\":19161:19397   */\n      jump(tag_686)\n    tag_688:\n        /* \"#utility.yul\":19165:19168   */\n      pop\n        /* \"#utility.yul\":19425:19431   */\n      dup6\n        /* \"#utility.yul\":19416:19423   */\n      dup3\n        /* \"#utility.yul\":19413:19432   */\n      lt\n        /* \"#utility.yul\":19410:19611   */\n      iszero\n      tag_689\n      jumpi\n        /* \"#utility.yul\":19486:19505   */\n      dup8\n      dup6\n      add\n        /* \"#utility.yul\":19480:19506   */\n      mload\n      not(0x00)\n        /* \"#utility.yul\":19569:19570   */\n      0x03\n        /* \"#utility.yul\":19565:19579   */\n      dup9\n      swap1\n      shl\n        /* \"#utility.yul\":19581:19584   */\n      0xf8\n        /* \"#utility.yul\":19561:19585   */\n      and\n        /* \"#utility.yul\":19557:19594   */\n      shr\n        /* \"#utility.yul\":19553:19595   */\n      not\n        /* \"#utility.yul\":19538:19596   */\n      and\n        /* \"#utility.yul\":19523:19597   */\n      dup2\n      sstore\n        /* \"#utility.yul\":19410:19611   */\n    tag_689:\n      pop\n      pop\n      pop\n      pop\n      pop\n        /* \"#utility.yul\":19657:19658   */\n      0x01\n        /* \"#utility.yul\":19641:19655   */\n      swap1\n      dup2\n      shl\n        /* \"#utility.yul\":19637:19659   */\n      add\n        /* \"#utility.yul\":19624:19660   */\n      swap1\n      sstore\n      pop\n        /* \"#utility.yul\":18575:19927   */\n      jump\t// out\n        /* \"#utility.yul\":19932:20315   */\n    tag_449:\n        /* \"#utility.yul\":20129:20131   */\n      0x40\n        /* \"#utility.yul\":20118:20127   */\n      dup2\n        /* \"#utility.yul\":20111:20132   */\n      mstore\n        /* \"#utility.yul\":20092:20096   */\n      0x00\n        /* \"#utility.yul\":20155:20200   */\n      tag_691\n        /* \"#utility.yul\":20196:20198   */\n      0x40\n        /* \"#utility.yul\":20185:20194   */\n      dup4\n        /* \"#utility.yul\":20181:20199   */\n      add\n        /* \"#utility.yul\":20173:20179   */\n      dup6\n        /* \"#utility.yul\":20155:20200   */\n      tag_555\n      jump\t// in\n    tag_691:\n        /* \"#utility.yul\":20248:20257   */\n      dup3\n        /* \"#utility.yul\":20240:20246   */\n      dup2\n        /* \"#utility.yul\":20236:20258   */\n      sub\n        /* \"#utility.yul\":20231:20233   */\n      0x20\n        /* \"#utility.yul\":20220:20229   */\n      dup5\n        /* \"#utility.yul\":20216:20234   */\n      add\n        /* \"#utility.yul\":20209:20259   */\n      mstore\n        /* \"#utility.yul\":20276:20309   */\n      tag_692\n        /* \"#utility.yul\":20302:20308   */\n      dup2\n        /* \"#utility.yul\":20294:20300   */\n      dup6\n        /* \"#utility.yul\":20276:20309   */\n      tag_555\n      jump\t// in\n    tag_692:\n        /* \"#utility.yul\":20268:20309   */\n      swap6\n        /* \"#utility.yul\":19932:20315   */\n      swap5\n      pop\n      pop\n      pop\n      pop\n      pop\n      jump\t// out\n        /* \"#utility.yul\":20320:20488   */\n    tag_467:\n        /* \"#utility.yul\":20393:20402   */\n      dup1\n      dup3\n      mul\n        /* \"#utility.yul\":20424:20433   */\n      dup2\n      iszero\n        /* \"#utility.yul\":20441:20456   */\n      dup3\n      dup3\n      div\n        /* \"#utility.yul\":20435:20457   */\n      dup5\n      eq\n        /* \"#utility.yul\":20421:20458   */\n      or\n        /* \"#utility.yul\":20411:20482   */\n      tag_178\n      jumpi\n        /* \"#utility.yul\":20462:20480   */\n      tag_178\n      tag_557\n      jump\t// in\n        /* \"#utility.yul\":20493:20629   */\n    tag_486:\n        /* \"#utility.yul\":20532:20535   */\n      0x00\n        /* \"#utility.yul\":20560:20565   */\n      dup2\n        /* \"#utility.yul\":20550:20589   */\n      tag_698\n      jumpi\n        /* \"#utility.yul\":20569:20587   */\n      tag_698\n      tag_557\n      jump\t// in\n    tag_698:\n      pop\n      not(0x00)\n        /* \"#utility.yul\":20605:20623   */\n      add\n      swap1\n        /* \"#utility.yul\":20493:20629   */\n      jump\t// out\n        /* \"#utility.yul\":21402:21689   */\n    tag_502:\n        /* \"#utility.yul\":21531:21534   */\n      0x00\n        /* \"#utility.yul\":21569:21575   */\n      dup3\n        /* \"#utility.yul\":21563:21576   */\n      mload\n        /* \"#utility.yul\":21585:21651   */\n      tag_702\n        /* \"#utility.yul\":21644:21650   */\n      dup2\n        /* \"#utility.yul\":21639:21642   */\n      dup5\n        /* \"#utility.yul\":21632:21636   */\n      0x20\n        /* \"#utility.yul\":21624:21630   */\n      dup8\n        /* \"#utility.yul\":21620:21637   */\n      add\n        /* \"#utility.yul\":21585:21651   */\n      tag_554\n      jump\t// in\n    tag_702:\n        /* \"#utility.yul\":21667:21683   */\n      swap2\n      swap1\n      swap2\n      add\n      swap3\n        /* \"#utility.yul\":21402:21689   */\n      swap2\n      pop\n      pop\n      jump\t// out\n        /* \"#utility.yul\":22097:22224   */\n    tag_519:\n        /* \"#utility.yul\":22158:22168   */\n      0x4e487b71\n        /* \"#utility.yul\":22153:22156   */\n      0xe0\n        /* \"#utility.yul\":22149:22169   */\n      shl\n        /* \"#utility.yul\":22146:22147   */\n      0x00\n        /* \"#utility.yul\":22139:22170   */\n      mstore\n        /* \"#utility.yul\":22189:22193   */\n      0x21\n        /* \"#utility.yul\":22186:22187   */\n      0x04\n        /* \"#utility.yul\":22179:22194   */\n      mstore\n        /* \"#utility.yul\":22213:22217   */\n      0x24\n        /* \"#utility.yul\":22210:22211   */\n      0x00\n        /* \"#utility.yul\":22203:22218   */\n      revert\n    stop\n    data_9fdcd12e4b726339b32a442b0a448365d5d85c96b2d2cff917b4f66c63110398 416464726573733a206c6f772d6c6576656c2064656c65676174652063616c6c206661696c6564\n\n    auxdata: 0xa26469706673582212201ea42aa79b98da4a6ddf200ca163c6c2f0259122fd6b412403e40aa068b0a8dd64736f6c63430008110033\n}\n",
    "bytecode": {
      "linkReferences": {},
      "object": "6101006040527f6e71edae12b1b97f4d1f60370fef10105fa2faae0126114a169c64845d6126c960e0523480156200003657600080fd5b5060405162002dba38038062002dba833981016040819052620000599162000423565b8282828181818160056200006e83826200053c565b5060066200007d82826200053c565b50504660a052503060c05262000092620000ea565b60805250620000a390508362000181565b50620000b591506000905084620001d3565b620000e17f8502233096d909befbda0999bb8ea2f3a6be3c138b9fbf003752a4c8bce86f6c84620001d3565b50505062000630565b60007f8b73c3c69bb8fe3d512ecc4cf759cc79239f7b179b0ffacaa9a75d522b39400f62000117620001fa565b80516020918201206040805192830193909352918101919091527fc89efdaa54c0f20c7adf612882df0950f5a951637e0307cdcb4c672f298b8bc660608201524660808201523060a082015260c00160405160208183030381529060405280519060200120905090565b600180546001600160a01b038381166001600160a01b0319831681179093556040519116919082907f8292fce18fa69edf4db7b94ea2e58241df0ae57f97e0a6c9b29067028bf92d7690600090a35050565b620001ea82826200029460201b620011761760201c565b620001f68282620002ef565b5050565b6060600580546200020b90620004ad565b80601f01602080910402602001604051908101604052809291908181526020018280546200023990620004ad565b80156200028a5780601f106200025e576101008083540402835291602001916200028a565b820191906000526020600020905b8154815290600101906020018083116200026c57829003601f168201915b5050505050905090565b60008281526008602090815260408083206001600160a01b0385168085529252808320805460ff1916600117905551339285917f2f8788117e7eff1d82e926ec794901d17c78024a50270940304540a733656f0d9190a45050565b6000828152600a602052604081208054916001919062000310838562000608565b90915550506000928352600a6020908152604080852083865260018101835281862080546001600160a01b039096166001600160a01b03199096168617905593855260029093019052912055565b634e487b7160e01b600052604160045260246000fd5b600082601f8301126200038657600080fd5b81516001600160401b0380821115620003a357620003a36200035e565b604051601f8301601f19908116603f01168101908282118183101715620003ce57620003ce6200035e565b81604052838152602092508683858801011115620003eb57600080fd5b600091505b838210156200040f5785820183015181830184015290820190620003f0565b600093810190920192909252949350505050565b6000806000606084860312156200043957600080fd5b83516001600160a01b03811681146200045157600080fd5b60208501519093506001600160401b03808211156200046f57600080fd5b6200047d8783880162000374565b935060408601519150808211156200049457600080fd5b50620004a38682870162000374565b9150509250925092565b600181811c90821680620004c257607f821691505b602082108103620004e357634e487b7160e01b600052602260045260246000fd5b50919050565b601f8211156200053757600081815260208120601f850160051c81016020861015620005125750805b601f850160051c820191505b8181101562000533578281556001016200051e565b5050505b505050565b81516001600160401b038111156200055857620005586200035e565b6200057081620005698454620004ad565b84620004e9565b602080601f831160018114620005a857600084156200058f5750858301515b600019600386901b1c1916600185901b17855562000533565b600085815260208120601f198616915b82811015620005d957888601518255948401946001909101908401620005b8565b5085821015620005f85787850151600019600388901b60f8161c191681555b5050505050600190811b01905550565b808201808211156200062a57634e487b7160e01b600052601160045260246000fd5b92915050565b60805160a05160c05160e0516127506200066a6000396000610f9d0152600061075b01526000610785015260006107af01526127506000f3fe608060405234801561001057600080fd5b50600436106101f05760003560e01c80637ecebe001161010f578063a457c2d7116100a2578063d505accf11610071578063d505accf1461047c578063d547741f1461048f578063dd62ed3e146104a2578063e8a3d485146104db57600080fd5b8063a457c2d714610423578063a9059cbb14610436578063ac9650d814610449578063ca15c8731461046957600080fd5b8063938e3d7b116100de578063938e3d7b146103ed57806395d89b4114610400578063a217fddf14610408578063a32fa5b31461041057600080fd5b80637ecebe00146103695780638da5cb5b1461037c5780639010d07c146103a157806391d14854146103b457600080fd5b8063313ce5671161018757806342966c681161015657806342966c6814610307578063449a52f81461031a57806370a082311461032d57806379cc67901461035657600080fd5b8063313ce567146102ca5780633644e515146102d957806336568abe146102e157806339509351146102f457600080fd5b8063206b60f9116101c3578063206b60f91461025d57806323b872dd14610284578063248a9ca3146102975780632f2ff15d146102b757600080fd5b806306fdde03146101f5578063095ea7b31461021357806313af40351461023657806318160ddd1461024b575b600080fd5b6101fd6104e3565b60405161020a9190612097565b60405180910390f35b6102266102213660046120c6565b610575565b604051901515815260200161020a565b6102496102443660046120f0565b61058f565b005b6004545b60405190815260200161020a565b61024f7f8502233096d909befbda0999bb8ea2f3a6be3c138b9fbf003752a4c8bce86f6c81565b61022661029236600461210b565b6105e5565b61024f6102a5366004612147565b60009081526009602052604090205490565b6102496102c5366004612160565b6106b4565b6040516012815260200161020a565b61024f61074e565b6102496102ef366004612160565b6107de565b6102266103023660046120c6565b610840565b610249610315366004612147565b61087a565b6102496103283660046120c6565b6108e3565b61024f61033b3660046120f0565b6001600160a01b031660009081526002602052604090205490565b6102496103643660046120c6565b610991565b61024f6103773660046120f0565b610aaa565b6001546001600160a01b03165b6040516001600160a01b03909116815260200161020a565b6103896103af36600461218c565b610ac8565b6102266103c2366004612160565b60009182526008602090815260408084206001600160a01b0393909316845291905290205460ff1690565b6102496103fb3660046121c4565b610bc8565b6101fd610c16565b61024f600081565b61022661041e366004612160565b610c25565b6102266104313660046120c6565b610c7b565b6102266104443660046120c6565b610d30565b61045c610457366004612275565b610db9565b60405161020a91906122ea565b61024f610477366004612147565b610eae565b61024961048a36600461234c565b610f49565b61024961049d366004612160565b6110cf565b61024f6104b03660046123bf565b6001600160a01b03918216600090815260036020908152604080832093909416825291909152205490565b6101fd6110e8565b6060600580546104f2906123e9565b80601f016020809104026020016040519081016040528092919081815260200182805461051e906123e9565b801561056b5780601f106105405761010080835404028352916020019161056b565b820191906000526020600020905b81548152906001019060200180831161054e57829003601f168201915b5050505050905090565b6000336105838185856111d1565b60019150505b92915050565b6105976112f5565b6105d95760405162461bcd60e51b815260206004820152600e60248201526d139bdd08185d5d1a1bdc9a5e995960921b60448201526064015b60405180910390fd5b6105e281611322565b50565b3360009081527f85da32aea425a83be1133c4e958580985fa04602ddf03ad35008a70703b20eb7602052604081205460ff166106635760405162461bcd60e51b815260206004820152601e60248201527f53656e646572206d7573742068617665205452414e534645525f524f4c45000060448201526064016105d0565b61066e848484611381565b6001600160a01b0384166000908152600360209081526040808320338085529252909120546106a99186916106a4908690612433565b6111d1565b5060015b9392505050565b6000828152600960205260409020546106cd903361157f565b60008281526008602090815260408083206001600160a01b038516845290915290205460ff16156107405760405162461bcd60e51b815260206004820152601d60248201527f43616e206f6e6c79206772616e7420746f206e6f6e20686f6c6465727300000060448201526064016105d0565b61074a82826115ff565b5050565b6000306001600160a01b037f0000000000000000000000000000000000000000000000000000000000000000161480156107a757507f000000000000000000000000000000000000000000000000000000000000000046145b156107d157507f000000000000000000000000000000000000000000000000000000000000000090565b6107d9611613565b905090565b336001600160a01b038216146108365760405162461bcd60e51b815260206004820152601a60248201527f43616e206f6e6c792072656e6f756e636520666f722073656c6600000000000060448201526064016105d0565b61074a82826116a8565b3360008181526003602090815260408083206001600160a01b038716845290915281205490919061058390829086906106a4908790612446565b336000908152600260205260409020548111156108d95760405162461bcd60e51b815260206004820152601260248201527f6e6f7420656e6f7567682062616c616e6365000000000000000000000000000060448201526064016105d0565b6105e2338261170c565b6108eb6112f5565b6109375760405162461bcd60e51b815260206004820152601760248201527f4e6f7420617574686f72697a656420746f206d696e742e00000000000000000060448201526064016105d0565b806000036109875760405162461bcd60e51b815260206004820152601460248201527f4d696e74696e67207a65726f20746f6b656e732e00000000000000000000000060448201526064016105d0565b61074a828261185a565b6109996112f5565b6109e55760405162461bcd60e51b815260206004820152601760248201527f4e6f7420617574686f72697a656420746f206275726e2e00000000000000000060448201526064016105d0565b80610a05836001600160a01b031660009081526002602052604090205490565b1015610a535760405162461bcd60e51b815260206004820152601260248201527f6e6f7420656e6f7567682062616c616e6365000000000000000000000000000060448201526064016105d0565b6001600160a01b0382166000908152600360209081526040808320338452909152812054610a82908390612433565b9050610a90833360006111d1565b610a9b8333836111d1565b610aa5838361170c565b505050565b6001600160a01b038116600090815260076020526040812054610589565b6000828152600a602052604081205481805b82811015610bbf576000868152600a602090815260408083208484526001019091529020546001600160a01b031615610b5657848203610b44576000868152600a602090815260408083209383526001909301905220546001600160a01b03169250610589915050565b610b4f600183612446565b9150610bad565b600086815260086020908152604080832083805290915290205460ff168015610b9a57506000868152600a6020908152604080832083805260020190915290205481145b15610bad57610baa600183612446565b91505b610bb8600182612446565b9050610ada565b50505092915050565b610bd06112f5565b610c0d5760405162461bcd60e51b815260206004820152600e60248201526d139bdd08185d5d1a1bdc9a5e995960921b60448201526064016105d0565b6105e281611939565b6060600680546104f2906123e9565b600082815260086020908152604080832083805290915281205460ff16610c72575060008281526008602090815260408083206001600160a01b038516845290915290205460ff16610589565b50600192915050565b3360008181526003602090815260408083206001600160a01b038716845290915281205490919083811015610d185760405162461bcd60e51b815260206004820152602560248201527f45524332303a2064656372656173656420616c6c6f77616e63652062656c6f7760448201527f207a65726f00000000000000000000000000000000000000000000000000000060648201526084016105d0565b610d2582868684036111d1565b506001949350505050565b3360009081527f85da32aea425a83be1133c4e958580985fa04602ddf03ad35008a70703b20eb7602052604081205460ff16610dae5760405162461bcd60e51b815260206004820152601e60248201527f53656e646572206d7573742068617665205452414e534645525f524f4c45000060448201526064016105d0565b610c72338484611381565b60608167ffffffffffffffff811115610dd457610dd46121ae565b604051908082528060200260200182016040528015610e0757816020015b6060815260200190600190039081610df25790505b50905060005b82811015610ea757610e7730858584818110610e2b57610e2b612459565b9050602002810190610e3d919061246f565b8080601f016020809104026020016040519081016040528093929190818152602001838380828437600092019190915250611a1492505050565b828281518110610e8957610e89612459565b60200260200101819052508080610e9f906124bd565b915050610e0d565b5092915050565b6000818152600a6020526040812054815b81811015610f12576000848152600a602090815260408083208484526001019091529020546001600160a01b031615610f0057610efd600184612446565b92505b610f0b600182612446565b9050610ebf565b50600083815260086020908152604080832083805290915290205460ff1615610f4357610f40600183612446565b91505b50919050565b83421115610f995760405162461bcd60e51b815260206004820152601d60248201527f45524332305065726d69743a206578706972656420646561646c696e6500000060448201526064016105d0565b60007f0000000000000000000000000000000000000000000000000000000000000000888888610fc88c611a39565b6040805160208101969096526001600160a01b0394851690860152929091166060840152608083015260a082015260c0810186905260e001604051602081830303815290604052805190602001209050600061104561102561074e565b8360405161190160f01b8152600281019290925260228201526042902090565b9050600061105582878787611a5f565b9050896001600160a01b0316816001600160a01b0316146110b85760405162461bcd60e51b815260206004820152601e60248201527f45524332305065726d69743a20696e76616c6964207369676e6174757265000060448201526064016105d0565b6110c38a8a8a6111d1565b50505050505050505050565b600082815260096020526040902054610836903361157f565b600080546110f5906123e9565b80601f0160208091040260200160405190810160405280929190818152602001828054611121906123e9565b801561116e5780601f106111435761010080835404028352916020019161116e565b820191906000526020600020905b81548152906001019060200180831161115157829003601f168201915b505050505081565b60008281526008602090815260408083206001600160a01b0385168085529252808320805460ff1916600117905551339285917f2f8788117e7eff1d82e926ec794901d17c78024a50270940304540a733656f0d9190a45050565b6001600160a01b0383166112335760405162461bcd60e51b8152602060048201526024808201527f45524332303a20617070726f76652066726f6d20746865207a65726f206164646044820152637265737360e01b60648201526084016105d0565b6001600160a01b0382166112945760405162461bcd60e51b815260206004820152602260248201527f45524332303a20617070726f766520746f20746865207a65726f206164647265604482015261737360f01b60648201526084016105d0565b6001600160a01b0383811660008181526003602090815260408083209487168084529482529182902085905590518481527f8c5be1e5ebec7d5bd14f71427d1e84f3dd0314c0f7b2291e5b200ac8c7c3b925910160405180910390a3505050565b60006113096001546001600160a01b031690565b6001600160a01b0316336001600160a01b031614905090565b600180546001600160a01b0383811673ffffffffffffffffffffffffffffffffffffffff19831681179093556040519116919082907f8292fce18fa69edf4db7b94ea2e58241df0ae57f97e0a6c9b29067028bf92d7690600090a35050565b6001600160a01b0383166113fd5760405162461bcd60e51b815260206004820152602560248201527f45524332303a207472616e736665722066726f6d20746865207a65726f20616460448201527f647265737300000000000000000000000000000000000000000000000000000060648201526084016105d0565b6001600160a01b03821661145f5760405162461bcd60e51b815260206004820152602360248201527f45524332303a207472616e7366657220746f20746865207a65726f206164647260448201526265737360e81b60648201526084016105d0565b6001600160a01b038316600090815260026020526040902054818110156114ee5760405162461bcd60e51b815260206004820152602660248201527f45524332303a207472616e7366657220616d6f756e742065786365656473206260448201527f616c616e6365000000000000000000000000000000000000000000000000000060648201526084016105d0565b6001600160a01b03808516600090815260026020526040808220858503905591851681529081208054849290611525908490612446565b92505081905550826001600160a01b0316846001600160a01b03167fddf252ad1be2c89b69c2b068fc378daa952ba7f163c4a11628f55a4df523b3ef8460405161157191815260200190565b60405180910390a350505050565b60008281526008602090815260408083206001600160a01b038516845290915290205460ff1661074a576115bd816001600160a01b03166014611a87565b6115c8836020611a87565b6040516020016115d99291906124d6565b60408051601f198184030181529082905262461bcd60e51b82526105d091600401612097565b6116098282611176565b61074a8282611c30565b60007f8b73c3c69bb8fe3d512ecc4cf759cc79239f7b179b0ffacaa9a75d522b39400f61163e6104e3565b80516020918201206040805192830193909352918101919091527fc89efdaa54c0f20c7adf612882df0950f5a951637e0307cdcb4c672f298b8bc660608201524660808201523060a082015260c00160405160208183030381529060405280519060200120905090565b6116b28282611caa565b6000828152600a602090815260408083206001600160a01b038516808552600282018085528386208054875260019093018552928520805473ffffffffffffffffffffffffffffffffffffffff1916905584529152555050565b6001600160a01b03821661176c5760405162461bcd60e51b815260206004820152602160248201527f45524332303a206275726e2066726f6d20746865207a65726f206164647265736044820152607360f81b60648201526084016105d0565b6001600160a01b038216600090815260026020526040902054818110156117e05760405162461bcd60e51b815260206004820152602260248201527f45524332303a206275726e20616d6f756e7420657863656564732062616c616e604482015261636560f01b60648201526084016105d0565b6001600160a01b038316600090815260026020526040812083830390556004805484929061180f908490612433565b90915550506040518281526000906001600160a01b038516907fddf252ad1be2c89b69c2b068fc378daa952ba7f163c4a11628f55a4df523b3ef9060200160405180910390a3505050565b6001600160a01b0382166118b05760405162461bcd60e51b815260206004820152601f60248201527f45524332303a206d696e7420746f20746865207a65726f20616464726573730060448201526064016105d0565b80600460008282546118c29190612446565b90915550506001600160a01b038216600090815260026020526040812080548392906118ef908490612446565b90915550506040518181526001600160a01b038316906000907fddf252ad1be2c89b69c2b068fc378daa952ba7f163c4a11628f55a4df523b3ef9060200160405180910390a35050565b6000808054611947906123e9565b80601f0160208091040260200160405190810160405280929190818152602001828054611973906123e9565b80156119c05780601f10611995576101008083540402835291602001916119c0565b820191906000526020600020905b8154815290600101906020018083116119a357829003601f168201915b5050505050905081600090816119d691906125a5565b507fc9c7c3fe08b88b4df9d4d47ef47d2c43d55c025a0ba88ca442580ed9e7348a168183604051611a08929190612665565b60405180910390a15050565b60606106ad83836040518060600160405280602781526020016126f460279139611d0c565b6001600160a01b0381166000908152600760205260409020805460018101825590610f43565b6000806000611a7087878787611e00565b91509150611a7d81611ec4565b5095945050505050565b60606000611a96836002612693565b611aa1906002612446565b67ffffffffffffffff811115611ab957611ab96121ae565b6040519080825280601f01601f191660200182016040528015611ae3576020820181803683370190505b509050600360fc1b81600081518110611afe57611afe612459565b60200101906001600160f81b031916908160001a905350600f60fb1b81600181518110611b2d57611b2d612459565b60200101906001600160f81b031916908160001a9053506000611b51846002612693565b611b5c906001612446565b90505b6001811115611be1577f303132333435363738396162636465660000000000000000000000000000000085600f1660108110611b9d57611b9d612459565b1a60f81b828281518110611bb357611bb3612459565b60200101906001600160f81b031916908160001a90535060049490941c93611bda816126aa565b9050611b5f565b5083156106ad5760405162461bcd60e51b815260206004820181905260248201527f537472696e67733a20686578206c656e67746820696e73756666696369656e7460448201526064016105d0565b6000828152600a6020526040812080549160019190611c4f8385612446565b90915550506000928352600a6020908152604080852083865260018101835281862080546001600160a01b0390961673ffffffffffffffffffffffffffffffffffffffff199096168617905593855260029093019052912055565b611cb4828261157f565b60008281526008602090815260408083206001600160a01b0385168085529252808320805460ff1916905551339285917ff6391f5c32d9c69d2a47ea670b442974b53935d1edc7fd64eb21e047a839171b9190a45050565b60606001600160a01b0384163b611d8b5760405162461bcd60e51b815260206004820152602660248201527f416464726573733a2064656c65676174652063616c6c20746f206e6f6e2d636f60448201527f6e7472616374000000000000000000000000000000000000000000000000000060648201526084016105d0565b600080856001600160a01b031685604051611da691906126c1565b600060405180830381855af49150503d8060008114611de1576040519150601f19603f3d011682016040523d82523d6000602084013e611de6565b606091505b5091509150611df682828661200e565b9695505050505050565b6000807f7fffffffffffffffffffffffffffffff5d576e7357a4501ddfe92f46681b20a0831115611e375750600090506003611ebb565b6040805160008082526020820180845289905260ff881692820192909252606081018690526080810185905260019060a0016020604051602081039080840390855afa158015611e8b573d6000803e3d6000fd5b5050604051601f1901519150506001600160a01b038116611eb457600060019250925050611ebb565b9150600090505b94509492505050565b6000816004811115611ed857611ed86126dd565b03611ee05750565b6001816004811115611ef457611ef46126dd565b03611f415760405162461bcd60e51b815260206004820152601860248201527f45434453413a20696e76616c6964207369676e6174757265000000000000000060448201526064016105d0565b6002816004811115611f5557611f556126dd565b03611fa25760405162461bcd60e51b815260206004820152601f60248201527f45434453413a20696e76616c6964207369676e6174757265206c656e6774680060448201526064016105d0565b6003816004811115611fb657611fb66126dd565b036105e25760405162461bcd60e51b815260206004820152602260248201527f45434453413a20696e76616c6964207369676e6174757265202773272076616c604482015261756560f01b60648201526084016105d0565b6060831561201d5750816106ad565b82511561202d5782518084602001fd5b8160405162461bcd60e51b81526004016105d09190612097565b60005b8381101561206257818101518382015260200161204a565b50506000910152565b60008151808452612083816020860160208601612047565b601f01601f19169290920160200192915050565b6020815260006106ad602083018461206b565b80356001600160a01b03811681146120c157600080fd5b919050565b600080604083850312156120d957600080fd5b6120e2836120aa565b946020939093013593505050565b60006020828403121561210257600080fd5b6106ad826120aa565b60008060006060848603121561212057600080fd5b612129846120aa565b9250612137602085016120aa565b9150604084013590509250925092565b60006020828403121561215957600080fd5b5035919050565b6000806040838503121561217357600080fd5b82359150612183602084016120aa565b90509250929050565b6000806040838503121561219f57600080fd5b50508035926020909101359150565b634e487b7160e01b600052604160045260246000fd5b6000602082840312156121d657600080fd5b813567ffffffffffffffff808211156121ee57600080fd5b818401915084601f83011261220257600080fd5b813581811115612214576122146121ae565b604051601f8201601f19908116603f0116810190838211818310171561223c5761223c6121ae565b8160405282815287602084870101111561225557600080fd5b826020860160208301376000928101602001929092525095945050505050565b6000806020838503121561228857600080fd5b823567ffffffffffffffff808211156122a057600080fd5b818501915085601f8301126122b457600080fd5b8135818111156122c357600080fd5b8660208260051b85010111156122d857600080fd5b60209290920196919550909350505050565b6000602080830181845280855180835260408601915060408160051b870101925083870160005b8281101561233f57603f1988860301845261232d85835161206b565b94509285019290850190600101612311565b5092979650505050505050565b600080600080600080600060e0888a03121561236757600080fd5b612370886120aa565b965061237e602089016120aa565b95506040880135945060608801359350608088013560ff811681146123a257600080fd5b9699959850939692959460a0840135945060c09093013592915050565b600080604083850312156123d257600080fd5b6123db836120aa565b9150612183602084016120aa565b600181811c908216806123fd57607f821691505b602082108103610f4357634e487b7160e01b600052602260045260246000fd5b634e487b7160e01b600052601160045260246000fd5b818103818111156105895761058961241d565b808201808211156105895761058961241d565b634e487b7160e01b600052603260045260246000fd5b6000808335601e1984360301811261248657600080fd5b83018035915067ffffffffffffffff8211156124a157600080fd5b6020019150368190038213156124b657600080fd5b9250929050565b6000600182016124cf576124cf61241d565b5060010190565b7f5065726d697373696f6e733a206163636f756e7420000000000000000000000081526000835161250e816015850160208801612047565b7f206973206d697373696e6720726f6c6520000000000000000000000000000000601591840191820152835161254b816026840160208801612047565b01602601949350505050565b601f821115610aa557600081815260208120601f850160051c8101602086101561257e5750805b601f850160051c820191505b8181101561259d5782815560010161258a565b505050505050565b815167ffffffffffffffff8111156125bf576125bf6121ae565b6125d3816125cd84546123e9565b84612557565b602080601f83116001811461260857600084156125f05750858301515b600019600386901b1c1916600185901b17855561259d565b600085815260208120601f198616915b8281101561263757888601518255948401946001909101908401612618565b50858210156126555787850151600019600388901b60f8161c191681555b5050505050600190811b01905550565b604081526000612678604083018561206b565b828103602084015261268a818561206b565b95945050505050565b80820281158282048414176105895761058961241d565b6000816126b9576126b961241d565b506000190190565b600082516126d3818460208701612047565b9190910192915050565b634e487b7160e01b600052602160045260246000fdfe416464726573733a206c6f772d6c6576656c2064656c65676174652063616c6c206661696c6564a26469706673582212201ea42aa79b98da4a6ddf200ca163c6c2f0259122fd6b412403e40aa068b0a8dd64736f6c63430008110033",
      "opcodes": "PUSH2 0x100 PUSH1 0x40 MSTORE PUSH32 0x6E71EDAE12B1B97F4D1F60370FEF10105FA2FAAE0126114A169C64845D6126C9 PUSH1 0xE0 MSTORE CALLVALUE DUP1 ISZERO PUSH3 0x36 JUMPI PUSH1 0x0 DUP1 REVERT JUMPDEST POP PUSH1 0x40 MLOAD PUSH3 0x2DBA CODESIZE SUB DUP1 PUSH3 0x2DBA DUP4 CODECOPY DUP2 ADD PUSH1 0x40 DUP2 SWAP1 MSTORE PUSH3 0x59 SWAP2 PUSH3 0x423 JUMP JUMPDEST DUP3 DUP3 DUP3 DUP2 DUP2 DUP2 DUP2 PUSH1 0x5 PUSH3 0x6E DUP4 DUP3 PUSH3 0x53C JUMP JUMPDEST POP PUSH1 0x6 PUSH3 0x7D DUP3 DUP3 PUSH3 0x53C JUMP JUMPDEST POP POP CHAINID PUSH1 0xA0 MSTORE POP ADDRESS PUSH1 0xC0 MSTORE PUSH3 0x92 PUSH3 0xEA JUMP JUMPDEST PUSH1 0x80 MSTORE POP PUSH3 0xA3 SWAP1 POP DUP4 PUSH3 0x181 JUMP JUMPDEST POP PUSH3 0xB5 SWAP2 POP PUSH1 0x0 SWAP1 POP DUP5 PUSH3 0x1D3 JUMP JUMPDEST PUSH3 0xE1 PUSH32 0x8502233096D909BEFBDA0999BB8EA2F3A6BE3C138B9FBF003752A4C8BCE86F6C DUP5 PUSH3 0x1D3 JUMP JUMPDEST POP POP POP PUSH3 0x630 JUMP JUMPDEST PUSH1 0x0 PUSH32 0x8B73C3C69BB8FE3D512ECC4CF759CC79239F7B179B0FFACAA9A75D522B39400F PUSH3 0x117 PUSH3 0x1FA JUMP JUMPDEST DUP1 MLOAD PUSH1 0x20 SWAP2 DUP3 ADD KECCAK256 PUSH1 0x40 DUP1 MLOAD SWAP3 DUP4 ADD SWAP4 SWAP1 SWAP4 MSTORE SWAP2 DUP2 ADD SWAP2 SWAP1 SWAP2 MSTORE PUSH32 0xC89EFDAA54C0F20C7ADF612882DF0950F5A951637E0307CDCB4C672F298B8BC6 PUSH1 0x60 DUP3 ADD MSTORE CHAINID PUSH1 0x80 DUP3 ADD MSTORE ADDRESS PUSH1 0xA0 DUP3 ADD MSTORE PUSH1 0xC0 ADD PUSH1 0x40 MLOAD PUSH1 0x20 DUP2 DUP4 SUB SUB DUP2 MSTORE SWAP1 PUSH1 0x40 MSTORE DUP1 MLOAD SWAP1 PUSH1 0x20 ADD KECCAK256 SWAP1 POP SWAP1 JUMP JUMPDEST PUSH1 0x1 DUP1 SLOAD PUSH1 0x1 PUSH1 0x1 PUSH1 0xA0 SHL SUB DUP4 DUP2 AND PUSH1 0x1 PUSH1 0x1 PUSH1 0xA0 SHL SUB NOT DUP4 AND DUP2 OR SWAP1 SWAP4 SSTORE PUSH1 0x40 MLOAD SWAP2 AND SWAP2 SWAP1 DUP3 SWAP1 PUSH32 0x8292FCE18FA69EDF4DB7B94EA2E58241DF0AE57F97E0A6C9B29067028BF92D76 SWAP1 PUSH1 0x0 SWAP1 LOG3 POP POP JUMP JUMPDEST PUSH3 0x1EA DUP3 DUP3 PUSH3 0x294 PUSH1 0x20 SHL PUSH3 0x1176 OR PUSH1 0x20 SHR JUMP JUMPDEST PUSH3 0x1F6 DUP3 DUP3 PUSH3 0x2EF JUMP JUMPDEST POP POP JUMP JUMPDEST PUSH1 0x60 PUSH1 0x5 DUP1 SLOAD PUSH3 0x20B SWAP1 PUSH3 0x4AD JUMP JUMPDEST DUP1 PUSH1 0x1F ADD PUSH1 0x20 DUP1 SWAP2 DIV MUL PUSH1 0x20 ADD PUSH1 0x40 MLOAD SWAP1 DUP2 ADD PUSH1 0x40 MSTORE DUP1 SWAP3 SWAP2 SWAP1 DUP2 DUP2 MSTORE PUSH1 0x20 ADD DUP3 DUP1 SLOAD PUSH3 0x239 SWAP1 PUSH3 0x4AD JUMP JUMPDEST DUP1 ISZERO PUSH3 0x28A JUMPI DUP1 PUSH1 0x1F LT PUSH3 0x25E JUMPI PUSH2 0x100 DUP1 DUP4 SLOAD DIV MUL DUP4 MSTORE SWAP2 PUSH1 0x20 ADD SWAP2 PUSH3 0x28A JUMP JUMPDEST DUP3 ADD SWAP2 SWAP1 PUSH1 0x0 MSTORE PUSH1 0x20 PUSH1 0x0 KECCAK256 SWAP1 JUMPDEST DUP2 SLOAD DUP2 MSTORE SWAP1 PUSH1 0x1 ADD SWAP1 PUSH1 0x20 ADD DUP1 DUP4 GT PUSH3 0x26C JUMPI DUP3 SWAP1 SUB PUSH1 0x1F AND DUP3 ADD SWAP2 JUMPDEST POP POP POP POP POP SWAP1 POP SWAP1 JUMP JUMPDEST PUSH1 0x0 DUP3 DUP2 MSTORE PUSH1 0x8 PUSH1 0x20 SWAP1 DUP2 MSTORE PUSH1 0x40 DUP1 DUP4 KECCAK256 PUSH1 0x1 PUSH1 0x1 PUSH1 0xA0 SHL SUB DUP6 AND DUP1 DUP6 MSTORE SWAP3 MSTORE DUP1 DUP4 KECCAK256 DUP1 SLOAD PUSH1 0xFF NOT AND PUSH1 0x1 OR SWAP1 SSTORE MLOAD CALLER SWAP3 DUP6 SWAP2 PUSH32 0x2F8788117E7EFF1D82E926EC794901D17C78024A50270940304540A733656F0D SWAP2 SWAP1 LOG4 POP POP JUMP JUMPDEST PUSH1 0x0 DUP3 DUP2 MSTORE PUSH1 0xA PUSH1 0x20 MSTORE PUSH1 0x40 DUP2 KECCAK256 DUP1 SLOAD SWAP2 PUSH1 0x1 SWAP2 SWAP1 PUSH3 0x310 DUP4 DUP6 PUSH3 0x608 JUMP JUMPDEST SWAP1 SWAP2 SSTORE POP POP PUSH1 0x0 SWAP3 DUP4 MSTORE PUSH1 0xA PUSH1 0x20 SWAP1 DUP2 MSTORE PUSH1 0x40 DUP1 DUP6 KECCAK256 DUP4 DUP7 MSTORE PUSH1 0x1 DUP2 ADD DUP4 MSTORE DUP2 DUP7 KECCAK256 DUP1 SLOAD PUSH1 0x1 PUSH1 0x1 PUSH1 0xA0 SHL SUB SWAP1 SWAP7 AND PUSH1 0x1 PUSH1 0x1 PUSH1 0xA0 SHL SUB NOT SWAP1 SWAP7 AND DUP7 OR SWAP1 SSTORE SWAP4 DUP6 MSTORE PUSH1 0x2 SWAP1 SWAP4 ADD SWAP1 MSTORE SWAP2 KECCAK256 SSTORE JUMP JUMPDEST PUSH4 0x4E487B71 PUSH1 0xE0 SHL PUSH1 0x0 MSTORE PUSH1 0x41 PUSH1 0x4 MSTORE PUSH1 0x24 PUSH1 0x0 REVERT JUMPDEST PUSH1 0x0 DUP3 PUSH1 0x1F DUP4 ADD SLT PUSH3 0x386 JUMPI PUSH1 0x0 DUP1 REVERT JUMPDEST DUP2 MLOAD PUSH1 0x1 PUSH1 0x1 PUSH1 0x40 SHL SUB DUP1 DUP3 GT ISZERO PUSH3 0x3A3 JUMPI PUSH3 0x3A3 PUSH3 0x35E JUMP JUMPDEST PUSH1 0x40 MLOAD PUSH1 0x1F DUP4 ADD PUSH1 0x1F NOT SWAP1 DUP2 AND PUSH1 0x3F ADD AND DUP2 ADD SWAP1 DUP3 DUP3 GT DUP2 DUP4 LT OR ISZERO PUSH3 0x3CE JUMPI PUSH3 0x3CE PUSH3 0x35E JUMP JUMPDEST DUP2 PUSH1 0x40 MSTORE DUP4 DUP2 MSTORE PUSH1 0x20 SWAP3 POP DUP7 DUP4 DUP6 DUP9 ADD ADD GT ISZERO PUSH3 0x3EB JUMPI PUSH1 0x0 DUP1 REVERT JUMPDEST PUSH1 0x0 SWAP2 POP JUMPDEST DUP4 DUP3 LT ISZERO PUSH3 0x40F JUMPI DUP6 DUP3 ADD DUP4 ADD MLOAD DUP2 DUP4 ADD DUP5 ADD MSTORE SWAP1 DUP3 ADD SWAP1 PUSH3 0x3F0 JUMP JUMPDEST PUSH1 0x0 SWAP4 DUP2 ADD SWAP1 SWAP3 ADD SWAP3 SWAP1 SWAP3 MSTORE SWAP5 SWAP4 POP POP POP POP JUMP JUMPDEST PUSH1 0x0 DUP1 PUSH1 0x0 PUSH1 0x60 DUP5 DUP7 SUB SLT ISZERO PUSH3 0x439 JUMPI PUSH1 0x0 DUP1 REVERT JUMPDEST DUP4 MLOAD PUSH1 0x1 PUSH1 0x1 PUSH1 0xA0 SHL SUB DUP2 AND DUP2 EQ PUSH3 0x451 JUMPI PUSH1 0x0 DUP1 REVERT JUMPDEST PUSH1 0x20 DUP6 ADD MLOAD SWAP1 SWAP4 POP PUSH1 0x1 PUSH1 0x1 PUSH1 0x40 SHL SUB DUP1 DUP3 GT ISZERO PUSH3 0x46F JUMPI PUSH1 0x0 DUP1 REVERT JUMPDEST PUSH3 0x47D DUP8 DUP4 DUP9 ADD PUSH3 0x374 JUMP JUMPDEST SWAP4 POP PUSH1 0x40 DUP7 ADD MLOAD SWAP2 POP DUP1 DUP3 GT ISZERO PUSH3 0x494 JUMPI PUSH1 0x0 DUP1 REVERT JUMPDEST POP PUSH3 0x4A3 DUP7 DUP3 DUP8 ADD PUSH3 0x374 JUMP JUMPDEST SWAP2 POP POP SWAP3 POP SWAP3 POP SWAP3 JUMP JUMPDEST PUSH1 0x1 DUP2 DUP2 SHR SWAP1 DUP3 AND DUP1 PUSH3 0x4C2 JUMPI PUSH1 0x7F DUP3 AND SWAP2 POP JUMPDEST PUSH1 0x20 DUP3 LT DUP2 SUB PUSH3 0x4E3 JUMPI PUSH4 0x4E487B71 PUSH1 0xE0 SHL PUSH1 0x0 MSTORE PUSH1 0x22 PUSH1 0x4 MSTORE PUSH1 0x24 PUSH1 0x0 REVERT JUMPDEST POP SWAP2 SWAP1 POP JUMP JUMPDEST PUSH1 0x1F DUP3 GT ISZERO PUSH3 0x537 JUMPI PUSH1 0x0 DUP2 DUP2 MSTORE PUSH1 0x20 DUP2 KECCAK256 PUSH1 0x1F DUP6 ADD PUSH1 0x5 SHR DUP2 ADD PUSH1 0x20 DUP7 LT ISZERO PUSH3 0x512 JUMPI POP DUP1 JUMPDEST PUSH1 0x1F DUP6 ADD PUSH1 0x5 SHR DUP3 ADD SWAP2 POP JUMPDEST DUP2 DUP2 LT ISZERO PUSH3 0x533 JUMPI DUP3 DUP2 SSTORE PUSH1 0x1 ADD PUSH3 0x51E JUMP JUMPDEST POP POP POP JUMPDEST POP POP POP JUMP JUMPDEST DUP2 MLOAD PUSH1 0x1 PUSH1 0x1 PUSH1 0x40 SHL SUB DUP2 GT ISZERO PUSH3 0x558 JUMPI PUSH3 0x558 PUSH3 0x35E JUMP JUMPDEST PUSH3 0x570 DUP2 PUSH3 0x569 DUP5 SLOAD PUSH3 0x4AD JUMP JUMPDEST DUP5 PUSH3 0x4E9 JUMP JUMPDEST PUSH1 0x20 DUP1 PUSH1 0x1F DUP4 GT PUSH1 0x1 DUP2 EQ PUSH3 0x5A8 JUMPI PUSH1 0x0 DUP5 ISZERO PUSH3 0x58F JUMPI POP DUP6 DUP4 ADD MLOAD JUMPDEST PUSH1 0x0 NOT PUSH1 0x3 DUP7 SWAP1 SHL SHR NOT AND PUSH1 0x1 DUP6 SWAP1 SHL OR DUP6 SSTORE PUSH3 0x533 JUMP JUMPDEST PUSH1 0x0 DUP6 DUP2 MSTORE PUSH1 0x20 DUP2 KECCAK256 PUSH1 0x1F NOT DUP7 AND SWAP2 JUMPDEST DUP3 DUP2 LT ISZERO PUSH3 0x5D9 JUMPI DUP9 DUP7 ADD MLOAD DUP3 SSTORE SWAP5 DUP5 ADD SWAP5 PUSH1 0x1 SWAP1 SWAP2 ADD SWAP1 DUP5 ADD PUSH3 0x5B8 JUMP JUMPDEST POP DUP6 DUP3 LT ISZERO PUSH3 0x5F8 JUMPI DUP8 DUP6 ADD MLOAD PUSH1 0x0 NOT PUSH1 0x3 DUP9 SWAP1 SHL PUSH1 0xF8 AND SHR NOT AND DUP2 SSTORE JUMPDEST POP POP POP POP POP PUSH1 0x1 SWAP1 DUP2 SHL ADD SWAP1 SSTORE POP JUMP JUMPDEST DUP1 DUP3 ADD DUP1 DUP3 GT ISZERO PUSH3 0x62A JUMPI PUSH4 0x4E487B71 PUSH1 0xE0 SHL PUSH1 0x0 MSTORE PUSH1 0x11 PUSH1 0x4 MSTORE PUSH1 0x24 PUSH1 0x0 REVERT JUMPDEST SWAP3 SWAP2 POP POP JUMP JUMPDEST PUSH1 0x80 MLOAD PUSH1 0xA0 MLOAD PUSH1 0xC0 MLOAD PUSH1 0xE0 MLOAD PUSH2 0x2750 PUSH3 0x66A PUSH1 0x0 CODECOPY PUSH1 0x0 PUSH2 0xF9D ADD MSTORE PUSH1 0x0 PUSH2 0x75B ADD MSTORE PUSH1 0x0 PUSH2 0x785 ADD MSTORE PUSH1 0x0 PUSH2 0x7AF ADD MSTORE PUSH2 0x2750 PUSH1 0x0 RETURN INVALID PUSH1 0x80 PUSH1 0x40 MSTORE CALLVALUE DUP1 ISZERO PUSH2 0x10 JUMPI PUSH1 0x0 DUP1 REVERT JUMPDEST POP PUSH1 0x4 CALLDATASIZE LT PUSH2 0x1F0 JUMPI PUSH1 0x0 CALLDATALOAD PUSH1 0xE0 SHR DUP1 PUSH4 0x7ECEBE00 GT PUSH2 0x10F JUMPI DUP1 PUSH4 0xA457C2D7 GT PUSH2 0xA2 JUMPI DUP1 PUSH4 0xD505ACCF GT PUSH2 0x71 JUMPI DUP1 PUSH4 0xD505ACCF EQ PUSH2 0x47C JUMPI DUP1 PUSH4 0xD547741F EQ PUSH2 0x48F JUMPI DUP1 PUSH4 0xDD62ED3E EQ PUSH2 0x4A2 JUMPI DUP1 PUSH4 0xE8A3D485 EQ PUSH2 0x4DB JUMPI PUSH1 0x0 DUP1 REVERT JUMPDEST DUP1 PUSH4 0xA457C2D7 EQ PUSH2 0x423 JUMPI DUP1 PUSH4 0xA9059CBB EQ PUSH2 0x436 JUMPI DUP1 PUSH4 0xAC9650D8 EQ PUSH2 0x449 JUMPI DUP1 PUSH4 0xCA15C873 EQ PUSH2 0x469 JUMPI PUSH1 0x0 DUP1 REVERT JUMPDEST DUP1 PUSH4 0x938E3D7B GT PUSH2 0xDE JUMPI DUP1 PUSH4 0x938E3D7B EQ PUSH2 0x3ED JUMPI DUP1 PUSH4 0x95D89B41 EQ PUSH2 0x400 JUMPI DUP1 PUSH4 0xA217FDDF EQ PUSH2 0x408 JUMPI DUP1 PUSH4 0xA32FA5B3 EQ PUSH2 0x410 JUMPI PUSH1 0x0 DUP1 REVERT JUMPDEST DUP1 PUSH4 0x7ECEBE00 EQ PUSH2 0x369 JUMPI DUP1 PUSH4 0x8DA5CB5B EQ PUSH2 0x37C JUMPI DUP1 PUSH4 0x9010D07C EQ PUSH2 0x3A1 JUMPI DUP1 PUSH4 0x91D14854 EQ PUSH2 0x3B4 JUMPI PUSH1 0x0 DUP1 REVERT JUMPDEST DUP1 PUSH4 0x313CE567 GT PUSH2 0x187 JUMPI DUP1 PUSH4 0x42966C68 GT PUSH2 0x156 JUMPI DUP1 PUSH4 0x42966C68 EQ PUSH2 0x307 JUMPI DUP1 PUSH4 0x449A52F8 EQ PUSH2 0x31A JUMPI DUP1 PUSH4 0x70A08231 EQ PUSH2 0x32D JUMPI DUP1 PUSH4 0x79CC6790 EQ PUSH2 0x356 JUMPI PUSH1 0x0 DUP1 REVERT JUMPDEST DUP1 PUSH4 0x313CE567 EQ PUSH2 0x2CA JUMPI DUP1 PUSH4 0x3644E515 EQ PUSH2 0x2D9 JUMPI DUP1 PUSH4 0x36568ABE EQ PUSH2 0x2E1 JUMPI DUP1 PUSH4 0x39509351 EQ PUSH2 0x2F4 JUMPI PUSH1 0x0 DUP1 REVERT JUMPDEST DUP1 PUSH4 0x206B60F9 GT PUSH2 0x1C3 JUMPI DUP1 PUSH4 0x206B60F9 EQ PUSH2 0x25D JUMPI DUP1 PUSH4 0x23B872DD EQ PUSH2 0x284 JUMPI DUP1 PUSH4 0x248A9CA3 EQ PUSH2 0x297 JUMPI DUP1 PUSH4 0x2F2FF15D EQ PUSH2 0x2B7 JUMPI PUSH1 0x0 DUP1 REVERT JUMPDEST DUP1 PUSH4 0x6FDDE03 EQ PUSH2 0x1F5 JUMPI DUP1 PUSH4 0x95EA7B3 EQ PUSH2 0x213 JUMPI DUP1 PUSH4 0x13AF4035 EQ PUSH2 0x236 JUMPI DUP1 PUSH4 0x18160DDD EQ PUSH2 0x24B JUMPI JUMPDEST PUSH1 0x0 DUP1 REVERT JUMPDEST PUSH2 0x1FD PUSH2 0x4E3 JUMP JUMPDEST PUSH1 0x40 MLOAD PUSH2 0x20A SWAP2 SWAP1 PUSH2 0x2097 JUMP JUMPDEST PUSH1 0x40 MLOAD DUP1 SWAP2 SUB SWAP1 RETURN JUMPDEST PUSH2 0x226 PUSH2 0x221 CALLDATASIZE PUSH1 0x4 PUSH2 0x20C6 JUMP JUMPDEST PUSH2 0x575 JUMP JUMPDEST PUSH1 0x40 MLOAD SWAP1 ISZERO ISZERO DUP2 MSTORE PUSH1 0x20 ADD PUSH2 0x20A JUMP JUMPDEST PUSH2 0x249 PUSH2 0x244 CALLDATASIZE PUSH1 0x4 PUSH2 0x20F0 JUMP JUMPDEST PUSH2 0x58F JUMP JUMPDEST STOP JUMPDEST PUSH1 0x4 SLOAD JUMPDEST PUSH1 0x40 MLOAD SWAP1 DUP2 MSTORE PUSH1 0x20 ADD PUSH2 0x20A JUMP JUMPDEST PUSH2 0x24F PUSH32 0x8502233096D909BEFBDA0999BB8EA2F3A6BE3C138B9FBF003752A4C8BCE86F6C DUP2 JUMP JUMPDEST PUSH2 0x226 PUSH2 0x292 CALLDATASIZE PUSH1 0x4 PUSH2 0x210B JUMP JUMPDEST PUSH2 0x5E5 JUMP JUMPDEST PUSH2 0x24F PUSH2 0x2A5 CALLDATASIZE PUSH1 0x4 PUSH2 0x2147 JUMP JUMPDEST PUSH1 0x0 SWAP1 DUP2 MSTORE PUSH1 0x9 PUSH1 0x20 MSTORE PUSH1 0x40 SWAP1 KECCAK256 SLOAD SWAP1 JUMP JUMPDEST PUSH2 0x249 PUSH2 0x2C5 CALLDATASIZE PUSH1 0x4 PUSH2 0x2160 JUMP JUMPDEST PUSH2 0x6B4 JUMP JUMPDEST PUSH1 0x40 MLOAD PUSH1 0x12 DUP2 MSTORE PUSH1 0x20 ADD PUSH2 0x20A JUMP JUMPDEST PUSH2 0x24F PUSH2 0x74E JUMP JUMPDEST PUSH2 0x249 PUSH2 0x2EF CALLDATASIZE PUSH1 0x4 PUSH2 0x2160 JUMP JUMPDEST PUSH2 0x7DE JUMP JUMPDEST PUSH2 0x226 PUSH2 0x302 CALLDATASIZE PUSH1 0x4 PUSH2 0x20C6 JUMP JUMPDEST PUSH2 0x840 JUMP JUMPDEST PUSH2 0x249 PUSH2 0x315 CALLDATASIZE PUSH1 0x4 PUSH2 0x2147 JUMP JUMPDEST PUSH2 0x87A JUMP JUMPDEST PUSH2 0x249 PUSH2 0x328 CALLDATASIZE PUSH1 0x4 PUSH2 0x20C6 JUMP JUMPDEST PUSH2 0x8E3 JUMP JUMPDEST PUSH2 0x24F PUSH2 0x33B CALLDATASIZE PUSH1 0x4 PUSH2 0x20F0 JUMP JUMPDEST PUSH1 0x1 PUSH1 0x1 PUSH1 0xA0 SHL SUB AND PUSH1 0x0 SWAP1 DUP2 MSTORE PUSH1 0x2 PUSH1 0x20 MSTORE PUSH1 0x40 SWAP1 KECCAK256 SLOAD SWAP1 JUMP JUMPDEST PUSH2 0x249 PUSH2 0x364 CALLDATASIZE PUSH1 0x4 PUSH2 0x20C6 JUMP JUMPDEST PUSH2 0x991 JUMP JUMPDEST PUSH2 0x24F PUSH2 0x377 CALLDATASIZE PUSH1 0x4 PUSH2 0x20F0 JUMP JUMPDEST PUSH2 0xAAA JUMP JUMPDEST PUSH1 0x1 SLOAD PUSH1 0x1 PUSH1 0x1 PUSH1 0xA0 SHL SUB AND JUMPDEST PUSH1 0x40 MLOAD PUSH1 0x1 PUSH1 0x1 PUSH1 0xA0 SHL SUB SWAP1 SWAP2 AND DUP2 MSTORE PUSH1 0x20 ADD PUSH2 0x20A JUMP JUMPDEST PUSH2 0x389 PUSH2 0x3AF CALLDATASIZE PUSH1 0x4 PUSH2 0x218C JUMP JUMPDEST PUSH2 0xAC8 JUMP JUMPDEST PUSH2 0x226 PUSH2 0x3C2 CALLDATASIZE PUSH1 0x4 PUSH2 0x2160 JUMP JUMPDEST PUSH1 0x0 SWAP2 DUP3 MSTORE PUSH1 0x8 PUSH1 0x20 SWAP1 DUP2 MSTORE PUSH1 0x40 DUP1 DUP5 KECCAK256 PUSH1 0x1 PUSH1 0x1 PUSH1 0xA0 SHL SUB SWAP4 SWAP1 SWAP4 AND DUP5 MSTORE SWAP2 SWAP1 MSTORE SWAP1 KECCAK256 SLOAD PUSH1 0xFF AND SWAP1 JUMP JUMPDEST PUSH2 0x249 PUSH2 0x3FB CALLDATASIZE PUSH1 0x4 PUSH2 0x21C4 JUMP JUMPDEST PUSH2 0xBC8 JUMP JUMPDEST PUSH2 0x1FD PUSH2 0xC16 JUMP JUMPDEST PUSH2 0x24F PUSH1 0x0 DUP2 JUMP JUMPDEST PUSH2 0x226 PUSH2 0x41E CALLDATASIZE PUSH1 0x4 PUSH2 0x2160 JUMP JUMPDEST PUSH2 0xC25 JUMP JUMPDEST PUSH2 0x226 PUSH2 0x431 CALLDATASIZE PUSH1 0x4 PUSH2 0x20C6 JUMP JUMPDEST PUSH2 0xC7B JUMP JUMPDEST PUSH2 0x226 PUSH2 0x444 CALLDATASIZE PUSH1 0x4 PUSH2 0x20C6 JUMP JUMPDEST PUSH2 0xD30 JUMP JUMPDEST PUSH2 0x45C PUSH2 0x457 CALLDATASIZE PUSH1 0x4 PUSH2 0x2275 JUMP JUMPDEST PUSH2 0xDB9 JUMP JUMPDEST PUSH1 0x40 MLOAD PUSH2 0x20A SWAP2 SWAP1 PUSH2 0x22EA JUMP JUMPDEST PUSH2 0x24F PUSH2 0x477 CALLDATASIZE PUSH1 0x4 PUSH2 0x2147 JUMP JUMPDEST PUSH2 0xEAE JUMP JUMPDEST PUSH2 0x249 PUSH2 0x48A CALLDATASIZE PUSH1 0x4 PUSH2 0x234C JUMP JUMPDEST PUSH2 0xF49 JUMP JUMPDEST PUSH2 0x249 PUSH2 0x49D CALLDATASIZE PUSH1 0x4 PUSH2 0x2160 JUMP JUMPDEST PUSH2 0x10CF JUMP JUMPDEST PUSH2 0x24F PUSH2 0x4B0 CALLDATASIZE PUSH1 0x4 PUSH2 0x23BF JUMP JUMPDEST PUSH1 0x1 PUSH1 0x1 PUSH1 0xA0 SHL SUB SWAP2 DUP3 AND PUSH1 0x0 SWAP1 DUP2 MSTORE PUSH1 0x3 PUSH1 0x20 SWAP1 DUP2 MSTORE PUSH1 0x40 DUP1 DUP4 KECCAK256 SWAP4 SWAP1 SWAP5 AND DUP3 MSTORE SWAP2 SWAP1 SWAP2 MSTORE KECCAK256 SLOAD SWAP1 JUMP JUMPDEST PUSH2 0x1FD PUSH2 0x10E8 JUMP JUMPDEST PUSH1 0x60 PUSH1 0x5 DUP1 SLOAD PUSH2 0x4F2 SWAP1 PUSH2 0x23E9 JUMP JUMPDEST DUP1 PUSH1 0x1F ADD PUSH1 0x20 DUP1 SWAP2 DIV MUL PUSH1 0x20 ADD PUSH1 0x40 MLOAD SWAP1 DUP2 ADD PUSH1 0x40 MSTORE DUP1 SWAP3 SWAP2 SWAP1 DUP2 DUP2 MSTORE PUSH1 0x20 ADD DUP3 DUP1 SLOAD PUSH2 0x51E SWAP1 PUSH2 0x23E9 JUMP JUMPDEST DUP1 ISZERO PUSH2 0x56B JUMPI DUP1 PUSH1 0x1F LT PUSH2 0x540 JUMPI PUSH2 0x100 DUP1 DUP4 SLOAD DIV MUL DUP4 MSTORE SWAP2 PUSH1 0x20 ADD SWAP2 PUSH2 0x56B JUMP JUMPDEST DUP3 ADD SWAP2 SWAP1 PUSH1 0x0 MSTORE PUSH1 0x20 PUSH1 0x0 KECCAK256 SWAP1 JUMPDEST DUP2 SLOAD DUP2 MSTORE SWAP1 PUSH1 0x1 ADD SWAP1 PUSH1 0x20 ADD DUP1 DUP4 GT PUSH2 0x54E JUMPI DUP3 SWAP1 SUB PUSH1 0x1F AND DUP3 ADD SWAP2 JUMPDEST POP POP POP POP POP SWAP1 POP SWAP1 JUMP JUMPDEST PUSH1 0x0 CALLER PUSH2 0x583 DUP2 DUP6 DUP6 PUSH2 0x11D1 JUMP JUMPDEST PUSH1 0x1 SWAP2 POP POP JUMPDEST SWAP3 SWAP2 POP POP JUMP JUMPDEST PUSH2 0x597 PUSH2 0x12F5 JUMP JUMPDEST PUSH2 0x5D9 JUMPI PUSH1 0x40 MLOAD PUSH3 0x461BCD PUSH1 0xE5 SHL DUP2 MSTORE PUSH1 0x20 PUSH1 0x4 DUP3 ADD MSTORE PUSH1 0xE PUSH1 0x24 DUP3 ADD MSTORE PUSH14 0x139BDD08185D5D1A1BDC9A5E9959 PUSH1 0x92 SHL PUSH1 0x44 DUP3 ADD MSTORE PUSH1 0x64 ADD JUMPDEST PUSH1 0x40 MLOAD DUP1 SWAP2 SUB SWAP1 REVERT JUMPDEST PUSH2 0x5E2 DUP2 PUSH2 0x1322 JUMP JUMPDEST POP JUMP JUMPDEST CALLER PUSH1 0x0 SWAP1 DUP2 MSTORE PUSH32 0x85DA32AEA425A83BE1133C4E958580985FA04602DDF03AD35008A70703B20EB7 PUSH1 0x20 MSTORE PUSH1 0x40 DUP2 KECCAK256 SLOAD PUSH1 0xFF AND PUSH2 0x663 JUMPI PUSH1 0x40 MLOAD PUSH3 0x461BCD PUSH1 0xE5 SHL DUP2 MSTORE PUSH1 0x20 PUSH1 0x4 DUP3 ADD MSTORE PUSH1 0x1E PUSH1 0x24 DUP3 ADD MSTORE PUSH32 0x53656E646572206D7573742068617665205452414E534645525F524F4C450000 PUSH1 0x44 DUP3 ADD MSTORE PUSH1 0x64 ADD PUSH2 0x5D0 JUMP JUMPDEST PUSH2 0x66E DUP5 DUP5 DUP5 PUSH2 0x1381 JUMP JUMPDEST PUSH1 0x1 PUSH1 0x1 PUSH1 0xA0 SHL SUB DUP5 AND PUSH1 0x0 SWAP1 DUP2 MSTORE PUSH1 0x3 PUSH1 0x20 SWAP1 DUP2 MSTORE PUSH1 0x40 DUP1 DUP4 KECCAK256 CALLER DUP1 DUP6 MSTORE SWAP3 MSTORE SWAP1 SWAP2 KECCAK256 SLOAD PUSH2 0x6A9 SWAP2 DUP7 SWAP2 PUSH2 0x6A4 SWAP1 DUP7 SWAP1 PUSH2 0x2433 JUMP JUMPDEST PUSH2 0x11D1 JUMP JUMPDEST POP PUSH1 0x1 JUMPDEST SWAP4 SWAP3 POP POP POP JUMP JUMPDEST PUSH1 0x0 DUP3 DUP2 MSTORE PUSH1 0x9 PUSH1 0x20 MSTORE PUSH1 0x40 SWAP1 KECCAK256 SLOAD PUSH2 0x6CD SWAP1 CALLER PUSH2 0x157F JUMP JUMPDEST PUSH1 0x0 DUP3 DUP2 MSTORE PUSH1 0x8 PUSH1 0x20 SWAP1 DUP2 MSTORE PUSH1 0x40 DUP1 DUP4 KECCAK256 PUSH1 0x1 PUSH1 0x1 PUSH1 0xA0 SHL SUB DUP6 AND DUP5 MSTORE SWAP1 SWAP2 MSTORE SWAP1 KECCAK256 SLOAD PUSH1 0xFF AND ISZERO PUSH2 0x740 JUMPI PUSH1 0x40 MLOAD PUSH3 0x461BCD PUSH1 0xE5 SHL DUP2 MSTORE PUSH1 0x20 PUSH1 0x4 DUP3 ADD MSTORE PUSH1 0x1D PUSH1 0x24 DUP3 ADD MSTORE PUSH32 0x43616E206F6E6C79206772616E7420746F206E6F6E20686F6C64657273000000 PUSH1 0x44 DUP3 ADD MSTORE PUSH1 0x64 ADD PUSH2 0x5D0 JUMP JUMPDEST PUSH2 0x74A DUP3 DUP3 PUSH2 0x15FF JUMP JUMPDEST POP POP JUMP JUMPDEST PUSH1 0x0 ADDRESS PUSH1 0x1 PUSH1 0x1 PUSH1 0xA0 SHL SUB PUSH32 0x0 AND EQ DUP1 ISZERO PUSH2 0x7A7 JUMPI POP PUSH32 0x0 CHAINID EQ JUMPDEST ISZERO PUSH2 0x7D1 JUMPI POP PUSH32 0x0 SWAP1 JUMP JUMPDEST PUSH2 0x7D9 PUSH2 0x1613 JUMP JUMPDEST SWAP1 POP SWAP1 JUMP JUMPDEST CALLER PUSH1 0x1 PUSH1 0x1 PUSH1 0xA0 SHL SUB DUP3 AND EQ PUSH2 0x836 JUMPI PUSH1 0x40 MLOAD PUSH3 0x461BCD PUSH1 0xE5 SHL DUP2 MSTORE PUSH1 0x20 PUSH1 0x4 DUP3 ADD MSTORE PUSH1 0x1A PUSH1 0x24 DUP3 ADD MSTORE PUSH32 0x43616E206F6E6C792072656E6F756E636520666F722073656C66000000000000 PUSH1 0x44 DUP3 ADD MSTORE PUSH1 0x64 ADD PUSH2 0x5D0 JUMP JUMPDEST PUSH2 0x74A DUP3 DUP3 PUSH2 0x16A8 JUMP JUMPDEST CALLER PUSH1 0x0 DUP2 DUP2 MSTORE PUSH1 0x3 PUSH1 0x20 SWAP1 DUP2 MSTORE PUSH1 0x40 DUP1 DUP4 KECCAK256 PUSH1 0x1 PUSH1 0x1 PUSH1 0xA0 SHL SUB DUP8 AND DUP5 MSTORE SWAP1 SWAP2 MSTORE DUP2 KECCAK256 SLOAD SWAP1 SWAP2 SWAP1 PUSH2 0x583 SWAP1 DUP3 SWAP1 DUP7 SWAP1 PUSH2 0x6A4 SWAP1 DUP8 SWAP1 PUSH2 0x2446 JUMP JUMPDEST CALLER PUSH1 0x0 SWAP1 DUP2 MSTORE PUSH1 0x2 PUSH1 0x20 MSTORE PUSH1 0x40 SWAP1 KECCAK256 SLOAD DUP2 GT ISZERO PUSH2 0x8D9 JUMPI PUSH1 0x40 MLOAD PUSH3 0x461BCD PUSH1 0xE5 SHL DUP2 MSTORE PUSH1 0x20 PUSH1 0x4 DUP3 ADD MSTORE PUSH1 0x12 PUSH1 0x24 DUP3 ADD MSTORE PUSH32 0x6E6F7420656E6F7567682062616C616E63650000000000000000000000000000 PUSH1 0x44 DUP3 ADD MSTORE PUSH1 0x64 ADD PUSH2 0x5D0 JUMP JUMPDEST PUSH2 0x5E2 CALLER DUP3 PUSH2 0x170C JUMP JUMPDEST PUSH2 0x8EB PUSH2 0x12F5 JUMP JUMPDEST PUSH2 0x937 JUMPI PUSH1 0x40 MLOAD PUSH3 0x461BCD PUSH1 0xE5 SHL DUP2 MSTORE PUSH1 0x20 PUSH1 0x4 DUP3 ADD MSTORE PUSH1 0x17 PUSH1 0x24 DUP3 ADD MSTORE PUSH32 0x4E6F7420617574686F72697A656420746F206D696E742E000000000000000000 PUSH1 0x44 DUP3 ADD MSTORE PUSH1 0x64 ADD PUSH2 0x5D0 JUMP JUMPDEST DUP1 PUSH1 0x0 SUB PUSH2 0x987 JUMPI PUSH1 0x40 MLOAD PUSH3 0x461BCD PUSH1 0xE5 SHL DUP2 MSTORE PUSH1 0x20 PUSH1 0x4 DUP3 ADD MSTORE PUSH1 0x14 PUSH1 0x24 DUP3 ADD MSTORE PUSH32 0x4D696E74696E67207A65726F20746F6B656E732E000000000000000000000000 PUSH1 0x44 DUP3 ADD MSTORE PUSH1 0x64 ADD PUSH2 0x5D0 JUMP JUMPDEST PUSH2 0x74A DUP3 DUP3 PUSH2 0x185A JUMP JUMPDEST PUSH2 0x999 PUSH2 0x12F5 JUMP JUMPDEST PUSH2 0x9E5 JUMPI PUSH1 0x40 MLOAD PUSH3 0x461BCD PUSH1 0xE5 SHL DUP2 MSTORE PUSH1 0x20 PUSH1 0x4 DUP3 ADD MSTORE PUSH1 0x17 PUSH1 0x24 DUP3 ADD MSTORE PUSH32 0x4E6F7420617574686F72697A656420746F206275726E2E000000000000000000 PUSH1 0x44 DUP3 ADD MSTORE PUSH1 0x64 ADD PUSH2 0x5D0 JUMP JUMPDEST DUP1 PUSH2 0xA05 DUP4 PUSH1 0x1 PUSH1 0x1 PUSH1 0xA0 SHL SUB AND PUSH1 0x0 SWAP1 DUP2 MSTORE PUSH1 0x2 PUSH1 0x20 MSTORE PUSH1 0x40 SWAP1 KECCAK256 SLOAD SWAP1 JUMP JUMPDEST LT ISZERO PUSH2 0xA53 JUMPI PUSH1 0x40 MLOAD PUSH3 0x461BCD PUSH1 0xE5 SHL DUP2 MSTORE PUSH1 0x20 PUSH1 0x4 DUP3 ADD MSTORE PUSH1 0x12 PUSH1 0x24 DUP3 ADD MSTORE PUSH32 0x6E6F7420656E6F7567682062616C616E63650000000000000000000000000000 PUSH1 0x44 DUP3 ADD MSTORE PUSH1 0x64 ADD PUSH2 0x5D0 JUMP JUMPDEST PUSH1 0x1 PUSH1 0x1 PUSH1 0xA0 SHL SUB DUP3 AND PUSH1 0x0 SWAP1 DUP2 MSTORE PUSH1 0x3 PUSH1 0x20 SWAP1 DUP2 MSTORE PUSH1 0x40 DUP1 DUP4 KECCAK256 CALLER DUP5 MSTORE SWAP1 SWAP2 MSTORE DUP2 KECCAK256 SLOAD PUSH2 0xA82 SWAP1 DUP4 SWAP1 PUSH2 0x2433 JUMP JUMPDEST SWAP1 POP PUSH2 0xA90 DUP4 CALLER PUSH1 0x0 PUSH2 0x11D1 JUMP JUMPDEST PUSH2 0xA9B DUP4 CALLER DUP4 PUSH2 0x11D1 JUMP JUMPDEST PUSH2 0xAA5 DUP4 DUP4 PUSH2 0x170C JUMP JUMPDEST POP POP POP JUMP JUMPDEST PUSH1 0x1 PUSH1 0x1 PUSH1 0xA0 SHL SUB DUP2 AND PUSH1 0x0 SWAP1 DUP2 MSTORE PUSH1 0x7 PUSH1 0x20 MSTORE PUSH1 0x40 DUP2 KECCAK256 SLOAD PUSH2 0x589 JUMP JUMPDEST PUSH1 0x0 DUP3 DUP2 MSTORE PUSH1 0xA PUSH1 0x20 MSTORE PUSH1 0x40 DUP2 KECCAK256 SLOAD DUP2 DUP1 JUMPDEST DUP3 DUP2 LT ISZERO PUSH2 0xBBF JUMPI PUSH1 0x0 DUP7 DUP2 MSTORE PUSH1 0xA PUSH1 0x20 SWAP1 DUP2 MSTORE PUSH1 0x40 DUP1 DUP4 KECCAK256 DUP5 DUP5 MSTORE PUSH1 0x1 ADD SWAP1 SWAP2 MSTORE SWAP1 KECCAK256 SLOAD PUSH1 0x1 PUSH1 0x1 PUSH1 0xA0 SHL SUB AND ISZERO PUSH2 0xB56 JUMPI DUP5 DUP3 SUB PUSH2 0xB44 JUMPI PUSH1 0x0 DUP7 DUP2 MSTORE PUSH1 0xA PUSH1 0x20 SWAP1 DUP2 MSTORE PUSH1 0x40 DUP1 DUP4 KECCAK256 SWAP4 DUP4 MSTORE PUSH1 0x1 SWAP1 SWAP4 ADD SWAP1 MSTORE KECCAK256 SLOAD PUSH1 0x1 PUSH1 0x1 PUSH1 0xA0 SHL SUB AND SWAP3 POP PUSH2 0x589 SWAP2 POP POP JUMP JUMPDEST PUSH2 0xB4F PUSH1 0x1 DUP4 PUSH2 0x2446 JUMP JUMPDEST SWAP2 POP PUSH2 0xBAD JUMP JUMPDEST PUSH1 0x0 DUP7 DUP2 MSTORE PUSH1 0x8 PUSH1 0x20 SWAP1 DUP2 MSTORE PUSH1 0x40 DUP1 DUP4 KECCAK256 DUP4 DUP1 MSTORE SWAP1 SWAP2 MSTORE SWAP1 KECCAK256 SLOAD PUSH1 0xFF AND DUP1 ISZERO PUSH2 0xB9A JUMPI POP PUSH1 0x0 DUP7 DUP2 MSTORE PUSH1 0xA PUSH1 0x20 SWAP1 DUP2 MSTORE PUSH1 0x40 DUP1 DUP4 KECCAK256 DUP4 DUP1 MSTORE PUSH1 0x2 ADD SWAP1 SWAP2 MSTORE SWAP1 KECCAK256 SLOAD DUP2 EQ JUMPDEST ISZERO PUSH2 0xBAD JUMPI PUSH2 0xBAA PUSH1 0x1 DUP4 PUSH2 0x2446 JUMP JUMPDEST SWAP2 POP JUMPDEST PUSH2 0xBB8 PUSH1 0x1 DUP3 PUSH2 0x2446 JUMP JUMPDEST SWAP1 POP PUSH2 0xADA JUMP JUMPDEST POP POP POP SWAP3 SWAP2 POP POP JUMP JUMPDEST PUSH2 0xBD0 PUSH2 0x12F5 JUMP JUMPDEST PUSH2 0xC0D JUMPI PUSH1 0x40 MLOAD PUSH3 0x461BCD PUSH1 0xE5 SHL DUP2 MSTORE PUSH1 0x20 PUSH1 0x4 DUP3 ADD MSTORE PUSH1 0xE PUSH1 0x24 DUP3 ADD MSTORE PUSH14 0x139BDD08185D5D1A1BDC9A5E9959 PUSH1 0x92 SHL PUSH1 0x44 DUP3 ADD MSTORE PUSH1 0x64 ADD PUSH2 0x5D0 JUMP JUMPDEST PUSH2 0x5E2 DUP2 PUSH2 0x1939 JUMP JUMPDEST PUSH1 0x60 PUSH1 0x6 DUP1 SLOAD PUSH2 0x4F2 SWAP1 PUSH2 0x23E9 JUMP JUMPDEST PUSH1 0x0 DUP3 DUP2 MSTORE PUSH1 0x8 PUSH1 0x20 SWAP1 DUP2 MSTORE PUSH1 0x40 DUP1 DUP4 KECCAK256 DUP4 DUP1 MSTORE SWAP1 SWAP2 MSTORE DUP2 KECCAK256 SLOAD PUSH1 0xFF AND PUSH2 0xC72 JUMPI POP PUSH1 0x0 DUP3 DUP2 MSTORE PUSH1 0x8 PUSH1 0x20 SWAP1 DUP2 MSTORE PUSH1 0x40 DUP1 DUP4 KECCAK256 PUSH1 0x1 PUSH1 0x1 PUSH1 0xA0 SHL SUB DUP6 AND DUP5 MSTORE SWAP1 SWAP2 MSTORE SWAP1 KECCAK256 SLOAD PUSH1 0xFF AND PUSH2 0x589 JUMP JUMPDEST POP PUSH1 0x1 SWAP3 SWAP2 POP POP JUMP JUMPDEST CALLER PUSH1 0x0 DUP2 DUP2 MSTORE PUSH1 0x3 PUSH1 0x20 SWAP1 DUP2 MSTORE PUSH1 0x40 DUP1 DUP4 KECCAK256 PUSH1 0x1 PUSH1 0x1 PUSH1 0xA0 SHL SUB DUP8 AND DUP5 MSTORE SWAP1 SWAP2 MSTORE DUP2 KECCAK256 SLOAD SWAP1 SWAP2 SWAP1 DUP4 DUP2 LT ISZERO PUSH2 0xD18 JUMPI PUSH1 0x40 MLOAD PUSH3 0x461BCD PUSH1 0xE5 SHL DUP2 MSTORE PUSH1 0x20 PUSH1 0x4 DUP3 ADD MSTORE PUSH1 0x25 PUSH1 0x24 DUP3 ADD MSTORE PUSH32 0x45524332303A2064656372656173656420616C6C6F77616E63652062656C6F77 PUSH1 0x44 DUP3 ADD MSTORE PUSH32 0x207A65726F000000000000000000000000000000000000000000000000000000 PUSH1 0x64 DUP3 ADD MSTORE PUSH1 0x84 ADD PUSH2 0x5D0 JUMP JUMPDEST PUSH2 0xD25 DUP3 DUP7 DUP7 DUP5 SUB PUSH2 0x11D1 JUMP JUMPDEST POP PUSH1 0x1 SWAP5 SWAP4 POP POP POP POP JUMP JUMPDEST CALLER PUSH1 0x0 SWAP1 DUP2 MSTORE PUSH32 0x85DA32AEA425A83BE1133C4E958580985FA04602DDF03AD35008A70703B20EB7 PUSH1 0x20 MSTORE PUSH1 0x40 DUP2 KECCAK256 SLOAD PUSH1 0xFF AND PUSH2 0xDAE JUMPI PUSH1 0x40 MLOAD PUSH3 0x461BCD PUSH1 0xE5 SHL DUP2 MSTORE PUSH1 0x20 PUSH1 0x4 DUP3 ADD MSTORE PUSH1 0x1E PUSH1 0x24 DUP3 ADD MSTORE PUSH32 0x53656E646572206D7573742068617665205452414E534645525F524F4C450000 PUSH1 0x44 DUP3 ADD MSTORE PUSH1 0x64 ADD PUSH2 0x5D0 JUMP JUMPDEST PUSH2 0xC72 CALLER DUP5 DUP5 PUSH2 0x1381 JUMP JUMPDEST PUSH1 0x60 DUP2 PUSH8 0xFFFFFFFFFFFFFFFF DUP2 GT ISZERO PUSH2 0xDD4 JUMPI PUSH2 0xDD4 PUSH2 0x21AE JUMP JUMPDEST PUSH1 0x40 MLOAD SWAP1 DUP1 DUP3 MSTORE DUP1 PUSH1 0x20 MUL PUSH1 0x20 ADD DUP3 ADD PUSH1 0x40 MSTORE DUP1 ISZERO PUSH2 0xE07 JUMPI DUP2 PUSH1 0x20 ADD JUMPDEST PUSH1 0x60 DUP2 MSTORE PUSH1 0x20 ADD SWAP1 PUSH1 0x1 SWAP1 SUB SWAP1 DUP2 PUSH2 0xDF2 JUMPI SWAP1 POP JUMPDEST POP SWAP1 POP PUSH1 0x0 JUMPDEST DUP3 DUP2 LT ISZERO PUSH2 0xEA7 JUMPI PUSH2 0xE77 ADDRESS DUP6 DUP6 DUP5 DUP2 DUP2 LT PUSH2 0xE2B JUMPI PUSH2 0xE2B PUSH2 0x2459 JUMP JUMPDEST SWAP1 POP PUSH1 0x20 MUL DUP2 ADD SWAP1 PUSH2 0xE3D SWAP2 SWAP1 PUSH2 0x246F JUMP JUMPDEST DUP1 DUP1 PUSH1 0x1F ADD PUSH1 0x20 DUP1 SWAP2 DIV MUL PUSH1 0x20 ADD PUSH1 0x40 MLOAD SWAP1 DUP2 ADD PUSH1 0x40 MSTORE DUP1 SWAP4 SWAP3 SWAP2 SWAP1 DUP2 DUP2 MSTORE PUSH1 0x20 ADD DUP4 DUP4 DUP1 DUP3 DUP5 CALLDATACOPY PUSH1 0x0 SWAP3 ADD SWAP2 SWAP1 SWAP2 MSTORE POP PUSH2 0x1A14 SWAP3 POP POP POP JUMP JUMPDEST DUP3 DUP3 DUP2 MLOAD DUP2 LT PUSH2 0xE89 JUMPI PUSH2 0xE89 PUSH2 0x2459 JUMP JUMPDEST PUSH1 0x20 MUL PUSH1 0x20 ADD ADD DUP2 SWAP1 MSTORE POP DUP1 DUP1 PUSH2 0xE9F SWAP1 PUSH2 0x24BD JUMP JUMPDEST SWAP2 POP POP PUSH2 0xE0D JUMP JUMPDEST POP SWAP3 SWAP2 POP POP JUMP JUMPDEST PUSH1 0x0 DUP2 DUP2 MSTORE PUSH1 0xA PUSH1 0x20 MSTORE PUSH1 0x40 DUP2 KECCAK256 SLOAD DUP2 JUMPDEST DUP2 DUP2 LT ISZERO PUSH2 0xF12 JUMPI PUSH1 0x0 DUP5 DUP2 MSTORE PUSH1 0xA PUSH1 0x20 SWAP1 DUP2 MSTORE PUSH1 0x40 DUP1 DUP4 KECCAK256 DUP5 DUP5 MSTORE PUSH1 0x1 ADD SWAP1 SWAP2 MSTORE SWAP1 KECCAK256 SLOAD PUSH1 0x1 PUSH1 0x1 PUSH1 0xA0 SHL SUB AND ISZERO PUSH2 0xF00 JUMPI PUSH2 0xEFD PUSH1 0x1 DUP5 PUSH2 0x2446 JUMP JUMPDEST SWAP3 POP JUMPDEST PUSH2 0xF0B PUSH1 0x1 DUP3 PUSH2 0x2446 JUMP JUMPDEST SWAP1 POP PUSH2 0xEBF JUMP JUMPDEST POP PUSH1 0x0 DUP4 DUP2 MSTORE PUSH1 0x8 PUSH1 0x20 SWAP1 DUP2 MSTORE PUSH1 0x40 DUP1 DUP4 KECCAK256 DUP4 DUP1 MSTORE SWAP1 SWAP2 MSTORE SWAP1 KECCAK256 SLOAD PUSH1 0xFF AND ISZERO PUSH2 0xF43 JUMPI PUSH2 0xF40 PUSH1 0x1 DUP4 PUSH2 0x2446 JUMP JUMPDEST SWAP2 POP JUMPDEST POP SWAP2 SWAP1 POP JUMP JUMPDEST DUP4 TIMESTAMP GT ISZERO PUSH2 0xF99 JUMPI PUSH1 0x40 MLOAD PUSH3 0x461BCD PUSH1 0xE5 SHL DUP2 MSTORE PUSH1 0x20 PUSH1 0x4 DUP3 ADD MSTORE PUSH1 0x1D PUSH1 0x24 DUP3 ADD MSTORE PUSH32 0x45524332305065726D69743A206578706972656420646561646C696E65000000 PUSH1 0x44 DUP3 ADD MSTORE PUSH1 0x64 ADD PUSH2 0x5D0 JUMP JUMPDEST PUSH1 0x0 PUSH32 0x0 DUP9 DUP9 DUP9 PUSH2 0xFC8 DUP13 PUSH2 0x1A39 JUMP JUMPDEST PUSH1 0x40 DUP1 MLOAD PUSH1 0x20 DUP2 ADD SWAP7 SWAP1 SWAP7 MSTORE PUSH1 0x1 PUSH1 0x1 PUSH1 0xA0 SHL SUB SWAP5 DUP6 AND SWAP1 DUP7 ADD MSTORE SWAP3 SWAP1 SWAP2 AND PUSH1 0x60 DUP5 ADD MSTORE PUSH1 0x80 DUP4 ADD MSTORE PUSH1 0xA0 DUP3 ADD MSTORE PUSH1 0xC0 DUP2 ADD DUP7 SWAP1 MSTORE PUSH1 0xE0 ADD PUSH1 0x40 MLOAD PUSH1 0x20 DUP2 DUP4 SUB SUB DUP2 MSTORE SWAP1 PUSH1 0x40 MSTORE DUP1 MLOAD SWAP1 PUSH1 0x20 ADD KECCAK256 SWAP1 POP PUSH1 0x0 PUSH2 0x1045 PUSH2 0x1025 PUSH2 0x74E JUMP JUMPDEST DUP4 PUSH1 0x40 MLOAD PUSH2 0x1901 PUSH1 0xF0 SHL DUP2 MSTORE PUSH1 0x2 DUP2 ADD SWAP3 SWAP1 SWAP3 MSTORE PUSH1 0x22 DUP3 ADD MSTORE PUSH1 0x42 SWAP1 KECCAK256 SWAP1 JUMP JUMPDEST SWAP1 POP PUSH1 0x0 PUSH2 0x1055 DUP3 DUP8 DUP8 DUP8 PUSH2 0x1A5F JUMP JUMPDEST SWAP1 POP DUP10 PUSH1 0x1 PUSH1 0x1 PUSH1 0xA0 SHL SUB AND DUP2 PUSH1 0x1 PUSH1 0x1 PUSH1 0xA0 SHL SUB AND EQ PUSH2 0x10B8 JUMPI PUSH1 0x40 MLOAD PUSH3 0x461BCD PUSH1 0xE5 SHL DUP2 MSTORE PUSH1 0x20 PUSH1 0x4 DUP3 ADD MSTORE PUSH1 0x1E PUSH1 0x24 DUP3 ADD MSTORE PUSH32 0x45524332305065726D69743A20696E76616C6964207369676E61747572650000 PUSH1 0x44 DUP3 ADD MSTORE PUSH1 0x64 ADD PUSH2 0x5D0 JUMP JUMPDEST PUSH2 0x10C3 DUP11 DUP11 DUP11 PUSH2 0x11D1 JUMP JUMPDEST POP POP POP POP POP POP POP POP POP POP JUMP JUMPDEST PUSH1 0x0 DUP3 DUP2 MSTORE PUSH1 0x9 PUSH1 0x20 MSTORE PUSH1 0x40 SWAP1 KECCAK256 SLOAD PUSH2 0x836 SWAP1 CALLER PUSH2 0x157F JUMP JUMPDEST PUSH1 0x0 DUP1 SLOAD PUSH2 0x10F5 SWAP1 PUSH2 0x23E9 JUMP JUMPDEST DUP1 PUSH1 0x1F ADD PUSH1 0x20 DUP1 SWAP2 DIV MUL PUSH1 0x20 ADD PUSH1 0x40 MLOAD SWAP1 DUP2 ADD PUSH1 0x40 MSTORE DUP1 SWAP3 SWAP2 SWAP1 DUP2 DUP2 MSTORE PUSH1 0x20 ADD DUP3 DUP1 SLOAD PUSH2 0x1121 SWAP1 PUSH2 0x23E9 JUMP JUMPDEST DUP1 ISZERO PUSH2 0x116E JUMPI DUP1 PUSH1 0x1F LT PUSH2 0x1143 JUMPI PUSH2 0x100 DUP1 DUP4 SLOAD DIV MUL DUP4 MSTORE SWAP2 PUSH1 0x20 ADD SWAP2 PUSH2 0x116E JUMP JUMPDEST DUP3 ADD SWAP2 SWAP1 PUSH1 0x0 MSTORE PUSH1 0x20 PUSH1 0x0 KECCAK256 SWAP1 JUMPDEST DUP2 SLOAD DUP2 MSTORE SWAP1 PUSH1 0x1 ADD SWAP1 PUSH1 0x20 ADD DUP1 DUP4 GT PUSH2 0x1151 JUMPI DUP3 SWAP1 SUB PUSH1 0x1F AND DUP3 ADD SWAP2 JUMPDEST POP POP POP POP POP DUP2 JUMP JUMPDEST PUSH1 0x0 DUP3 DUP2 MSTORE PUSH1 0x8 PUSH1 0x20 SWAP1 DUP2 MSTORE PUSH1 0x40 DUP1 DUP4 KECCAK256 PUSH1 0x1 PUSH1 0x1 PUSH1 0xA0 SHL SUB DUP6 AND DUP1 DUP6 MSTORE SWAP3 MSTORE DUP1 DUP4 KECCAK256 DUP1 SLOAD PUSH1 0xFF NOT AND PUSH1 0x1 OR SWAP1 SSTORE MLOAD CALLER SWAP3 DUP6 SWAP2 PUSH32 0x2F8788117E7EFF1D82E926EC794901D17C78024A50270940304540A733656F0D SWAP2 SWAP1 LOG4 POP POP JUMP JUMPDEST PUSH1 0x1 PUSH1 0x1 PUSH1 0xA0 SHL SUB DUP4 AND PUSH2 0x1233 JUMPI PUSH1 0x40 MLOAD PUSH3 0x461BCD PUSH1 0xE5 SHL DUP2 MSTORE PUSH1 0x20 PUSH1 0x4 DUP3 ADD MSTORE PUSH1 0x24 DUP1 DUP3 ADD MSTORE PUSH32 0x45524332303A20617070726F76652066726F6D20746865207A65726F20616464 PUSH1 0x44 DUP3 ADD MSTORE PUSH4 0x72657373 PUSH1 0xE0 SHL PUSH1 0x64 DUP3 ADD MSTORE PUSH1 0x84 ADD PUSH2 0x5D0 JUMP JUMPDEST PUSH1 0x1 PUSH1 0x1 PUSH1 0xA0 SHL SUB DUP3 AND PUSH2 0x1294 JUMPI PUSH1 0x40 MLOAD PUSH3 0x461BCD PUSH1 0xE5 SHL DUP2 MSTORE PUSH1 0x20 PUSH1 0x4 DUP3 ADD MSTORE PUSH1 0x22 PUSH1 0x24 DUP3 ADD MSTORE PUSH32 0x45524332303A20617070726F766520746F20746865207A65726F206164647265 PUSH1 0x44 DUP3 ADD MSTORE PUSH2 0x7373 PUSH1 0xF0 SHL PUSH1 0x64 DUP3 ADD MSTORE PUSH1 0x84 ADD PUSH2 0x5D0 JUMP JUMPDEST PUSH1 0x1 PUSH1 0x1 PUSH1 0xA0 SHL SUB DUP4 DUP2 AND PUSH1 0x0 DUP2 DUP2 MSTORE PUSH1 0x3 PUSH1 0x20 SWAP1 DUP2 MSTORE PUSH1 0x40 DUP1 DUP4 KECCAK256 SWAP5 DUP8 AND DUP1 DUP5 MSTORE SWAP5 DUP3 MSTORE SWAP2 DUP3 SWAP1 KECCAK256 DUP6 SWAP1 SSTORE SWAP1 MLOAD DUP5 DUP2 MSTORE PUSH32 0x8C5BE1E5EBEC7D5BD14F71427D1E84F3DD0314C0F7B2291E5B200AC8C7C3B925 SWAP2 ADD PUSH1 0x40 MLOAD DUP1 SWAP2 SUB SWAP1 LOG3 POP POP POP JUMP JUMPDEST PUSH1 0x0 PUSH2 0x1309 PUSH1 0x1 SLOAD PUSH1 0x1 PUSH1 0x1 PUSH1 0xA0 SHL SUB AND SWAP1 JUMP JUMPDEST PUSH1 0x1 PUSH1 0x1 PUSH1 0xA0 SHL SUB AND CALLER PUSH1 0x1 PUSH1 0x1 PUSH1 0xA0 SHL SUB AND EQ SWAP1 POP SWAP1 JUMP JUMPDEST PUSH1 0x1 DUP1 SLOAD PUSH1 0x1 PUSH1 0x1 PUSH1 0xA0 SHL SUB DUP4 DUP2 AND PUSH20 0xFFFFFFFFFFFFFFFFFFFFFFFFFFFFFFFFFFFFFFFF NOT DUP4 AND DUP2 OR SWAP1 SWAP4 SSTORE PUSH1 0x40 MLOAD SWAP2 AND SWAP2 SWAP1 DUP3 SWAP1 PUSH32 0x8292FCE18FA69EDF4DB7B94EA2E58241DF0AE57F97E0A6C9B29067028BF92D76 SWAP1 PUSH1 0x0 SWAP1 LOG3 POP POP JUMP JUMPDEST PUSH1 0x1 PUSH1 0x1 PUSH1 0xA0 SHL SUB DUP4 AND PUSH2 0x13FD JUMPI PUSH1 0x40 MLOAD PUSH3 0x461BCD PUSH1 0xE5 SHL DUP2 MSTORE PUSH1 0x20 PUSH1 0x4 DUP3 ADD MSTORE PUSH1 0x25 PUSH1 0x24 DUP3 ADD MSTORE PUSH32 0x45524332303A207472616E736665722066726F6D20746865207A65726F206164 PUSH1 0x44 DUP3 ADD MSTORE PUSH32 0x6472657373000000000000000000000000000000000000000000000000000000 PUSH1 0x64 DUP3 ADD MSTORE PUSH1 0x84 ADD PUSH2 0x5D0 JUMP JUMPDEST PUSH1 0x1 PUSH1 0x1 PUSH1 0xA0 SHL SUB DUP3 AND PUSH2 0x145F JUMPI PUSH1 0x40 MLOAD PUSH3 0x461BCD PUSH1 0xE5 SHL DUP2 MSTORE PUSH1 0x20 PUSH1 0x4 DUP3 ADD MSTORE PUSH1 0x23 PUSH1 0x24 DUP3 ADD MSTORE PUSH32 0x45524332303A207472616E7366657220746F20746865207A65726F2061646472 PUSH1 0x44 DUP3 ADD MSTORE PUSH3 0x657373 PUSH1 0xE8 SHL PUSH1 0x64 DUP3 ADD MSTORE PUSH1 0x84 ADD PUSH2 0x5D0 JUMP JUMPDEST PUSH1 0x1 PUSH1 0x1 PUSH1 0xA0 SHL SUB DUP4 AND PUSH1 0x0 SWAP1 DUP2 MSTORE PUSH1 0x2 PUSH1 0x20 MSTORE PUSH1 0x40 SWAP1 KECCAK256 SLOAD DUP2 DUP2 LT ISZERO PUSH2 0x14EE JUMPI PUSH1 0x40 MLOAD PUSH3 0x461BCD PUSH1 0xE5 SHL DUP2 MSTORE PUSH1 0x20 PUSH1 0x4 DUP3 ADD MSTORE PUSH1 0x26 PUSH1 0x24 DUP3 ADD MSTORE PUSH32 0x45524332303A207472616E7366657220616D6F756E7420657863656564732062 PUSH1 0x44 DUP3 ADD MSTORE PUSH32 0x616C616E63650000000000000000000000000000000000000000000000000000 PUSH1 0x64 DUP3 ADD MSTORE PUSH1 0x84 ADD PUSH2 0x5D0 JUMP JUMPDEST PUSH1 0x1 PUSH1 0x1 PUSH1 0xA0 SHL SUB DUP1 DUP6 AND PUSH1 0x0 SWAP1 DUP2 MSTORE PUSH1 0x2 PUSH1 0x20 MSTORE PUSH1 0x40 DUP1 DUP3 KECCAK256 DUP6 DUP6 SUB SWAP1 SSTORE SWAP2 DUP6 AND DUP2 MSTORE SWAP1 DUP2 KECCAK256 DUP1 SLOAD DUP5 SWAP3 SWAP1 PUSH2 0x1525 SWAP1 DUP5 SWAP1 PUSH2 0x2446 JUMP JUMPDEST SWAP3 POP POP DUP2 SWAP1 SSTORE POP DUP3 PUSH1 0x1 PUSH1 0x1 PUSH1 0xA0 SHL SUB AND DUP5 PUSH1 0x1 PUSH1 0x1 PUSH1 0xA0 SHL SUB AND PUSH32 0xDDF252AD1BE2C89B69C2B068FC378DAA952BA7F163C4A11628F55A4DF523B3EF DUP5 PUSH1 0x40 MLOAD PUSH2 0x1571 SWAP2 DUP2 MSTORE PUSH1 0x20 ADD SWAP1 JUMP JUMPDEST PUSH1 0x40 MLOAD DUP1 SWAP2 SUB SWAP1 LOG3 POP POP POP POP JUMP JUMPDEST PUSH1 0x0 DUP3 DUP2 MSTORE PUSH1 0x8 PUSH1 0x20 SWAP1 DUP2 MSTORE PUSH1 0x40 DUP1 DUP4 KECCAK256 PUSH1 0x1 PUSH1 0x1 PUSH1 0xA0 SHL SUB DUP6 AND DUP5 MSTORE SWAP1 SWAP2 MSTORE SWAP1 KECCAK256 SLOAD PUSH1 0xFF AND PUSH2 0x74A JUMPI PUSH2 0x15BD DUP2 PUSH1 0x1 PUSH1 0x1 PUSH1 0xA0 SHL SUB AND PUSH1 0x14 PUSH2 0x1A87 JUMP JUMPDEST PUSH2 0x15C8 DUP4 PUSH1 0x20 PUSH2 0x1A87 JUMP JUMPDEST PUSH1 0x40 MLOAD PUSH1 0x20 ADD PUSH2 0x15D9 SWAP3 SWAP2 SWAP1 PUSH2 0x24D6 JUMP JUMPDEST PUSH1 0x40 DUP1 MLOAD PUSH1 0x1F NOT DUP2 DUP5 SUB ADD DUP2 MSTORE SWAP1 DUP3 SWAP1 MSTORE PUSH3 0x461BCD PUSH1 0xE5 SHL DUP3 MSTORE PUSH2 0x5D0 SWAP2 PUSH1 0x4 ADD PUSH2 0x2097 JUMP JUMPDEST PUSH2 0x1609 DUP3 DUP3 PUSH2 0x1176 JUMP JUMPDEST PUSH2 0x74A DUP3 DUP3 PUSH2 0x1C30 JUMP JUMPDEST PUSH1 0x0 PUSH32 0x8B73C3C69BB8FE3D512ECC4CF759CC79239F7B179B0FFACAA9A75D522B39400F PUSH2 0x163E PUSH2 0x4E3 JUMP JUMPDEST DUP1 MLOAD PUSH1 0x20 SWAP2 DUP3 ADD KECCAK256 PUSH1 0x40 DUP1 MLOAD SWAP3 DUP4 ADD SWAP4 SWAP1 SWAP4 MSTORE SWAP2 DUP2 ADD SWAP2 SWAP1 SWAP2 MSTORE PUSH32 0xC89EFDAA54C0F20C7ADF612882DF0950F5A951637E0307CDCB4C672F298B8BC6 PUSH1 0x60 DUP3 ADD MSTORE CHAINID PUSH1 0x80 DUP3 ADD MSTORE ADDRESS PUSH1 0xA0 DUP3 ADD MSTORE PUSH1 0xC0 ADD PUSH1 0x40 MLOAD PUSH1 0x20 DUP2 DUP4 SUB SUB DUP2 MSTORE SWAP1 PUSH1 0x40 MSTORE DUP1 MLOAD SWAP1 PUSH1 0x20 ADD KECCAK256 SWAP1 POP SWAP1 JUMP JUMPDEST PUSH2 0x16B2 DUP3 DUP3 PUSH2 0x1CAA JUMP JUMPDEST PUSH1 0x0 DUP3 DUP2 MSTORE PUSH1 0xA PUSH1 0x20 SWAP1 DUP2 MSTORE PUSH1 0x40 DUP1 DUP4 KECCAK256 PUSH1 0x1 PUSH1 0x1 PUSH1 0xA0 SHL SUB DUP6 AND DUP1 DUP6 MSTORE PUSH1 0x2 DUP3 ADD DUP1 DUP6 MSTORE DUP4 DUP7 KECCAK256 DUP1 SLOAD DUP8 MSTORE PUSH1 0x1 SWAP1 SWAP4 ADD DUP6 MSTORE SWAP3 DUP6 KECCAK256 DUP1 SLOAD PUSH20 0xFFFFFFFFFFFFFFFFFFFFFFFFFFFFFFFFFFFFFFFF NOT AND SWAP1 SSTORE DUP5 MSTORE SWAP2 MSTORE SSTORE POP POP JUMP JUMPDEST PUSH1 0x1 PUSH1 0x1 PUSH1 0xA0 SHL SUB DUP3 AND PUSH2 0x176C JUMPI PUSH1 0x40 MLOAD PUSH3 0x461BCD PUSH1 0xE5 SHL DUP2 MSTORE PUSH1 0x20 PUSH1 0x4 DUP3 ADD MSTORE PUSH1 0x21 PUSH1 0x24 DUP3 ADD MSTORE PUSH32 0x45524332303A206275726E2066726F6D20746865207A65726F20616464726573 PUSH1 0x44 DUP3 ADD MSTORE PUSH1 0x73 PUSH1 0xF8 SHL PUSH1 0x64 DUP3 ADD MSTORE PUSH1 0x84 ADD PUSH2 0x5D0 JUMP JUMPDEST PUSH1 0x1 PUSH1 0x1 PUSH1 0xA0 SHL SUB DUP3 AND PUSH1 0x0 SWAP1 DUP2 MSTORE PUSH1 0x2 PUSH1 0x20 MSTORE PUSH1 0x40 SWAP1 KECCAK256 SLOAD DUP2 DUP2 LT ISZERO PUSH2 0x17E0 JUMPI PUSH1 0x40 MLOAD PUSH3 0x461BCD PUSH1 0xE5 SHL DUP2 MSTORE PUSH1 0x20 PUSH1 0x4 DUP3 ADD MSTORE PUSH1 0x22 PUSH1 0x24 DUP3 ADD MSTORE PUSH32 0x45524332303A206275726E20616D6F756E7420657863656564732062616C616E PUSH1 0x44 DUP3 ADD MSTORE PUSH2 0x6365 PUSH1 0xF0 SHL PUSH1 0x64 DUP3 ADD MSTORE PUSH1 0x84 ADD PUSH2 0x5D0 JUMP JUMPDEST PUSH1 0x1 PUSH1 0x1 PUSH1 0xA0 SHL SUB DUP4 AND PUSH1 0x0 SWAP1 DUP2 MSTORE PUSH1 0x2 PUSH1 0x20 MSTORE PUSH1 0x40 DUP2 KECCAK256 DUP4 DUP4 SUB SWAP1 SSTORE PUSH1 0x4 DUP1 SLOAD DUP5 SWAP3 SWAP1 PUSH2 0x180F SWAP1 DUP5 SWAP1 PUSH2 0x2433 JUMP JUMPDEST SWAP1 SWAP2 SSTORE POP POP PUSH1 0x40 MLOAD DUP3 DUP2 MSTORE PUSH1 0x0 SWAP1 PUSH1 0x1 PUSH1 0x1 PUSH1 0xA0 SHL SUB DUP6 AND SWAP1 PUSH32 0xDDF252AD1BE2C89B69C2B068FC378DAA952BA7F163C4A11628F55A4DF523B3EF SWAP1 PUSH1 0x20 ADD PUSH1 0x40 MLOAD DUP1 SWAP2 SUB SWAP1 LOG3 POP POP POP JUMP JUMPDEST PUSH1 0x1 PUSH1 0x1 PUSH1 0xA0 SHL SUB DUP3 AND PUSH2 0x18B0 JUMPI PUSH1 0x40 MLOAD PUSH3 0x461BCD PUSH1 0xE5 SHL DUP2 MSTORE PUSH1 0x20 PUSH1 0x4 DUP3 ADD MSTORE PUSH1 0x1F PUSH1 0x24 DUP3 ADD MSTORE PUSH32 0x45524332303A206D696E7420746F20746865207A65726F206164647265737300 PUSH1 0x44 DUP3 ADD MSTORE PUSH1 0x64 ADD PUSH2 0x5D0 JUMP JUMPDEST DUP1 PUSH1 0x4 PUSH1 0x0 DUP3 DUP3 SLOAD PUSH2 0x18C2 SWAP2 SWAP1 PUSH2 0x2446 JUMP JUMPDEST SWAP1 SWAP2 SSTORE POP POP PUSH1 0x1 PUSH1 0x1 PUSH1 0xA0 SHL SUB DUP3 AND PUSH1 0x0 SWAP1 DUP2 MSTORE PUSH1 0x2 PUSH1 0x20 MSTORE PUSH1 0x40 DUP2 KECCAK256 DUP1 SLOAD DUP4 SWAP3 SWAP1 PUSH2 0x18EF SWAP1 DUP5 SWAP1 PUSH2 0x2446 JUMP JUMPDEST SWAP1 SWAP2 SSTORE POP POP PUSH1 0x40 MLOAD DUP2 DUP2 MSTORE PUSH1 0x1 PUSH1 0x1 PUSH1 0xA0 SHL SUB DUP4 AND SWAP1 PUSH1 0x0 SWAP1 PUSH32 0xDDF252AD1BE2C89B69C2B068FC378DAA952BA7F163C4A11628F55A4DF523B3EF SWAP1 PUSH1 0x20 ADD PUSH1 0x40 MLOAD DUP1 SWAP2 SUB SWAP1 LOG3 POP POP JUMP JUMPDEST PUSH1 0x0 DUP1 DUP1 SLOAD PUSH2 0x1947 SWAP1 PUSH2 0x23E9 JUMP JUMPDEST DUP1 PUSH1 0x1F ADD PUSH1 0x20 DUP1 SWAP2 DIV MUL PUSH1 0x20 ADD PUSH1 0x40 MLOAD SWAP1 DUP2 ADD PUSH1 0x40 MSTORE DUP1 SWAP3 SWAP2 SWAP1 DUP2 DUP2 MSTORE PUSH1 0x20 ADD DUP3 DUP1 SLOAD PUSH2 0x1973 SWAP1 PUSH2 0x23E9 JUMP JUMPDEST DUP1 ISZERO PUSH2 0x19C0 JUMPI DUP1 PUSH1 0x1F LT PUSH2 0x1995 JUMPI PUSH2 0x100 DUP1 DUP4 SLOAD DIV MUL DUP4 MSTORE SWAP2 PUSH1 0x20 ADD SWAP2 PUSH2 0x19C0 JUMP JUMPDEST DUP3 ADD SWAP2 SWAP1 PUSH1 0x0 MSTORE PUSH1 0x20 PUSH1 0x0 KECCAK256 SWAP1 JUMPDEST DUP2 SLOAD DUP2 MSTORE SWAP1 PUSH1 0x1 ADD SWAP1 PUSH1 0x20 ADD DUP1 DUP4 GT PUSH2 0x19A3 JUMPI DUP3 SWAP1 SUB PUSH1 0x1F AND DUP3 ADD SWAP2 JUMPDEST POP POP POP POP POP SWAP1 POP DUP2 PUSH1 0x0 SWAP1 DUP2 PUSH2 0x19D6 SWAP2 SWAP1 PUSH2 0x25A5 JUMP JUMPDEST POP PUSH32 0xC9C7C3FE08B88B4DF9D4D47EF47D2C43D55C025A0BA88CA442580ED9E7348A16 DUP2 DUP4 PUSH1 0x40 MLOAD PUSH2 0x1A08 SWAP3 SWAP2 SWAP1 PUSH2 0x2665 JUMP JUMPDEST PUSH1 0x40 MLOAD DUP1 SWAP2 SUB SWAP1 LOG1 POP POP JUMP JUMPDEST PUSH1 0x60 PUSH2 0x6AD DUP4 DUP4 PUSH1 0x40 MLOAD DUP1 PUSH1 0x60 ADD PUSH1 0x40 MSTORE DUP1 PUSH1 0x27 DUP2 MSTORE PUSH1 0x20 ADD PUSH2 0x26F4 PUSH1 0x27 SWAP2 CODECOPY PUSH2 0x1D0C JUMP JUMPDEST PUSH1 0x1 PUSH1 0x1 PUSH1 0xA0 SHL SUB DUP2 AND PUSH1 0x0 SWAP1 DUP2 MSTORE PUSH1 0x7 PUSH1 0x20 MSTORE PUSH1 0x40 SWAP1 KECCAK256 DUP1 SLOAD PUSH1 0x1 DUP2 ADD DUP3 SSTORE SWAP1 PUSH2 0xF43 JUMP JUMPDEST PUSH1 0x0 DUP1 PUSH1 0x0 PUSH2 0x1A70 DUP8 DUP8 DUP8 DUP8 PUSH2 0x1E00 JUMP JUMPDEST SWAP2 POP SWAP2 POP PUSH2 0x1A7D DUP2 PUSH2 0x1EC4 JUMP JUMPDEST POP SWAP6 SWAP5 POP POP POP POP POP JUMP JUMPDEST PUSH1 0x60 PUSH1 0x0 PUSH2 0x1A96 DUP4 PUSH1 0x2 PUSH2 0x2693 JUMP JUMPDEST PUSH2 0x1AA1 SWAP1 PUSH1 0x2 PUSH2 0x2446 JUMP JUMPDEST PUSH8 0xFFFFFFFFFFFFFFFF DUP2 GT ISZERO PUSH2 0x1AB9 JUMPI PUSH2 0x1AB9 PUSH2 0x21AE JUMP JUMPDEST PUSH1 0x40 MLOAD SWAP1 DUP1 DUP3 MSTORE DUP1 PUSH1 0x1F ADD PUSH1 0x1F NOT AND PUSH1 0x20 ADD DUP3 ADD PUSH1 0x40 MSTORE DUP1 ISZERO PUSH2 0x1AE3 JUMPI PUSH1 0x20 DUP3 ADD DUP2 DUP1 CALLDATASIZE DUP4 CALLDATACOPY ADD SWAP1 POP JUMPDEST POP SWAP1 POP PUSH1 0x3 PUSH1 0xFC SHL DUP2 PUSH1 0x0 DUP2 MLOAD DUP2 LT PUSH2 0x1AFE JUMPI PUSH2 0x1AFE PUSH2 0x2459 JUMP JUMPDEST PUSH1 0x20 ADD ADD SWAP1 PUSH1 0x1 PUSH1 0x1 PUSH1 0xF8 SHL SUB NOT AND SWAP1 DUP2 PUSH1 0x0 BYTE SWAP1 MSTORE8 POP PUSH1 0xF PUSH1 0xFB SHL DUP2 PUSH1 0x1 DUP2 MLOAD DUP2 LT PUSH2 0x1B2D JUMPI PUSH2 0x1B2D PUSH2 0x2459 JUMP JUMPDEST PUSH1 0x20 ADD ADD SWAP1 PUSH1 0x1 PUSH1 0x1 PUSH1 0xF8 SHL SUB NOT AND SWAP1 DUP2 PUSH1 0x0 BYTE SWAP1 MSTORE8 POP PUSH1 0x0 PUSH2 0x1B51 DUP5 PUSH1 0x2 PUSH2 0x2693 JUMP JUMPDEST PUSH2 0x1B5C SWAP1 PUSH1 0x1 PUSH2 0x2446 JUMP JUMPDEST SWAP1 POP JUMPDEST PUSH1 0x1 DUP2 GT ISZERO PUSH2 0x1BE1 JUMPI PUSH32 0x3031323334353637383961626364656600000000000000000000000000000000 DUP6 PUSH1 0xF AND PUSH1 0x10 DUP2 LT PUSH2 0x1B9D JUMPI PUSH2 0x1B9D PUSH2 0x2459 JUMP JUMPDEST BYTE PUSH1 0xF8 SHL DUP3 DUP3 DUP2 MLOAD DUP2 LT PUSH2 0x1BB3 JUMPI PUSH2 0x1BB3 PUSH2 0x2459 JUMP JUMPDEST PUSH1 0x20 ADD ADD SWAP1 PUSH1 0x1 PUSH1 0x1 PUSH1 0xF8 SHL SUB NOT AND SWAP1 DUP2 PUSH1 0x0 BYTE SWAP1 MSTORE8 POP PUSH1 0x4 SWAP5 SWAP1 SWAP5 SHR SWAP4 PUSH2 0x1BDA DUP2 PUSH2 0x26AA JUMP JUMPDEST SWAP1 POP PUSH2 0x1B5F JUMP JUMPDEST POP DUP4 ISZERO PUSH2 0x6AD JUMPI PUSH1 0x40 MLOAD PUSH3 0x461BCD PUSH1 0xE5 SHL DUP2 MSTORE PUSH1 0x20 PUSH1 0x4 DUP3 ADD DUP2 SWAP1 MSTORE PUSH1 0x24 DUP3 ADD MSTORE PUSH32 0x537472696E67733A20686578206C656E67746820696E73756666696369656E74 PUSH1 0x44 DUP3 ADD MSTORE PUSH1 0x64 ADD PUSH2 0x5D0 JUMP JUMPDEST PUSH1 0x0 DUP3 DUP2 MSTORE PUSH1 0xA PUSH1 0x20 MSTORE PUSH1 0x40 DUP2 KECCAK256 DUP1 SLOAD SWAP2 PUSH1 0x1 SWAP2 SWAP1 PUSH2 0x1C4F DUP4 DUP6 PUSH2 0x2446 JUMP JUMPDEST SWAP1 SWAP2 SSTORE POP POP PUSH1 0x0 SWAP3 DUP4 MSTORE PUSH1 0xA PUSH1 0x20 SWAP1 DUP2 MSTORE PUSH1 0x40 DUP1 DUP6 KECCAK256 DUP4 DUP7 MSTORE PUSH1 0x1 DUP2 ADD DUP4 MSTORE DUP2 DUP7 KECCAK256 DUP1 SLOAD PUSH1 0x1 PUSH1 0x1 PUSH1 0xA0 SHL SUB SWAP1 SWAP7 AND PUSH20 0xFFFFFFFFFFFFFFFFFFFFFFFFFFFFFFFFFFFFFFFF NOT SWAP1 SWAP7 AND DUP7 OR SWAP1 SSTORE SWAP4 DUP6 MSTORE PUSH1 0x2 SWAP1 SWAP4 ADD SWAP1 MSTORE SWAP2 KECCAK256 SSTORE JUMP JUMPDEST PUSH2 0x1CB4 DUP3 DUP3 PUSH2 0x157F JUMP JUMPDEST PUSH1 0x0 DUP3 DUP2 MSTORE PUSH1 0x8 PUSH1 0x20 SWAP1 DUP2 MSTORE PUSH1 0x40 DUP1 DUP4 KECCAK256 PUSH1 0x1 PUSH1 0x1 PUSH1 0xA0 SHL SUB DUP6 AND DUP1 DUP6 MSTORE SWAP3 MSTORE DUP1 DUP4 KECCAK256 DUP1 SLOAD PUSH1 0xFF NOT AND SWAP1 SSTORE MLOAD CALLER SWAP3 DUP6 SWAP2 PUSH32 0xF6391F5C32D9C69D2A47EA670B442974B53935D1EDC7FD64EB21E047A839171B SWAP2 SWAP1 LOG4 POP POP JUMP JUMPDEST PUSH1 0x60 PUSH1 0x1 PUSH1 0x1 PUSH1 0xA0 SHL SUB DUP5 AND EXTCODESIZE PUSH2 0x1D8B JUMPI PUSH1 0x40 MLOAD PUSH3 0x461BCD PUSH1 0xE5 SHL DUP2 MSTORE PUSH1 0x20 PUSH1 0x4 DUP3 ADD MSTORE PUSH1 0x26 PUSH1 0x24 DUP3 ADD MSTORE PUSH32 0x416464726573733A2064656C65676174652063616C6C20746F206E6F6E2D636F PUSH1 0x44 DUP3 ADD MSTORE PUSH32 0x6E74726163740000000000000000000000000000000000000000000000000000 PUSH1 0x64 DUP3 ADD MSTORE PUSH1 0x84 ADD PUSH2 0x5D0 JUMP JUMPDEST PUSH1 0x0 DUP1 DUP6 PUSH1 0x1 PUSH1 0x1 PUSH1 0xA0 SHL SUB AND DUP6 PUSH1 0x40 MLOAD PUSH2 0x1DA6 SWAP2 SWAP1 PUSH2 0x26C1 JUMP JUMPDEST PUSH1 0x0 PUSH1 0x40 MLOAD DUP1 DUP4 SUB DUP2 DUP6 GAS DELEGATECALL SWAP2 POP POP RETURNDATASIZE DUP1 PUSH1 0x0 DUP2 EQ PUSH2 0x1DE1 JUMPI PUSH1 0x40 MLOAD SWAP2 POP PUSH1 0x1F NOT PUSH1 0x3F RETURNDATASIZE ADD AND DUP3 ADD PUSH1 0x40 MSTORE RETURNDATASIZE DUP3 MSTORE RETURNDATASIZE PUSH1 0x0 PUSH1 0x20 DUP5 ADD RETURNDATACOPY PUSH2 0x1DE6 JUMP JUMPDEST PUSH1 0x60 SWAP2 POP JUMPDEST POP SWAP2 POP SWAP2 POP PUSH2 0x1DF6 DUP3 DUP3 DUP7 PUSH2 0x200E JUMP JUMPDEST SWAP7 SWAP6 POP POP POP POP POP POP JUMP JUMPDEST PUSH1 0x0 DUP1 PUSH32 0x7FFFFFFFFFFFFFFFFFFFFFFFFFFFFFFF5D576E7357A4501DDFE92F46681B20A0 DUP4 GT ISZERO PUSH2 0x1E37 JUMPI POP PUSH1 0x0 SWAP1 POP PUSH1 0x3 PUSH2 0x1EBB JUMP JUMPDEST PUSH1 0x40 DUP1 MLOAD PUSH1 0x0 DUP1 DUP3 MSTORE PUSH1 0x20 DUP3 ADD DUP1 DUP5 MSTORE DUP10 SWAP1 MSTORE PUSH1 0xFF DUP9 AND SWAP3 DUP3 ADD SWAP3 SWAP1 SWAP3 MSTORE PUSH1 0x60 DUP2 ADD DUP7 SWAP1 MSTORE PUSH1 0x80 DUP2 ADD DUP6 SWAP1 MSTORE PUSH1 0x1 SWAP1 PUSH1 0xA0 ADD PUSH1 0x20 PUSH1 0x40 MLOAD PUSH1 0x20 DUP2 SUB SWAP1 DUP1 DUP5 SUB SWAP1 DUP6 GAS STATICCALL ISZERO DUP1 ISZERO PUSH2 0x1E8B JUMPI RETURNDATASIZE PUSH1 0x0 DUP1 RETURNDATACOPY RETURNDATASIZE PUSH1 0x0 REVERT JUMPDEST POP POP PUSH1 0x40 MLOAD PUSH1 0x1F NOT ADD MLOAD SWAP2 POP POP PUSH1 0x1 PUSH1 0x1 PUSH1 0xA0 SHL SUB DUP2 AND PUSH2 0x1EB4 JUMPI PUSH1 0x0 PUSH1 0x1 SWAP3 POP SWAP3 POP POP PUSH2 0x1EBB JUMP JUMPDEST SWAP2 POP PUSH1 0x0 SWAP1 POP JUMPDEST SWAP5 POP SWAP5 SWAP3 POP POP POP JUMP JUMPDEST PUSH1 0x0 DUP2 PUSH1 0x4 DUP2 GT ISZERO PUSH2 0x1ED8 JUMPI PUSH2 0x1ED8 PUSH2 0x26DD JUMP JUMPDEST SUB PUSH2 0x1EE0 JUMPI POP JUMP JUMPDEST PUSH1 0x1 DUP2 PUSH1 0x4 DUP2 GT ISZERO PUSH2 0x1EF4 JUMPI PUSH2 0x1EF4 PUSH2 0x26DD JUMP JUMPDEST SUB PUSH2 0x1F41 JUMPI PUSH1 0x40 MLOAD PUSH3 0x461BCD PUSH1 0xE5 SHL DUP2 MSTORE PUSH1 0x20 PUSH1 0x4 DUP3 ADD MSTORE PUSH1 0x18 PUSH1 0x24 DUP3 ADD MSTORE PUSH32 0x45434453413A20696E76616C6964207369676E61747572650000000000000000 PUSH1 0x44 DUP3 ADD MSTORE PUSH1 0x64 ADD PUSH2 0x5D0 JUMP JUMPDEST PUSH1 0x2 DUP2 PUSH1 0x4 DUP2 GT ISZERO PUSH2 0x1F55 JUMPI PUSH2 0x1F55 PUSH2 0x26DD JUMP JUMPDEST SUB PUSH2 0x1FA2 JUMPI PUSH1 0x40 MLOAD PUSH3 0x461BCD PUSH1 0xE5 SHL DUP2 MSTORE PUSH1 0x20 PUSH1 0x4 DUP3 ADD MSTORE PUSH1 0x1F PUSH1 0x24 DUP3 ADD MSTORE PUSH32 0x45434453413A20696E76616C6964207369676E6174757265206C656E67746800 PUSH1 0x44 DUP3 ADD MSTORE PUSH1 0x64 ADD PUSH2 0x5D0 JUMP JUMPDEST PUSH1 0x3 DUP2 PUSH1 0x4 DUP2 GT ISZERO PUSH2 0x1FB6 JUMPI PUSH2 0x1FB6 PUSH2 0x26DD JUMP JUMPDEST SUB PUSH2 0x5E2 JUMPI PUSH1 0x40 MLOAD PUSH3 0x461BCD PUSH1 0xE5 SHL DUP2 MSTORE PUSH1 0x20 PUSH1 0x4 DUP3 ADD MSTORE PUSH1 0x22 PUSH1 0x24 DUP3 ADD MSTORE PUSH32 0x45434453413A20696E76616C6964207369676E6174757265202773272076616C PUSH1 0x44 DUP3 ADD MSTORE PUSH2 0x7565 PUSH1 0xF0 SHL PUSH1 0x64 DUP3 ADD MSTORE PUSH1 0x84 ADD PUSH2 0x5D0 JUMP JUMPDEST PUSH1 0x60 DUP4 ISZERO PUSH2 0x201D JUMPI POP DUP2 PUSH2 0x6AD JUMP JUMPDEST DUP3 MLOAD ISZERO PUSH2 0x202D JUMPI DUP3 MLOAD DUP1 DUP5 PUSH1 0x20 ADD REVERT JUMPDEST DUP2 PUSH1 0x40 MLOAD PUSH3 0x461BCD PUSH1 0xE5 SHL DUP2 MSTORE PUSH1 0x4 ADD PUSH2 0x5D0 SWAP2 SWAP1 PUSH2 0x2097 JUMP JUMPDEST PUSH1 0x0 JUMPDEST DUP4 DUP2 LT ISZERO PUSH2 0x2062 JUMPI DUP2 DUP2 ADD MLOAD DUP4 DUP3 ADD MSTORE PUSH1 0x20 ADD PUSH2 0x204A JUMP JUMPDEST POP POP PUSH1 0x0 SWAP2 ADD MSTORE JUMP JUMPDEST PUSH1 0x0 DUP2 MLOAD DUP1 DUP5 MSTORE PUSH2 0x2083 DUP2 PUSH1 0x20 DUP7 ADD PUSH1 0x20 DUP7 ADD PUSH2 0x2047 JUMP JUMPDEST PUSH1 0x1F ADD PUSH1 0x1F NOT AND SWAP3 SWAP1 SWAP3 ADD PUSH1 0x20 ADD SWAP3 SWAP2 POP POP JUMP JUMPDEST PUSH1 0x20 DUP2 MSTORE PUSH1 0x0 PUSH2 0x6AD PUSH1 0x20 DUP4 ADD DUP5 PUSH2 0x206B JUMP JUMPDEST DUP1 CALLDATALOAD PUSH1 0x1 PUSH1 0x1 PUSH1 0xA0 SHL SUB DUP2 AND DUP2 EQ PUSH2 0x20C1 JUMPI PUSH1 0x0 DUP1 REVERT JUMPDEST SWAP2 SWAP1 POP JUMP JUMPDEST PUSH1 0x0 DUP1 PUSH1 0x40 DUP4 DUP6 SUB SLT ISZERO PUSH2 0x20D9 JUMPI PUSH1 0x0 DUP1 REVERT JUMPDEST PUSH2 0x20E2 DUP4 PUSH2 0x20AA JUMP JUMPDEST SWAP5 PUSH1 0x20 SWAP4 SWAP1 SWAP4 ADD CALLDATALOAD SWAP4 POP POP POP JUMP JUMPDEST PUSH1 0x0 PUSH1 0x20 DUP3 DUP5 SUB SLT ISZERO PUSH2 0x2102 JUMPI PUSH1 0x0 DUP1 REVERT JUMPDEST PUSH2 0x6AD DUP3 PUSH2 0x20AA JUMP JUMPDEST PUSH1 0x0 DUP1 PUSH1 0x0 PUSH1 0x60 DUP5 DUP7 SUB SLT ISZERO PUSH2 0x2120 JUMPI PUSH1 0x0 DUP1 REVERT JUMPDEST PUSH2 0x2129 DUP5 PUSH2 0x20AA JUMP JUMPDEST SWAP3 POP PUSH2 0x2137 PUSH1 0x20 DUP6 ADD PUSH2 0x20AA JUMP JUMPDEST SWAP2 POP PUSH1 0x40 DUP5 ADD CALLDATALOAD SWAP1 POP SWAP3 POP SWAP3 POP SWAP3 JUMP JUMPDEST PUSH1 0x0 PUSH1 0x20 DUP3 DUP5 SUB SLT ISZERO PUSH2 0x2159 JUMPI PUSH1 0x0 DUP1 REVERT JUMPDEST POP CALLDATALOAD SWAP2 SWAP1 POP JUMP JUMPDEST PUSH1 0x0 DUP1 PUSH1 0x40 DUP4 DUP6 SUB SLT ISZERO PUSH2 0x2173 JUMPI PUSH1 0x0 DUP1 REVERT JUMPDEST DUP3 CALLDATALOAD SWAP2 POP PUSH2 0x2183 PUSH1 0x20 DUP5 ADD PUSH2 0x20AA JUMP JUMPDEST SWAP1 POP SWAP3 POP SWAP3 SWAP1 POP JUMP JUMPDEST PUSH1 0x0 DUP1 PUSH1 0x40 DUP4 DUP6 SUB SLT ISZERO PUSH2 0x219F JUMPI PUSH1 0x0 DUP1 REVERT JUMPDEST POP POP DUP1 CALLDATALOAD SWAP3 PUSH1 0x20 SWAP1 SWAP2 ADD CALLDATALOAD SWAP2 POP JUMP JUMPDEST PUSH4 0x4E487B71 PUSH1 0xE0 SHL PUSH1 0x0 MSTORE PUSH1 0x41 PUSH1 0x4 MSTORE PUSH1 0x24 PUSH1 0x0 REVERT JUMPDEST PUSH1 0x0 PUSH1 0x20 DUP3 DUP5 SUB SLT ISZERO PUSH2 0x21D6 JUMPI PUSH1 0x0 DUP1 REVERT JUMPDEST DUP2 CALLDATALOAD PUSH8 0xFFFFFFFFFFFFFFFF DUP1 DUP3 GT ISZERO PUSH2 0x21EE JUMPI PUSH1 0x0 DUP1 REVERT JUMPDEST DUP2 DUP5 ADD SWAP2 POP DUP5 PUSH1 0x1F DUP4 ADD SLT PUSH2 0x2202 JUMPI PUSH1 0x0 DUP1 REVERT JUMPDEST DUP2 CALLDATALOAD DUP2 DUP2 GT ISZERO PUSH2 0x2214 JUMPI PUSH2 0x2214 PUSH2 0x21AE JUMP JUMPDEST PUSH1 0x40 MLOAD PUSH1 0x1F DUP3 ADD PUSH1 0x1F NOT SWAP1 DUP2 AND PUSH1 0x3F ADD AND DUP2 ADD SWAP1 DUP4 DUP3 GT DUP2 DUP4 LT OR ISZERO PUSH2 0x223C JUMPI PUSH2 0x223C PUSH2 0x21AE JUMP JUMPDEST DUP2 PUSH1 0x40 MSTORE DUP3 DUP2 MSTORE DUP8 PUSH1 0x20 DUP5 DUP8 ADD ADD GT ISZERO PUSH2 0x2255 JUMPI PUSH1 0x0 DUP1 REVERT JUMPDEST DUP3 PUSH1 0x20 DUP7 ADD PUSH1 0x20 DUP4 ADD CALLDATACOPY PUSH1 0x0 SWAP3 DUP2 ADD PUSH1 0x20 ADD SWAP3 SWAP1 SWAP3 MSTORE POP SWAP6 SWAP5 POP POP POP POP POP JUMP JUMPDEST PUSH1 0x0 DUP1 PUSH1 0x20 DUP4 DUP6 SUB SLT ISZERO PUSH2 0x2288 JUMPI PUSH1 0x0 DUP1 REVERT JUMPDEST DUP3 CALLDATALOAD PUSH8 0xFFFFFFFFFFFFFFFF DUP1 DUP3 GT ISZERO PUSH2 0x22A0 JUMPI PUSH1 0x0 DUP1 REVERT JUMPDEST DUP2 DUP6 ADD SWAP2 POP DUP6 PUSH1 0x1F DUP4 ADD SLT PUSH2 0x22B4 JUMPI PUSH1 0x0 DUP1 REVERT JUMPDEST DUP2 CALLDATALOAD DUP2 DUP2 GT ISZERO PUSH2 0x22C3 JUMPI PUSH1 0x0 DUP1 REVERT JUMPDEST DUP7 PUSH1 0x20 DUP3 PUSH1 0x5 SHL DUP6 ADD ADD GT ISZERO PUSH2 0x22D8 JUMPI PUSH1 0x0 DUP1 REVERT JUMPDEST PUSH1 0x20 SWAP3 SWAP1 SWAP3 ADD SWAP7 SWAP2 SWAP6 POP SWAP1 SWAP4 POP POP POP POP JUMP JUMPDEST PUSH1 0x0 PUSH1 0x20 DUP1 DUP4 ADD DUP2 DUP5 MSTORE DUP1 DUP6 MLOAD DUP1 DUP4 MSTORE PUSH1 0x40 DUP7 ADD SWAP2 POP PUSH1 0x40 DUP2 PUSH1 0x5 SHL DUP8 ADD ADD SWAP3 POP DUP4 DUP8 ADD PUSH1 0x0 JUMPDEST DUP3 DUP2 LT ISZERO PUSH2 0x233F JUMPI PUSH1 0x3F NOT DUP9 DUP7 SUB ADD DUP5 MSTORE PUSH2 0x232D DUP6 DUP4 MLOAD PUSH2 0x206B JUMP JUMPDEST SWAP5 POP SWAP3 DUP6 ADD SWAP3 SWAP1 DUP6 ADD SWAP1 PUSH1 0x1 ADD PUSH2 0x2311 JUMP JUMPDEST POP SWAP3 SWAP8 SWAP7 POP POP POP POP POP POP POP JUMP JUMPDEST PUSH1 0x0 DUP1 PUSH1 0x0 DUP1 PUSH1 0x0 DUP1 PUSH1 0x0 PUSH1 0xE0 DUP9 DUP11 SUB SLT ISZERO PUSH2 0x2367 JUMPI PUSH1 0x0 DUP1 REVERT JUMPDEST PUSH2 0x2370 DUP9 PUSH2 0x20AA JUMP JUMPDEST SWAP7 POP PUSH2 0x237E PUSH1 0x20 DUP10 ADD PUSH2 0x20AA JUMP JUMPDEST SWAP6 POP PUSH1 0x40 DUP9 ADD CALLDATALOAD SWAP5 POP PUSH1 0x60 DUP9 ADD CALLDATALOAD SWAP4 POP PUSH1 0x80 DUP9 ADD CALLDATALOAD PUSH1 0xFF DUP2 AND DUP2 EQ PUSH2 0x23A2 JUMPI PUSH1 0x0 DUP1 REVERT JUMPDEST SWAP7 SWAP10 SWAP6 SWAP9 POP SWAP4 SWAP7 SWAP3 SWAP6 SWAP5 PUSH1 0xA0 DUP5 ADD CALLDATALOAD SWAP5 POP PUSH1 0xC0 SWAP1 SWAP4 ADD CALLDATALOAD SWAP3 SWAP2 POP POP JUMP JUMPDEST PUSH1 0x0 DUP1 PUSH1 0x40 DUP4 DUP6 SUB SLT ISZERO PUSH2 0x23D2 JUMPI PUSH1 0x0 DUP1 REVERT JUMPDEST PUSH2 0x23DB DUP4 PUSH2 0x20AA JUMP JUMPDEST SWAP2 POP PUSH2 0x2183 PUSH1 0x20 DUP5 ADD PUSH2 0x20AA JUMP JUMPDEST PUSH1 0x1 DUP2 DUP2 SHR SWAP1 DUP3 AND DUP1 PUSH2 0x23FD JUMPI PUSH1 0x7F DUP3 AND SWAP2 POP JUMPDEST PUSH1 0x20 DUP3 LT DUP2 SUB PUSH2 0xF43 JUMPI PUSH4 0x4E487B71 PUSH1 0xE0 SHL PUSH1 0x0 MSTORE PUSH1 0x22 PUSH1 0x4 MSTORE PUSH1 0x24 PUSH1 0x0 REVERT JUMPDEST PUSH4 0x4E487B71 PUSH1 0xE0 SHL PUSH1 0x0 MSTORE PUSH1 0x11 PUSH1 0x4 MSTORE PUSH1 0x24 PUSH1 0x0 REVERT JUMPDEST DUP2 DUP2 SUB DUP2 DUP2 GT ISZERO PUSH2 0x589 JUMPI PUSH2 0x589 PUSH2 0x241D JUMP JUMPDEST DUP1 DUP3 ADD DUP1 DUP3 GT ISZERO PUSH2 0x589 JUMPI PUSH2 0x589 PUSH2 0x241D JUMP JUMPDEST PUSH4 0x4E487B71 PUSH1 0xE0 SHL PUSH1 0x0 MSTORE PUSH1 0x32 PUSH1 0x4 MSTORE PUSH1 0x24 PUSH1 0x0 REVERT JUMPDEST PUSH1 0x0 DUP1 DUP4 CALLDATALOAD PUSH1 0x1E NOT DUP5 CALLDATASIZE SUB ADD DUP2 SLT PUSH2 0x2486 JUMPI PUSH1 0x0 DUP1 REVERT JUMPDEST DUP4 ADD DUP1 CALLDATALOAD SWAP2 POP PUSH8 0xFFFFFFFFFFFFFFFF DUP3 GT ISZERO PUSH2 0x24A1 JUMPI PUSH1 0x0 DUP1 REVERT JUMPDEST PUSH1 0x20 ADD SWAP2 POP CALLDATASIZE DUP2 SWAP1 SUB DUP3 SGT ISZERO PUSH2 0x24B6 JUMPI PUSH1 0x0 DUP1 REVERT JUMPDEST SWAP3 POP SWAP3 SWAP1 POP JUMP JUMPDEST PUSH1 0x0 PUSH1 0x1 DUP3 ADD PUSH2 0x24CF JUMPI PUSH2 0x24CF PUSH2 0x241D JUMP JUMPDEST POP PUSH1 0x1 ADD SWAP1 JUMP JUMPDEST PUSH32 0x5065726D697373696F6E733A206163636F756E74200000000000000000000000 DUP2 MSTORE PUSH1 0x0 DUP4 MLOAD PUSH2 0x250E DUP2 PUSH1 0x15 DUP6 ADD PUSH1 0x20 DUP9 ADD PUSH2 0x2047 JUMP JUMPDEST PUSH32 0x206973206D697373696E6720726F6C6520000000000000000000000000000000 PUSH1 0x15 SWAP2 DUP5 ADD SWAP2 DUP3 ADD MSTORE DUP4 MLOAD PUSH2 0x254B DUP2 PUSH1 0x26 DUP5 ADD PUSH1 0x20 DUP9 ADD PUSH2 0x2047 JUMP JUMPDEST ADD PUSH1 0x26 ADD SWAP5 SWAP4 POP POP POP POP JUMP JUMPDEST PUSH1 0x1F DUP3 GT ISZERO PUSH2 0xAA5 JUMPI PUSH1 0x0 DUP2 DUP2 MSTORE PUSH1 0x20 DUP2 KECCAK256 PUSH1 0x1F DUP6 ADD PUSH1 0x5 SHR DUP2 ADD PUSH1 0x20 DUP7 LT ISZERO PUSH2 0x257E JUMPI POP DUP1 JUMPDEST PUSH1 0x1F DUP6 ADD PUSH1 0x5 SHR DUP3 ADD SWAP2 POP JUMPDEST DUP2 DUP2 LT ISZERO PUSH2 0x259D JUMPI DUP3 DUP2 SSTORE PUSH1 0x1 ADD PUSH2 0x258A JUMP JUMPDEST POP POP POP POP POP POP JUMP JUMPDEST DUP2 MLOAD PUSH8 0xFFFFFFFFFFFFFFFF DUP2 GT ISZERO PUSH2 0x25BF JUMPI PUSH2 0x25BF PUSH2 0x21AE JUMP JUMPDEST PUSH2 0x25D3 DUP2 PUSH2 0x25CD DUP5 SLOAD PUSH2 0x23E9 JUMP JUMPDEST DUP5 PUSH2 0x2557 JUMP JUMPDEST PUSH1 0x20 DUP1 PUSH1 0x1F DUP4 GT PUSH1 0x1 DUP2 EQ PUSH2 0x2608 JUMPI PUSH1 0x0 DUP5 ISZERO PUSH2 0x25F0 JUMPI POP DUP6 DUP4 ADD MLOAD JUMPDEST PUSH1 0x0 NOT PUSH1 0x3 DUP7 SWAP1 SHL SHR NOT AND PUSH1 0x1 DUP6 SWAP1 SHL OR DUP6 SSTORE PUSH2 0x259D JUMP JUMPDEST PUSH1 0x0 DUP6 DUP2 MSTORE PUSH1 0x20 DUP2 KECCAK256 PUSH1 0x1F NOT DUP7 AND SWAP2 JUMPDEST DUP3 DUP2 LT ISZERO PUSH2 0x2637 JUMPI DUP9 DUP7 ADD MLOAD DUP3 SSTORE SWAP5 DUP5 ADD SWAP5 PUSH1 0x1 SWAP1 SWAP2 ADD SWAP1 DUP5 ADD PUSH2 0x2618 JUMP JUMPDEST POP DUP6 DUP3 LT ISZERO PUSH2 0x2655 JUMPI DUP8 DUP6 ADD MLOAD PUSH1 0x0 NOT PUSH1 0x3 DUP9 SWAP1 SHL PUSH1 0xF8 AND SHR NOT AND DUP2 SSTORE JUMPDEST POP POP POP POP POP PUSH1 0x1 SWAP1 DUP2 SHL ADD SWAP1 SSTORE POP JUMP JUMPDEST PUSH1 0x40 DUP2 MSTORE PUSH1 0x0 PUSH2 0x2678 PUSH1 0x40 DUP4 ADD DUP6 PUSH2 0x206B JUMP JUMPDEST DUP3 DUP2 SUB PUSH1 0x20 DUP5 ADD MSTORE PUSH2 0x268A DUP2 DUP6 PUSH2 0x206B JUMP JUMPDEST SWAP6 SWAP5 POP POP POP POP POP JUMP JUMPDEST DUP1 DUP3 MUL DUP2 ISZERO DUP3 DUP3 DIV DUP5 EQ OR PUSH2 0x589 JUMPI PUSH2 0x589 PUSH2 0x241D JUMP JUMPDEST PUSH1 0x0 DUP2 PUSH2 0x26B9 JUMPI PUSH2 0x26B9 PUSH2 0x241D JUMP JUMPDEST POP PUSH1 0x0 NOT ADD SWAP1 JUMP JUMPDEST PUSH1 0x0 DUP3 MLOAD PUSH2 0x26D3 DUP2 DUP5 PUSH1 0x20 DUP8 ADD PUSH2 0x2047 JUMP JUMPDEST SWAP2 SWAP1 SWAP2 ADD SWAP3 SWAP2 POP POP JUMP JUMPDEST PUSH4 0x4E487B71 PUSH1 0xE0 SHL PUSH1 0x0 MSTORE PUSH1 0x21 PUSH1 0x4 MSTORE PUSH1 0x24 PUSH1 0x0 REVERT INVALID COINBASE PUSH5 0x6472657373 GASPRICE KECCAK256 PUSH13 0x6F772D6C6576656C2064656C65 PUSH8 0x6174652063616C6C KECCAK256 PUSH7 0x61696C6564A264 PUSH10 0x706673582212201EA42A 0xA7 SWAP12 SWAP9 0xDA 0x4A PUSH14 0xDF200CA163C6C2F0259122FD6B41 0x24 SUB 0xE4 EXP LOG0 PUSH9 0xB0A8DD64736F6C6343 STOP ADDMOD GT STOP CALLER "
    },
    "gasEstimates": {
      "creation": {
        "codeDepositCost": "2012800",
        "executionCost": "infinite",
        "totalCost": "infinite"
      },
      "external": {
        "DEFAULT_ADMIN_ROLE()": "284",
        "DOMAIN_SEPARATOR()": "infinite",
        "TRANSFER_ROLE()": "241",
        "allowance(address,address)": "infinite",
        "approve(address,uint256)": "24674",
        "balanceOf(address)": "2626",
        "burn(uint256)": "53090",
        "burnFrom(address,uint256)": "infinite",
        "contractURI()": "infinite",
        "decimals()": "223",
        "decreaseAllowance(address,uint256)": "26945",
        "getRoleAdmin(bytes32)": "2528",
        "getRoleMember(bytes32,uint256)": "infinite",
        "getRoleMemberCount(bytes32)": "infinite",
        "grantRole(bytes32,address)": "infinite",
        "hasRole(bytes32,address)": "2765",
        "hasRoleWithSwitch(bytes32,address)": "5051",
        "increaseAllowance(address,uint256)": "infinite",
        "mintTo(address,uint256)": "infinite",
        "multicall(bytes[])": "infinite",
        "name()": "infinite",
        "nonces(address)": "2617",
        "owner()": "2388",
        "permit(address,address,uint256,uint256,uint8,bytes32,bytes32)": "infinite",
        "renounceRole(bytes32,address)": "infinite",
        "revokeRole(bytes32,address)": "infinite",
        "setContractURI(string)": "infinite",
        "setOwner(address)": "28442",
        "symbol()": "infinite",
        "totalSupply()": "2394",
        "transfer(address,uint256)": "53419",
        "transferFrom(address,address,uint256)": "infinite"
      }
    },
    "methodIdentifiers": {
      "DEFAULT_ADMIN_ROLE()": "a217fddf",
      "DOMAIN_SEPARATOR()": "3644e515",
      "TRANSFER_ROLE()": "206b60f9",
      "allowance(address,address)": "dd62ed3e",
      "approve(address,uint256)": "095ea7b3",
      "balanceOf(address)": "70a08231",
      "burn(uint256)": "42966c68",
      "burnFrom(address,uint256)": "79cc6790",
      "contractURI()": "e8a3d485",
      "decimals()": "313ce567",
      "decreaseAllowance(address,uint256)": "a457c2d7",
      "getRoleAdmin(bytes32)": "248a9ca3",
      "getRoleMember(bytes32,uint256)": "9010d07c",
      "getRoleMemberCount(bytes32)": "ca15c873",
      "grantRole(bytes32,address)": "2f2ff15d",
      "hasRole(bytes32,address)": "91d14854",
      "hasRoleWithSwitch(bytes32,address)": "a32fa5b3",
      "increaseAllowance(address,uint256)": "39509351",
      "mintTo(address,uint256)": "449a52f8",
      "multicall(bytes[])": "ac9650d8",
      "name()": "06fdde03",
      "nonces(address)": "7ecebe00",
      "owner()": "8da5cb5b",
      "permit(address,address,uint256,uint256,uint8,bytes32,bytes32)": "d505accf",
      "renounceRole(bytes32,address)": "36568abe",
      "revokeRole(bytes32,address)": "d547741f",
      "setContractURI(string)": "938e3d7b",
      "setOwner(address)": "13af4035",
      "symbol()": "95d89b41",
      "totalSupply()": "18160ddd",
      "transfer(address,uint256)": "a9059cbb",
      "transferFrom(address,address,uint256)": "23b872dd"
    }
  },
  "storageLayout": {
    "storage": [
      {
        "astId": 617,
        "contract": "erc20.sol:MyToken",
        "label": "contractURI",
        "offset": 0,
        "slot": "0",
        "type": "t_string_storage"
      },
      {
        "astId": 733,
        "contract": "erc20.sol:MyToken",
        "label": "_owner",
        "offset": 0,
        "slot": "1",
        "type": "t_address"
      },
      {
        "astId": 1864,
        "contract": "erc20.sol:MyToken",
        "label": "_balances",
        "offset": 0,
        "slot": "2",
        "type": "t_mapping(t_address,t_uint256)"
      },
      {
        "astId": 1870,
        "contract": "erc20.sol:MyToken",
        "label": "_allowances",
        "offset": 0,
        "slot": "3",
        "type": "t_mapping(t_address,t_mapping(t_address,t_uint256))"
      },
      {
        "astId": 1872,
        "contract": "erc20.sol:MyToken",
        "label": "_totalSupply",
        "offset": 0,
        "slot": "4",
        "type": "t_uint256"
      },
      {
        "astId": 1874,
        "contract": "erc20.sol:MyToken",
        "label": "_name",
        "offset": 0,
        "slot": "5",
        "type": "t_string_storage"
      },
      {
        "astId": 1876,
        "contract": "erc20.sol:MyToken",
        "label": "_symbol",
        "offset": 0,
        "slot": "6",
        "type": "t_string_storage"
      },
      {
        "astId": 864,
        "contract": "erc20.sol:MyToken",
        "label": "_nonces",
        "offset": 0,
        "slot": "7",
        "type": "t_mapping(t_address,t_struct(Counter)2442_storage)"
      },
      {
        "astId": 1099,
        "contract": "erc20.sol:MyToken",
        "label": "_hasRole",
        "offset": 0,
        "slot": "8",
        "type": "t_mapping(t_bytes32,t_mapping(t_address,t_bool))"
      },
      {
        "astId": 1104,
        "contract": "erc20.sol:MyToken",
        "label": "_getRoleAdmin",
        "offset": 0,
        "slot": "9",
        "type": "t_mapping(t_bytes32,t_bytes32)"
      },
      {
        "astId": 334,
        "contract": "erc20.sol:MyToken",
        "label": "roleMembers",
        "offset": 0,
        "slot": "10",
        "type": "t_mapping(t_bytes32,t_struct(RoleMembers)328_storage)"
      }
    ],
    "types": {
      "t_address": {
        "encoding": "inplace",
        "label": "address",
        "numberOfBytes": "20"
      },
      "t_bool": {
        "encoding": "inplace",
        "label": "bool",
        "numberOfBytes": "1"
      },
      "t_bytes32": {
        "encoding": "inplace",
        "label": "bytes32",
        "numberOfBytes": "32"
      },
      "t_mapping(t_address,t_bool)": {
        "encoding": "mapping",
        "key": "t_address",
        "label": "mapping(address => bool)",
        "numberOfBytes": "32",
        "value": "t_bool"
      },
      "t_mapping(t_address,t_mapping(t_address,t_uint256))": {
        "encoding": "mapping",
        "key": "t_address",
        "label": "mapping(address => mapping(address => uint256))",
        "numberOfBytes": "32",
        "value": "t_mapping(t_address,t_uint256)"
      },
      "t_mapping(t_address,t_struct(Counter)2442_storage)": {
        "encoding": "mapping",
        "key": "t_address",
        "label": "mapping(address => struct Counters.Counter)",
        "numberOfBytes": "32",
        "value": "t_struct(Counter)2442_storage"
      },
      "t_mapping(t_address,t_uint256)": {
        "encoding": "mapping",
        "key": "t_address",
        "label": "mapping(address => uint256)",
        "numberOfBytes": "32",
        "value": "t_uint256"
      },
      "t_mapping(t_bytes32,t_bytes32)": {
        "encoding": "mapping",
        "key": "t_bytes32",
        "label": "mapping(bytes32 => bytes32)",
        "numberOfBytes": "32",
        "value": "t_bytes32"
      },
      "t_mapping(t_bytes32,t_mapping(t_address,t_bool))": {
        "encoding": "mapping",
        "key": "t_bytes32",
        "label": "mapping(bytes32 => mapping(address => bool))",
        "numberOfBytes": "32",
        "value": "t_mapping(t_address,t_bool)"
      },
      "t_mapping(t_bytes32,t_struct(RoleMembers)328_storage)": {
        "encoding": "mapping",
        "key": "t_bytes32",
        "label": "mapping(bytes32 => struct PermissionsEnumerable.RoleMembers)",
        "numberOfBytes": "32",
        "value": "t_struct(RoleMembers)328_storage"
      },
      "t_mapping(t_uint256,t_address)": {
        "encoding": "mapping",
        "key": "t_uint256",
        "label": "mapping(uint256 => address)",
        "numberOfBytes": "32",
        "value": "t_address"
      },
      "t_string_storage": {
        "encoding": "bytes",
        "label": "string",
        "numberOfBytes": "32"
      },
      "t_struct(Counter)2442_storage": {
        "encoding": "inplace",
        "label": "struct Counters.Counter",
        "members": [
          {
            "astId": 2441,
            "contract": "erc20.sol:MyToken",
            "label": "_value",
            "offset": 0,
            "slot": "0",
            "type": "t_uint256"
          }
        ],
        "numberOfBytes": "32"
      },
      "t_struct(RoleMembers)328_storage": {
        "encoding": "inplace",
        "label": "struct PermissionsEnumerable.RoleMembers",
        "members": [
          {
            "astId": 319,
            "contract": "erc20.sol:MyToken",
            "label": "index",
            "offset": 0,
            "slot": "0",
            "type": "t_uint256"
          },
          {
            "astId": 323,
            "contract": "erc20.sol:MyToken",
            "label": "members",
            "offset": 0,
            "slot": "1",
            "type": "t_mapping(t_uint256,t_address)"
          },
          {
            "astId": 327,
            "contract": "erc20.sol:MyToken",
            "label": "indexOf",
            "offset": 0,
            "slot": "2",
            "type": "t_mapping(t_address,t_uint256)"
          }
        ],
        "numberOfBytes": "96"
      },
      "t_uint256": {
        "encoding": "inplace",
        "label": "uint256",
        "numberOfBytes": "32"
      }
    }
  },
  "userdoc": {
    "kind": "user",
    "methods": {
      "burn(uint256)": {
        "notice": "Lets an owner a given amount of their tokens."
      },
      "burnFrom(address,uint256)": {
        "notice": "Lets an owner burn a given amount of an account's tokens."
      },
      "contractURI()": {
        "notice": "Returns the contract metadata URI."
      },
      "getRoleAdmin(bytes32)": {
        "notice": "Returns the admin role that controls the specified role."
      },
      "getRoleMember(bytes32,uint256)": {
        "notice": "Returns the role-member from a list of members for a role,                  at a given index."
      },
      "getRoleMemberCount(bytes32)": {
        "notice": "Returns total number of accounts that have a role."
      },
      "grantRole(bytes32,address)": {
        "notice": "Grants a role to an account, if not previously granted."
      },
      "hasRole(bytes32,address)": {
        "notice": "Checks whether an account has a particular role."
      },
      "hasRoleWithSwitch(bytes32,address)": {
        "notice": "Checks whether an account has a particular role;                  role restrictions can be swtiched on and off."
      },
      "mintTo(address,uint256)": {
        "notice": "Lets an authorized address mint tokens to a recipient."
      },
      "multicall(bytes[])": {
        "notice": "Receives and executes a batch of function calls on this contract."
      },
      "owner()": {
        "notice": "Returns the owner of the contract."
      },
      "renounceRole(bytes32,address)": {
        "notice": "Revokes role from the account."
      },
      "revokeRole(bytes32,address)": {
        "notice": "Revokes role from an account."
      },
      "setContractURI(string)": {
        "notice": "Lets a contract admin set the URI for contract-level metadata."
      },
      "setOwner(address)": {
        "notice": "Lets an authorized wallet set a new owner for the contract."
      }
    },
    "version": 1
  }
}